{"contracts/Messenger.sol":{"Messenger":{"abi":[{"anonymous":false,"inputs":[],"name":"ChatsChanged","type":"event"},{"anonymous":false,"inputs":[],"name":"MessagesChanged","type":"event"},{"anonymous":false,"inputs":[],"name":"UsersChanged","type":"event"},{"anonymous":false,"inputs":[{"indexed":false,"internalType":"address","name":"senderAddress","type":"address"},{"indexed":false,"internalType":"string","name":"senderUsername","type":"string"},{"indexed":false,"internalType":"string","name":"chatName","type":"string"}],"name":"newChatEvent","type":"event"},{"anonymous":false,"inputs":[{"indexed":false,"internalType":"address","name":"senderAddress","type":"address"},{"indexed":false,"internalType":"string","name":"senderUsername","type":"string"},{"indexed":false,"internalType":"string","name":"message","type":"string"}],"name":"newMessageEvent","type":"event"},{"inputs":[{"internalType":"uint256","name":"chatId","type":"uint256"},{"internalType":"uint256[]","name":"newUsersId","type":"uint256[]"}],"name":"addUsersToChat","outputs":[],"stateMutability":"nonpayable","type":"function"},{"inputs":[{"internalType":"uint256","name":"messageId","type":"uint256"},{"internalType":"string","name":"text","type":"string"}],"name":"changeMessage","outputs":[],"stateMutability":"nonpayable","type":"function"},{"inputs":[{"internalType":"string","name":"chatName","type":"string"}],"name":"createChat","outputs":[],"stateMutability":"nonpayable","type":"function"},{"inputs":[{"internalType":"uint256","name":"chatId","type":"uint256"},{"internalType":"string","name":"text","type":"string"}],"name":"createMessage","outputs":[],"stateMutability":"nonpayable","type":"function"},{"inputs":[{"internalType":"string","name":"username","type":"string"}],"name":"createUser","outputs":[],"stateMutability":"nonpayable","type":"function"},{"inputs":[{"internalType":"uint256","name":"messageId","type":"uint256"}],"name":"deleteMessage","outputs":[],"stateMutability":"nonpayable","type":"function"},{"inputs":[],"name":"doesUserExist","outputs":[{"internalType":"bool","name":"","type":"bool"}],"stateMutability":"view","type":"function"},{"inputs":[{"internalType":"uint256","name":"chatId","type":"uint256"}],"name":"getAllMessagesInChat","outputs":[{"components":[{"internalType":"uint256","name":"id","type":"uint256"},{"components":[{"internalType":"uint256","name":"id","type":"uint256"},{"internalType":"uint256[]","name":"chatsId","type":"uint256[]"},{"internalType":"string","name":"username","type":"string"},{"internalType":"address","name":"userAddress","type":"address"}],"internalType":"struct Messenger.User","name":"owner","type":"tuple"},{"internalType":"string","name":"text","type":"string"},{"internalType":"uint256","name":"changedAt","type":"uint256"},{"internalType":"bool","name":"isChanged","type":"bool"}],"internalType":"struct Messenger.Message[]","name":"","type":"tuple[]"}],"stateMutability":"view","type":"function"},{"inputs":[],"name":"getAllUserChats","outputs":[{"components":[{"internalType":"uint256","name":"id","type":"uint256"},{"internalType":"string","name":"chatName","type":"string"},{"internalType":"uint256[]","name":"usersId","type":"uint256[]"},{"internalType":"uint256[]","name":"messagesId","type":"uint256[]"}],"internalType":"struct Messenger.Chat[]","name":"","type":"tuple[]"}],"stateMutability":"view","type":"function"},{"inputs":[],"name":"getAllUsers","outputs":[{"components":[{"internalType":"uint256","name":"id","type":"uint256"},{"internalType":"uint256[]","name":"chatsId","type":"uint256[]"},{"internalType":"string","name":"username","type":"string"},{"internalType":"address","name":"userAddress","type":"address"}],"internalType":"struct Messenger.User[]","name":"","type":"tuple[]"}],"stateMutability":"view","type":"function"},{"inputs":[{"internalType":"uint256","name":"chatId","type":"uint256"}],"name":"getAllUsersInChat","outputs":[{"components":[{"internalType":"uint256","name":"id","type":"uint256"},{"internalType":"uint256[]","name":"chatsId","type":"uint256[]"},{"internalType":"string","name":"username","type":"string"},{"internalType":"address","name":"userAddress","type":"address"}],"internalType":"struct Messenger.User[]","name":"","type":"tuple[]"}],"stateMutability":"view","type":"function"},{"inputs":[{"internalType":"uint256","name":"chatId","type":"uint256"}],"name":"getChat","outputs":[{"components":[{"internalType":"uint256","name":"id","type":"uint256"},{"internalType":"string","name":"chatName","type":"string"},{"internalType":"uint256[]","name":"usersId","type":"uint256[]"},{"internalType":"uint256[]","name":"messagesId","type":"uint256[]"}],"internalType":"struct Messenger.Chat","name":"","type":"tuple"}],"stateMutability":"view","type":"function"},{"inputs":[{"internalType":"uint256","name":"chatId","type":"uint256"}],"name":"leaveChat","outputs":[],"stateMutability":"nonpayable","type":"function"}],"evm":{"bytecode":{"linkReferences":{},"object":"608060405234801561001057600080fd5b506147c6806100206000396000f3fe608060405234801561001057600080fd5b50600436106100cf5760003560e01c80639d9e36d81161008c578063b888690a11610066578063b888690a146101e8578063d5c2e0cd14610204578063e2842d7914610234578063f1f8fe2e14610252576100cf565b80639d9e36d814610192578063a0488c2e146101b0578063a1786d1b146101cc576100cf565b806318cac089146100d457806328f9c1b0146101045780633d749bca14610120578063507ffba51461013e57806352229eaa1461015a5780637edce7b214610176575b600080fd5b6100ee60048036038101906100e991906131d1565b610282565b6040516100fb9190613551565b60405180910390f35b61011e600480360381019061011991906136bb565b61076d565b005b610128610c06565b604051610135919061384a565b60405180910390f35b61015860048036038101906101539190613921565b610ecf565b005b610174600480360381019061016f919061396a565b611134565b005b610190600480360381019061018b91906131d1565b611651565b005b61019a611d7e565b6040516101a791906139d5565b60405180910390f35b6101ca60048036038101906101c59190613921565b611e31565b005b6101e660048036038101906101e1919061396a565b612143565b005b61020260048036038101906101fd91906131d1565b61253b565b005b61021e600480360381019061021991906131d1565b612660565b60405161022b9190613ab2565b60405180910390f35b61023c612a76565b6040516102499190613ab2565b60405180910390f35b61026c600480360381019061026791906131d1565b612c1f565b6040516102799190613b45565b60405180910390f35b6060600061028e612eb7565b905082600680549050116102d7576040517f08c379a00000000000000000000000000000000000000000000000000000000081526004016102ce90613bc4565b60405180910390fd5b610354600684815481106102ee576102ed613be4565b5b906000526020600020906004020160020180548060200260200160405190810160405280929190818152602001828054801561034957602002820191906000526020600020905b815481526020019060010190808311610335575b505050505082612fc4565b610393576040517f08c379a000000000000000000000000000000000000000000000000000000000815260040161038a90613c5f565b60405180910390fd5b6000600684815481106103a9576103a8613be4565b5b90600052602060002090600402016003018054905067ffffffffffffffff8111156103d7576103d6613578565b5b60405190808252806020026020018201604052801561041057816020015b6103fd61301f565b8152602001906001900390816103f55790505b509050600080600090505b6007805490508110156107615760006104cc6006888154811061044157610440613be4565b5b906000526020600020906004020160030180548060200260200160405190810160405280929190818152602001828054801561049c57602002820191906000526020600020905b815481526020019060010190808311610488575b5050505050600784815481106104b5576104b4613be4565b5b906000526020600020906008020160000154612fc4565b9050801561074d57600782815481106104e8576104e7613be4565b5b90600052602060002090600802016040518060a00160405290816000820154815260200160018201604051806080016040529081600082015481526020016001820180548060200260200160405190810160405280929190818152602001828054801561057457602002820191906000526020600020905b815481526020019060010190808311610560575b5050505050815260200160028201805461058d90613cae565b80601f01602080910402602001604051908101604052809291908181526020018280546105b990613cae565b80156106065780601f106105db57610100808354040283529160200191610606565b820191906000526020600020905b8154815290600101906020018083116105e957829003601f168201915b505050505081526020016003820160009054906101000a900473ffffffffffffffffffffffffffffffffffffffff1673ffffffffffffffffffffffffffffffffffffffff1673ffffffffffffffffffffffffffffffffffffffff1681525050815260200160058201805461067990613cae565b80601f01602080910402602001604051908101604052809291908181526020018280546106a590613cae565b80156106f25780601f106106c7576101008083540402835291602001916106f2565b820191906000526020600020905b8154815290600101906020018083116106d557829003601f168201915b50505050508152602001600682015481526020016007820160009054906101000a900460ff16151515158152505084848151811061073357610732613be4565b5b6020026020010181905250828061074990613d0e565b9350505b50808061075990613d0e565b91505061041b565b50819350505050919050565b6000610777612eb7565b9050600083600680549050116107c2576040517f08c379a00000000000000000000000000000000000000000000000000000000081526004016107b990613bc4565b60405180910390fd5b61083f600685815481106107d9576107d8613be4565b5b906000526020600020906004020160020180548060200260200160405190810160405280929190818152602001828054801561083457602002820191906000526020600020905b815481526020019060010190808311610820575b505050505083612fc4565b61087e576040517f08c379a000000000000000000000000000000000000000000000000000000000815260040161087590613dc8565b60405180910390fd5b60005b8351811015610952576000805b6005805490508110156108f957600581815481106108af576108ae613be4565b5b9060005260206000209060040201600001548684815181106108d4576108d3613be4565b5b6020026020010151036108e657600191505b80806108f190613d0e565b91505061088e565b508061093a576040517f08c379a000000000000000000000000000000000000000000000000000000000815260040161093190613e34565b60405180910390fd5b6000905050808061094a90613d0e565b915050610881565b5060005b8351811015610ae45760006109f86006878154811061097857610977613be4565b5b90600052602060002090600402016002018054806020026020016040519081016040528092919081815260200182805480156109d357602002820191906000526020600020905b8154815260200190600101908083116109bf575b50505050508684815181106109eb576109ea613be4565b5b6020026020010151612fc4565b905080610ad05760068681548110610a1357610a12613be4565b5b9060005260206000209060040201600201858381518110610a3757610a36613be4565b5b602002602001015190806001815401808255809150506001900390600052602060002001600090919091909150556005858381518110610a7a57610a79613be4565b5b602002602001015181548110610a9357610a92613be4565b5b9060005260206000209060040201600101869080600181540180825580915050600190039060005260206000200160009091909190915055600192505b508080610adc90613d0e565b915050610956565b5080610b25576040517f08c379a0000000000000000000000000000000000000000000000000000000008152600401610b1c90613ea0565b60405180910390fd5b7fcc5dda9f229ec85a9cba7b77b10f747163021a72585eb11a0105a714c2a302e960405160405180910390a17f27276df2065752ae77c089feff5cdd46e3617227489882edbb634b6df7a57fc260405160405180910390a17f431d3f4ca51f6123efef4c56091d02b1caf4d7d32361eb5367f6a746dc7743c13360058481548110610bb357610bb2613be4565b5b906000526020600020906004020160020160068781548110610bd857610bd7613be4565b5b9060005260206000209060040201600101604051610bf893929190613f68565b60405180910390a150505050565b60606000610c12612eb7565b9050600060058281548110610c2a57610c29613be4565b5b90600052602060002090600402016001018054905067ffffffffffffffff811115610c5857610c57613578565b5b604051908082528060200260200182016040528015610c9157816020015b610c7e613056565b815260200190600190039081610c765790505b509050600080600090505b60058481548110610cb057610caf613be4565b5b906000526020600020906004020160010180549050811015610ec557600660058581548110610ce257610ce1613be4565b5b90600052602060002090600402016001018281548110610d0557610d04613be4565b5b906000526020600020015481548110610d2157610d20613be4565b5b906000526020600020906004020160405180608001604052908160008201548152602001600182018054610d5490613cae565b80601f0160208091040260200160405190810160405280929190818152602001828054610d8090613cae565b8015610dcd5780601f10610da257610100808354040283529160200191610dcd565b820191906000526020600020905b815481529060010190602001808311610db057829003601f168201915b5050505050815260200160028201805480602002602001604051908101604052809291908181526020018280548015610e2557602002820191906000526020600020905b815481526020019060010190808311610e11575b5050505050815260200160038201805480602002602001604051908101604052809291908181526020018280548015610e7d57602002820191906000526020600020905b815481526020019060010190808311610e69575b505050505081525050838381518110610e9957610e98613be4565b5b60200260200101819052508180610eaf90613d0e565b9250508080610ebd90613d0e565b915050610c9c565b5081935050505090565b600081604051610edf9190613fe9565b908152602001604051809103902060009054906101000a900460ff1615610f3b576040517f08c379a0000000000000000000000000000000000000000000000000000000008152600401610f329061404c565b60405180910390fd5b610f43611d7e565b15610f83576040517f08c379a0000000000000000000000000000000000000000000000000000000008152600401610f7a906140b8565b60405180910390fd5b600560405180608001604052806002548152602001600067ffffffffffffffff811115610fb357610fb2613578565b5b604051908082528060200260200182016040528015610fe15781602001602082028036833780820191505090505b5081526020018381526020013373ffffffffffffffffffffffffffffffffffffffff16815250908060018154018082558091505060019003906000526020600020906004020160009091909190915060008201518160000155602082015181600101908051906020019061105692919061307e565b50604082015181600201908161106c919061426f565b5060608201518160030160006101000a81548173ffffffffffffffffffffffffffffffffffffffff021916908373ffffffffffffffffffffffffffffffffffffffff160217905550505060016000826040516110c89190613fe9565b908152602001604051809103902060006101000a81548160ff0219169083151502179055506002600081548092919061110090613d0e565b91905055507fcc5dda9f229ec85a9cba7b77b10f747163021a72585eb11a0105a714c2a302e960405160405180910390a150565b6000815103611178576040517f08c379a000000000000000000000000000000000000000000000000000000000815260040161116f9061438d565b60405180910390fd5b81600680549050116111bf576040517f08c379a00000000000000000000000000000000000000000000000000000000081526004016111b690613bc4565b60405180910390fd5b60006111c9612eb7565b9050611248600684815481106111e2576111e1613be4565b5b906000526020600020906004020160020180548060200260200160405190810160405280929190818152602001828054801561123d57602002820191906000526020600020905b815481526020019060010190808311611229575b505050505082612fc4565b611287576040517f08c379a000000000000000000000000000000000000000000000000000000000815260040161127e9061441f565b60405180910390fd5b60076040518060a001604052806004548152602001600584815481106112b0576112af613be4565b5b9060005260206000209060040201604051806080016040529081600082015481526020016001820180548060200260200160405190810160405280929190818152602001828054801561132257602002820191906000526020600020905b81548152602001906001019080831161130e575b5050505050815260200160028201805461133b90613cae565b80601f016020809104026020016040519081016040528092919081815260200182805461136790613cae565b80156113b45780601f10611389576101008083540402835291602001916113b4565b820191906000526020600020905b81548152906001019060200180831161139757829003601f168201915b505050505081526020016003820160009054906101000a900473ffffffffffffffffffffffffffffffffffffffff1673ffffffffffffffffffffffffffffffffffffffff1673ffffffffffffffffffffffffffffffffffffffff168152505081526020018481526020014281526020016000151581525090806001815401808255809150506001900390600052602060002090600802016000909190919091506000820151816000015560208201518160010160008201518160000155602082015181600101908051906020019061148d92919061307e565b5060408201518160020190816114a3919061426f565b5060608201518160030160006101000a81548173ffffffffffffffffffffffffffffffffffffffff021916908373ffffffffffffffffffffffffffffffffffffffff16021790555050506040820151816005019081611502919061426f565b506060820151816006015560808201518160070160006101000a81548160ff02191690831515021790555050506006838154811061154357611542613be4565b5b906000526020600020906004020160030160045490806001815401808255809150506001900390600052602060002001600090919091909150556004600081548092919061159090613d0e565b91905055507f27276df2065752ae77c089feff5cdd46e3617227489882edbb634b6df7a57fc260405160405180910390a17f2e98287333723b369daeb64a58f5743debe818ede93b5542e039f56bee6a360860405160405180910390a17fbbac1ec35bd0bd086e058de425cf277c90487b50162579172d2455ea278f5680336005838154811061162357611622613be4565b5b90600052602060002090600402016002018460405161164493929190614478565b60405180910390a1505050565b600061165b612eb7565b905081600680549050116116a4576040517f08c379a000000000000000000000000000000000000000000000000000000000815260040161169b90613bc4565b60405180910390fd5b611721600683815481106116bb576116ba613be4565b5b906000526020600020906004020160020180548060200260200160405190810160405280929190818152602001828054801561171657602002820191906000526020600020905b815481526020019060010190808311611702575b505050505082612fc4565b611760576040517f08c379a000000000000000000000000000000000000000000000000000000000815260040161175790613c5f565b60405180910390fd5b60005b6006838154811061177757611776613be4565b5b9060005260206000209060040201600201805490508110156118f55781600684815481106117a8576117a7613be4565b5b906000526020600020906004020160020182815481106117cb576117ca613be4565b5b9060005260206000200154036118e257600683815481106117ef576117ee613be4565b5b906000526020600020906004020160020160016006858154811061181657611815613be4565b5b90600052602060002090600402016002018054905061183591906144bd565b8154811061184657611845613be4565b5b90600052602060002001546006848154811061186557611864613be4565b5b9060005260206000209060040201600201828154811061188857611887613be4565b5b9060005260206000200181905550600683815481106118aa576118a9613be4565b5b90600052602060002090600402016002018054806118cb576118ca6144f1565b5b600190038181906000526020600020016000905590555b80806118ed90613d0e565b915050611763565b5060005b6005828154811061190d5761190c613be4565b5b906000526020600020906004020160010180549050811015611a8b57826005838154811061193e5761193d613be4565b5b9060005260206000209060040201600101828154811061196157611960613be4565b5b906000526020600020015403611a78576005828154811061198557611984613be4565b5b90600052602060002090600402016001016001600584815481106119ac576119ab613be4565b5b9060005260206000209060040201600101805490506119cb91906144bd565b815481106119dc576119db613be4565b5b9060005260206000200154600583815481106119fb576119fa613be4565b5b90600052602060002090600402016001018281548110611a1e57611a1d613be4565b5b906000526020600020018190555060058281548110611a4057611a3f613be4565b5b9060005260206000209060040201600101805480611a6157611a606144f1565b5b600190038181906000526020600020016000905590555b8080611a8390613d0e565b9150506118f9565b50600060068381548110611aa257611aa1613be4565b5b90600052602060002090600402016002018054905003611d225760005b600780549050811015611c3c576000611b7060068581548110611ae557611ae4613be4565b5b9060005260206000209060040201600301805480602002602001604051908101604052809291908181526020018280548015611b4057602002820191906000526020600020905b815481526020019060010190808311611b2c575b505050505060078481548110611b5957611b58613be4565b5b906000526020600020906008020160000154612fc4565b90508015611c285760078281548110611b8c57611b8b613be4565b5b906000526020600020906008020160008082016000905560018201600080820160009055600182016000611bc091906130cb565b600282016000611bd091906130ec565b6003820160006101000a81549073ffffffffffffffffffffffffffffffffffffffff02191690555050600582016000611c0991906130ec565b60068201600090556007820160006101000a81549060ff021916905550505b508080611c3490613d0e565b915050611abf565b506000600160068481548110611c5557611c54613be4565b5b9060005260206000209060040201600101604051611c7391906145a3565b908152602001604051809103902060006101000a81548160ff02191690831515021790555060068281548110611cac57611cab613be4565b5b9060005260206000209060040201600080820160009055600182016000611cd391906130ec565b600282016000611ce391906130cb565b600382016000611cf391906130cb565b50507f2e98287333723b369daeb64a58f5743debe818ede93b5542e039f56bee6a360860405160405180910390a15b7fcc5dda9f229ec85a9cba7b77b10f747163021a72585eb11a0105a714c2a302e960405160405180910390a17f27276df2065752ae77c089feff5cdd46e3617227489882edbb634b6df7a57fc260405160405180910390a15050565b600080600090505b600580549050811015611e28573373ffffffffffffffffffffffffffffffffffffffff1660058281548110611dbe57611dbd613be4565b5b906000526020600020906004020160030160009054906101000a900473ffffffffffffffffffffffffffffffffffffffff1673ffffffffffffffffffffffffffffffffffffffff1603611e15576001915050611e2e565b8080611e2090613d0e565b915050611d86565b50600090505b90565b6000815103611e75576040517f08c379a0000000000000000000000000000000000000000000000000000000008152600401611e6c9061438d565b60405180910390fd5b600181604051611e859190613fe9565b908152602001604051809103902060009054906101000a900460ff1615611ee1576040517f08c379a0000000000000000000000000000000000000000000000000000000008152600401611ed890614606565b60405180910390fd5b6000611eeb612eb7565b9050600660405180608001604052806003548152602001848152602001600067ffffffffffffffff811115611f2357611f22613578565b5b604051908082528060200260200182016040528015611f515781602001602082028036833780820191505090505b508152602001600067ffffffffffffffff811115611f7257611f71613578565b5b604051908082528060200260200182016040528015611fa05781602001602082028036833780820191505090505b508152509080600181540180825580915050600190039060005260206000209060040201600090919091909150600082015181600001556020820151816001019081611fec919061426f565b50604082015181600201908051906020019061200992919061307e565b50606082015181600301908051906020019061202692919061307e565b50505060066003548154811061203f5761203e613be4565b5b90600052602060002090600402016002018190806001815401808255809150506001900390600052602060002001600090919091909150556005818154811061208b5761208a613be4565b5b90600052602060002090600402016001016003549080600181540180825580915050600190039060005260206000200160009091909190915055600180836040516120d69190613fe9565b908152602001604051809103902060006101000a81548160ff0219169083151502179055506003600081548092919061210e90613d0e565b91905055507f27276df2065752ae77c089feff5cdd46e3617227489882edbb634b6df7a57fc260405160405180910390a15050565b600061214d612eb7565b90508260078054905011612196576040517f08c379a000000000000000000000000000000000000000000000000000000000815260040161218d90614672565b60405180910390fd5b600783815481106121aa576121a9613be4565b5b9060005260206000209060080201600101600001548114612200576040517f08c379a00000000000000000000000000000000000000000000000000000000081526004016121f790614704565b60405180910390fd5b6000825103612244576040517f08c379a000000000000000000000000000000000000000000000000000000000815260040161223b9061438d565b60405180910390fd5b6040518060a001604052806007858154811061226357612262613be4565b5b90600052602060002090600802016000015481526020016007858154811061228e5761228d613be4565b5b9060005260206000209060080201600101604051806080016040529081600082015481526020016001820180548060200260200160405190810160405280929190818152602001828054801561230357602002820191906000526020600020905b8154815260200190600101908083116122ef575b5050505050815260200160028201805461231c90613cae565b80601f016020809104026020016040519081016040528092919081815260200182805461234890613cae565b80156123955780601f1061236a57610100808354040283529160200191612395565b820191906000526020600020905b81548152906001019060200180831161237857829003601f168201915b505050505081526020016003820160009054906101000a900473ffffffffffffffffffffffffffffffffffffffff1673ffffffffffffffffffffffffffffffffffffffff1673ffffffffffffffffffffffffffffffffffffffff1681525050815260200183815260200142815260200160011515815250600784815481106124205761241f613be4565b5b90600052602060002090600802016000820151816000015560208201518160010160008201518160000155602082015181600101908051906020019061246792919061307e565b50604082015181600201908161247d919061426f565b5060608201518160030160006101000a81548173ffffffffffffffffffffffffffffffffffffffff021916908373ffffffffffffffffffffffffffffffffffffffff160217905550505060408201518160050190816124dc919061426f565b506060820151816006015560808201518160070160006101000a81548160ff0219169083151502179055509050507f2e98287333723b369daeb64a58f5743debe818ede93b5542e039f56bee6a360860405160405180910390a1505050565b8060078054905011612582576040517f08c379a000000000000000000000000000000000000000000000000000000000815260040161257990614672565b60405180910390fd5b6007818154811061259657612595613be4565b5b9060005260206000209060080201600080820160009055600182016000808201600090556001820160006125ca91906130cb565b6002820160006125da91906130ec565b6003820160006101000a81549073ffffffffffffffffffffffffffffffffffffffff0219169055505060058201600061261391906130ec565b60068201600090556007820160006101000a81549060ff021916905550507f2e98287333723b369daeb64a58f5743debe818ede93b5542e039f56bee6a360860405160405180910390a150565b6060600061266c612eb7565b905082600680549050116126b5576040517f08c379a00000000000000000000000000000000000000000000000000000000081526004016126ac90613bc4565b60405180910390fd5b612732600684815481106126cc576126cb613be4565b5b906000526020600020906004020160020180548060200260200160405190810160405280929190818152602001828054801561272757602002820191906000526020600020905b815481526020019060010190808311612713575b505050505082612fc4565b612771576040517f08c379a000000000000000000000000000000000000000000000000000000000815260040161276890613c5f565b60405180910390fd5b60006006848154811061278757612786613be4565b5b90600052602060002090600402016002018054905067ffffffffffffffff8111156127b5576127b4613578565b5b6040519080825280602002602001820160405280156127ee57816020015b6127db61312c565b8152602001906001900390816127d35790505b509050600080600090505b600580549050811015612a6a5760006128aa6006888154811061281f5761281e613be4565b5b906000526020600020906004020160020180548060200260200160405190810160405280929190818152602001828054801561287a57602002820191906000526020600020905b815481526020019060010190808311612866575b50505050506005848154811061289357612892613be4565b5b906000526020600020906004020160000154612fc4565b90508015612a5657600582815481106128c6576128c5613be4565b5b9060005260206000209060040201604051806080016040529081600082015481526020016001820180548060200260200160405190810160405280929190818152602001828054801561293857602002820191906000526020600020905b815481526020019060010190808311612924575b5050505050815260200160028201805461295190613cae565b80601f016020809104026020016040519081016040528092919081815260200182805461297d90613cae565b80156129ca5780601f1061299f576101008083540402835291602001916129ca565b820191906000526020600020905b8154815290600101906020018083116129ad57829003601f168201915b505050505081526020016003820160009054906101000a900473ffffffffffffffffffffffffffffffffffffffff1673ffffffffffffffffffffffffffffffffffffffff1673ffffffffffffffffffffffffffffffffffffffff1681525050848481518110612a3c57612a3b613be4565b5b60200260200101819052508280612a5290613d0e565b9350505b508080612a6290613d0e565b9150506127f9565b50819350505050919050565b60606005805480602002602001604051908101604052809291908181526020016000905b82821015612c1657838290600052602060002090600402016040518060800160405290816000820154815260200160018201805480602002602001604051908101604052809291908181526020018280548015612b1657602002820191906000526020600020905b815481526020019060010190808311612b02575b50505050508152602001600282018054612b2f90613cae565b80601f0160208091040260200160405190810160405280929190818152602001828054612b5b90613cae565b8015612ba85780601f10612b7d57610100808354040283529160200191612ba8565b820191906000526020600020905b815481529060010190602001808311612b8b57829003601f168201915b505050505081526020016003820160009054906101000a900473ffffffffffffffffffffffffffffffffffffffff1673ffffffffffffffffffffffffffffffffffffffff1673ffffffffffffffffffffffffffffffffffffffff168152505081526020019060010190612a9a565b50505050905090565b612c27613056565b6000612c31612eb7565b90508260068054905011612c7a576040517f08c379a0000000000000000000000000000000000000000000000000000000008152600401612c7190613bc4565b60405180910390fd5b612cf760068481548110612c9157612c90613be4565b5b9060005260206000209060040201600201805480602002602001604051908101604052809291908181526020018280548015612cec57602002820191906000526020600020905b815481526020019060010190808311612cd8575b505050505082612fc4565b612d36576040517f08c379a0000000000000000000000000000000000000000000000000000000008152600401612d2d90613dc8565b60405180910390fd5b60068381548110612d4a57612d49613be4565b5b906000526020600020906004020160405180608001604052908160008201548152602001600182018054612d7d90613cae565b80601f0160208091040260200160405190810160405280929190818152602001828054612da990613cae565b8015612df65780601f10612dcb57610100808354040283529160200191612df6565b820191906000526020600020905b815481529060010190602001808311612dd957829003601f168201915b5050505050815260200160028201805480602002602001604051908101604052809291908181526020018280548015612e4e57602002820191906000526020600020905b815481526020019060010190808311612e3a575b5050505050815260200160038201805480602002602001604051908101604052809291908181526020018280548015612ea657602002820191906000526020600020905b815481526020019060010190808311612e92575b505050505081525050915050919050565b600080600090505b600580549050811015612f85573373ffffffffffffffffffffffffffffffffffffffff1660058281548110612ef757612ef6613be4565b5b906000526020600020906004020160030160009054906101000a900473ffffffffffffffffffffffffffffffffffffffff1673ffffffffffffffffffffffffffffffffffffffff1603612f725760058181548110612f5857612f57613be4565b5b906000526020600020906004020160000154915050612fc1565b8080612f7d90613d0e565b915050612ebf565b506040517f08c379a0000000000000000000000000000000000000000000000000000000008152600401612fb890614770565b60405180910390fd5b90565b600080600090505b83518110156130135782848281518110612fe957612fe8613be4565b5b602002602001015103613000576001915050613019565b808061300b90613d0e565b915050612fcc565b50600090505b92915050565b6040518060a001604052806000815260200161303961312c565b815260200160608152602001600081526020016000151581525090565b6040518060800160405280600081526020016060815260200160608152602001606081525090565b8280548282559060005260206000209081019282156130ba579160200282015b828111156130b957825182559160200191906001019061309e565b5b5090506130c7919061316a565b5090565b50805460008255906000526020600020908101906130e9919061316a565b50565b5080546130f890613cae565b6000825580601f1061310a5750613129565b601f016020900490600052602060002090810190613128919061316a565b5b50565b6040518060800160405280600081526020016060815260200160608152602001600073ffffffffffffffffffffffffffffffffffffffff1681525090565b5b8082111561318357600081600090555060010161316b565b5090565b6000604051905090565b600080fd5b600080fd5b6000819050919050565b6131ae8161319b565b81146131b957600080fd5b50565b6000813590506131cb816131a5565b92915050565b6000602082840312156131e7576131e6613191565b5b60006131f5848285016131bc565b91505092915050565b600081519050919050565b600082825260208201905092915050565b6000819050602082019050919050565b6132338161319b565b82525050565b600081519050919050565b600082825260208201905092915050565b6000819050602082019050919050565b6000613271838361322a565b60208301905092915050565b6000602082019050919050565b600061329582613239565b61329f8185613244565b93506132aa83613255565b8060005b838110156132db5781516132c28882613265565b97506132cd8361327d565b9250506001810190506132ae565b5085935050505092915050565b600081519050919050565b600082825260208201905092915050565b60005b83811015613322578082015181840152602081019050613307565b60008484015250505050565b6000601f19601f8301169050919050565b600061334a826132e8565b61335481856132f3565b9350613364818560208601613304565b61336d8161332e565b840191505092915050565b600073ffffffffffffffffffffffffffffffffffffffff82169050919050565b60006133a382613378565b9050919050565b6133b381613398565b82525050565b60006080830160008301516133d1600086018261322a565b50602083015184820360208601526133e9828261328a565b91505060408301518482036040860152613403828261333f565b915050606083015161341860608601826133aa565b508091505092915050565b60008115159050919050565b61343881613423565b82525050565b600060a083016000830151613456600086018261322a565b506020830151848203602086015261346e82826133b9565b91505060408301518482036040860152613488828261333f565b915050606083015161349d606086018261322a565b5060808301516134b0608086018261342f565b508091505092915050565b60006134c7838361343e565b905092915050565b6000602082019050919050565b60006134e7826131fe565b6134f18185613209565b9350836020820285016135038561321a565b8060005b8581101561353f578484038952815161352085826134bb565b945061352b836134cf565b925060208a01995050600181019050613507565b50829750879550505050505092915050565b6000602082019050818103600083015261356b81846134dc565b905092915050565b600080fd5b7f4e487b7100000000000000000000000000000000000000000000000000000000600052604160045260246000fd5b6135b08261332e565b810181811067ffffffffffffffff821117156135cf576135ce613578565b5b80604052505050565b60006135e2613187565b90506135ee82826135a7565b919050565b600067ffffffffffffffff82111561360e5761360d613578565b5b602082029050602081019050919050565b600080fd5b6000613637613632846135f3565b6135d8565b9050808382526020820190506020840283018581111561365a5761365961361f565b5b835b81811015613683578061366f88826131bc565b84526020840193505060208101905061365c565b5050509392505050565b600082601f8301126136a2576136a1613573565b5b81356136b2848260208601613624565b91505092915050565b600080604083850312156136d2576136d1613191565b5b60006136e0858286016131bc565b925050602083013567ffffffffffffffff81111561370157613700613196565b5b61370d8582860161368d565b9150509250929050565b600081519050919050565b600082825260208201905092915050565b6000819050602082019050919050565b600060808301600083015161375b600086018261322a565b5060208301518482036020860152613773828261333f565b9150506040830151848203604086015261378d828261328a565b915050606083015184820360608601526137a7828261328a565b9150508091505092915050565b60006137c08383613743565b905092915050565b6000602082019050919050565b60006137e082613717565b6137ea8185613722565b9350836020820285016137fc85613733565b8060005b85811015613838578484038952815161381985826137b4565b9450613824836137c8565b925060208a01995050600181019050613800565b50829750879550505050505092915050565b6000602082019050818103600083015261386481846137d5565b905092915050565b600080fd5b600067ffffffffffffffff82111561388c5761388b613578565b5b6138958261332e565b9050602081019050919050565b82818337600083830152505050565b60006138c46138bf84613871565b6135d8565b9050828152602081018484840111156138e0576138df61386c565b5b6138eb8482856138a2565b509392505050565b600082601f83011261390857613907613573565b5b81356139188482602086016138b1565b91505092915050565b60006020828403121561393757613936613191565b5b600082013567ffffffffffffffff81111561395557613954613196565b5b613961848285016138f3565b91505092915050565b6000806040838503121561398157613980613191565b5b600061398f858286016131bc565b925050602083013567ffffffffffffffff8111156139b0576139af613196565b5b6139bc858286016138f3565b9150509250929050565b6139cf81613423565b82525050565b60006020820190506139ea60008301846139c6565b92915050565b600081519050919050565b600082825260208201905092915050565b6000819050602082019050919050565b6000613a2883836133b9565b905092915050565b6000602082019050919050565b6000613a48826139f0565b613a5281856139fb565b935083602082028501613a6485613a0c565b8060005b85811015613aa05784840389528151613a818582613a1c565b9450613a8c83613a30565b925060208a01995050600181019050613a68565b50829750879550505050505092915050565b60006020820190508181036000830152613acc8184613a3d565b905092915050565b6000608083016000830151613aec600086018261322a565b5060208301518482036020860152613b04828261333f565b91505060408301518482036040860152613b1e828261328a565b91505060608301518482036060860152613b38828261328a565b9150508091505092915050565b60006020820190508181036000830152613b5f8184613ad4565b905092915050565b600082825260208201905092915050565b7f4368617420646f6573206e6f7420657869737421000000000000000000000000600082015250565b6000613bae601483613b67565b9150613bb982613b78565b602082019050919050565b60006020820190508181036000830152613bdd81613ba1565b9050919050565b7f4e487b7100000000000000000000000000000000000000000000000000000000600052603260045260246000fd5b7f53656e646572206d757374206265206d75737420626520696e20636861742100600082015250565b6000613c49601f83613b67565b9150613c5482613c13565b602082019050919050565b60006020820190508181036000830152613c7881613c3c565b9050919050565b7f4e487b7100000000000000000000000000000000000000000000000000000000600052602260045260246000fd5b60006002820490506001821680613cc657607f821691505b602082108103613cd957613cd8613c7f565b5b50919050565b7f4e487b7100000000000000000000000000000000000000000000000000000000600052601160045260246000fd5b6000613d198261319b565b91507fffffffffffffffffffffffffffffffffffffffffffffffffffffffffffffffff8203613d4b57613d4a613cdf565b5b600182019050919050565b7f53656e646572206d757374206265206d75737420626520696e20636861742c2060008201527f6f722063686174207761732064656c6574656421000000000000000000000000602082015250565b6000613db2603483613b67565b9150613dbd82613d56565b604082019050919050565b60006020820190508181036000830152613de181613da5565b9050919050565b7f55736572206964206973206e6f7420666f756e64210000000000000000000000600082015250565b6000613e1e601583613b67565b9150613e2982613de8565b602082019050919050565b60006020820190508181036000830152613e4d81613e11565b9050919050565b7f416c6c2075736572732061726520616c726561647920696e2063686174210000600082015250565b6000613e8a601e83613b67565b9150613e9582613e54565b602082019050919050565b60006020820190508181036000830152613eb981613e7d565b9050919050565b613ec981613398565b82525050565b60008190508160005260206000209050919050565b60008154613ef181613cae565b613efb8186613b67565b94506001821660008114613f165760018114613f2c57613f5f565b60ff198316865281151560200286019350613f5f565b613f3585613ecf565b60005b83811015613f5757815481890152600182019150602081019050613f38565b808801955050505b50505092915050565b6000606082019050613f7d6000830186613ec0565b8181036020830152613f8f8185613ee4565b90508181036040830152613fa38184613ee4565b9050949350505050565b600081905092915050565b6000613fc3826132e8565b613fcd8185613fad565b9350613fdd818560208601613304565b80840191505092915050565b6000613ff58284613fb8565b915081905092915050565b7f5468697320757365726e616d6520697320616c72656164792074616b656e0000600082015250565b6000614036601e83613b67565b915061404182614000565b602082019050919050565b6000602082019050818103600083015261406581614029565b9050919050565b7f5573657220616c72656164792065786973747321000000000000000000000000600082015250565b60006140a2601483613b67565b91506140ad8261406c565b602082019050919050565b600060208201905081810360008301526140d181614095565b9050919050565b60006020601f8301049050919050565b600082821b905092915050565b6000600883026141257fffffffffffffffffffffffffffffffffffffffffffffffffffffffffffffffff826140e8565b61412f86836140e8565b95508019841693508086168417925050509392505050565b6000819050919050565b600061416c6141676141628461319b565b614147565b61319b565b9050919050565b6000819050919050565b61418683614151565b61419a61419282614173565b8484546140f5565b825550505050565b600090565b6141af6141a2565b6141ba81848461417d565b505050565b5b818110156141de576141d36000826141a7565b6001810190506141c0565b5050565b601f821115614223576141f481613ecf565b6141fd846140d8565b8101602085101561420c578190505b614220614218856140d8565b8301826141bf565b50505b505050565b600082821c905092915050565b600061424660001984600802614228565b1980831691505092915050565b600061425f8383614235565b9150826002028217905092915050565b614278826132e8565b67ffffffffffffffff81111561429157614290613578565b5b61429b8254613cae565b6142a68282856141e2565b600060209050601f8311600181146142d957600084156142c7578287015190505b6142d18582614253565b865550614339565b601f1984166142e786613ecf565b60005b8281101561430f578489015182556001820191506020850194506020810190506142ea565b8683101561432c5784890151614328601f891682614235565b8355505b6001600288020188555050505b505050505050565b7f546578742073686f756c64206578697374210000000000000000000000000000600082015250565b6000614377601283613b67565b915061438282614341565b602082019050919050565b600060208201905081810360008301526143a68161436a565b9050919050565b7f53656e646572206d757374206265206d75737420626520696e2063686174206f60008201527f722063686174207761732064656c657465642100000000000000000000000000602082015250565b6000614409603383613b67565b9150614414826143ad565b604082019050919050565b60006020820190508181036000830152614438816143fc565b9050919050565b600061444a826132e8565b6144548185613b67565b9350614464818560208601613304565b61446d8161332e565b840191505092915050565b600060608201905061448d6000830186613ec0565b818103602083015261449f8185613ee4565b905081810360408301526144b3818461443f565b9050949350505050565b60006144c88261319b565b91506144d38361319b565b92508282039050818111156144eb576144ea613cdf565b5b92915050565b7f4e487b7100000000000000000000000000000000000000000000000000000000600052603160045260246000fd5b6000815461452d81613cae565b6145378186613fad565b9450600182166000811461455257600181146145675761459a565b60ff198316865281151582028601935061459a565b61457085613ecf565b60005b8381101561459257815481890152600182019150602081019050614573565b838801955050505b50505092915050565b60006145af8284614520565b915081905092915050565b7f546869732063686174206e616d6520697320616c72656164792074616b656e00600082015250565b60006145f0601f83613b67565b91506145fb826145ba565b602082019050919050565b6000602082019050818103600083015261461f816145e3565b9050919050565b7f4d65737361676520646f6573206e6f7420657869737421000000000000000000600082015250565b600061465c601783613b67565b915061466782614626565b602082019050919050565b6000602082019050818103600083015261468b8161464f565b9050919050565b7f53656e646572206d757374206265206f776e6572206f6620746865206d65737360008201527f616765206f7220746865206d657373616765207761732064656c657465642100602082015250565b60006146ee603f83613b67565b91506146f982614692565b604082019050919050565b6000602082019050818103600083015261471d816146e1565b9050919050565b7f55736572206e6f7420666f756e64210000000000000000000000000000000000600082015250565b600061475a600f83613b67565b915061476582614724565b602082019050919050565b600060208201905081810360008301526147898161474d565b905091905056fea2646970667358221220bd1cddc619cab0ca3d6a5132aabcb7bbcf4fa1772217ff57646c9fb93b5f20f864736f6c63430008110033","opcodes":"PUSH1 0x80 PUSH1 0x40 MSTORE CALLVALUE DUP1 ISZERO PUSH2 0x10 JUMPI PUSH1 0x0 DUP1 REVERT JUMPDEST POP PUSH2 0x47C6 DUP1 PUSH2 0x20 PUSH1 0x0 CODECOPY PUSH1 0x0 RETURN INVALID PUSH1 0x80 PUSH1 0x40 MSTORE CALLVALUE DUP1 ISZERO PUSH2 0x10 JUMPI PUSH1 0x0 DUP1 REVERT JUMPDEST POP PUSH1 0x4 CALLDATASIZE LT PUSH2 0xCF JUMPI PUSH1 0x0 CALLDATALOAD PUSH1 0xE0 SHR DUP1 PUSH4 0x9D9E36D8 GT PUSH2 0x8C JUMPI DUP1 PUSH4 0xB888690A GT PUSH2 0x66 JUMPI DUP1 PUSH4 0xB888690A EQ PUSH2 0x1E8 JUMPI DUP1 PUSH4 0xD5C2E0CD EQ PUSH2 0x204 JUMPI DUP1 PUSH4 0xE2842D79 EQ PUSH2 0x234 JUMPI DUP1 PUSH4 0xF1F8FE2E EQ PUSH2 0x252 JUMPI PUSH2 0xCF JUMP JUMPDEST DUP1 PUSH4 0x9D9E36D8 EQ PUSH2 0x192 JUMPI DUP1 PUSH4 0xA0488C2E EQ PUSH2 0x1B0 JUMPI DUP1 PUSH4 0xA1786D1B EQ PUSH2 0x1CC JUMPI PUSH2 0xCF JUMP JUMPDEST DUP1 PUSH4 0x18CAC089 EQ PUSH2 0xD4 JUMPI DUP1 PUSH4 0x28F9C1B0 EQ PUSH2 0x104 JUMPI DUP1 PUSH4 0x3D749BCA EQ PUSH2 0x120 JUMPI DUP1 PUSH4 0x507FFBA5 EQ PUSH2 0x13E JUMPI DUP1 PUSH4 0x52229EAA EQ PUSH2 0x15A JUMPI DUP1 PUSH4 0x7EDCE7B2 EQ PUSH2 0x176 JUMPI JUMPDEST PUSH1 0x0 DUP1 REVERT JUMPDEST PUSH2 0xEE PUSH1 0x4 DUP1 CALLDATASIZE SUB DUP2 ADD SWAP1 PUSH2 0xE9 SWAP2 SWAP1 PUSH2 0x31D1 JUMP JUMPDEST PUSH2 0x282 JUMP JUMPDEST PUSH1 0x40 MLOAD PUSH2 0xFB SWAP2 SWAP1 PUSH2 0x3551 JUMP JUMPDEST PUSH1 0x40 MLOAD DUP1 SWAP2 SUB SWAP1 RETURN JUMPDEST PUSH2 0x11E PUSH1 0x4 DUP1 CALLDATASIZE SUB DUP2 ADD SWAP1 PUSH2 0x119 SWAP2 SWAP1 PUSH2 0x36BB JUMP JUMPDEST PUSH2 0x76D JUMP JUMPDEST STOP JUMPDEST PUSH2 0x128 PUSH2 0xC06 JUMP JUMPDEST PUSH1 0x40 MLOAD PUSH2 0x135 SWAP2 SWAP1 PUSH2 0x384A JUMP JUMPDEST PUSH1 0x40 MLOAD DUP1 SWAP2 SUB SWAP1 RETURN JUMPDEST PUSH2 0x158 PUSH1 0x4 DUP1 CALLDATASIZE SUB DUP2 ADD SWAP1 PUSH2 0x153 SWAP2 SWAP1 PUSH2 0x3921 JUMP JUMPDEST PUSH2 0xECF JUMP JUMPDEST STOP JUMPDEST PUSH2 0x174 PUSH1 0x4 DUP1 CALLDATASIZE SUB DUP2 ADD SWAP1 PUSH2 0x16F SWAP2 SWAP1 PUSH2 0x396A JUMP JUMPDEST PUSH2 0x1134 JUMP JUMPDEST STOP JUMPDEST PUSH2 0x190 PUSH1 0x4 DUP1 CALLDATASIZE SUB DUP2 ADD SWAP1 PUSH2 0x18B SWAP2 SWAP1 PUSH2 0x31D1 JUMP JUMPDEST PUSH2 0x1651 JUMP JUMPDEST STOP JUMPDEST PUSH2 0x19A PUSH2 0x1D7E JUMP JUMPDEST PUSH1 0x40 MLOAD PUSH2 0x1A7 SWAP2 SWAP1 PUSH2 0x39D5 JUMP JUMPDEST PUSH1 0x40 MLOAD DUP1 SWAP2 SUB SWAP1 RETURN JUMPDEST PUSH2 0x1CA PUSH1 0x4 DUP1 CALLDATASIZE SUB DUP2 ADD SWAP1 PUSH2 0x1C5 SWAP2 SWAP1 PUSH2 0x3921 JUMP JUMPDEST PUSH2 0x1E31 JUMP JUMPDEST STOP JUMPDEST PUSH2 0x1E6 PUSH1 0x4 DUP1 CALLDATASIZE SUB DUP2 ADD SWAP1 PUSH2 0x1E1 SWAP2 SWAP1 PUSH2 0x396A JUMP JUMPDEST PUSH2 0x2143 JUMP JUMPDEST STOP JUMPDEST PUSH2 0x202 PUSH1 0x4 DUP1 CALLDATASIZE SUB DUP2 ADD SWAP1 PUSH2 0x1FD SWAP2 SWAP1 PUSH2 0x31D1 JUMP JUMPDEST PUSH2 0x253B JUMP JUMPDEST STOP JUMPDEST PUSH2 0x21E PUSH1 0x4 DUP1 CALLDATASIZE SUB DUP2 ADD SWAP1 PUSH2 0x219 SWAP2 SWAP1 PUSH2 0x31D1 JUMP JUMPDEST PUSH2 0x2660 JUMP JUMPDEST PUSH1 0x40 MLOAD PUSH2 0x22B SWAP2 SWAP1 PUSH2 0x3AB2 JUMP JUMPDEST PUSH1 0x40 MLOAD DUP1 SWAP2 SUB SWAP1 RETURN JUMPDEST PUSH2 0x23C PUSH2 0x2A76 JUMP JUMPDEST PUSH1 0x40 MLOAD PUSH2 0x249 SWAP2 SWAP1 PUSH2 0x3AB2 JUMP JUMPDEST PUSH1 0x40 MLOAD DUP1 SWAP2 SUB SWAP1 RETURN JUMPDEST PUSH2 0x26C PUSH1 0x4 DUP1 CALLDATASIZE SUB DUP2 ADD SWAP1 PUSH2 0x267 SWAP2 SWAP1 PUSH2 0x31D1 JUMP JUMPDEST PUSH2 0x2C1F JUMP JUMPDEST PUSH1 0x40 MLOAD PUSH2 0x279 SWAP2 SWAP1 PUSH2 0x3B45 JUMP JUMPDEST PUSH1 0x40 MLOAD DUP1 SWAP2 SUB SWAP1 RETURN JUMPDEST PUSH1 0x60 PUSH1 0x0 PUSH2 0x28E PUSH2 0x2EB7 JUMP JUMPDEST SWAP1 POP DUP3 PUSH1 0x6 DUP1 SLOAD SWAP1 POP GT PUSH2 0x2D7 JUMPI PUSH1 0x40 MLOAD PUSH32 0x8C379A000000000000000000000000000000000000000000000000000000000 DUP2 MSTORE PUSH1 0x4 ADD PUSH2 0x2CE SWAP1 PUSH2 0x3BC4 JUMP JUMPDEST PUSH1 0x40 MLOAD DUP1 SWAP2 SUB SWAP1 REVERT JUMPDEST PUSH2 0x354 PUSH1 0x6 DUP5 DUP2 SLOAD DUP2 LT PUSH2 0x2EE JUMPI PUSH2 0x2ED PUSH2 0x3BE4 JUMP JUMPDEST JUMPDEST SWAP1 PUSH1 0x0 MSTORE PUSH1 0x20 PUSH1 0x0 KECCAK256 SWAP1 PUSH1 0x4 MUL ADD PUSH1 0x2 ADD DUP1 SLOAD DUP1 PUSH1 0x20 MUL PUSH1 0x20 ADD PUSH1 0x40 MLOAD SWAP1 DUP2 ADD PUSH1 0x40 MSTORE DUP1 SWAP3 SWAP2 SWAP1 DUP2 DUP2 MSTORE PUSH1 0x20 ADD DUP3 DUP1 SLOAD DUP1 ISZERO PUSH2 0x349 JUMPI PUSH1 0x20 MUL DUP3 ADD SWAP2 SWAP1 PUSH1 0x0 MSTORE PUSH1 0x20 PUSH1 0x0 KECCAK256 SWAP1 JUMPDEST DUP2 SLOAD DUP2 MSTORE PUSH1 0x20 ADD SWAP1 PUSH1 0x1 ADD SWAP1 DUP1 DUP4 GT PUSH2 0x335 JUMPI JUMPDEST POP POP POP POP POP DUP3 PUSH2 0x2FC4 JUMP JUMPDEST PUSH2 0x393 JUMPI PUSH1 0x40 MLOAD PUSH32 0x8C379A000000000000000000000000000000000000000000000000000000000 DUP2 MSTORE PUSH1 0x4 ADD PUSH2 0x38A SWAP1 PUSH2 0x3C5F JUMP JUMPDEST PUSH1 0x40 MLOAD DUP1 SWAP2 SUB SWAP1 REVERT JUMPDEST PUSH1 0x0 PUSH1 0x6 DUP5 DUP2 SLOAD DUP2 LT PUSH2 0x3A9 JUMPI PUSH2 0x3A8 PUSH2 0x3BE4 JUMP JUMPDEST JUMPDEST SWAP1 PUSH1 0x0 MSTORE PUSH1 0x20 PUSH1 0x0 KECCAK256 SWAP1 PUSH1 0x4 MUL ADD PUSH1 0x3 ADD DUP1 SLOAD SWAP1 POP PUSH8 0xFFFFFFFFFFFFFFFF DUP2 GT ISZERO PUSH2 0x3D7 JUMPI PUSH2 0x3D6 PUSH2 0x3578 JUMP JUMPDEST JUMPDEST PUSH1 0x40 MLOAD SWAP1 DUP1 DUP3 MSTORE DUP1 PUSH1 0x20 MUL PUSH1 0x20 ADD DUP3 ADD PUSH1 0x40 MSTORE DUP1 ISZERO PUSH2 0x410 JUMPI DUP2 PUSH1 0x20 ADD JUMPDEST PUSH2 0x3FD PUSH2 0x301F JUMP JUMPDEST DUP2 MSTORE PUSH1 0x20 ADD SWAP1 PUSH1 0x1 SWAP1 SUB SWAP1 DUP2 PUSH2 0x3F5 JUMPI SWAP1 POP JUMPDEST POP SWAP1 POP PUSH1 0x0 DUP1 PUSH1 0x0 SWAP1 POP JUMPDEST PUSH1 0x7 DUP1 SLOAD SWAP1 POP DUP2 LT ISZERO PUSH2 0x761 JUMPI PUSH1 0x0 PUSH2 0x4CC PUSH1 0x6 DUP9 DUP2 SLOAD DUP2 LT PUSH2 0x441 JUMPI PUSH2 0x440 PUSH2 0x3BE4 JUMP JUMPDEST JUMPDEST SWAP1 PUSH1 0x0 MSTORE PUSH1 0x20 PUSH1 0x0 KECCAK256 SWAP1 PUSH1 0x4 MUL ADD PUSH1 0x3 ADD DUP1 SLOAD DUP1 PUSH1 0x20 MUL PUSH1 0x20 ADD PUSH1 0x40 MLOAD SWAP1 DUP2 ADD PUSH1 0x40 MSTORE DUP1 SWAP3 SWAP2 SWAP1 DUP2 DUP2 MSTORE PUSH1 0x20 ADD DUP3 DUP1 SLOAD DUP1 ISZERO PUSH2 0x49C JUMPI PUSH1 0x20 MUL DUP3 ADD SWAP2 SWAP1 PUSH1 0x0 MSTORE PUSH1 0x20 PUSH1 0x0 KECCAK256 SWAP1 JUMPDEST DUP2 SLOAD DUP2 MSTORE PUSH1 0x20 ADD SWAP1 PUSH1 0x1 ADD SWAP1 DUP1 DUP4 GT PUSH2 0x488 JUMPI JUMPDEST POP POP POP POP POP PUSH1 0x7 DUP5 DUP2 SLOAD DUP2 LT PUSH2 0x4B5 JUMPI PUSH2 0x4B4 PUSH2 0x3BE4 JUMP JUMPDEST JUMPDEST SWAP1 PUSH1 0x0 MSTORE PUSH1 0x20 PUSH1 0x0 KECCAK256 SWAP1 PUSH1 0x8 MUL ADD PUSH1 0x0 ADD SLOAD PUSH2 0x2FC4 JUMP JUMPDEST SWAP1 POP DUP1 ISZERO PUSH2 0x74D JUMPI PUSH1 0x7 DUP3 DUP2 SLOAD DUP2 LT PUSH2 0x4E8 JUMPI PUSH2 0x4E7 PUSH2 0x3BE4 JUMP JUMPDEST JUMPDEST SWAP1 PUSH1 0x0 MSTORE PUSH1 0x20 PUSH1 0x0 KECCAK256 SWAP1 PUSH1 0x8 MUL ADD PUSH1 0x40 MLOAD DUP1 PUSH1 0xA0 ADD PUSH1 0x40 MSTORE SWAP1 DUP2 PUSH1 0x0 DUP3 ADD SLOAD DUP2 MSTORE PUSH1 0x20 ADD PUSH1 0x1 DUP3 ADD PUSH1 0x40 MLOAD DUP1 PUSH1 0x80 ADD PUSH1 0x40 MSTORE SWAP1 DUP2 PUSH1 0x0 DUP3 ADD SLOAD DUP2 MSTORE PUSH1 0x20 ADD PUSH1 0x1 DUP3 ADD DUP1 SLOAD DUP1 PUSH1 0x20 MUL PUSH1 0x20 ADD PUSH1 0x40 MLOAD SWAP1 DUP2 ADD PUSH1 0x40 MSTORE DUP1 SWAP3 SWAP2 SWAP1 DUP2 DUP2 MSTORE PUSH1 0x20 ADD DUP3 DUP1 SLOAD DUP1 ISZERO PUSH2 0x574 JUMPI PUSH1 0x20 MUL DUP3 ADD SWAP2 SWAP1 PUSH1 0x0 MSTORE PUSH1 0x20 PUSH1 0x0 KECCAK256 SWAP1 JUMPDEST DUP2 SLOAD DUP2 MSTORE PUSH1 0x20 ADD SWAP1 PUSH1 0x1 ADD SWAP1 DUP1 DUP4 GT PUSH2 0x560 JUMPI JUMPDEST POP POP POP POP POP DUP2 MSTORE PUSH1 0x20 ADD PUSH1 0x2 DUP3 ADD DUP1 SLOAD PUSH2 0x58D SWAP1 PUSH2 0x3CAE JUMP JUMPDEST DUP1 PUSH1 0x1F ADD PUSH1 0x20 DUP1 SWAP2 DIV MUL PUSH1 0x20 ADD PUSH1 0x40 MLOAD SWAP1 DUP2 ADD PUSH1 0x40 MSTORE DUP1 SWAP3 SWAP2 SWAP1 DUP2 DUP2 MSTORE PUSH1 0x20 ADD DUP3 DUP1 SLOAD PUSH2 0x5B9 SWAP1 PUSH2 0x3CAE JUMP JUMPDEST DUP1 ISZERO PUSH2 0x606 JUMPI DUP1 PUSH1 0x1F LT PUSH2 0x5DB JUMPI PUSH2 0x100 DUP1 DUP4 SLOAD DIV MUL DUP4 MSTORE SWAP2 PUSH1 0x20 ADD SWAP2 PUSH2 0x606 JUMP JUMPDEST DUP3 ADD SWAP2 SWAP1 PUSH1 0x0 MSTORE PUSH1 0x20 PUSH1 0x0 KECCAK256 SWAP1 JUMPDEST DUP2 SLOAD DUP2 MSTORE SWAP1 PUSH1 0x1 ADD SWAP1 PUSH1 0x20 ADD DUP1 DUP4 GT PUSH2 0x5E9 JUMPI DUP3 SWAP1 SUB PUSH1 0x1F AND DUP3 ADD SWAP2 JUMPDEST POP POP POP POP POP DUP2 MSTORE PUSH1 0x20 ADD PUSH1 0x3 DUP3 ADD PUSH1 0x0 SWAP1 SLOAD SWAP1 PUSH2 0x100 EXP SWAP1 DIV PUSH20 0xFFFFFFFFFFFFFFFFFFFFFFFFFFFFFFFFFFFFFFFF AND PUSH20 0xFFFFFFFFFFFFFFFFFFFFFFFFFFFFFFFFFFFFFFFF AND PUSH20 0xFFFFFFFFFFFFFFFFFFFFFFFFFFFFFFFFFFFFFFFF AND DUP2 MSTORE POP POP DUP2 MSTORE PUSH1 0x20 ADD PUSH1 0x5 DUP3 ADD DUP1 SLOAD PUSH2 0x679 SWAP1 PUSH2 0x3CAE JUMP JUMPDEST DUP1 PUSH1 0x1F ADD PUSH1 0x20 DUP1 SWAP2 DIV MUL PUSH1 0x20 ADD PUSH1 0x40 MLOAD SWAP1 DUP2 ADD PUSH1 0x40 MSTORE DUP1 SWAP3 SWAP2 SWAP1 DUP2 DUP2 MSTORE PUSH1 0x20 ADD DUP3 DUP1 SLOAD PUSH2 0x6A5 SWAP1 PUSH2 0x3CAE JUMP JUMPDEST DUP1 ISZERO PUSH2 0x6F2 JUMPI DUP1 PUSH1 0x1F LT PUSH2 0x6C7 JUMPI PUSH2 0x100 DUP1 DUP4 SLOAD DIV MUL DUP4 MSTORE SWAP2 PUSH1 0x20 ADD SWAP2 PUSH2 0x6F2 JUMP JUMPDEST DUP3 ADD SWAP2 SWAP1 PUSH1 0x0 MSTORE PUSH1 0x20 PUSH1 0x0 KECCAK256 SWAP1 JUMPDEST DUP2 SLOAD DUP2 MSTORE SWAP1 PUSH1 0x1 ADD SWAP1 PUSH1 0x20 ADD DUP1 DUP4 GT PUSH2 0x6D5 JUMPI DUP3 SWAP1 SUB PUSH1 0x1F AND DUP3 ADD SWAP2 JUMPDEST POP POP POP POP POP DUP2 MSTORE PUSH1 0x20 ADD PUSH1 0x6 DUP3 ADD SLOAD DUP2 MSTORE PUSH1 0x20 ADD PUSH1 0x7 DUP3 ADD PUSH1 0x0 SWAP1 SLOAD SWAP1 PUSH2 0x100 EXP SWAP1 DIV PUSH1 0xFF AND ISZERO ISZERO ISZERO ISZERO DUP2 MSTORE POP POP DUP5 DUP5 DUP2 MLOAD DUP2 LT PUSH2 0x733 JUMPI PUSH2 0x732 PUSH2 0x3BE4 JUMP JUMPDEST JUMPDEST PUSH1 0x20 MUL PUSH1 0x20 ADD ADD DUP2 SWAP1 MSTORE POP DUP3 DUP1 PUSH2 0x749 SWAP1 PUSH2 0x3D0E JUMP JUMPDEST SWAP4 POP POP JUMPDEST POP DUP1 DUP1 PUSH2 0x759 SWAP1 PUSH2 0x3D0E JUMP JUMPDEST SWAP2 POP POP PUSH2 0x41B JUMP JUMPDEST POP DUP2 SWAP4 POP POP POP POP SWAP2 SWAP1 POP JUMP JUMPDEST PUSH1 0x0 PUSH2 0x777 PUSH2 0x2EB7 JUMP JUMPDEST SWAP1 POP PUSH1 0x0 DUP4 PUSH1 0x6 DUP1 SLOAD SWAP1 POP GT PUSH2 0x7C2 JUMPI PUSH1 0x40 MLOAD PUSH32 0x8C379A000000000000000000000000000000000000000000000000000000000 DUP2 MSTORE PUSH1 0x4 ADD PUSH2 0x7B9 SWAP1 PUSH2 0x3BC4 JUMP JUMPDEST PUSH1 0x40 MLOAD DUP1 SWAP2 SUB SWAP1 REVERT JUMPDEST PUSH2 0x83F PUSH1 0x6 DUP6 DUP2 SLOAD DUP2 LT PUSH2 0x7D9 JUMPI PUSH2 0x7D8 PUSH2 0x3BE4 JUMP JUMPDEST JUMPDEST SWAP1 PUSH1 0x0 MSTORE PUSH1 0x20 PUSH1 0x0 KECCAK256 SWAP1 PUSH1 0x4 MUL ADD PUSH1 0x2 ADD DUP1 SLOAD DUP1 PUSH1 0x20 MUL PUSH1 0x20 ADD PUSH1 0x40 MLOAD SWAP1 DUP2 ADD PUSH1 0x40 MSTORE DUP1 SWAP3 SWAP2 SWAP1 DUP2 DUP2 MSTORE PUSH1 0x20 ADD DUP3 DUP1 SLOAD DUP1 ISZERO PUSH2 0x834 JUMPI PUSH1 0x20 MUL DUP3 ADD SWAP2 SWAP1 PUSH1 0x0 MSTORE PUSH1 0x20 PUSH1 0x0 KECCAK256 SWAP1 JUMPDEST DUP2 SLOAD DUP2 MSTORE PUSH1 0x20 ADD SWAP1 PUSH1 0x1 ADD SWAP1 DUP1 DUP4 GT PUSH2 0x820 JUMPI JUMPDEST POP POP POP POP POP DUP4 PUSH2 0x2FC4 JUMP JUMPDEST PUSH2 0x87E JUMPI PUSH1 0x40 MLOAD PUSH32 0x8C379A000000000000000000000000000000000000000000000000000000000 DUP2 MSTORE PUSH1 0x4 ADD PUSH2 0x875 SWAP1 PUSH2 0x3DC8 JUMP JUMPDEST PUSH1 0x40 MLOAD DUP1 SWAP2 SUB SWAP1 REVERT JUMPDEST PUSH1 0x0 JUMPDEST DUP4 MLOAD DUP2 LT ISZERO PUSH2 0x952 JUMPI PUSH1 0x0 DUP1 JUMPDEST PUSH1 0x5 DUP1 SLOAD SWAP1 POP DUP2 LT ISZERO PUSH2 0x8F9 JUMPI PUSH1 0x5 DUP2 DUP2 SLOAD DUP2 LT PUSH2 0x8AF JUMPI PUSH2 0x8AE PUSH2 0x3BE4 JUMP JUMPDEST JUMPDEST SWAP1 PUSH1 0x0 MSTORE PUSH1 0x20 PUSH1 0x0 KECCAK256 SWAP1 PUSH1 0x4 MUL ADD PUSH1 0x0 ADD SLOAD DUP7 DUP5 DUP2 MLOAD DUP2 LT PUSH2 0x8D4 JUMPI PUSH2 0x8D3 PUSH2 0x3BE4 JUMP JUMPDEST JUMPDEST PUSH1 0x20 MUL PUSH1 0x20 ADD ADD MLOAD SUB PUSH2 0x8E6 JUMPI PUSH1 0x1 SWAP2 POP JUMPDEST DUP1 DUP1 PUSH2 0x8F1 SWAP1 PUSH2 0x3D0E JUMP JUMPDEST SWAP2 POP POP PUSH2 0x88E JUMP JUMPDEST POP DUP1 PUSH2 0x93A JUMPI PUSH1 0x40 MLOAD PUSH32 0x8C379A000000000000000000000000000000000000000000000000000000000 DUP2 MSTORE PUSH1 0x4 ADD PUSH2 0x931 SWAP1 PUSH2 0x3E34 JUMP JUMPDEST PUSH1 0x40 MLOAD DUP1 SWAP2 SUB SWAP1 REVERT JUMPDEST PUSH1 0x0 SWAP1 POP POP DUP1 DUP1 PUSH2 0x94A SWAP1 PUSH2 0x3D0E JUMP JUMPDEST SWAP2 POP POP PUSH2 0x881 JUMP JUMPDEST POP PUSH1 0x0 JUMPDEST DUP4 MLOAD DUP2 LT ISZERO PUSH2 0xAE4 JUMPI PUSH1 0x0 PUSH2 0x9F8 PUSH1 0x6 DUP8 DUP2 SLOAD DUP2 LT PUSH2 0x978 JUMPI PUSH2 0x977 PUSH2 0x3BE4 JUMP JUMPDEST JUMPDEST SWAP1 PUSH1 0x0 MSTORE PUSH1 0x20 PUSH1 0x0 KECCAK256 SWAP1 PUSH1 0x4 MUL ADD PUSH1 0x2 ADD DUP1 SLOAD DUP1 PUSH1 0x20 MUL PUSH1 0x20 ADD PUSH1 0x40 MLOAD SWAP1 DUP2 ADD PUSH1 0x40 MSTORE DUP1 SWAP3 SWAP2 SWAP1 DUP2 DUP2 MSTORE PUSH1 0x20 ADD DUP3 DUP1 SLOAD DUP1 ISZERO PUSH2 0x9D3 JUMPI PUSH1 0x20 MUL DUP3 ADD SWAP2 SWAP1 PUSH1 0x0 MSTORE PUSH1 0x20 PUSH1 0x0 KECCAK256 SWAP1 JUMPDEST DUP2 SLOAD DUP2 MSTORE PUSH1 0x20 ADD SWAP1 PUSH1 0x1 ADD SWAP1 DUP1 DUP4 GT PUSH2 0x9BF JUMPI JUMPDEST POP POP POP POP POP DUP7 DUP5 DUP2 MLOAD DUP2 LT PUSH2 0x9EB JUMPI PUSH2 0x9EA PUSH2 0x3BE4 JUMP JUMPDEST JUMPDEST PUSH1 0x20 MUL PUSH1 0x20 ADD ADD MLOAD PUSH2 0x2FC4 JUMP JUMPDEST SWAP1 POP DUP1 PUSH2 0xAD0 JUMPI PUSH1 0x6 DUP7 DUP2 SLOAD DUP2 LT PUSH2 0xA13 JUMPI PUSH2 0xA12 PUSH2 0x3BE4 JUMP JUMPDEST JUMPDEST SWAP1 PUSH1 0x0 MSTORE PUSH1 0x20 PUSH1 0x0 KECCAK256 SWAP1 PUSH1 0x4 MUL ADD PUSH1 0x2 ADD DUP6 DUP4 DUP2 MLOAD DUP2 LT PUSH2 0xA37 JUMPI PUSH2 0xA36 PUSH2 0x3BE4 JUMP JUMPDEST JUMPDEST PUSH1 0x20 MUL PUSH1 0x20 ADD ADD MLOAD SWAP1 DUP1 PUSH1 0x1 DUP2 SLOAD ADD DUP1 DUP3 SSTORE DUP1 SWAP2 POP POP PUSH1 0x1 SWAP1 SUB SWAP1 PUSH1 0x0 MSTORE PUSH1 0x20 PUSH1 0x0 KECCAK256 ADD PUSH1 0x0 SWAP1 SWAP2 SWAP1 SWAP2 SWAP1 SWAP2 POP SSTORE PUSH1 0x5 DUP6 DUP4 DUP2 MLOAD DUP2 LT PUSH2 0xA7A JUMPI PUSH2 0xA79 PUSH2 0x3BE4 JUMP JUMPDEST JUMPDEST PUSH1 0x20 MUL PUSH1 0x20 ADD ADD MLOAD DUP2 SLOAD DUP2 LT PUSH2 0xA93 JUMPI PUSH2 0xA92 PUSH2 0x3BE4 JUMP JUMPDEST JUMPDEST SWAP1 PUSH1 0x0 MSTORE PUSH1 0x20 PUSH1 0x0 KECCAK256 SWAP1 PUSH1 0x4 MUL ADD PUSH1 0x1 ADD DUP7 SWAP1 DUP1 PUSH1 0x1 DUP2 SLOAD ADD DUP1 DUP3 SSTORE DUP1 SWAP2 POP POP PUSH1 0x1 SWAP1 SUB SWAP1 PUSH1 0x0 MSTORE PUSH1 0x20 PUSH1 0x0 KECCAK256 ADD PUSH1 0x0 SWAP1 SWAP2 SWAP1 SWAP2 SWAP1 SWAP2 POP SSTORE PUSH1 0x1 SWAP3 POP JUMPDEST POP DUP1 DUP1 PUSH2 0xADC SWAP1 PUSH2 0x3D0E JUMP JUMPDEST SWAP2 POP POP PUSH2 0x956 JUMP JUMPDEST POP DUP1 PUSH2 0xB25 JUMPI PUSH1 0x40 MLOAD PUSH32 0x8C379A000000000000000000000000000000000000000000000000000000000 DUP2 MSTORE PUSH1 0x4 ADD PUSH2 0xB1C SWAP1 PUSH2 0x3EA0 JUMP JUMPDEST PUSH1 0x40 MLOAD DUP1 SWAP2 SUB SWAP1 REVERT JUMPDEST PUSH32 0xCC5DDA9F229EC85A9CBA7B77B10F747163021A72585EB11A0105A714C2A302E9 PUSH1 0x40 MLOAD PUSH1 0x40 MLOAD DUP1 SWAP2 SUB SWAP1 LOG1 PUSH32 0x27276DF2065752AE77C089FEFF5CDD46E3617227489882EDBB634B6DF7A57FC2 PUSH1 0x40 MLOAD PUSH1 0x40 MLOAD DUP1 SWAP2 SUB SWAP1 LOG1 PUSH32 0x431D3F4CA51F6123EFEF4C56091D02B1CAF4D7D32361EB5367F6A746DC7743C1 CALLER PUSH1 0x5 DUP5 DUP2 SLOAD DUP2 LT PUSH2 0xBB3 JUMPI PUSH2 0xBB2 PUSH2 0x3BE4 JUMP JUMPDEST JUMPDEST SWAP1 PUSH1 0x0 MSTORE PUSH1 0x20 PUSH1 0x0 KECCAK256 SWAP1 PUSH1 0x4 MUL ADD PUSH1 0x2 ADD PUSH1 0x6 DUP8 DUP2 SLOAD DUP2 LT PUSH2 0xBD8 JUMPI PUSH2 0xBD7 PUSH2 0x3BE4 JUMP JUMPDEST JUMPDEST SWAP1 PUSH1 0x0 MSTORE PUSH1 0x20 PUSH1 0x0 KECCAK256 SWAP1 PUSH1 0x4 MUL ADD PUSH1 0x1 ADD PUSH1 0x40 MLOAD PUSH2 0xBF8 SWAP4 SWAP3 SWAP2 SWAP1 PUSH2 0x3F68 JUMP JUMPDEST PUSH1 0x40 MLOAD DUP1 SWAP2 SUB SWAP1 LOG1 POP POP POP POP JUMP JUMPDEST PUSH1 0x60 PUSH1 0x0 PUSH2 0xC12 PUSH2 0x2EB7 JUMP JUMPDEST SWAP1 POP PUSH1 0x0 PUSH1 0x5 DUP3 DUP2 SLOAD DUP2 LT PUSH2 0xC2A JUMPI PUSH2 0xC29 PUSH2 0x3BE4 JUMP JUMPDEST JUMPDEST SWAP1 PUSH1 0x0 MSTORE PUSH1 0x20 PUSH1 0x0 KECCAK256 SWAP1 PUSH1 0x4 MUL ADD PUSH1 0x1 ADD DUP1 SLOAD SWAP1 POP PUSH8 0xFFFFFFFFFFFFFFFF DUP2 GT ISZERO PUSH2 0xC58 JUMPI PUSH2 0xC57 PUSH2 0x3578 JUMP JUMPDEST JUMPDEST PUSH1 0x40 MLOAD SWAP1 DUP1 DUP3 MSTORE DUP1 PUSH1 0x20 MUL PUSH1 0x20 ADD DUP3 ADD PUSH1 0x40 MSTORE DUP1 ISZERO PUSH2 0xC91 JUMPI DUP2 PUSH1 0x20 ADD JUMPDEST PUSH2 0xC7E PUSH2 0x3056 JUMP JUMPDEST DUP2 MSTORE PUSH1 0x20 ADD SWAP1 PUSH1 0x1 SWAP1 SUB SWAP1 DUP2 PUSH2 0xC76 JUMPI SWAP1 POP JUMPDEST POP SWAP1 POP PUSH1 0x0 DUP1 PUSH1 0x0 SWAP1 POP JUMPDEST PUSH1 0x5 DUP5 DUP2 SLOAD DUP2 LT PUSH2 0xCB0 JUMPI PUSH2 0xCAF PUSH2 0x3BE4 JUMP JUMPDEST JUMPDEST SWAP1 PUSH1 0x0 MSTORE PUSH1 0x20 PUSH1 0x0 KECCAK256 SWAP1 PUSH1 0x4 MUL ADD PUSH1 0x1 ADD DUP1 SLOAD SWAP1 POP DUP2 LT ISZERO PUSH2 0xEC5 JUMPI PUSH1 0x6 PUSH1 0x5 DUP6 DUP2 SLOAD DUP2 LT PUSH2 0xCE2 JUMPI PUSH2 0xCE1 PUSH2 0x3BE4 JUMP JUMPDEST JUMPDEST SWAP1 PUSH1 0x0 MSTORE PUSH1 0x20 PUSH1 0x0 KECCAK256 SWAP1 PUSH1 0x4 MUL ADD PUSH1 0x1 ADD DUP3 DUP2 SLOAD DUP2 LT PUSH2 0xD05 JUMPI PUSH2 0xD04 PUSH2 0x3BE4 JUMP JUMPDEST JUMPDEST SWAP1 PUSH1 0x0 MSTORE PUSH1 0x20 PUSH1 0x0 KECCAK256 ADD SLOAD DUP2 SLOAD DUP2 LT PUSH2 0xD21 JUMPI PUSH2 0xD20 PUSH2 0x3BE4 JUMP JUMPDEST JUMPDEST SWAP1 PUSH1 0x0 MSTORE PUSH1 0x20 PUSH1 0x0 KECCAK256 SWAP1 PUSH1 0x4 MUL ADD PUSH1 0x40 MLOAD DUP1 PUSH1 0x80 ADD PUSH1 0x40 MSTORE SWAP1 DUP2 PUSH1 0x0 DUP3 ADD SLOAD DUP2 MSTORE PUSH1 0x20 ADD PUSH1 0x1 DUP3 ADD DUP1 SLOAD PUSH2 0xD54 SWAP1 PUSH2 0x3CAE JUMP JUMPDEST DUP1 PUSH1 0x1F ADD PUSH1 0x20 DUP1 SWAP2 DIV MUL PUSH1 0x20 ADD PUSH1 0x40 MLOAD SWAP1 DUP2 ADD PUSH1 0x40 MSTORE DUP1 SWAP3 SWAP2 SWAP1 DUP2 DUP2 MSTORE PUSH1 0x20 ADD DUP3 DUP1 SLOAD PUSH2 0xD80 SWAP1 PUSH2 0x3CAE JUMP JUMPDEST DUP1 ISZERO PUSH2 0xDCD JUMPI DUP1 PUSH1 0x1F LT PUSH2 0xDA2 JUMPI PUSH2 0x100 DUP1 DUP4 SLOAD DIV MUL DUP4 MSTORE SWAP2 PUSH1 0x20 ADD SWAP2 PUSH2 0xDCD JUMP JUMPDEST DUP3 ADD SWAP2 SWAP1 PUSH1 0x0 MSTORE PUSH1 0x20 PUSH1 0x0 KECCAK256 SWAP1 JUMPDEST DUP2 SLOAD DUP2 MSTORE SWAP1 PUSH1 0x1 ADD SWAP1 PUSH1 0x20 ADD DUP1 DUP4 GT PUSH2 0xDB0 JUMPI DUP3 SWAP1 SUB PUSH1 0x1F AND DUP3 ADD SWAP2 JUMPDEST POP POP POP POP POP DUP2 MSTORE PUSH1 0x20 ADD PUSH1 0x2 DUP3 ADD DUP1 SLOAD DUP1 PUSH1 0x20 MUL PUSH1 0x20 ADD PUSH1 0x40 MLOAD SWAP1 DUP2 ADD PUSH1 0x40 MSTORE DUP1 SWAP3 SWAP2 SWAP1 DUP2 DUP2 MSTORE PUSH1 0x20 ADD DUP3 DUP1 SLOAD DUP1 ISZERO PUSH2 0xE25 JUMPI PUSH1 0x20 MUL DUP3 ADD SWAP2 SWAP1 PUSH1 0x0 MSTORE PUSH1 0x20 PUSH1 0x0 KECCAK256 SWAP1 JUMPDEST DUP2 SLOAD DUP2 MSTORE PUSH1 0x20 ADD SWAP1 PUSH1 0x1 ADD SWAP1 DUP1 DUP4 GT PUSH2 0xE11 JUMPI JUMPDEST POP POP POP POP POP DUP2 MSTORE PUSH1 0x20 ADD PUSH1 0x3 DUP3 ADD DUP1 SLOAD DUP1 PUSH1 0x20 MUL PUSH1 0x20 ADD PUSH1 0x40 MLOAD SWAP1 DUP2 ADD PUSH1 0x40 MSTORE DUP1 SWAP3 SWAP2 SWAP1 DUP2 DUP2 MSTORE PUSH1 0x20 ADD DUP3 DUP1 SLOAD DUP1 ISZERO PUSH2 0xE7D JUMPI PUSH1 0x20 MUL DUP3 ADD SWAP2 SWAP1 PUSH1 0x0 MSTORE PUSH1 0x20 PUSH1 0x0 KECCAK256 SWAP1 JUMPDEST DUP2 SLOAD DUP2 MSTORE PUSH1 0x20 ADD SWAP1 PUSH1 0x1 ADD SWAP1 DUP1 DUP4 GT PUSH2 0xE69 JUMPI JUMPDEST POP POP POP POP POP DUP2 MSTORE POP POP DUP4 DUP4 DUP2 MLOAD DUP2 LT PUSH2 0xE99 JUMPI PUSH2 0xE98 PUSH2 0x3BE4 JUMP JUMPDEST JUMPDEST PUSH1 0x20 MUL PUSH1 0x20 ADD ADD DUP2 SWAP1 MSTORE POP DUP2 DUP1 PUSH2 0xEAF SWAP1 PUSH2 0x3D0E JUMP JUMPDEST SWAP3 POP POP DUP1 DUP1 PUSH2 0xEBD SWAP1 PUSH2 0x3D0E JUMP JUMPDEST SWAP2 POP POP PUSH2 0xC9C JUMP JUMPDEST POP DUP2 SWAP4 POP POP POP POP SWAP1 JUMP JUMPDEST PUSH1 0x0 DUP2 PUSH1 0x40 MLOAD PUSH2 0xEDF SWAP2 SWAP1 PUSH2 0x3FE9 JUMP JUMPDEST SWAP1 DUP2 MSTORE PUSH1 0x20 ADD PUSH1 0x40 MLOAD DUP1 SWAP2 SUB SWAP1 KECCAK256 PUSH1 0x0 SWAP1 SLOAD SWAP1 PUSH2 0x100 EXP SWAP1 DIV PUSH1 0xFF AND ISZERO PUSH2 0xF3B JUMPI PUSH1 0x40 MLOAD PUSH32 0x8C379A000000000000000000000000000000000000000000000000000000000 DUP2 MSTORE PUSH1 0x4 ADD PUSH2 0xF32 SWAP1 PUSH2 0x404C JUMP JUMPDEST PUSH1 0x40 MLOAD DUP1 SWAP2 SUB SWAP1 REVERT JUMPDEST PUSH2 0xF43 PUSH2 0x1D7E JUMP JUMPDEST ISZERO PUSH2 0xF83 JUMPI PUSH1 0x40 MLOAD PUSH32 0x8C379A000000000000000000000000000000000000000000000000000000000 DUP2 MSTORE PUSH1 0x4 ADD PUSH2 0xF7A SWAP1 PUSH2 0x40B8 JUMP JUMPDEST PUSH1 0x40 MLOAD DUP1 SWAP2 SUB SWAP1 REVERT JUMPDEST PUSH1 0x5 PUSH1 0x40 MLOAD DUP1 PUSH1 0x80 ADD PUSH1 0x40 MSTORE DUP1 PUSH1 0x2 SLOAD DUP2 MSTORE PUSH1 0x20 ADD PUSH1 0x0 PUSH8 0xFFFFFFFFFFFFFFFF DUP2 GT ISZERO PUSH2 0xFB3 JUMPI PUSH2 0xFB2 PUSH2 0x3578 JUMP JUMPDEST JUMPDEST PUSH1 0x40 MLOAD SWAP1 DUP1 DUP3 MSTORE DUP1 PUSH1 0x20 MUL PUSH1 0x20 ADD DUP3 ADD PUSH1 0x40 MSTORE DUP1 ISZERO PUSH2 0xFE1 JUMPI DUP2 PUSH1 0x20 ADD PUSH1 0x20 DUP3 MUL DUP1 CALLDATASIZE DUP4 CALLDATACOPY DUP1 DUP3 ADD SWAP2 POP POP SWAP1 POP JUMPDEST POP DUP2 MSTORE PUSH1 0x20 ADD DUP4 DUP2 MSTORE PUSH1 0x20 ADD CALLER PUSH20 0xFFFFFFFFFFFFFFFFFFFFFFFFFFFFFFFFFFFFFFFF AND DUP2 MSTORE POP SWAP1 DUP1 PUSH1 0x1 DUP2 SLOAD ADD DUP1 DUP3 SSTORE DUP1 SWAP2 POP POP PUSH1 0x1 SWAP1 SUB SWAP1 PUSH1 0x0 MSTORE PUSH1 0x20 PUSH1 0x0 KECCAK256 SWAP1 PUSH1 0x4 MUL ADD PUSH1 0x0 SWAP1 SWAP2 SWAP1 SWAP2 SWAP1 SWAP2 POP PUSH1 0x0 DUP3 ADD MLOAD DUP2 PUSH1 0x0 ADD SSTORE PUSH1 0x20 DUP3 ADD MLOAD DUP2 PUSH1 0x1 ADD SWAP1 DUP1 MLOAD SWAP1 PUSH1 0x20 ADD SWAP1 PUSH2 0x1056 SWAP3 SWAP2 SWAP1 PUSH2 0x307E JUMP JUMPDEST POP PUSH1 0x40 DUP3 ADD MLOAD DUP2 PUSH1 0x2 ADD SWAP1 DUP2 PUSH2 0x106C SWAP2 SWAP1 PUSH2 0x426F JUMP JUMPDEST POP PUSH1 0x60 DUP3 ADD MLOAD DUP2 PUSH1 0x3 ADD PUSH1 0x0 PUSH2 0x100 EXP DUP2 SLOAD DUP2 PUSH20 0xFFFFFFFFFFFFFFFFFFFFFFFFFFFFFFFFFFFFFFFF MUL NOT AND SWAP1 DUP4 PUSH20 0xFFFFFFFFFFFFFFFFFFFFFFFFFFFFFFFFFFFFFFFF AND MUL OR SWAP1 SSTORE POP POP POP PUSH1 0x1 PUSH1 0x0 DUP3 PUSH1 0x40 MLOAD PUSH2 0x10C8 SWAP2 SWAP1 PUSH2 0x3FE9 JUMP JUMPDEST SWAP1 DUP2 MSTORE PUSH1 0x20 ADD PUSH1 0x40 MLOAD DUP1 SWAP2 SUB SWAP1 KECCAK256 PUSH1 0x0 PUSH2 0x100 EXP DUP2 SLOAD DUP2 PUSH1 0xFF MUL NOT AND SWAP1 DUP4 ISZERO ISZERO MUL OR SWAP1 SSTORE POP PUSH1 0x2 PUSH1 0x0 DUP2 SLOAD DUP1 SWAP3 SWAP2 SWAP1 PUSH2 0x1100 SWAP1 PUSH2 0x3D0E JUMP JUMPDEST SWAP2 SWAP1 POP SSTORE POP PUSH32 0xCC5DDA9F229EC85A9CBA7B77B10F747163021A72585EB11A0105A714C2A302E9 PUSH1 0x40 MLOAD PUSH1 0x40 MLOAD DUP1 SWAP2 SUB SWAP1 LOG1 POP JUMP JUMPDEST PUSH1 0x0 DUP2 MLOAD SUB PUSH2 0x1178 JUMPI PUSH1 0x40 MLOAD PUSH32 0x8C379A000000000000000000000000000000000000000000000000000000000 DUP2 MSTORE PUSH1 0x4 ADD PUSH2 0x116F SWAP1 PUSH2 0x438D JUMP JUMPDEST PUSH1 0x40 MLOAD DUP1 SWAP2 SUB SWAP1 REVERT JUMPDEST DUP2 PUSH1 0x6 DUP1 SLOAD SWAP1 POP GT PUSH2 0x11BF JUMPI PUSH1 0x40 MLOAD PUSH32 0x8C379A000000000000000000000000000000000000000000000000000000000 DUP2 MSTORE PUSH1 0x4 ADD PUSH2 0x11B6 SWAP1 PUSH2 0x3BC4 JUMP JUMPDEST PUSH1 0x40 MLOAD DUP1 SWAP2 SUB SWAP1 REVERT JUMPDEST PUSH1 0x0 PUSH2 0x11C9 PUSH2 0x2EB7 JUMP JUMPDEST SWAP1 POP PUSH2 0x1248 PUSH1 0x6 DUP5 DUP2 SLOAD DUP2 LT PUSH2 0x11E2 JUMPI PUSH2 0x11E1 PUSH2 0x3BE4 JUMP JUMPDEST JUMPDEST SWAP1 PUSH1 0x0 MSTORE PUSH1 0x20 PUSH1 0x0 KECCAK256 SWAP1 PUSH1 0x4 MUL ADD PUSH1 0x2 ADD DUP1 SLOAD DUP1 PUSH1 0x20 MUL PUSH1 0x20 ADD PUSH1 0x40 MLOAD SWAP1 DUP2 ADD PUSH1 0x40 MSTORE DUP1 SWAP3 SWAP2 SWAP1 DUP2 DUP2 MSTORE PUSH1 0x20 ADD DUP3 DUP1 SLOAD DUP1 ISZERO PUSH2 0x123D JUMPI PUSH1 0x20 MUL DUP3 ADD SWAP2 SWAP1 PUSH1 0x0 MSTORE PUSH1 0x20 PUSH1 0x0 KECCAK256 SWAP1 JUMPDEST DUP2 SLOAD DUP2 MSTORE PUSH1 0x20 ADD SWAP1 PUSH1 0x1 ADD SWAP1 DUP1 DUP4 GT PUSH2 0x1229 JUMPI JUMPDEST POP POP POP POP POP DUP3 PUSH2 0x2FC4 JUMP JUMPDEST PUSH2 0x1287 JUMPI PUSH1 0x40 MLOAD PUSH32 0x8C379A000000000000000000000000000000000000000000000000000000000 DUP2 MSTORE PUSH1 0x4 ADD PUSH2 0x127E SWAP1 PUSH2 0x441F JUMP JUMPDEST PUSH1 0x40 MLOAD DUP1 SWAP2 SUB SWAP1 REVERT JUMPDEST PUSH1 0x7 PUSH1 0x40 MLOAD DUP1 PUSH1 0xA0 ADD PUSH1 0x40 MSTORE DUP1 PUSH1 0x4 SLOAD DUP2 MSTORE PUSH1 0x20 ADD PUSH1 0x5 DUP5 DUP2 SLOAD DUP2 LT PUSH2 0x12B0 JUMPI PUSH2 0x12AF PUSH2 0x3BE4 JUMP JUMPDEST JUMPDEST SWAP1 PUSH1 0x0 MSTORE PUSH1 0x20 PUSH1 0x0 KECCAK256 SWAP1 PUSH1 0x4 MUL ADD PUSH1 0x40 MLOAD DUP1 PUSH1 0x80 ADD PUSH1 0x40 MSTORE SWAP1 DUP2 PUSH1 0x0 DUP3 ADD SLOAD DUP2 MSTORE PUSH1 0x20 ADD PUSH1 0x1 DUP3 ADD DUP1 SLOAD DUP1 PUSH1 0x20 MUL PUSH1 0x20 ADD PUSH1 0x40 MLOAD SWAP1 DUP2 ADD PUSH1 0x40 MSTORE DUP1 SWAP3 SWAP2 SWAP1 DUP2 DUP2 MSTORE PUSH1 0x20 ADD DUP3 DUP1 SLOAD DUP1 ISZERO PUSH2 0x1322 JUMPI PUSH1 0x20 MUL DUP3 ADD SWAP2 SWAP1 PUSH1 0x0 MSTORE PUSH1 0x20 PUSH1 0x0 KECCAK256 SWAP1 JUMPDEST DUP2 SLOAD DUP2 MSTORE PUSH1 0x20 ADD SWAP1 PUSH1 0x1 ADD SWAP1 DUP1 DUP4 GT PUSH2 0x130E JUMPI JUMPDEST POP POP POP POP POP DUP2 MSTORE PUSH1 0x20 ADD PUSH1 0x2 DUP3 ADD DUP1 SLOAD PUSH2 0x133B SWAP1 PUSH2 0x3CAE JUMP JUMPDEST DUP1 PUSH1 0x1F ADD PUSH1 0x20 DUP1 SWAP2 DIV MUL PUSH1 0x20 ADD PUSH1 0x40 MLOAD SWAP1 DUP2 ADD PUSH1 0x40 MSTORE DUP1 SWAP3 SWAP2 SWAP1 DUP2 DUP2 MSTORE PUSH1 0x20 ADD DUP3 DUP1 SLOAD PUSH2 0x1367 SWAP1 PUSH2 0x3CAE JUMP JUMPDEST DUP1 ISZERO PUSH2 0x13B4 JUMPI DUP1 PUSH1 0x1F LT PUSH2 0x1389 JUMPI PUSH2 0x100 DUP1 DUP4 SLOAD DIV MUL DUP4 MSTORE SWAP2 PUSH1 0x20 ADD SWAP2 PUSH2 0x13B4 JUMP JUMPDEST DUP3 ADD SWAP2 SWAP1 PUSH1 0x0 MSTORE PUSH1 0x20 PUSH1 0x0 KECCAK256 SWAP1 JUMPDEST DUP2 SLOAD DUP2 MSTORE SWAP1 PUSH1 0x1 ADD SWAP1 PUSH1 0x20 ADD DUP1 DUP4 GT PUSH2 0x1397 JUMPI DUP3 SWAP1 SUB PUSH1 0x1F AND DUP3 ADD SWAP2 JUMPDEST POP POP POP POP POP DUP2 MSTORE PUSH1 0x20 ADD PUSH1 0x3 DUP3 ADD PUSH1 0x0 SWAP1 SLOAD SWAP1 PUSH2 0x100 EXP SWAP1 DIV PUSH20 0xFFFFFFFFFFFFFFFFFFFFFFFFFFFFFFFFFFFFFFFF AND PUSH20 0xFFFFFFFFFFFFFFFFFFFFFFFFFFFFFFFFFFFFFFFF AND PUSH20 0xFFFFFFFFFFFFFFFFFFFFFFFFFFFFFFFFFFFFFFFF AND DUP2 MSTORE POP POP DUP2 MSTORE PUSH1 0x20 ADD DUP5 DUP2 MSTORE PUSH1 0x20 ADD TIMESTAMP DUP2 MSTORE PUSH1 0x20 ADD PUSH1 0x0 ISZERO ISZERO DUP2 MSTORE POP SWAP1 DUP1 PUSH1 0x1 DUP2 SLOAD ADD DUP1 DUP3 SSTORE DUP1 SWAP2 POP POP PUSH1 0x1 SWAP1 SUB SWAP1 PUSH1 0x0 MSTORE PUSH1 0x20 PUSH1 0x0 KECCAK256 SWAP1 PUSH1 0x8 MUL ADD PUSH1 0x0 SWAP1 SWAP2 SWAP1 SWAP2 SWAP1 SWAP2 POP PUSH1 0x0 DUP3 ADD MLOAD DUP2 PUSH1 0x0 ADD SSTORE PUSH1 0x20 DUP3 ADD MLOAD DUP2 PUSH1 0x1 ADD PUSH1 0x0 DUP3 ADD MLOAD DUP2 PUSH1 0x0 ADD SSTORE PUSH1 0x20 DUP3 ADD MLOAD DUP2 PUSH1 0x1 ADD SWAP1 DUP1 MLOAD SWAP1 PUSH1 0x20 ADD SWAP1 PUSH2 0x148D SWAP3 SWAP2 SWAP1 PUSH2 0x307E JUMP JUMPDEST POP PUSH1 0x40 DUP3 ADD MLOAD DUP2 PUSH1 0x2 ADD SWAP1 DUP2 PUSH2 0x14A3 SWAP2 SWAP1 PUSH2 0x426F JUMP JUMPDEST POP PUSH1 0x60 DUP3 ADD MLOAD DUP2 PUSH1 0x3 ADD PUSH1 0x0 PUSH2 0x100 EXP DUP2 SLOAD DUP2 PUSH20 0xFFFFFFFFFFFFFFFFFFFFFFFFFFFFFFFFFFFFFFFF MUL NOT AND SWAP1 DUP4 PUSH20 0xFFFFFFFFFFFFFFFFFFFFFFFFFFFFFFFFFFFFFFFF AND MUL OR SWAP1 SSTORE POP POP POP PUSH1 0x40 DUP3 ADD MLOAD DUP2 PUSH1 0x5 ADD SWAP1 DUP2 PUSH2 0x1502 SWAP2 SWAP1 PUSH2 0x426F JUMP JUMPDEST POP PUSH1 0x60 DUP3 ADD MLOAD DUP2 PUSH1 0x6 ADD SSTORE PUSH1 0x80 DUP3 ADD MLOAD DUP2 PUSH1 0x7 ADD PUSH1 0x0 PUSH2 0x100 EXP DUP2 SLOAD DUP2 PUSH1 0xFF MUL NOT AND SWAP1 DUP4 ISZERO ISZERO MUL OR SWAP1 SSTORE POP POP POP PUSH1 0x6 DUP4 DUP2 SLOAD DUP2 LT PUSH2 0x1543 JUMPI PUSH2 0x1542 PUSH2 0x3BE4 JUMP JUMPDEST JUMPDEST SWAP1 PUSH1 0x0 MSTORE PUSH1 0x20 PUSH1 0x0 KECCAK256 SWAP1 PUSH1 0x4 MUL ADD PUSH1 0x3 ADD PUSH1 0x4 SLOAD SWAP1 DUP1 PUSH1 0x1 DUP2 SLOAD ADD DUP1 DUP3 SSTORE DUP1 SWAP2 POP POP PUSH1 0x1 SWAP1 SUB SWAP1 PUSH1 0x0 MSTORE PUSH1 0x20 PUSH1 0x0 KECCAK256 ADD PUSH1 0x0 SWAP1 SWAP2 SWAP1 SWAP2 SWAP1 SWAP2 POP SSTORE PUSH1 0x4 PUSH1 0x0 DUP2 SLOAD DUP1 SWAP3 SWAP2 SWAP1 PUSH2 0x1590 SWAP1 PUSH2 0x3D0E JUMP JUMPDEST SWAP2 SWAP1 POP SSTORE POP PUSH32 0x27276DF2065752AE77C089FEFF5CDD46E3617227489882EDBB634B6DF7A57FC2 PUSH1 0x40 MLOAD PUSH1 0x40 MLOAD DUP1 SWAP2 SUB SWAP1 LOG1 PUSH32 0x2E98287333723B369DAEB64A58F5743DEBE818EDE93B5542E039F56BEE6A3608 PUSH1 0x40 MLOAD PUSH1 0x40 MLOAD DUP1 SWAP2 SUB SWAP1 LOG1 PUSH32 0xBBAC1EC35BD0BD086E058DE425CF277C90487B50162579172D2455EA278F5680 CALLER PUSH1 0x5 DUP4 DUP2 SLOAD DUP2 LT PUSH2 0x1623 JUMPI PUSH2 0x1622 PUSH2 0x3BE4 JUMP JUMPDEST JUMPDEST SWAP1 PUSH1 0x0 MSTORE PUSH1 0x20 PUSH1 0x0 KECCAK256 SWAP1 PUSH1 0x4 MUL ADD PUSH1 0x2 ADD DUP5 PUSH1 0x40 MLOAD PUSH2 0x1644 SWAP4 SWAP3 SWAP2 SWAP1 PUSH2 0x4478 JUMP JUMPDEST PUSH1 0x40 MLOAD DUP1 SWAP2 SUB SWAP1 LOG1 POP POP POP JUMP JUMPDEST PUSH1 0x0 PUSH2 0x165B PUSH2 0x2EB7 JUMP JUMPDEST SWAP1 POP DUP2 PUSH1 0x6 DUP1 SLOAD SWAP1 POP GT PUSH2 0x16A4 JUMPI PUSH1 0x40 MLOAD PUSH32 0x8C379A000000000000000000000000000000000000000000000000000000000 DUP2 MSTORE PUSH1 0x4 ADD PUSH2 0x169B SWAP1 PUSH2 0x3BC4 JUMP JUMPDEST PUSH1 0x40 MLOAD DUP1 SWAP2 SUB SWAP1 REVERT JUMPDEST PUSH2 0x1721 PUSH1 0x6 DUP4 DUP2 SLOAD DUP2 LT PUSH2 0x16BB JUMPI PUSH2 0x16BA PUSH2 0x3BE4 JUMP JUMPDEST JUMPDEST SWAP1 PUSH1 0x0 MSTORE PUSH1 0x20 PUSH1 0x0 KECCAK256 SWAP1 PUSH1 0x4 MUL ADD PUSH1 0x2 ADD DUP1 SLOAD DUP1 PUSH1 0x20 MUL PUSH1 0x20 ADD PUSH1 0x40 MLOAD SWAP1 DUP2 ADD PUSH1 0x40 MSTORE DUP1 SWAP3 SWAP2 SWAP1 DUP2 DUP2 MSTORE PUSH1 0x20 ADD DUP3 DUP1 SLOAD DUP1 ISZERO PUSH2 0x1716 JUMPI PUSH1 0x20 MUL DUP3 ADD SWAP2 SWAP1 PUSH1 0x0 MSTORE PUSH1 0x20 PUSH1 0x0 KECCAK256 SWAP1 JUMPDEST DUP2 SLOAD DUP2 MSTORE PUSH1 0x20 ADD SWAP1 PUSH1 0x1 ADD SWAP1 DUP1 DUP4 GT PUSH2 0x1702 JUMPI JUMPDEST POP POP POP POP POP DUP3 PUSH2 0x2FC4 JUMP JUMPDEST PUSH2 0x1760 JUMPI PUSH1 0x40 MLOAD PUSH32 0x8C379A000000000000000000000000000000000000000000000000000000000 DUP2 MSTORE PUSH1 0x4 ADD PUSH2 0x1757 SWAP1 PUSH2 0x3C5F JUMP JUMPDEST PUSH1 0x40 MLOAD DUP1 SWAP2 SUB SWAP1 REVERT JUMPDEST PUSH1 0x0 JUMPDEST PUSH1 0x6 DUP4 DUP2 SLOAD DUP2 LT PUSH2 0x1777 JUMPI PUSH2 0x1776 PUSH2 0x3BE4 JUMP JUMPDEST JUMPDEST SWAP1 PUSH1 0x0 MSTORE PUSH1 0x20 PUSH1 0x0 KECCAK256 SWAP1 PUSH1 0x4 MUL ADD PUSH1 0x2 ADD DUP1 SLOAD SWAP1 POP DUP2 LT ISZERO PUSH2 0x18F5 JUMPI DUP2 PUSH1 0x6 DUP5 DUP2 SLOAD DUP2 LT PUSH2 0x17A8 JUMPI PUSH2 0x17A7 PUSH2 0x3BE4 JUMP JUMPDEST JUMPDEST SWAP1 PUSH1 0x0 MSTORE PUSH1 0x20 PUSH1 0x0 KECCAK256 SWAP1 PUSH1 0x4 MUL ADD PUSH1 0x2 ADD DUP3 DUP2 SLOAD DUP2 LT PUSH2 0x17CB JUMPI PUSH2 0x17CA PUSH2 0x3BE4 JUMP JUMPDEST JUMPDEST SWAP1 PUSH1 0x0 MSTORE PUSH1 0x20 PUSH1 0x0 KECCAK256 ADD SLOAD SUB PUSH2 0x18E2 JUMPI PUSH1 0x6 DUP4 DUP2 SLOAD DUP2 LT PUSH2 0x17EF JUMPI PUSH2 0x17EE PUSH2 0x3BE4 JUMP JUMPDEST JUMPDEST SWAP1 PUSH1 0x0 MSTORE PUSH1 0x20 PUSH1 0x0 KECCAK256 SWAP1 PUSH1 0x4 MUL ADD PUSH1 0x2 ADD PUSH1 0x1 PUSH1 0x6 DUP6 DUP2 SLOAD DUP2 LT PUSH2 0x1816 JUMPI PUSH2 0x1815 PUSH2 0x3BE4 JUMP JUMPDEST JUMPDEST SWAP1 PUSH1 0x0 MSTORE PUSH1 0x20 PUSH1 0x0 KECCAK256 SWAP1 PUSH1 0x4 MUL ADD PUSH1 0x2 ADD DUP1 SLOAD SWAP1 POP PUSH2 0x1835 SWAP2 SWAP1 PUSH2 0x44BD JUMP JUMPDEST DUP2 SLOAD DUP2 LT PUSH2 0x1846 JUMPI PUSH2 0x1845 PUSH2 0x3BE4 JUMP JUMPDEST JUMPDEST SWAP1 PUSH1 0x0 MSTORE PUSH1 0x20 PUSH1 0x0 KECCAK256 ADD SLOAD PUSH1 0x6 DUP5 DUP2 SLOAD DUP2 LT PUSH2 0x1865 JUMPI PUSH2 0x1864 PUSH2 0x3BE4 JUMP JUMPDEST JUMPDEST SWAP1 PUSH1 0x0 MSTORE PUSH1 0x20 PUSH1 0x0 KECCAK256 SWAP1 PUSH1 0x4 MUL ADD PUSH1 0x2 ADD DUP3 DUP2 SLOAD DUP2 LT PUSH2 0x1888 JUMPI PUSH2 0x1887 PUSH2 0x3BE4 JUMP JUMPDEST JUMPDEST SWAP1 PUSH1 0x0 MSTORE PUSH1 0x20 PUSH1 0x0 KECCAK256 ADD DUP2 SWAP1 SSTORE POP PUSH1 0x6 DUP4 DUP2 SLOAD DUP2 LT PUSH2 0x18AA JUMPI PUSH2 0x18A9 PUSH2 0x3BE4 JUMP JUMPDEST JUMPDEST SWAP1 PUSH1 0x0 MSTORE PUSH1 0x20 PUSH1 0x0 KECCAK256 SWAP1 PUSH1 0x4 MUL ADD PUSH1 0x2 ADD DUP1 SLOAD DUP1 PUSH2 0x18CB JUMPI PUSH2 0x18CA PUSH2 0x44F1 JUMP JUMPDEST JUMPDEST PUSH1 0x1 SWAP1 SUB DUP2 DUP2 SWAP1 PUSH1 0x0 MSTORE PUSH1 0x20 PUSH1 0x0 KECCAK256 ADD PUSH1 0x0 SWAP1 SSTORE SWAP1 SSTORE JUMPDEST DUP1 DUP1 PUSH2 0x18ED SWAP1 PUSH2 0x3D0E JUMP JUMPDEST SWAP2 POP POP PUSH2 0x1763 JUMP JUMPDEST POP PUSH1 0x0 JUMPDEST PUSH1 0x5 DUP3 DUP2 SLOAD DUP2 LT PUSH2 0x190D JUMPI PUSH2 0x190C PUSH2 0x3BE4 JUMP JUMPDEST JUMPDEST SWAP1 PUSH1 0x0 MSTORE PUSH1 0x20 PUSH1 0x0 KECCAK256 SWAP1 PUSH1 0x4 MUL ADD PUSH1 0x1 ADD DUP1 SLOAD SWAP1 POP DUP2 LT ISZERO PUSH2 0x1A8B JUMPI DUP3 PUSH1 0x5 DUP4 DUP2 SLOAD DUP2 LT PUSH2 0x193E JUMPI PUSH2 0x193D PUSH2 0x3BE4 JUMP JUMPDEST JUMPDEST SWAP1 PUSH1 0x0 MSTORE PUSH1 0x20 PUSH1 0x0 KECCAK256 SWAP1 PUSH1 0x4 MUL ADD PUSH1 0x1 ADD DUP3 DUP2 SLOAD DUP2 LT PUSH2 0x1961 JUMPI PUSH2 0x1960 PUSH2 0x3BE4 JUMP JUMPDEST JUMPDEST SWAP1 PUSH1 0x0 MSTORE PUSH1 0x20 PUSH1 0x0 KECCAK256 ADD SLOAD SUB PUSH2 0x1A78 JUMPI PUSH1 0x5 DUP3 DUP2 SLOAD DUP2 LT PUSH2 0x1985 JUMPI PUSH2 0x1984 PUSH2 0x3BE4 JUMP JUMPDEST JUMPDEST SWAP1 PUSH1 0x0 MSTORE PUSH1 0x20 PUSH1 0x0 KECCAK256 SWAP1 PUSH1 0x4 MUL ADD PUSH1 0x1 ADD PUSH1 0x1 PUSH1 0x5 DUP5 DUP2 SLOAD DUP2 LT PUSH2 0x19AC JUMPI PUSH2 0x19AB PUSH2 0x3BE4 JUMP JUMPDEST JUMPDEST SWAP1 PUSH1 0x0 MSTORE PUSH1 0x20 PUSH1 0x0 KECCAK256 SWAP1 PUSH1 0x4 MUL ADD PUSH1 0x1 ADD DUP1 SLOAD SWAP1 POP PUSH2 0x19CB SWAP2 SWAP1 PUSH2 0x44BD JUMP JUMPDEST DUP2 SLOAD DUP2 LT PUSH2 0x19DC JUMPI PUSH2 0x19DB PUSH2 0x3BE4 JUMP JUMPDEST JUMPDEST SWAP1 PUSH1 0x0 MSTORE PUSH1 0x20 PUSH1 0x0 KECCAK256 ADD SLOAD PUSH1 0x5 DUP4 DUP2 SLOAD DUP2 LT PUSH2 0x19FB JUMPI PUSH2 0x19FA PUSH2 0x3BE4 JUMP JUMPDEST JUMPDEST SWAP1 PUSH1 0x0 MSTORE PUSH1 0x20 PUSH1 0x0 KECCAK256 SWAP1 PUSH1 0x4 MUL ADD PUSH1 0x1 ADD DUP3 DUP2 SLOAD DUP2 LT PUSH2 0x1A1E JUMPI PUSH2 0x1A1D PUSH2 0x3BE4 JUMP JUMPDEST JUMPDEST SWAP1 PUSH1 0x0 MSTORE PUSH1 0x20 PUSH1 0x0 KECCAK256 ADD DUP2 SWAP1 SSTORE POP PUSH1 0x5 DUP3 DUP2 SLOAD DUP2 LT PUSH2 0x1A40 JUMPI PUSH2 0x1A3F PUSH2 0x3BE4 JUMP JUMPDEST JUMPDEST SWAP1 PUSH1 0x0 MSTORE PUSH1 0x20 PUSH1 0x0 KECCAK256 SWAP1 PUSH1 0x4 MUL ADD PUSH1 0x1 ADD DUP1 SLOAD DUP1 PUSH2 0x1A61 JUMPI PUSH2 0x1A60 PUSH2 0x44F1 JUMP JUMPDEST JUMPDEST PUSH1 0x1 SWAP1 SUB DUP2 DUP2 SWAP1 PUSH1 0x0 MSTORE PUSH1 0x20 PUSH1 0x0 KECCAK256 ADD PUSH1 0x0 SWAP1 SSTORE SWAP1 SSTORE JUMPDEST DUP1 DUP1 PUSH2 0x1A83 SWAP1 PUSH2 0x3D0E JUMP JUMPDEST SWAP2 POP POP PUSH2 0x18F9 JUMP JUMPDEST POP PUSH1 0x0 PUSH1 0x6 DUP4 DUP2 SLOAD DUP2 LT PUSH2 0x1AA2 JUMPI PUSH2 0x1AA1 PUSH2 0x3BE4 JUMP JUMPDEST JUMPDEST SWAP1 PUSH1 0x0 MSTORE PUSH1 0x20 PUSH1 0x0 KECCAK256 SWAP1 PUSH1 0x4 MUL ADD PUSH1 0x2 ADD DUP1 SLOAD SWAP1 POP SUB PUSH2 0x1D22 JUMPI PUSH1 0x0 JUMPDEST PUSH1 0x7 DUP1 SLOAD SWAP1 POP DUP2 LT ISZERO PUSH2 0x1C3C JUMPI PUSH1 0x0 PUSH2 0x1B70 PUSH1 0x6 DUP6 DUP2 SLOAD DUP2 LT PUSH2 0x1AE5 JUMPI PUSH2 0x1AE4 PUSH2 0x3BE4 JUMP JUMPDEST JUMPDEST SWAP1 PUSH1 0x0 MSTORE PUSH1 0x20 PUSH1 0x0 KECCAK256 SWAP1 PUSH1 0x4 MUL ADD PUSH1 0x3 ADD DUP1 SLOAD DUP1 PUSH1 0x20 MUL PUSH1 0x20 ADD PUSH1 0x40 MLOAD SWAP1 DUP2 ADD PUSH1 0x40 MSTORE DUP1 SWAP3 SWAP2 SWAP1 DUP2 DUP2 MSTORE PUSH1 0x20 ADD DUP3 DUP1 SLOAD DUP1 ISZERO PUSH2 0x1B40 JUMPI PUSH1 0x20 MUL DUP3 ADD SWAP2 SWAP1 PUSH1 0x0 MSTORE PUSH1 0x20 PUSH1 0x0 KECCAK256 SWAP1 JUMPDEST DUP2 SLOAD DUP2 MSTORE PUSH1 0x20 ADD SWAP1 PUSH1 0x1 ADD SWAP1 DUP1 DUP4 GT PUSH2 0x1B2C JUMPI JUMPDEST POP POP POP POP POP PUSH1 0x7 DUP5 DUP2 SLOAD DUP2 LT PUSH2 0x1B59 JUMPI PUSH2 0x1B58 PUSH2 0x3BE4 JUMP JUMPDEST JUMPDEST SWAP1 PUSH1 0x0 MSTORE PUSH1 0x20 PUSH1 0x0 KECCAK256 SWAP1 PUSH1 0x8 MUL ADD PUSH1 0x0 ADD SLOAD PUSH2 0x2FC4 JUMP JUMPDEST SWAP1 POP DUP1 ISZERO PUSH2 0x1C28 JUMPI PUSH1 0x7 DUP3 DUP2 SLOAD DUP2 LT PUSH2 0x1B8C JUMPI PUSH2 0x1B8B PUSH2 0x3BE4 JUMP JUMPDEST JUMPDEST SWAP1 PUSH1 0x0 MSTORE PUSH1 0x20 PUSH1 0x0 KECCAK256 SWAP1 PUSH1 0x8 MUL ADD PUSH1 0x0 DUP1 DUP3 ADD PUSH1 0x0 SWAP1 SSTORE PUSH1 0x1 DUP3 ADD PUSH1 0x0 DUP1 DUP3 ADD PUSH1 0x0 SWAP1 SSTORE PUSH1 0x1 DUP3 ADD PUSH1 0x0 PUSH2 0x1BC0 SWAP2 SWAP1 PUSH2 0x30CB JUMP JUMPDEST PUSH1 0x2 DUP3 ADD PUSH1 0x0 PUSH2 0x1BD0 SWAP2 SWAP1 PUSH2 0x30EC JUMP JUMPDEST PUSH1 0x3 DUP3 ADD PUSH1 0x0 PUSH2 0x100 EXP DUP2 SLOAD SWAP1 PUSH20 0xFFFFFFFFFFFFFFFFFFFFFFFFFFFFFFFFFFFFFFFF MUL NOT AND SWAP1 SSTORE POP POP PUSH1 0x5 DUP3 ADD PUSH1 0x0 PUSH2 0x1C09 SWAP2 SWAP1 PUSH2 0x30EC JUMP JUMPDEST PUSH1 0x6 DUP3 ADD PUSH1 0x0 SWAP1 SSTORE PUSH1 0x7 DUP3 ADD PUSH1 0x0 PUSH2 0x100 EXP DUP2 SLOAD SWAP1 PUSH1 0xFF MUL NOT AND SWAP1 SSTORE POP POP JUMPDEST POP DUP1 DUP1 PUSH2 0x1C34 SWAP1 PUSH2 0x3D0E JUMP JUMPDEST SWAP2 POP POP PUSH2 0x1ABF JUMP JUMPDEST POP PUSH1 0x0 PUSH1 0x1 PUSH1 0x6 DUP5 DUP2 SLOAD DUP2 LT PUSH2 0x1C55 JUMPI PUSH2 0x1C54 PUSH2 0x3BE4 JUMP JUMPDEST JUMPDEST SWAP1 PUSH1 0x0 MSTORE PUSH1 0x20 PUSH1 0x0 KECCAK256 SWAP1 PUSH1 0x4 MUL ADD PUSH1 0x1 ADD PUSH1 0x40 MLOAD PUSH2 0x1C73 SWAP2 SWAP1 PUSH2 0x45A3 JUMP JUMPDEST SWAP1 DUP2 MSTORE PUSH1 0x20 ADD PUSH1 0x40 MLOAD DUP1 SWAP2 SUB SWAP1 KECCAK256 PUSH1 0x0 PUSH2 0x100 EXP DUP2 SLOAD DUP2 PUSH1 0xFF MUL NOT AND SWAP1 DUP4 ISZERO ISZERO MUL OR SWAP1 SSTORE POP PUSH1 0x6 DUP3 DUP2 SLOAD DUP2 LT PUSH2 0x1CAC JUMPI PUSH2 0x1CAB PUSH2 0x3BE4 JUMP JUMPDEST JUMPDEST SWAP1 PUSH1 0x0 MSTORE PUSH1 0x20 PUSH1 0x0 KECCAK256 SWAP1 PUSH1 0x4 MUL ADD PUSH1 0x0 DUP1 DUP3 ADD PUSH1 0x0 SWAP1 SSTORE PUSH1 0x1 DUP3 ADD PUSH1 0x0 PUSH2 0x1CD3 SWAP2 SWAP1 PUSH2 0x30EC JUMP JUMPDEST PUSH1 0x2 DUP3 ADD PUSH1 0x0 PUSH2 0x1CE3 SWAP2 SWAP1 PUSH2 0x30CB JUMP JUMPDEST PUSH1 0x3 DUP3 ADD PUSH1 0x0 PUSH2 0x1CF3 SWAP2 SWAP1 PUSH2 0x30CB JUMP JUMPDEST POP POP PUSH32 0x2E98287333723B369DAEB64A58F5743DEBE818EDE93B5542E039F56BEE6A3608 PUSH1 0x40 MLOAD PUSH1 0x40 MLOAD DUP1 SWAP2 SUB SWAP1 LOG1 JUMPDEST PUSH32 0xCC5DDA9F229EC85A9CBA7B77B10F747163021A72585EB11A0105A714C2A302E9 PUSH1 0x40 MLOAD PUSH1 0x40 MLOAD DUP1 SWAP2 SUB SWAP1 LOG1 PUSH32 0x27276DF2065752AE77C089FEFF5CDD46E3617227489882EDBB634B6DF7A57FC2 PUSH1 0x40 MLOAD PUSH1 0x40 MLOAD DUP1 SWAP2 SUB SWAP1 LOG1 POP POP JUMP JUMPDEST PUSH1 0x0 DUP1 PUSH1 0x0 SWAP1 POP JUMPDEST PUSH1 0x5 DUP1 SLOAD SWAP1 POP DUP2 LT ISZERO PUSH2 0x1E28 JUMPI CALLER PUSH20 0xFFFFFFFFFFFFFFFFFFFFFFFFFFFFFFFFFFFFFFFF AND PUSH1 0x5 DUP3 DUP2 SLOAD DUP2 LT PUSH2 0x1DBE JUMPI PUSH2 0x1DBD PUSH2 0x3BE4 JUMP JUMPDEST JUMPDEST SWAP1 PUSH1 0x0 MSTORE PUSH1 0x20 PUSH1 0x0 KECCAK256 SWAP1 PUSH1 0x4 MUL ADD PUSH1 0x3 ADD PUSH1 0x0 SWAP1 SLOAD SWAP1 PUSH2 0x100 EXP SWAP1 DIV PUSH20 0xFFFFFFFFFFFFFFFFFFFFFFFFFFFFFFFFFFFFFFFF AND PUSH20 0xFFFFFFFFFFFFFFFFFFFFFFFFFFFFFFFFFFFFFFFF AND SUB PUSH2 0x1E15 JUMPI PUSH1 0x1 SWAP2 POP POP PUSH2 0x1E2E JUMP JUMPDEST DUP1 DUP1 PUSH2 0x1E20 SWAP1 PUSH2 0x3D0E JUMP JUMPDEST SWAP2 POP POP PUSH2 0x1D86 JUMP JUMPDEST POP PUSH1 0x0 SWAP1 POP JUMPDEST SWAP1 JUMP JUMPDEST PUSH1 0x0 DUP2 MLOAD SUB PUSH2 0x1E75 JUMPI PUSH1 0x40 MLOAD PUSH32 0x8C379A000000000000000000000000000000000000000000000000000000000 DUP2 MSTORE PUSH1 0x4 ADD PUSH2 0x1E6C SWAP1 PUSH2 0x438D JUMP JUMPDEST PUSH1 0x40 MLOAD DUP1 SWAP2 SUB SWAP1 REVERT JUMPDEST PUSH1 0x1 DUP2 PUSH1 0x40 MLOAD PUSH2 0x1E85 SWAP2 SWAP1 PUSH2 0x3FE9 JUMP JUMPDEST SWAP1 DUP2 MSTORE PUSH1 0x20 ADD PUSH1 0x40 MLOAD DUP1 SWAP2 SUB SWAP1 KECCAK256 PUSH1 0x0 SWAP1 SLOAD SWAP1 PUSH2 0x100 EXP SWAP1 DIV PUSH1 0xFF AND ISZERO PUSH2 0x1EE1 JUMPI PUSH1 0x40 MLOAD PUSH32 0x8C379A000000000000000000000000000000000000000000000000000000000 DUP2 MSTORE PUSH1 0x4 ADD PUSH2 0x1ED8 SWAP1 PUSH2 0x4606 JUMP JUMPDEST PUSH1 0x40 MLOAD DUP1 SWAP2 SUB SWAP1 REVERT JUMPDEST PUSH1 0x0 PUSH2 0x1EEB PUSH2 0x2EB7 JUMP JUMPDEST SWAP1 POP PUSH1 0x6 PUSH1 0x40 MLOAD DUP1 PUSH1 0x80 ADD PUSH1 0x40 MSTORE DUP1 PUSH1 0x3 SLOAD DUP2 MSTORE PUSH1 0x20 ADD DUP5 DUP2 MSTORE PUSH1 0x20 ADD PUSH1 0x0 PUSH8 0xFFFFFFFFFFFFFFFF DUP2 GT ISZERO PUSH2 0x1F23 JUMPI PUSH2 0x1F22 PUSH2 0x3578 JUMP JUMPDEST JUMPDEST PUSH1 0x40 MLOAD SWAP1 DUP1 DUP3 MSTORE DUP1 PUSH1 0x20 MUL PUSH1 0x20 ADD DUP3 ADD PUSH1 0x40 MSTORE DUP1 ISZERO PUSH2 0x1F51 JUMPI DUP2 PUSH1 0x20 ADD PUSH1 0x20 DUP3 MUL DUP1 CALLDATASIZE DUP4 CALLDATACOPY DUP1 DUP3 ADD SWAP2 POP POP SWAP1 POP JUMPDEST POP DUP2 MSTORE PUSH1 0x20 ADD PUSH1 0x0 PUSH8 0xFFFFFFFFFFFFFFFF DUP2 GT ISZERO PUSH2 0x1F72 JUMPI PUSH2 0x1F71 PUSH2 0x3578 JUMP JUMPDEST JUMPDEST PUSH1 0x40 MLOAD SWAP1 DUP1 DUP3 MSTORE DUP1 PUSH1 0x20 MUL PUSH1 0x20 ADD DUP3 ADD PUSH1 0x40 MSTORE DUP1 ISZERO PUSH2 0x1FA0 JUMPI DUP2 PUSH1 0x20 ADD PUSH1 0x20 DUP3 MUL DUP1 CALLDATASIZE DUP4 CALLDATACOPY DUP1 DUP3 ADD SWAP2 POP POP SWAP1 POP JUMPDEST POP DUP2 MSTORE POP SWAP1 DUP1 PUSH1 0x1 DUP2 SLOAD ADD DUP1 DUP3 SSTORE DUP1 SWAP2 POP POP PUSH1 0x1 SWAP1 SUB SWAP1 PUSH1 0x0 MSTORE PUSH1 0x20 PUSH1 0x0 KECCAK256 SWAP1 PUSH1 0x4 MUL ADD PUSH1 0x0 SWAP1 SWAP2 SWAP1 SWAP2 SWAP1 SWAP2 POP PUSH1 0x0 DUP3 ADD MLOAD DUP2 PUSH1 0x0 ADD SSTORE PUSH1 0x20 DUP3 ADD MLOAD DUP2 PUSH1 0x1 ADD SWAP1 DUP2 PUSH2 0x1FEC SWAP2 SWAP1 PUSH2 0x426F JUMP JUMPDEST POP PUSH1 0x40 DUP3 ADD MLOAD DUP2 PUSH1 0x2 ADD SWAP1 DUP1 MLOAD SWAP1 PUSH1 0x20 ADD SWAP1 PUSH2 0x2009 SWAP3 SWAP2 SWAP1 PUSH2 0x307E JUMP JUMPDEST POP PUSH1 0x60 DUP3 ADD MLOAD DUP2 PUSH1 0x3 ADD SWAP1 DUP1 MLOAD SWAP1 PUSH1 0x20 ADD SWAP1 PUSH2 0x2026 SWAP3 SWAP2 SWAP1 PUSH2 0x307E JUMP JUMPDEST POP POP POP PUSH1 0x6 PUSH1 0x3 SLOAD DUP2 SLOAD DUP2 LT PUSH2 0x203F JUMPI PUSH2 0x203E PUSH2 0x3BE4 JUMP JUMPDEST JUMPDEST SWAP1 PUSH1 0x0 MSTORE PUSH1 0x20 PUSH1 0x0 KECCAK256 SWAP1 PUSH1 0x4 MUL ADD PUSH1 0x2 ADD DUP2 SWAP1 DUP1 PUSH1 0x1 DUP2 SLOAD ADD DUP1 DUP3 SSTORE DUP1 SWAP2 POP POP PUSH1 0x1 SWAP1 SUB SWAP1 PUSH1 0x0 MSTORE PUSH1 0x20 PUSH1 0x0 KECCAK256 ADD PUSH1 0x0 SWAP1 SWAP2 SWAP1 SWAP2 SWAP1 SWAP2 POP SSTORE PUSH1 0x5 DUP2 DUP2 SLOAD DUP2 LT PUSH2 0x208B JUMPI PUSH2 0x208A PUSH2 0x3BE4 JUMP JUMPDEST JUMPDEST SWAP1 PUSH1 0x0 MSTORE PUSH1 0x20 PUSH1 0x0 KECCAK256 SWAP1 PUSH1 0x4 MUL ADD PUSH1 0x1 ADD PUSH1 0x3 SLOAD SWAP1 DUP1 PUSH1 0x1 DUP2 SLOAD ADD DUP1 DUP3 SSTORE DUP1 SWAP2 POP POP PUSH1 0x1 SWAP1 SUB SWAP1 PUSH1 0x0 MSTORE PUSH1 0x20 PUSH1 0x0 KECCAK256 ADD PUSH1 0x0 SWAP1 SWAP2 SWAP1 SWAP2 SWAP1 SWAP2 POP SSTORE PUSH1 0x1 DUP1 DUP4 PUSH1 0x40 MLOAD PUSH2 0x20D6 SWAP2 SWAP1 PUSH2 0x3FE9 JUMP JUMPDEST SWAP1 DUP2 MSTORE PUSH1 0x20 ADD PUSH1 0x40 MLOAD DUP1 SWAP2 SUB SWAP1 KECCAK256 PUSH1 0x0 PUSH2 0x100 EXP DUP2 SLOAD DUP2 PUSH1 0xFF MUL NOT AND SWAP1 DUP4 ISZERO ISZERO MUL OR SWAP1 SSTORE POP PUSH1 0x3 PUSH1 0x0 DUP2 SLOAD DUP1 SWAP3 SWAP2 SWAP1 PUSH2 0x210E SWAP1 PUSH2 0x3D0E JUMP JUMPDEST SWAP2 SWAP1 POP SSTORE POP PUSH32 0x27276DF2065752AE77C089FEFF5CDD46E3617227489882EDBB634B6DF7A57FC2 PUSH1 0x40 MLOAD PUSH1 0x40 MLOAD DUP1 SWAP2 SUB SWAP1 LOG1 POP POP JUMP JUMPDEST PUSH1 0x0 PUSH2 0x214D PUSH2 0x2EB7 JUMP JUMPDEST SWAP1 POP DUP3 PUSH1 0x7 DUP1 SLOAD SWAP1 POP GT PUSH2 0x2196 JUMPI PUSH1 0x40 MLOAD PUSH32 0x8C379A000000000000000000000000000000000000000000000000000000000 DUP2 MSTORE PUSH1 0x4 ADD PUSH2 0x218D SWAP1 PUSH2 0x4672 JUMP JUMPDEST PUSH1 0x40 MLOAD DUP1 SWAP2 SUB SWAP1 REVERT JUMPDEST PUSH1 0x7 DUP4 DUP2 SLOAD DUP2 LT PUSH2 0x21AA JUMPI PUSH2 0x21A9 PUSH2 0x3BE4 JUMP JUMPDEST JUMPDEST SWAP1 PUSH1 0x0 MSTORE PUSH1 0x20 PUSH1 0x0 KECCAK256 SWAP1 PUSH1 0x8 MUL ADD PUSH1 0x1 ADD PUSH1 0x0 ADD SLOAD DUP2 EQ PUSH2 0x2200 JUMPI PUSH1 0x40 MLOAD PUSH32 0x8C379A000000000000000000000000000000000000000000000000000000000 DUP2 MSTORE PUSH1 0x4 ADD PUSH2 0x21F7 SWAP1 PUSH2 0x4704 JUMP JUMPDEST PUSH1 0x40 MLOAD DUP1 SWAP2 SUB SWAP1 REVERT JUMPDEST PUSH1 0x0 DUP3 MLOAD SUB PUSH2 0x2244 JUMPI PUSH1 0x40 MLOAD PUSH32 0x8C379A000000000000000000000000000000000000000000000000000000000 DUP2 MSTORE PUSH1 0x4 ADD PUSH2 0x223B SWAP1 PUSH2 0x438D JUMP JUMPDEST PUSH1 0x40 MLOAD DUP1 SWAP2 SUB SWAP1 REVERT JUMPDEST PUSH1 0x40 MLOAD DUP1 PUSH1 0xA0 ADD PUSH1 0x40 MSTORE DUP1 PUSH1 0x7 DUP6 DUP2 SLOAD DUP2 LT PUSH2 0x2263 JUMPI PUSH2 0x2262 PUSH2 0x3BE4 JUMP JUMPDEST JUMPDEST SWAP1 PUSH1 0x0 MSTORE PUSH1 0x20 PUSH1 0x0 KECCAK256 SWAP1 PUSH1 0x8 MUL ADD PUSH1 0x0 ADD SLOAD DUP2 MSTORE PUSH1 0x20 ADD PUSH1 0x7 DUP6 DUP2 SLOAD DUP2 LT PUSH2 0x228E JUMPI PUSH2 0x228D PUSH2 0x3BE4 JUMP JUMPDEST JUMPDEST SWAP1 PUSH1 0x0 MSTORE PUSH1 0x20 PUSH1 0x0 KECCAK256 SWAP1 PUSH1 0x8 MUL ADD PUSH1 0x1 ADD PUSH1 0x40 MLOAD DUP1 PUSH1 0x80 ADD PUSH1 0x40 MSTORE SWAP1 DUP2 PUSH1 0x0 DUP3 ADD SLOAD DUP2 MSTORE PUSH1 0x20 ADD PUSH1 0x1 DUP3 ADD DUP1 SLOAD DUP1 PUSH1 0x20 MUL PUSH1 0x20 ADD PUSH1 0x40 MLOAD SWAP1 DUP2 ADD PUSH1 0x40 MSTORE DUP1 SWAP3 SWAP2 SWAP1 DUP2 DUP2 MSTORE PUSH1 0x20 ADD DUP3 DUP1 SLOAD DUP1 ISZERO PUSH2 0x2303 JUMPI PUSH1 0x20 MUL DUP3 ADD SWAP2 SWAP1 PUSH1 0x0 MSTORE PUSH1 0x20 PUSH1 0x0 KECCAK256 SWAP1 JUMPDEST DUP2 SLOAD DUP2 MSTORE PUSH1 0x20 ADD SWAP1 PUSH1 0x1 ADD SWAP1 DUP1 DUP4 GT PUSH2 0x22EF JUMPI JUMPDEST POP POP POP POP POP DUP2 MSTORE PUSH1 0x20 ADD PUSH1 0x2 DUP3 ADD DUP1 SLOAD PUSH2 0x231C SWAP1 PUSH2 0x3CAE JUMP JUMPDEST DUP1 PUSH1 0x1F ADD PUSH1 0x20 DUP1 SWAP2 DIV MUL PUSH1 0x20 ADD PUSH1 0x40 MLOAD SWAP1 DUP2 ADD PUSH1 0x40 MSTORE DUP1 SWAP3 SWAP2 SWAP1 DUP2 DUP2 MSTORE PUSH1 0x20 ADD DUP3 DUP1 SLOAD PUSH2 0x2348 SWAP1 PUSH2 0x3CAE JUMP JUMPDEST DUP1 ISZERO PUSH2 0x2395 JUMPI DUP1 PUSH1 0x1F LT PUSH2 0x236A JUMPI PUSH2 0x100 DUP1 DUP4 SLOAD DIV MUL DUP4 MSTORE SWAP2 PUSH1 0x20 ADD SWAP2 PUSH2 0x2395 JUMP JUMPDEST DUP3 ADD SWAP2 SWAP1 PUSH1 0x0 MSTORE PUSH1 0x20 PUSH1 0x0 KECCAK256 SWAP1 JUMPDEST DUP2 SLOAD DUP2 MSTORE SWAP1 PUSH1 0x1 ADD SWAP1 PUSH1 0x20 ADD DUP1 DUP4 GT PUSH2 0x2378 JUMPI DUP3 SWAP1 SUB PUSH1 0x1F AND DUP3 ADD SWAP2 JUMPDEST POP POP POP POP POP DUP2 MSTORE PUSH1 0x20 ADD PUSH1 0x3 DUP3 ADD PUSH1 0x0 SWAP1 SLOAD SWAP1 PUSH2 0x100 EXP SWAP1 DIV PUSH20 0xFFFFFFFFFFFFFFFFFFFFFFFFFFFFFFFFFFFFFFFF AND PUSH20 0xFFFFFFFFFFFFFFFFFFFFFFFFFFFFFFFFFFFFFFFF AND PUSH20 0xFFFFFFFFFFFFFFFFFFFFFFFFFFFFFFFFFFFFFFFF AND DUP2 MSTORE POP POP DUP2 MSTORE PUSH1 0x20 ADD DUP4 DUP2 MSTORE PUSH1 0x20 ADD TIMESTAMP DUP2 MSTORE PUSH1 0x20 ADD PUSH1 0x1 ISZERO ISZERO DUP2 MSTORE POP PUSH1 0x7 DUP5 DUP2 SLOAD DUP2 LT PUSH2 0x2420 JUMPI PUSH2 0x241F PUSH2 0x3BE4 JUMP JUMPDEST JUMPDEST SWAP1 PUSH1 0x0 MSTORE PUSH1 0x20 PUSH1 0x0 KECCAK256 SWAP1 PUSH1 0x8 MUL ADD PUSH1 0x0 DUP3 ADD MLOAD DUP2 PUSH1 0x0 ADD SSTORE PUSH1 0x20 DUP3 ADD MLOAD DUP2 PUSH1 0x1 ADD PUSH1 0x0 DUP3 ADD MLOAD DUP2 PUSH1 0x0 ADD SSTORE PUSH1 0x20 DUP3 ADD MLOAD DUP2 PUSH1 0x1 ADD SWAP1 DUP1 MLOAD SWAP1 PUSH1 0x20 ADD SWAP1 PUSH2 0x2467 SWAP3 SWAP2 SWAP1 PUSH2 0x307E JUMP JUMPDEST POP PUSH1 0x40 DUP3 ADD MLOAD DUP2 PUSH1 0x2 ADD SWAP1 DUP2 PUSH2 0x247D SWAP2 SWAP1 PUSH2 0x426F JUMP JUMPDEST POP PUSH1 0x60 DUP3 ADD MLOAD DUP2 PUSH1 0x3 ADD PUSH1 0x0 PUSH2 0x100 EXP DUP2 SLOAD DUP2 PUSH20 0xFFFFFFFFFFFFFFFFFFFFFFFFFFFFFFFFFFFFFFFF MUL NOT AND SWAP1 DUP4 PUSH20 0xFFFFFFFFFFFFFFFFFFFFFFFFFFFFFFFFFFFFFFFF AND MUL OR SWAP1 SSTORE POP POP POP PUSH1 0x40 DUP3 ADD MLOAD DUP2 PUSH1 0x5 ADD SWAP1 DUP2 PUSH2 0x24DC SWAP2 SWAP1 PUSH2 0x426F JUMP JUMPDEST POP PUSH1 0x60 DUP3 ADD MLOAD DUP2 PUSH1 0x6 ADD SSTORE PUSH1 0x80 DUP3 ADD MLOAD DUP2 PUSH1 0x7 ADD PUSH1 0x0 PUSH2 0x100 EXP DUP2 SLOAD DUP2 PUSH1 0xFF MUL NOT AND SWAP1 DUP4 ISZERO ISZERO MUL OR SWAP1 SSTORE POP SWAP1 POP POP PUSH32 0x2E98287333723B369DAEB64A58F5743DEBE818EDE93B5542E039F56BEE6A3608 PUSH1 0x40 MLOAD PUSH1 0x40 MLOAD DUP1 SWAP2 SUB SWAP1 LOG1 POP POP POP JUMP JUMPDEST DUP1 PUSH1 0x7 DUP1 SLOAD SWAP1 POP GT PUSH2 0x2582 JUMPI PUSH1 0x40 MLOAD PUSH32 0x8C379A000000000000000000000000000000000000000000000000000000000 DUP2 MSTORE PUSH1 0x4 ADD PUSH2 0x2579 SWAP1 PUSH2 0x4672 JUMP JUMPDEST PUSH1 0x40 MLOAD DUP1 SWAP2 SUB SWAP1 REVERT JUMPDEST PUSH1 0x7 DUP2 DUP2 SLOAD DUP2 LT PUSH2 0x2596 JUMPI PUSH2 0x2595 PUSH2 0x3BE4 JUMP JUMPDEST JUMPDEST SWAP1 PUSH1 0x0 MSTORE PUSH1 0x20 PUSH1 0x0 KECCAK256 SWAP1 PUSH1 0x8 MUL ADD PUSH1 0x0 DUP1 DUP3 ADD PUSH1 0x0 SWAP1 SSTORE PUSH1 0x1 DUP3 ADD PUSH1 0x0 DUP1 DUP3 ADD PUSH1 0x0 SWAP1 SSTORE PUSH1 0x1 DUP3 ADD PUSH1 0x0 PUSH2 0x25CA SWAP2 SWAP1 PUSH2 0x30CB JUMP JUMPDEST PUSH1 0x2 DUP3 ADD PUSH1 0x0 PUSH2 0x25DA SWAP2 SWAP1 PUSH2 0x30EC JUMP JUMPDEST PUSH1 0x3 DUP3 ADD PUSH1 0x0 PUSH2 0x100 EXP DUP2 SLOAD SWAP1 PUSH20 0xFFFFFFFFFFFFFFFFFFFFFFFFFFFFFFFFFFFFFFFF MUL NOT AND SWAP1 SSTORE POP POP PUSH1 0x5 DUP3 ADD PUSH1 0x0 PUSH2 0x2613 SWAP2 SWAP1 PUSH2 0x30EC JUMP JUMPDEST PUSH1 0x6 DUP3 ADD PUSH1 0x0 SWAP1 SSTORE PUSH1 0x7 DUP3 ADD PUSH1 0x0 PUSH2 0x100 EXP DUP2 SLOAD SWAP1 PUSH1 0xFF MUL NOT AND SWAP1 SSTORE POP POP PUSH32 0x2E98287333723B369DAEB64A58F5743DEBE818EDE93B5542E039F56BEE6A3608 PUSH1 0x40 MLOAD PUSH1 0x40 MLOAD DUP1 SWAP2 SUB SWAP1 LOG1 POP JUMP JUMPDEST PUSH1 0x60 PUSH1 0x0 PUSH2 0x266C PUSH2 0x2EB7 JUMP JUMPDEST SWAP1 POP DUP3 PUSH1 0x6 DUP1 SLOAD SWAP1 POP GT PUSH2 0x26B5 JUMPI PUSH1 0x40 MLOAD PUSH32 0x8C379A000000000000000000000000000000000000000000000000000000000 DUP2 MSTORE PUSH1 0x4 ADD PUSH2 0x26AC SWAP1 PUSH2 0x3BC4 JUMP JUMPDEST PUSH1 0x40 MLOAD DUP1 SWAP2 SUB SWAP1 REVERT JUMPDEST PUSH2 0x2732 PUSH1 0x6 DUP5 DUP2 SLOAD DUP2 LT PUSH2 0x26CC JUMPI PUSH2 0x26CB PUSH2 0x3BE4 JUMP JUMPDEST JUMPDEST SWAP1 PUSH1 0x0 MSTORE PUSH1 0x20 PUSH1 0x0 KECCAK256 SWAP1 PUSH1 0x4 MUL ADD PUSH1 0x2 ADD DUP1 SLOAD DUP1 PUSH1 0x20 MUL PUSH1 0x20 ADD PUSH1 0x40 MLOAD SWAP1 DUP2 ADD PUSH1 0x40 MSTORE DUP1 SWAP3 SWAP2 SWAP1 DUP2 DUP2 MSTORE PUSH1 0x20 ADD DUP3 DUP1 SLOAD DUP1 ISZERO PUSH2 0x2727 JUMPI PUSH1 0x20 MUL DUP3 ADD SWAP2 SWAP1 PUSH1 0x0 MSTORE PUSH1 0x20 PUSH1 0x0 KECCAK256 SWAP1 JUMPDEST DUP2 SLOAD DUP2 MSTORE PUSH1 0x20 ADD SWAP1 PUSH1 0x1 ADD SWAP1 DUP1 DUP4 GT PUSH2 0x2713 JUMPI JUMPDEST POP POP POP POP POP DUP3 PUSH2 0x2FC4 JUMP JUMPDEST PUSH2 0x2771 JUMPI PUSH1 0x40 MLOAD PUSH32 0x8C379A000000000000000000000000000000000000000000000000000000000 DUP2 MSTORE PUSH1 0x4 ADD PUSH2 0x2768 SWAP1 PUSH2 0x3C5F JUMP JUMPDEST PUSH1 0x40 MLOAD DUP1 SWAP2 SUB SWAP1 REVERT JUMPDEST PUSH1 0x0 PUSH1 0x6 DUP5 DUP2 SLOAD DUP2 LT PUSH2 0x2787 JUMPI PUSH2 0x2786 PUSH2 0x3BE4 JUMP JUMPDEST JUMPDEST SWAP1 PUSH1 0x0 MSTORE PUSH1 0x20 PUSH1 0x0 KECCAK256 SWAP1 PUSH1 0x4 MUL ADD PUSH1 0x2 ADD DUP1 SLOAD SWAP1 POP PUSH8 0xFFFFFFFFFFFFFFFF DUP2 GT ISZERO PUSH2 0x27B5 JUMPI PUSH2 0x27B4 PUSH2 0x3578 JUMP JUMPDEST JUMPDEST PUSH1 0x40 MLOAD SWAP1 DUP1 DUP3 MSTORE DUP1 PUSH1 0x20 MUL PUSH1 0x20 ADD DUP3 ADD PUSH1 0x40 MSTORE DUP1 ISZERO PUSH2 0x27EE JUMPI DUP2 PUSH1 0x20 ADD JUMPDEST PUSH2 0x27DB PUSH2 0x312C JUMP JUMPDEST DUP2 MSTORE PUSH1 0x20 ADD SWAP1 PUSH1 0x1 SWAP1 SUB SWAP1 DUP2 PUSH2 0x27D3 JUMPI SWAP1 POP JUMPDEST POP SWAP1 POP PUSH1 0x0 DUP1 PUSH1 0x0 SWAP1 POP JUMPDEST PUSH1 0x5 DUP1 SLOAD SWAP1 POP DUP2 LT ISZERO PUSH2 0x2A6A JUMPI PUSH1 0x0 PUSH2 0x28AA PUSH1 0x6 DUP9 DUP2 SLOAD DUP2 LT PUSH2 0x281F JUMPI PUSH2 0x281E PUSH2 0x3BE4 JUMP JUMPDEST JUMPDEST SWAP1 PUSH1 0x0 MSTORE PUSH1 0x20 PUSH1 0x0 KECCAK256 SWAP1 PUSH1 0x4 MUL ADD PUSH1 0x2 ADD DUP1 SLOAD DUP1 PUSH1 0x20 MUL PUSH1 0x20 ADD PUSH1 0x40 MLOAD SWAP1 DUP2 ADD PUSH1 0x40 MSTORE DUP1 SWAP3 SWAP2 SWAP1 DUP2 DUP2 MSTORE PUSH1 0x20 ADD DUP3 DUP1 SLOAD DUP1 ISZERO PUSH2 0x287A JUMPI PUSH1 0x20 MUL DUP3 ADD SWAP2 SWAP1 PUSH1 0x0 MSTORE PUSH1 0x20 PUSH1 0x0 KECCAK256 SWAP1 JUMPDEST DUP2 SLOAD DUP2 MSTORE PUSH1 0x20 ADD SWAP1 PUSH1 0x1 ADD SWAP1 DUP1 DUP4 GT PUSH2 0x2866 JUMPI JUMPDEST POP POP POP POP POP PUSH1 0x5 DUP5 DUP2 SLOAD DUP2 LT PUSH2 0x2893 JUMPI PUSH2 0x2892 PUSH2 0x3BE4 JUMP JUMPDEST JUMPDEST SWAP1 PUSH1 0x0 MSTORE PUSH1 0x20 PUSH1 0x0 KECCAK256 SWAP1 PUSH1 0x4 MUL ADD PUSH1 0x0 ADD SLOAD PUSH2 0x2FC4 JUMP JUMPDEST SWAP1 POP DUP1 ISZERO PUSH2 0x2A56 JUMPI PUSH1 0x5 DUP3 DUP2 SLOAD DUP2 LT PUSH2 0x28C6 JUMPI PUSH2 0x28C5 PUSH2 0x3BE4 JUMP JUMPDEST JUMPDEST SWAP1 PUSH1 0x0 MSTORE PUSH1 0x20 PUSH1 0x0 KECCAK256 SWAP1 PUSH1 0x4 MUL ADD PUSH1 0x40 MLOAD DUP1 PUSH1 0x80 ADD PUSH1 0x40 MSTORE SWAP1 DUP2 PUSH1 0x0 DUP3 ADD SLOAD DUP2 MSTORE PUSH1 0x20 ADD PUSH1 0x1 DUP3 ADD DUP1 SLOAD DUP1 PUSH1 0x20 MUL PUSH1 0x20 ADD PUSH1 0x40 MLOAD SWAP1 DUP2 ADD PUSH1 0x40 MSTORE DUP1 SWAP3 SWAP2 SWAP1 DUP2 DUP2 MSTORE PUSH1 0x20 ADD DUP3 DUP1 SLOAD DUP1 ISZERO PUSH2 0x2938 JUMPI PUSH1 0x20 MUL DUP3 ADD SWAP2 SWAP1 PUSH1 0x0 MSTORE PUSH1 0x20 PUSH1 0x0 KECCAK256 SWAP1 JUMPDEST DUP2 SLOAD DUP2 MSTORE PUSH1 0x20 ADD SWAP1 PUSH1 0x1 ADD SWAP1 DUP1 DUP4 GT PUSH2 0x2924 JUMPI JUMPDEST POP POP POP POP POP DUP2 MSTORE PUSH1 0x20 ADD PUSH1 0x2 DUP3 ADD DUP1 SLOAD PUSH2 0x2951 SWAP1 PUSH2 0x3CAE JUMP JUMPDEST DUP1 PUSH1 0x1F ADD PUSH1 0x20 DUP1 SWAP2 DIV MUL PUSH1 0x20 ADD PUSH1 0x40 MLOAD SWAP1 DUP2 ADD PUSH1 0x40 MSTORE DUP1 SWAP3 SWAP2 SWAP1 DUP2 DUP2 MSTORE PUSH1 0x20 ADD DUP3 DUP1 SLOAD PUSH2 0x297D SWAP1 PUSH2 0x3CAE JUMP JUMPDEST DUP1 ISZERO PUSH2 0x29CA JUMPI DUP1 PUSH1 0x1F LT PUSH2 0x299F JUMPI PUSH2 0x100 DUP1 DUP4 SLOAD DIV MUL DUP4 MSTORE SWAP2 PUSH1 0x20 ADD SWAP2 PUSH2 0x29CA JUMP JUMPDEST DUP3 ADD SWAP2 SWAP1 PUSH1 0x0 MSTORE PUSH1 0x20 PUSH1 0x0 KECCAK256 SWAP1 JUMPDEST DUP2 SLOAD DUP2 MSTORE SWAP1 PUSH1 0x1 ADD SWAP1 PUSH1 0x20 ADD DUP1 DUP4 GT PUSH2 0x29AD JUMPI DUP3 SWAP1 SUB PUSH1 0x1F AND DUP3 ADD SWAP2 JUMPDEST POP POP POP POP POP DUP2 MSTORE PUSH1 0x20 ADD PUSH1 0x3 DUP3 ADD PUSH1 0x0 SWAP1 SLOAD SWAP1 PUSH2 0x100 EXP SWAP1 DIV PUSH20 0xFFFFFFFFFFFFFFFFFFFFFFFFFFFFFFFFFFFFFFFF AND PUSH20 0xFFFFFFFFFFFFFFFFFFFFFFFFFFFFFFFFFFFFFFFF AND PUSH20 0xFFFFFFFFFFFFFFFFFFFFFFFFFFFFFFFFFFFFFFFF AND DUP2 MSTORE POP POP DUP5 DUP5 DUP2 MLOAD DUP2 LT PUSH2 0x2A3C JUMPI PUSH2 0x2A3B PUSH2 0x3BE4 JUMP JUMPDEST JUMPDEST PUSH1 0x20 MUL PUSH1 0x20 ADD ADD DUP2 SWAP1 MSTORE POP DUP3 DUP1 PUSH2 0x2A52 SWAP1 PUSH2 0x3D0E JUMP JUMPDEST SWAP4 POP POP JUMPDEST POP DUP1 DUP1 PUSH2 0x2A62 SWAP1 PUSH2 0x3D0E JUMP JUMPDEST SWAP2 POP POP PUSH2 0x27F9 JUMP JUMPDEST POP DUP2 SWAP4 POP POP POP POP SWAP2 SWAP1 POP JUMP JUMPDEST PUSH1 0x60 PUSH1 0x5 DUP1 SLOAD DUP1 PUSH1 0x20 MUL PUSH1 0x20 ADD PUSH1 0x40 MLOAD SWAP1 DUP2 ADD PUSH1 0x40 MSTORE DUP1 SWAP3 SWAP2 SWAP1 DUP2 DUP2 MSTORE PUSH1 0x20 ADD PUSH1 0x0 SWAP1 JUMPDEST DUP3 DUP3 LT ISZERO PUSH2 0x2C16 JUMPI DUP4 DUP3 SWAP1 PUSH1 0x0 MSTORE PUSH1 0x20 PUSH1 0x0 KECCAK256 SWAP1 PUSH1 0x4 MUL ADD PUSH1 0x40 MLOAD DUP1 PUSH1 0x80 ADD PUSH1 0x40 MSTORE SWAP1 DUP2 PUSH1 0x0 DUP3 ADD SLOAD DUP2 MSTORE PUSH1 0x20 ADD PUSH1 0x1 DUP3 ADD DUP1 SLOAD DUP1 PUSH1 0x20 MUL PUSH1 0x20 ADD PUSH1 0x40 MLOAD SWAP1 DUP2 ADD PUSH1 0x40 MSTORE DUP1 SWAP3 SWAP2 SWAP1 DUP2 DUP2 MSTORE PUSH1 0x20 ADD DUP3 DUP1 SLOAD DUP1 ISZERO PUSH2 0x2B16 JUMPI PUSH1 0x20 MUL DUP3 ADD SWAP2 SWAP1 PUSH1 0x0 MSTORE PUSH1 0x20 PUSH1 0x0 KECCAK256 SWAP1 JUMPDEST DUP2 SLOAD DUP2 MSTORE PUSH1 0x20 ADD SWAP1 PUSH1 0x1 ADD SWAP1 DUP1 DUP4 GT PUSH2 0x2B02 JUMPI JUMPDEST POP POP POP POP POP DUP2 MSTORE PUSH1 0x20 ADD PUSH1 0x2 DUP3 ADD DUP1 SLOAD PUSH2 0x2B2F SWAP1 PUSH2 0x3CAE JUMP JUMPDEST DUP1 PUSH1 0x1F ADD PUSH1 0x20 DUP1 SWAP2 DIV MUL PUSH1 0x20 ADD PUSH1 0x40 MLOAD SWAP1 DUP2 ADD PUSH1 0x40 MSTORE DUP1 SWAP3 SWAP2 SWAP1 DUP2 DUP2 MSTORE PUSH1 0x20 ADD DUP3 DUP1 SLOAD PUSH2 0x2B5B SWAP1 PUSH2 0x3CAE JUMP JUMPDEST DUP1 ISZERO PUSH2 0x2BA8 JUMPI DUP1 PUSH1 0x1F LT PUSH2 0x2B7D JUMPI PUSH2 0x100 DUP1 DUP4 SLOAD DIV MUL DUP4 MSTORE SWAP2 PUSH1 0x20 ADD SWAP2 PUSH2 0x2BA8 JUMP JUMPDEST DUP3 ADD SWAP2 SWAP1 PUSH1 0x0 MSTORE PUSH1 0x20 PUSH1 0x0 KECCAK256 SWAP1 JUMPDEST DUP2 SLOAD DUP2 MSTORE SWAP1 PUSH1 0x1 ADD SWAP1 PUSH1 0x20 ADD DUP1 DUP4 GT PUSH2 0x2B8B JUMPI DUP3 SWAP1 SUB PUSH1 0x1F AND DUP3 ADD SWAP2 JUMPDEST POP POP POP POP POP DUP2 MSTORE PUSH1 0x20 ADD PUSH1 0x3 DUP3 ADD PUSH1 0x0 SWAP1 SLOAD SWAP1 PUSH2 0x100 EXP SWAP1 DIV PUSH20 0xFFFFFFFFFFFFFFFFFFFFFFFFFFFFFFFFFFFFFFFF AND PUSH20 0xFFFFFFFFFFFFFFFFFFFFFFFFFFFFFFFFFFFFFFFF AND PUSH20 0xFFFFFFFFFFFFFFFFFFFFFFFFFFFFFFFFFFFFFFFF AND DUP2 MSTORE POP POP DUP2 MSTORE PUSH1 0x20 ADD SWAP1 PUSH1 0x1 ADD SWAP1 PUSH2 0x2A9A JUMP JUMPDEST POP POP POP POP SWAP1 POP SWAP1 JUMP JUMPDEST PUSH2 0x2C27 PUSH2 0x3056 JUMP JUMPDEST PUSH1 0x0 PUSH2 0x2C31 PUSH2 0x2EB7 JUMP JUMPDEST SWAP1 POP DUP3 PUSH1 0x6 DUP1 SLOAD SWAP1 POP GT PUSH2 0x2C7A JUMPI PUSH1 0x40 MLOAD PUSH32 0x8C379A000000000000000000000000000000000000000000000000000000000 DUP2 MSTORE PUSH1 0x4 ADD PUSH2 0x2C71 SWAP1 PUSH2 0x3BC4 JUMP JUMPDEST PUSH1 0x40 MLOAD DUP1 SWAP2 SUB SWAP1 REVERT JUMPDEST PUSH2 0x2CF7 PUSH1 0x6 DUP5 DUP2 SLOAD DUP2 LT PUSH2 0x2C91 JUMPI PUSH2 0x2C90 PUSH2 0x3BE4 JUMP JUMPDEST JUMPDEST SWAP1 PUSH1 0x0 MSTORE PUSH1 0x20 PUSH1 0x0 KECCAK256 SWAP1 PUSH1 0x4 MUL ADD PUSH1 0x2 ADD DUP1 SLOAD DUP1 PUSH1 0x20 MUL PUSH1 0x20 ADD PUSH1 0x40 MLOAD SWAP1 DUP2 ADD PUSH1 0x40 MSTORE DUP1 SWAP3 SWAP2 SWAP1 DUP2 DUP2 MSTORE PUSH1 0x20 ADD DUP3 DUP1 SLOAD DUP1 ISZERO PUSH2 0x2CEC JUMPI PUSH1 0x20 MUL DUP3 ADD SWAP2 SWAP1 PUSH1 0x0 MSTORE PUSH1 0x20 PUSH1 0x0 KECCAK256 SWAP1 JUMPDEST DUP2 SLOAD DUP2 MSTORE PUSH1 0x20 ADD SWAP1 PUSH1 0x1 ADD SWAP1 DUP1 DUP4 GT PUSH2 0x2CD8 JUMPI JUMPDEST POP POP POP POP POP DUP3 PUSH2 0x2FC4 JUMP JUMPDEST PUSH2 0x2D36 JUMPI PUSH1 0x40 MLOAD PUSH32 0x8C379A000000000000000000000000000000000000000000000000000000000 DUP2 MSTORE PUSH1 0x4 ADD PUSH2 0x2D2D SWAP1 PUSH2 0x3DC8 JUMP JUMPDEST PUSH1 0x40 MLOAD DUP1 SWAP2 SUB SWAP1 REVERT JUMPDEST PUSH1 0x6 DUP4 DUP2 SLOAD DUP2 LT PUSH2 0x2D4A JUMPI PUSH2 0x2D49 PUSH2 0x3BE4 JUMP JUMPDEST JUMPDEST SWAP1 PUSH1 0x0 MSTORE PUSH1 0x20 PUSH1 0x0 KECCAK256 SWAP1 PUSH1 0x4 MUL ADD PUSH1 0x40 MLOAD DUP1 PUSH1 0x80 ADD PUSH1 0x40 MSTORE SWAP1 DUP2 PUSH1 0x0 DUP3 ADD SLOAD DUP2 MSTORE PUSH1 0x20 ADD PUSH1 0x1 DUP3 ADD DUP1 SLOAD PUSH2 0x2D7D SWAP1 PUSH2 0x3CAE JUMP JUMPDEST DUP1 PUSH1 0x1F ADD PUSH1 0x20 DUP1 SWAP2 DIV MUL PUSH1 0x20 ADD PUSH1 0x40 MLOAD SWAP1 DUP2 ADD PUSH1 0x40 MSTORE DUP1 SWAP3 SWAP2 SWAP1 DUP2 DUP2 MSTORE PUSH1 0x20 ADD DUP3 DUP1 SLOAD PUSH2 0x2DA9 SWAP1 PUSH2 0x3CAE JUMP JUMPDEST DUP1 ISZERO PUSH2 0x2DF6 JUMPI DUP1 PUSH1 0x1F LT PUSH2 0x2DCB JUMPI PUSH2 0x100 DUP1 DUP4 SLOAD DIV MUL DUP4 MSTORE SWAP2 PUSH1 0x20 ADD SWAP2 PUSH2 0x2DF6 JUMP JUMPDEST DUP3 ADD SWAP2 SWAP1 PUSH1 0x0 MSTORE PUSH1 0x20 PUSH1 0x0 KECCAK256 SWAP1 JUMPDEST DUP2 SLOAD DUP2 MSTORE SWAP1 PUSH1 0x1 ADD SWAP1 PUSH1 0x20 ADD DUP1 DUP4 GT PUSH2 0x2DD9 JUMPI DUP3 SWAP1 SUB PUSH1 0x1F AND DUP3 ADD SWAP2 JUMPDEST POP POP POP POP POP DUP2 MSTORE PUSH1 0x20 ADD PUSH1 0x2 DUP3 ADD DUP1 SLOAD DUP1 PUSH1 0x20 MUL PUSH1 0x20 ADD PUSH1 0x40 MLOAD SWAP1 DUP2 ADD PUSH1 0x40 MSTORE DUP1 SWAP3 SWAP2 SWAP1 DUP2 DUP2 MSTORE PUSH1 0x20 ADD DUP3 DUP1 SLOAD DUP1 ISZERO PUSH2 0x2E4E JUMPI PUSH1 0x20 MUL DUP3 ADD SWAP2 SWAP1 PUSH1 0x0 MSTORE PUSH1 0x20 PUSH1 0x0 KECCAK256 SWAP1 JUMPDEST DUP2 SLOAD DUP2 MSTORE PUSH1 0x20 ADD SWAP1 PUSH1 0x1 ADD SWAP1 DUP1 DUP4 GT PUSH2 0x2E3A JUMPI JUMPDEST POP POP POP POP POP DUP2 MSTORE PUSH1 0x20 ADD PUSH1 0x3 DUP3 ADD DUP1 SLOAD DUP1 PUSH1 0x20 MUL PUSH1 0x20 ADD PUSH1 0x40 MLOAD SWAP1 DUP2 ADD PUSH1 0x40 MSTORE DUP1 SWAP3 SWAP2 SWAP1 DUP2 DUP2 MSTORE PUSH1 0x20 ADD DUP3 DUP1 SLOAD DUP1 ISZERO PUSH2 0x2EA6 JUMPI PUSH1 0x20 MUL DUP3 ADD SWAP2 SWAP1 PUSH1 0x0 MSTORE PUSH1 0x20 PUSH1 0x0 KECCAK256 SWAP1 JUMPDEST DUP2 SLOAD DUP2 MSTORE PUSH1 0x20 ADD SWAP1 PUSH1 0x1 ADD SWAP1 DUP1 DUP4 GT PUSH2 0x2E92 JUMPI JUMPDEST POP POP POP POP POP DUP2 MSTORE POP POP SWAP2 POP POP SWAP2 SWAP1 POP JUMP JUMPDEST PUSH1 0x0 DUP1 PUSH1 0x0 SWAP1 POP JUMPDEST PUSH1 0x5 DUP1 SLOAD SWAP1 POP DUP2 LT ISZERO PUSH2 0x2F85 JUMPI CALLER PUSH20 0xFFFFFFFFFFFFFFFFFFFFFFFFFFFFFFFFFFFFFFFF AND PUSH1 0x5 DUP3 DUP2 SLOAD DUP2 LT PUSH2 0x2EF7 JUMPI PUSH2 0x2EF6 PUSH2 0x3BE4 JUMP JUMPDEST JUMPDEST SWAP1 PUSH1 0x0 MSTORE PUSH1 0x20 PUSH1 0x0 KECCAK256 SWAP1 PUSH1 0x4 MUL ADD PUSH1 0x3 ADD PUSH1 0x0 SWAP1 SLOAD SWAP1 PUSH2 0x100 EXP SWAP1 DIV PUSH20 0xFFFFFFFFFFFFFFFFFFFFFFFFFFFFFFFFFFFFFFFF AND PUSH20 0xFFFFFFFFFFFFFFFFFFFFFFFFFFFFFFFFFFFFFFFF AND SUB PUSH2 0x2F72 JUMPI PUSH1 0x5 DUP2 DUP2 SLOAD DUP2 LT PUSH2 0x2F58 JUMPI PUSH2 0x2F57 PUSH2 0x3BE4 JUMP JUMPDEST JUMPDEST SWAP1 PUSH1 0x0 MSTORE PUSH1 0x20 PUSH1 0x0 KECCAK256 SWAP1 PUSH1 0x4 MUL ADD PUSH1 0x0 ADD SLOAD SWAP2 POP POP PUSH2 0x2FC1 JUMP JUMPDEST DUP1 DUP1 PUSH2 0x2F7D SWAP1 PUSH2 0x3D0E JUMP JUMPDEST SWAP2 POP POP PUSH2 0x2EBF JUMP JUMPDEST POP PUSH1 0x40 MLOAD PUSH32 0x8C379A000000000000000000000000000000000000000000000000000000000 DUP2 MSTORE PUSH1 0x4 ADD PUSH2 0x2FB8 SWAP1 PUSH2 0x4770 JUMP JUMPDEST PUSH1 0x40 MLOAD DUP1 SWAP2 SUB SWAP1 REVERT JUMPDEST SWAP1 JUMP JUMPDEST PUSH1 0x0 DUP1 PUSH1 0x0 SWAP1 POP JUMPDEST DUP4 MLOAD DUP2 LT ISZERO PUSH2 0x3013 JUMPI DUP3 DUP5 DUP3 DUP2 MLOAD DUP2 LT PUSH2 0x2FE9 JUMPI PUSH2 0x2FE8 PUSH2 0x3BE4 JUMP JUMPDEST JUMPDEST PUSH1 0x20 MUL PUSH1 0x20 ADD ADD MLOAD SUB PUSH2 0x3000 JUMPI PUSH1 0x1 SWAP2 POP POP PUSH2 0x3019 JUMP JUMPDEST DUP1 DUP1 PUSH2 0x300B SWAP1 PUSH2 0x3D0E JUMP JUMPDEST SWAP2 POP POP PUSH2 0x2FCC JUMP JUMPDEST POP PUSH1 0x0 SWAP1 POP JUMPDEST SWAP3 SWAP2 POP POP JUMP JUMPDEST PUSH1 0x40 MLOAD DUP1 PUSH1 0xA0 ADD PUSH1 0x40 MSTORE DUP1 PUSH1 0x0 DUP2 MSTORE PUSH1 0x20 ADD PUSH2 0x3039 PUSH2 0x312C JUMP JUMPDEST DUP2 MSTORE PUSH1 0x20 ADD PUSH1 0x60 DUP2 MSTORE PUSH1 0x20 ADD PUSH1 0x0 DUP2 MSTORE PUSH1 0x20 ADD PUSH1 0x0 ISZERO ISZERO DUP2 MSTORE POP SWAP1 JUMP JUMPDEST PUSH1 0x40 MLOAD DUP1 PUSH1 0x80 ADD PUSH1 0x40 MSTORE DUP1 PUSH1 0x0 DUP2 MSTORE PUSH1 0x20 ADD PUSH1 0x60 DUP2 MSTORE PUSH1 0x20 ADD PUSH1 0x60 DUP2 MSTORE PUSH1 0x20 ADD PUSH1 0x60 DUP2 MSTORE POP SWAP1 JUMP JUMPDEST DUP3 DUP1 SLOAD DUP3 DUP3 SSTORE SWAP1 PUSH1 0x0 MSTORE PUSH1 0x20 PUSH1 0x0 KECCAK256 SWAP1 DUP2 ADD SWAP3 DUP3 ISZERO PUSH2 0x30BA JUMPI SWAP2 PUSH1 0x20 MUL DUP3 ADD JUMPDEST DUP3 DUP2 GT ISZERO PUSH2 0x30B9 JUMPI DUP3 MLOAD DUP3 SSTORE SWAP2 PUSH1 0x20 ADD SWAP2 SWAP1 PUSH1 0x1 ADD SWAP1 PUSH2 0x309E JUMP JUMPDEST JUMPDEST POP SWAP1 POP PUSH2 0x30C7 SWAP2 SWAP1 PUSH2 0x316A JUMP JUMPDEST POP SWAP1 JUMP JUMPDEST POP DUP1 SLOAD PUSH1 0x0 DUP3 SSTORE SWAP1 PUSH1 0x0 MSTORE PUSH1 0x20 PUSH1 0x0 KECCAK256 SWAP1 DUP2 ADD SWAP1 PUSH2 0x30E9 SWAP2 SWAP1 PUSH2 0x316A JUMP JUMPDEST POP JUMP JUMPDEST POP DUP1 SLOAD PUSH2 0x30F8 SWAP1 PUSH2 0x3CAE JUMP JUMPDEST PUSH1 0x0 DUP3 SSTORE DUP1 PUSH1 0x1F LT PUSH2 0x310A JUMPI POP PUSH2 0x3129 JUMP JUMPDEST PUSH1 0x1F ADD PUSH1 0x20 SWAP1 DIV SWAP1 PUSH1 0x0 MSTORE PUSH1 0x20 PUSH1 0x0 KECCAK256 SWAP1 DUP2 ADD SWAP1 PUSH2 0x3128 SWAP2 SWAP1 PUSH2 0x316A JUMP JUMPDEST JUMPDEST POP JUMP JUMPDEST PUSH1 0x40 MLOAD DUP1 PUSH1 0x80 ADD PUSH1 0x40 MSTORE DUP1 PUSH1 0x0 DUP2 MSTORE PUSH1 0x20 ADD PUSH1 0x60 DUP2 MSTORE PUSH1 0x20 ADD PUSH1 0x60 DUP2 MSTORE PUSH1 0x20 ADD PUSH1 0x0 PUSH20 0xFFFFFFFFFFFFFFFFFFFFFFFFFFFFFFFFFFFFFFFF AND DUP2 MSTORE POP SWAP1 JUMP JUMPDEST JUMPDEST DUP1 DUP3 GT ISZERO PUSH2 0x3183 JUMPI PUSH1 0x0 DUP2 PUSH1 0x0 SWAP1 SSTORE POP PUSH1 0x1 ADD PUSH2 0x316B JUMP JUMPDEST POP SWAP1 JUMP JUMPDEST PUSH1 0x0 PUSH1 0x40 MLOAD SWAP1 POP SWAP1 JUMP JUMPDEST PUSH1 0x0 DUP1 REVERT JUMPDEST PUSH1 0x0 DUP1 REVERT JUMPDEST PUSH1 0x0 DUP2 SWAP1 POP SWAP2 SWAP1 POP JUMP JUMPDEST PUSH2 0x31AE DUP2 PUSH2 0x319B JUMP JUMPDEST DUP2 EQ PUSH2 0x31B9 JUMPI PUSH1 0x0 DUP1 REVERT JUMPDEST POP JUMP JUMPDEST PUSH1 0x0 DUP2 CALLDATALOAD SWAP1 POP PUSH2 0x31CB DUP2 PUSH2 0x31A5 JUMP JUMPDEST SWAP3 SWAP2 POP POP JUMP JUMPDEST PUSH1 0x0 PUSH1 0x20 DUP3 DUP5 SUB SLT ISZERO PUSH2 0x31E7 JUMPI PUSH2 0x31E6 PUSH2 0x3191 JUMP JUMPDEST JUMPDEST PUSH1 0x0 PUSH2 0x31F5 DUP5 DUP3 DUP6 ADD PUSH2 0x31BC JUMP JUMPDEST SWAP2 POP POP SWAP3 SWAP2 POP POP JUMP JUMPDEST PUSH1 0x0 DUP2 MLOAD SWAP1 POP SWAP2 SWAP1 POP JUMP JUMPDEST PUSH1 0x0 DUP3 DUP3 MSTORE PUSH1 0x20 DUP3 ADD SWAP1 POP SWAP3 SWAP2 POP POP JUMP JUMPDEST PUSH1 0x0 DUP2 SWAP1 POP PUSH1 0x20 DUP3 ADD SWAP1 POP SWAP2 SWAP1 POP JUMP JUMPDEST PUSH2 0x3233 DUP2 PUSH2 0x319B JUMP JUMPDEST DUP3 MSTORE POP POP JUMP JUMPDEST PUSH1 0x0 DUP2 MLOAD SWAP1 POP SWAP2 SWAP1 POP JUMP JUMPDEST PUSH1 0x0 DUP3 DUP3 MSTORE PUSH1 0x20 DUP3 ADD SWAP1 POP SWAP3 SWAP2 POP POP JUMP JUMPDEST PUSH1 0x0 DUP2 SWAP1 POP PUSH1 0x20 DUP3 ADD SWAP1 POP SWAP2 SWAP1 POP JUMP JUMPDEST PUSH1 0x0 PUSH2 0x3271 DUP4 DUP4 PUSH2 0x322A JUMP JUMPDEST PUSH1 0x20 DUP4 ADD SWAP1 POP SWAP3 SWAP2 POP POP JUMP JUMPDEST PUSH1 0x0 PUSH1 0x20 DUP3 ADD SWAP1 POP SWAP2 SWAP1 POP JUMP JUMPDEST PUSH1 0x0 PUSH2 0x3295 DUP3 PUSH2 0x3239 JUMP JUMPDEST PUSH2 0x329F DUP2 DUP6 PUSH2 0x3244 JUMP JUMPDEST SWAP4 POP PUSH2 0x32AA DUP4 PUSH2 0x3255 JUMP JUMPDEST DUP1 PUSH1 0x0 JUMPDEST DUP4 DUP2 LT ISZERO PUSH2 0x32DB JUMPI DUP2 MLOAD PUSH2 0x32C2 DUP9 DUP3 PUSH2 0x3265 JUMP JUMPDEST SWAP8 POP PUSH2 0x32CD DUP4 PUSH2 0x327D JUMP JUMPDEST SWAP3 POP POP PUSH1 0x1 DUP2 ADD SWAP1 POP PUSH2 0x32AE JUMP JUMPDEST POP DUP6 SWAP4 POP POP POP POP SWAP3 SWAP2 POP POP JUMP JUMPDEST PUSH1 0x0 DUP2 MLOAD SWAP1 POP SWAP2 SWAP1 POP JUMP JUMPDEST PUSH1 0x0 DUP3 DUP3 MSTORE PUSH1 0x20 DUP3 ADD SWAP1 POP SWAP3 SWAP2 POP POP JUMP JUMPDEST PUSH1 0x0 JUMPDEST DUP4 DUP2 LT ISZERO PUSH2 0x3322 JUMPI DUP1 DUP3 ADD MLOAD DUP2 DUP5 ADD MSTORE PUSH1 0x20 DUP2 ADD SWAP1 POP PUSH2 0x3307 JUMP JUMPDEST PUSH1 0x0 DUP5 DUP5 ADD MSTORE POP POP POP POP JUMP JUMPDEST PUSH1 0x0 PUSH1 0x1F NOT PUSH1 0x1F DUP4 ADD AND SWAP1 POP SWAP2 SWAP1 POP JUMP JUMPDEST PUSH1 0x0 PUSH2 0x334A DUP3 PUSH2 0x32E8 JUMP JUMPDEST PUSH2 0x3354 DUP2 DUP6 PUSH2 0x32F3 JUMP JUMPDEST SWAP4 POP PUSH2 0x3364 DUP2 DUP6 PUSH1 0x20 DUP7 ADD PUSH2 0x3304 JUMP JUMPDEST PUSH2 0x336D DUP2 PUSH2 0x332E JUMP JUMPDEST DUP5 ADD SWAP2 POP POP SWAP3 SWAP2 POP POP JUMP JUMPDEST PUSH1 0x0 PUSH20 0xFFFFFFFFFFFFFFFFFFFFFFFFFFFFFFFFFFFFFFFF DUP3 AND SWAP1 POP SWAP2 SWAP1 POP JUMP JUMPDEST PUSH1 0x0 PUSH2 0x33A3 DUP3 PUSH2 0x3378 JUMP JUMPDEST SWAP1 POP SWAP2 SWAP1 POP JUMP JUMPDEST PUSH2 0x33B3 DUP2 PUSH2 0x3398 JUMP JUMPDEST DUP3 MSTORE POP POP JUMP JUMPDEST PUSH1 0x0 PUSH1 0x80 DUP4 ADD PUSH1 0x0 DUP4 ADD MLOAD PUSH2 0x33D1 PUSH1 0x0 DUP7 ADD DUP3 PUSH2 0x322A JUMP JUMPDEST POP PUSH1 0x20 DUP4 ADD MLOAD DUP5 DUP3 SUB PUSH1 0x20 DUP7 ADD MSTORE PUSH2 0x33E9 DUP3 DUP3 PUSH2 0x328A JUMP JUMPDEST SWAP2 POP POP PUSH1 0x40 DUP4 ADD MLOAD DUP5 DUP3 SUB PUSH1 0x40 DUP7 ADD MSTORE PUSH2 0x3403 DUP3 DUP3 PUSH2 0x333F JUMP JUMPDEST SWAP2 POP POP PUSH1 0x60 DUP4 ADD MLOAD PUSH2 0x3418 PUSH1 0x60 DUP7 ADD DUP3 PUSH2 0x33AA JUMP JUMPDEST POP DUP1 SWAP2 POP POP SWAP3 SWAP2 POP POP JUMP JUMPDEST PUSH1 0x0 DUP2 ISZERO ISZERO SWAP1 POP SWAP2 SWAP1 POP JUMP JUMPDEST PUSH2 0x3438 DUP2 PUSH2 0x3423 JUMP JUMPDEST DUP3 MSTORE POP POP JUMP JUMPDEST PUSH1 0x0 PUSH1 0xA0 DUP4 ADD PUSH1 0x0 DUP4 ADD MLOAD PUSH2 0x3456 PUSH1 0x0 DUP7 ADD DUP3 PUSH2 0x322A JUMP JUMPDEST POP PUSH1 0x20 DUP4 ADD MLOAD DUP5 DUP3 SUB PUSH1 0x20 DUP7 ADD MSTORE PUSH2 0x346E DUP3 DUP3 PUSH2 0x33B9 JUMP JUMPDEST SWAP2 POP POP PUSH1 0x40 DUP4 ADD MLOAD DUP5 DUP3 SUB PUSH1 0x40 DUP7 ADD MSTORE PUSH2 0x3488 DUP3 DUP3 PUSH2 0x333F JUMP JUMPDEST SWAP2 POP POP PUSH1 0x60 DUP4 ADD MLOAD PUSH2 0x349D PUSH1 0x60 DUP7 ADD DUP3 PUSH2 0x322A JUMP JUMPDEST POP PUSH1 0x80 DUP4 ADD MLOAD PUSH2 0x34B0 PUSH1 0x80 DUP7 ADD DUP3 PUSH2 0x342F JUMP JUMPDEST POP DUP1 SWAP2 POP POP SWAP3 SWAP2 POP POP JUMP JUMPDEST PUSH1 0x0 PUSH2 0x34C7 DUP4 DUP4 PUSH2 0x343E JUMP JUMPDEST SWAP1 POP SWAP3 SWAP2 POP POP JUMP JUMPDEST PUSH1 0x0 PUSH1 0x20 DUP3 ADD SWAP1 POP SWAP2 SWAP1 POP JUMP JUMPDEST PUSH1 0x0 PUSH2 0x34E7 DUP3 PUSH2 0x31FE JUMP JUMPDEST PUSH2 0x34F1 DUP2 DUP6 PUSH2 0x3209 JUMP JUMPDEST SWAP4 POP DUP4 PUSH1 0x20 DUP3 MUL DUP6 ADD PUSH2 0x3503 DUP6 PUSH2 0x321A JUMP JUMPDEST DUP1 PUSH1 0x0 JUMPDEST DUP6 DUP2 LT ISZERO PUSH2 0x353F JUMPI DUP5 DUP5 SUB DUP10 MSTORE DUP2 MLOAD PUSH2 0x3520 DUP6 DUP3 PUSH2 0x34BB JUMP JUMPDEST SWAP5 POP PUSH2 0x352B DUP4 PUSH2 0x34CF JUMP JUMPDEST SWAP3 POP PUSH1 0x20 DUP11 ADD SWAP10 POP POP PUSH1 0x1 DUP2 ADD SWAP1 POP PUSH2 0x3507 JUMP JUMPDEST POP DUP3 SWAP8 POP DUP8 SWAP6 POP POP POP POP POP POP SWAP3 SWAP2 POP POP JUMP JUMPDEST PUSH1 0x0 PUSH1 0x20 DUP3 ADD SWAP1 POP DUP2 DUP2 SUB PUSH1 0x0 DUP4 ADD MSTORE PUSH2 0x356B DUP2 DUP5 PUSH2 0x34DC JUMP JUMPDEST SWAP1 POP SWAP3 SWAP2 POP POP JUMP JUMPDEST PUSH1 0x0 DUP1 REVERT JUMPDEST PUSH32 0x4E487B7100000000000000000000000000000000000000000000000000000000 PUSH1 0x0 MSTORE PUSH1 0x41 PUSH1 0x4 MSTORE PUSH1 0x24 PUSH1 0x0 REVERT JUMPDEST PUSH2 0x35B0 DUP3 PUSH2 0x332E JUMP JUMPDEST DUP2 ADD DUP2 DUP2 LT PUSH8 0xFFFFFFFFFFFFFFFF DUP3 GT OR ISZERO PUSH2 0x35CF JUMPI PUSH2 0x35CE PUSH2 0x3578 JUMP JUMPDEST JUMPDEST DUP1 PUSH1 0x40 MSTORE POP POP POP JUMP JUMPDEST PUSH1 0x0 PUSH2 0x35E2 PUSH2 0x3187 JUMP JUMPDEST SWAP1 POP PUSH2 0x35EE DUP3 DUP3 PUSH2 0x35A7 JUMP JUMPDEST SWAP2 SWAP1 POP JUMP JUMPDEST PUSH1 0x0 PUSH8 0xFFFFFFFFFFFFFFFF DUP3 GT ISZERO PUSH2 0x360E JUMPI PUSH2 0x360D PUSH2 0x3578 JUMP JUMPDEST JUMPDEST PUSH1 0x20 DUP3 MUL SWAP1 POP PUSH1 0x20 DUP2 ADD SWAP1 POP SWAP2 SWAP1 POP JUMP JUMPDEST PUSH1 0x0 DUP1 REVERT JUMPDEST PUSH1 0x0 PUSH2 0x3637 PUSH2 0x3632 DUP5 PUSH2 0x35F3 JUMP JUMPDEST PUSH2 0x35D8 JUMP JUMPDEST SWAP1 POP DUP1 DUP4 DUP3 MSTORE PUSH1 0x20 DUP3 ADD SWAP1 POP PUSH1 0x20 DUP5 MUL DUP4 ADD DUP6 DUP2 GT ISZERO PUSH2 0x365A JUMPI PUSH2 0x3659 PUSH2 0x361F JUMP JUMPDEST JUMPDEST DUP4 JUMPDEST DUP2 DUP2 LT ISZERO PUSH2 0x3683 JUMPI DUP1 PUSH2 0x366F DUP9 DUP3 PUSH2 0x31BC JUMP JUMPDEST DUP5 MSTORE PUSH1 0x20 DUP5 ADD SWAP4 POP POP PUSH1 0x20 DUP2 ADD SWAP1 POP PUSH2 0x365C JUMP JUMPDEST POP POP POP SWAP4 SWAP3 POP POP POP JUMP JUMPDEST PUSH1 0x0 DUP3 PUSH1 0x1F DUP4 ADD SLT PUSH2 0x36A2 JUMPI PUSH2 0x36A1 PUSH2 0x3573 JUMP JUMPDEST JUMPDEST DUP2 CALLDATALOAD PUSH2 0x36B2 DUP5 DUP3 PUSH1 0x20 DUP7 ADD PUSH2 0x3624 JUMP JUMPDEST SWAP2 POP POP SWAP3 SWAP2 POP POP JUMP JUMPDEST PUSH1 0x0 DUP1 PUSH1 0x40 DUP4 DUP6 SUB SLT ISZERO PUSH2 0x36D2 JUMPI PUSH2 0x36D1 PUSH2 0x3191 JUMP JUMPDEST JUMPDEST PUSH1 0x0 PUSH2 0x36E0 DUP6 DUP3 DUP7 ADD PUSH2 0x31BC JUMP JUMPDEST SWAP3 POP POP PUSH1 0x20 DUP4 ADD CALLDATALOAD PUSH8 0xFFFFFFFFFFFFFFFF DUP2 GT ISZERO PUSH2 0x3701 JUMPI PUSH2 0x3700 PUSH2 0x3196 JUMP JUMPDEST JUMPDEST PUSH2 0x370D DUP6 DUP3 DUP7 ADD PUSH2 0x368D JUMP JUMPDEST SWAP2 POP POP SWAP3 POP SWAP3 SWAP1 POP JUMP JUMPDEST PUSH1 0x0 DUP2 MLOAD SWAP1 POP SWAP2 SWAP1 POP JUMP JUMPDEST PUSH1 0x0 DUP3 DUP3 MSTORE PUSH1 0x20 DUP3 ADD SWAP1 POP SWAP3 SWAP2 POP POP JUMP JUMPDEST PUSH1 0x0 DUP2 SWAP1 POP PUSH1 0x20 DUP3 ADD SWAP1 POP SWAP2 SWAP1 POP JUMP JUMPDEST PUSH1 0x0 PUSH1 0x80 DUP4 ADD PUSH1 0x0 DUP4 ADD MLOAD PUSH2 0x375B PUSH1 0x0 DUP7 ADD DUP3 PUSH2 0x322A JUMP JUMPDEST POP PUSH1 0x20 DUP4 ADD MLOAD DUP5 DUP3 SUB PUSH1 0x20 DUP7 ADD MSTORE PUSH2 0x3773 DUP3 DUP3 PUSH2 0x333F JUMP JUMPDEST SWAP2 POP POP PUSH1 0x40 DUP4 ADD MLOAD DUP5 DUP3 SUB PUSH1 0x40 DUP7 ADD MSTORE PUSH2 0x378D DUP3 DUP3 PUSH2 0x328A JUMP JUMPDEST SWAP2 POP POP PUSH1 0x60 DUP4 ADD MLOAD DUP5 DUP3 SUB PUSH1 0x60 DUP7 ADD MSTORE PUSH2 0x37A7 DUP3 DUP3 PUSH2 0x328A JUMP JUMPDEST SWAP2 POP POP DUP1 SWAP2 POP POP SWAP3 SWAP2 POP POP JUMP JUMPDEST PUSH1 0x0 PUSH2 0x37C0 DUP4 DUP4 PUSH2 0x3743 JUMP JUMPDEST SWAP1 POP SWAP3 SWAP2 POP POP JUMP JUMPDEST PUSH1 0x0 PUSH1 0x20 DUP3 ADD SWAP1 POP SWAP2 SWAP1 POP JUMP JUMPDEST PUSH1 0x0 PUSH2 0x37E0 DUP3 PUSH2 0x3717 JUMP JUMPDEST PUSH2 0x37EA DUP2 DUP6 PUSH2 0x3722 JUMP JUMPDEST SWAP4 POP DUP4 PUSH1 0x20 DUP3 MUL DUP6 ADD PUSH2 0x37FC DUP6 PUSH2 0x3733 JUMP JUMPDEST DUP1 PUSH1 0x0 JUMPDEST DUP6 DUP2 LT ISZERO PUSH2 0x3838 JUMPI DUP5 DUP5 SUB DUP10 MSTORE DUP2 MLOAD PUSH2 0x3819 DUP6 DUP3 PUSH2 0x37B4 JUMP JUMPDEST SWAP5 POP PUSH2 0x3824 DUP4 PUSH2 0x37C8 JUMP JUMPDEST SWAP3 POP PUSH1 0x20 DUP11 ADD SWAP10 POP POP PUSH1 0x1 DUP2 ADD SWAP1 POP PUSH2 0x3800 JUMP JUMPDEST POP DUP3 SWAP8 POP DUP8 SWAP6 POP POP POP POP POP POP SWAP3 SWAP2 POP POP JUMP JUMPDEST PUSH1 0x0 PUSH1 0x20 DUP3 ADD SWAP1 POP DUP2 DUP2 SUB PUSH1 0x0 DUP4 ADD MSTORE PUSH2 0x3864 DUP2 DUP5 PUSH2 0x37D5 JUMP JUMPDEST SWAP1 POP SWAP3 SWAP2 POP POP JUMP JUMPDEST PUSH1 0x0 DUP1 REVERT JUMPDEST PUSH1 0x0 PUSH8 0xFFFFFFFFFFFFFFFF DUP3 GT ISZERO PUSH2 0x388C JUMPI PUSH2 0x388B PUSH2 0x3578 JUMP JUMPDEST JUMPDEST PUSH2 0x3895 DUP3 PUSH2 0x332E JUMP JUMPDEST SWAP1 POP PUSH1 0x20 DUP2 ADD SWAP1 POP SWAP2 SWAP1 POP JUMP JUMPDEST DUP3 DUP2 DUP4 CALLDATACOPY PUSH1 0x0 DUP4 DUP4 ADD MSTORE POP POP POP JUMP JUMPDEST PUSH1 0x0 PUSH2 0x38C4 PUSH2 0x38BF DUP5 PUSH2 0x3871 JUMP JUMPDEST PUSH2 0x35D8 JUMP JUMPDEST SWAP1 POP DUP3 DUP2 MSTORE PUSH1 0x20 DUP2 ADD DUP5 DUP5 DUP5 ADD GT ISZERO PUSH2 0x38E0 JUMPI PUSH2 0x38DF PUSH2 0x386C JUMP JUMPDEST JUMPDEST PUSH2 0x38EB DUP5 DUP3 DUP6 PUSH2 0x38A2 JUMP JUMPDEST POP SWAP4 SWAP3 POP POP POP JUMP JUMPDEST PUSH1 0x0 DUP3 PUSH1 0x1F DUP4 ADD SLT PUSH2 0x3908 JUMPI PUSH2 0x3907 PUSH2 0x3573 JUMP JUMPDEST JUMPDEST DUP2 CALLDATALOAD PUSH2 0x3918 DUP5 DUP3 PUSH1 0x20 DUP7 ADD PUSH2 0x38B1 JUMP JUMPDEST SWAP2 POP POP SWAP3 SWAP2 POP POP JUMP JUMPDEST PUSH1 0x0 PUSH1 0x20 DUP3 DUP5 SUB SLT ISZERO PUSH2 0x3937 JUMPI PUSH2 0x3936 PUSH2 0x3191 JUMP JUMPDEST JUMPDEST PUSH1 0x0 DUP3 ADD CALLDATALOAD PUSH8 0xFFFFFFFFFFFFFFFF DUP2 GT ISZERO PUSH2 0x3955 JUMPI PUSH2 0x3954 PUSH2 0x3196 JUMP JUMPDEST JUMPDEST PUSH2 0x3961 DUP5 DUP3 DUP6 ADD PUSH2 0x38F3 JUMP JUMPDEST SWAP2 POP POP SWAP3 SWAP2 POP POP JUMP JUMPDEST PUSH1 0x0 DUP1 PUSH1 0x40 DUP4 DUP6 SUB SLT ISZERO PUSH2 0x3981 JUMPI PUSH2 0x3980 PUSH2 0x3191 JUMP JUMPDEST JUMPDEST PUSH1 0x0 PUSH2 0x398F DUP6 DUP3 DUP7 ADD PUSH2 0x31BC JUMP JUMPDEST SWAP3 POP POP PUSH1 0x20 DUP4 ADD CALLDATALOAD PUSH8 0xFFFFFFFFFFFFFFFF DUP2 GT ISZERO PUSH2 0x39B0 JUMPI PUSH2 0x39AF PUSH2 0x3196 JUMP JUMPDEST JUMPDEST PUSH2 0x39BC DUP6 DUP3 DUP7 ADD PUSH2 0x38F3 JUMP JUMPDEST SWAP2 POP POP SWAP3 POP SWAP3 SWAP1 POP JUMP JUMPDEST PUSH2 0x39CF DUP2 PUSH2 0x3423 JUMP JUMPDEST DUP3 MSTORE POP POP JUMP JUMPDEST PUSH1 0x0 PUSH1 0x20 DUP3 ADD SWAP1 POP PUSH2 0x39EA PUSH1 0x0 DUP4 ADD DUP5 PUSH2 0x39C6 JUMP JUMPDEST SWAP3 SWAP2 POP POP JUMP JUMPDEST PUSH1 0x0 DUP2 MLOAD SWAP1 POP SWAP2 SWAP1 POP JUMP JUMPDEST PUSH1 0x0 DUP3 DUP3 MSTORE PUSH1 0x20 DUP3 ADD SWAP1 POP SWAP3 SWAP2 POP POP JUMP JUMPDEST PUSH1 0x0 DUP2 SWAP1 POP PUSH1 0x20 DUP3 ADD SWAP1 POP SWAP2 SWAP1 POP JUMP JUMPDEST PUSH1 0x0 PUSH2 0x3A28 DUP4 DUP4 PUSH2 0x33B9 JUMP JUMPDEST SWAP1 POP SWAP3 SWAP2 POP POP JUMP JUMPDEST PUSH1 0x0 PUSH1 0x20 DUP3 ADD SWAP1 POP SWAP2 SWAP1 POP JUMP JUMPDEST PUSH1 0x0 PUSH2 0x3A48 DUP3 PUSH2 0x39F0 JUMP JUMPDEST PUSH2 0x3A52 DUP2 DUP6 PUSH2 0x39FB JUMP JUMPDEST SWAP4 POP DUP4 PUSH1 0x20 DUP3 MUL DUP6 ADD PUSH2 0x3A64 DUP6 PUSH2 0x3A0C JUMP JUMPDEST DUP1 PUSH1 0x0 JUMPDEST DUP6 DUP2 LT ISZERO PUSH2 0x3AA0 JUMPI DUP5 DUP5 SUB DUP10 MSTORE DUP2 MLOAD PUSH2 0x3A81 DUP6 DUP3 PUSH2 0x3A1C JUMP JUMPDEST SWAP5 POP PUSH2 0x3A8C DUP4 PUSH2 0x3A30 JUMP JUMPDEST SWAP3 POP PUSH1 0x20 DUP11 ADD SWAP10 POP POP PUSH1 0x1 DUP2 ADD SWAP1 POP PUSH2 0x3A68 JUMP JUMPDEST POP DUP3 SWAP8 POP DUP8 SWAP6 POP POP POP POP POP POP SWAP3 SWAP2 POP POP JUMP JUMPDEST PUSH1 0x0 PUSH1 0x20 DUP3 ADD SWAP1 POP DUP2 DUP2 SUB PUSH1 0x0 DUP4 ADD MSTORE PUSH2 0x3ACC DUP2 DUP5 PUSH2 0x3A3D JUMP JUMPDEST SWAP1 POP SWAP3 SWAP2 POP POP JUMP JUMPDEST PUSH1 0x0 PUSH1 0x80 DUP4 ADD PUSH1 0x0 DUP4 ADD MLOAD PUSH2 0x3AEC PUSH1 0x0 DUP7 ADD DUP3 PUSH2 0x322A JUMP JUMPDEST POP PUSH1 0x20 DUP4 ADD MLOAD DUP5 DUP3 SUB PUSH1 0x20 DUP7 ADD MSTORE PUSH2 0x3B04 DUP3 DUP3 PUSH2 0x333F JUMP JUMPDEST SWAP2 POP POP PUSH1 0x40 DUP4 ADD MLOAD DUP5 DUP3 SUB PUSH1 0x40 DUP7 ADD MSTORE PUSH2 0x3B1E DUP3 DUP3 PUSH2 0x328A JUMP JUMPDEST SWAP2 POP POP PUSH1 0x60 DUP4 ADD MLOAD DUP5 DUP3 SUB PUSH1 0x60 DUP7 ADD MSTORE PUSH2 0x3B38 DUP3 DUP3 PUSH2 0x328A JUMP JUMPDEST SWAP2 POP POP DUP1 SWAP2 POP POP SWAP3 SWAP2 POP POP JUMP JUMPDEST PUSH1 0x0 PUSH1 0x20 DUP3 ADD SWAP1 POP DUP2 DUP2 SUB PUSH1 0x0 DUP4 ADD MSTORE PUSH2 0x3B5F DUP2 DUP5 PUSH2 0x3AD4 JUMP JUMPDEST SWAP1 POP SWAP3 SWAP2 POP POP JUMP JUMPDEST PUSH1 0x0 DUP3 DUP3 MSTORE PUSH1 0x20 DUP3 ADD SWAP1 POP SWAP3 SWAP2 POP POP JUMP JUMPDEST PUSH32 0x4368617420646F6573206E6F7420657869737421000000000000000000000000 PUSH1 0x0 DUP3 ADD MSTORE POP JUMP JUMPDEST PUSH1 0x0 PUSH2 0x3BAE PUSH1 0x14 DUP4 PUSH2 0x3B67 JUMP JUMPDEST SWAP2 POP PUSH2 0x3BB9 DUP3 PUSH2 0x3B78 JUMP JUMPDEST PUSH1 0x20 DUP3 ADD SWAP1 POP SWAP2 SWAP1 POP JUMP JUMPDEST PUSH1 0x0 PUSH1 0x20 DUP3 ADD SWAP1 POP DUP2 DUP2 SUB PUSH1 0x0 DUP4 ADD MSTORE PUSH2 0x3BDD DUP2 PUSH2 0x3BA1 JUMP JUMPDEST SWAP1 POP SWAP2 SWAP1 POP JUMP JUMPDEST PUSH32 0x4E487B7100000000000000000000000000000000000000000000000000000000 PUSH1 0x0 MSTORE PUSH1 0x32 PUSH1 0x4 MSTORE PUSH1 0x24 PUSH1 0x0 REVERT JUMPDEST PUSH32 0x53656E646572206D757374206265206D75737420626520696E20636861742100 PUSH1 0x0 DUP3 ADD MSTORE POP JUMP JUMPDEST PUSH1 0x0 PUSH2 0x3C49 PUSH1 0x1F DUP4 PUSH2 0x3B67 JUMP JUMPDEST SWAP2 POP PUSH2 0x3C54 DUP3 PUSH2 0x3C13 JUMP JUMPDEST PUSH1 0x20 DUP3 ADD SWAP1 POP SWAP2 SWAP1 POP JUMP JUMPDEST PUSH1 0x0 PUSH1 0x20 DUP3 ADD SWAP1 POP DUP2 DUP2 SUB PUSH1 0x0 DUP4 ADD MSTORE PUSH2 0x3C78 DUP2 PUSH2 0x3C3C JUMP JUMPDEST SWAP1 POP SWAP2 SWAP1 POP JUMP JUMPDEST PUSH32 0x4E487B7100000000000000000000000000000000000000000000000000000000 PUSH1 0x0 MSTORE PUSH1 0x22 PUSH1 0x4 MSTORE PUSH1 0x24 PUSH1 0x0 REVERT JUMPDEST PUSH1 0x0 PUSH1 0x2 DUP3 DIV SWAP1 POP PUSH1 0x1 DUP3 AND DUP1 PUSH2 0x3CC6 JUMPI PUSH1 0x7F DUP3 AND SWAP2 POP JUMPDEST PUSH1 0x20 DUP3 LT DUP2 SUB PUSH2 0x3CD9 JUMPI PUSH2 0x3CD8 PUSH2 0x3C7F JUMP JUMPDEST JUMPDEST POP SWAP2 SWAP1 POP JUMP JUMPDEST PUSH32 0x4E487B7100000000000000000000000000000000000000000000000000000000 PUSH1 0x0 MSTORE PUSH1 0x11 PUSH1 0x4 MSTORE PUSH1 0x24 PUSH1 0x0 REVERT JUMPDEST PUSH1 0x0 PUSH2 0x3D19 DUP3 PUSH2 0x319B JUMP JUMPDEST SWAP2 POP PUSH32 0xFFFFFFFFFFFFFFFFFFFFFFFFFFFFFFFFFFFFFFFFFFFFFFFFFFFFFFFFFFFFFFFF DUP3 SUB PUSH2 0x3D4B JUMPI PUSH2 0x3D4A PUSH2 0x3CDF JUMP JUMPDEST JUMPDEST PUSH1 0x1 DUP3 ADD SWAP1 POP SWAP2 SWAP1 POP JUMP JUMPDEST PUSH32 0x53656E646572206D757374206265206D75737420626520696E20636861742C20 PUSH1 0x0 DUP3 ADD MSTORE PUSH32 0x6F722063686174207761732064656C6574656421000000000000000000000000 PUSH1 0x20 DUP3 ADD MSTORE POP JUMP JUMPDEST PUSH1 0x0 PUSH2 0x3DB2 PUSH1 0x34 DUP4 PUSH2 0x3B67 JUMP JUMPDEST SWAP2 POP PUSH2 0x3DBD DUP3 PUSH2 0x3D56 JUMP JUMPDEST PUSH1 0x40 DUP3 ADD SWAP1 POP SWAP2 SWAP1 POP JUMP JUMPDEST PUSH1 0x0 PUSH1 0x20 DUP3 ADD SWAP1 POP DUP2 DUP2 SUB PUSH1 0x0 DUP4 ADD MSTORE PUSH2 0x3DE1 DUP2 PUSH2 0x3DA5 JUMP JUMPDEST SWAP1 POP SWAP2 SWAP1 POP JUMP JUMPDEST PUSH32 0x55736572206964206973206E6F7420666F756E64210000000000000000000000 PUSH1 0x0 DUP3 ADD MSTORE POP JUMP JUMPDEST PUSH1 0x0 PUSH2 0x3E1E PUSH1 0x15 DUP4 PUSH2 0x3B67 JUMP JUMPDEST SWAP2 POP PUSH2 0x3E29 DUP3 PUSH2 0x3DE8 JUMP JUMPDEST PUSH1 0x20 DUP3 ADD SWAP1 POP SWAP2 SWAP1 POP JUMP JUMPDEST PUSH1 0x0 PUSH1 0x20 DUP3 ADD SWAP1 POP DUP2 DUP2 SUB PUSH1 0x0 DUP4 ADD MSTORE PUSH2 0x3E4D DUP2 PUSH2 0x3E11 JUMP JUMPDEST SWAP1 POP SWAP2 SWAP1 POP JUMP JUMPDEST PUSH32 0x416C6C2075736572732061726520616C726561647920696E2063686174210000 PUSH1 0x0 DUP3 ADD MSTORE POP JUMP JUMPDEST PUSH1 0x0 PUSH2 0x3E8A PUSH1 0x1E DUP4 PUSH2 0x3B67 JUMP JUMPDEST SWAP2 POP PUSH2 0x3E95 DUP3 PUSH2 0x3E54 JUMP JUMPDEST PUSH1 0x20 DUP3 ADD SWAP1 POP SWAP2 SWAP1 POP JUMP JUMPDEST PUSH1 0x0 PUSH1 0x20 DUP3 ADD SWAP1 POP DUP2 DUP2 SUB PUSH1 0x0 DUP4 ADD MSTORE PUSH2 0x3EB9 DUP2 PUSH2 0x3E7D JUMP JUMPDEST SWAP1 POP SWAP2 SWAP1 POP JUMP JUMPDEST PUSH2 0x3EC9 DUP2 PUSH2 0x3398 JUMP JUMPDEST DUP3 MSTORE POP POP JUMP JUMPDEST PUSH1 0x0 DUP2 SWAP1 POP DUP2 PUSH1 0x0 MSTORE PUSH1 0x20 PUSH1 0x0 KECCAK256 SWAP1 POP SWAP2 SWAP1 POP JUMP JUMPDEST PUSH1 0x0 DUP2 SLOAD PUSH2 0x3EF1 DUP2 PUSH2 0x3CAE JUMP JUMPDEST PUSH2 0x3EFB DUP2 DUP7 PUSH2 0x3B67 JUMP JUMPDEST SWAP5 POP PUSH1 0x1 DUP3 AND PUSH1 0x0 DUP2 EQ PUSH2 0x3F16 JUMPI PUSH1 0x1 DUP2 EQ PUSH2 0x3F2C JUMPI PUSH2 0x3F5F JUMP JUMPDEST PUSH1 0xFF NOT DUP4 AND DUP7 MSTORE DUP2 ISZERO ISZERO PUSH1 0x20 MUL DUP7 ADD SWAP4 POP PUSH2 0x3F5F JUMP JUMPDEST PUSH2 0x3F35 DUP6 PUSH2 0x3ECF JUMP JUMPDEST PUSH1 0x0 JUMPDEST DUP4 DUP2 LT ISZERO PUSH2 0x3F57 JUMPI DUP2 SLOAD DUP2 DUP10 ADD MSTORE PUSH1 0x1 DUP3 ADD SWAP2 POP PUSH1 0x20 DUP2 ADD SWAP1 POP PUSH2 0x3F38 JUMP JUMPDEST DUP1 DUP9 ADD SWAP6 POP POP POP JUMPDEST POP POP POP SWAP3 SWAP2 POP POP JUMP JUMPDEST PUSH1 0x0 PUSH1 0x60 DUP3 ADD SWAP1 POP PUSH2 0x3F7D PUSH1 0x0 DUP4 ADD DUP7 PUSH2 0x3EC0 JUMP JUMPDEST DUP2 DUP2 SUB PUSH1 0x20 DUP4 ADD MSTORE PUSH2 0x3F8F DUP2 DUP6 PUSH2 0x3EE4 JUMP JUMPDEST SWAP1 POP DUP2 DUP2 SUB PUSH1 0x40 DUP4 ADD MSTORE PUSH2 0x3FA3 DUP2 DUP5 PUSH2 0x3EE4 JUMP JUMPDEST SWAP1 POP SWAP5 SWAP4 POP POP POP POP JUMP JUMPDEST PUSH1 0x0 DUP2 SWAP1 POP SWAP3 SWAP2 POP POP JUMP JUMPDEST PUSH1 0x0 PUSH2 0x3FC3 DUP3 PUSH2 0x32E8 JUMP JUMPDEST PUSH2 0x3FCD DUP2 DUP6 PUSH2 0x3FAD JUMP JUMPDEST SWAP4 POP PUSH2 0x3FDD DUP2 DUP6 PUSH1 0x20 DUP7 ADD PUSH2 0x3304 JUMP JUMPDEST DUP1 DUP5 ADD SWAP2 POP POP SWAP3 SWAP2 POP POP JUMP JUMPDEST PUSH1 0x0 PUSH2 0x3FF5 DUP3 DUP5 PUSH2 0x3FB8 JUMP JUMPDEST SWAP2 POP DUP2 SWAP1 POP SWAP3 SWAP2 POP POP JUMP JUMPDEST PUSH32 0x5468697320757365726E616D6520697320616C72656164792074616B656E0000 PUSH1 0x0 DUP3 ADD MSTORE POP JUMP JUMPDEST PUSH1 0x0 PUSH2 0x4036 PUSH1 0x1E DUP4 PUSH2 0x3B67 JUMP JUMPDEST SWAP2 POP PUSH2 0x4041 DUP3 PUSH2 0x4000 JUMP JUMPDEST PUSH1 0x20 DUP3 ADD SWAP1 POP SWAP2 SWAP1 POP JUMP JUMPDEST PUSH1 0x0 PUSH1 0x20 DUP3 ADD SWAP1 POP DUP2 DUP2 SUB PUSH1 0x0 DUP4 ADD MSTORE PUSH2 0x4065 DUP2 PUSH2 0x4029 JUMP JUMPDEST SWAP1 POP SWAP2 SWAP1 POP JUMP JUMPDEST PUSH32 0x5573657220616C72656164792065786973747321000000000000000000000000 PUSH1 0x0 DUP3 ADD MSTORE POP JUMP JUMPDEST PUSH1 0x0 PUSH2 0x40A2 PUSH1 0x14 DUP4 PUSH2 0x3B67 JUMP JUMPDEST SWAP2 POP PUSH2 0x40AD DUP3 PUSH2 0x406C JUMP JUMPDEST PUSH1 0x20 DUP3 ADD SWAP1 POP SWAP2 SWAP1 POP JUMP JUMPDEST PUSH1 0x0 PUSH1 0x20 DUP3 ADD SWAP1 POP DUP2 DUP2 SUB PUSH1 0x0 DUP4 ADD MSTORE PUSH2 0x40D1 DUP2 PUSH2 0x4095 JUMP JUMPDEST SWAP1 POP SWAP2 SWAP1 POP JUMP JUMPDEST PUSH1 0x0 PUSH1 0x20 PUSH1 0x1F DUP4 ADD DIV SWAP1 POP SWAP2 SWAP1 POP JUMP JUMPDEST PUSH1 0x0 DUP3 DUP3 SHL SWAP1 POP SWAP3 SWAP2 POP POP JUMP JUMPDEST PUSH1 0x0 PUSH1 0x8 DUP4 MUL PUSH2 0x4125 PUSH32 0xFFFFFFFFFFFFFFFFFFFFFFFFFFFFFFFFFFFFFFFFFFFFFFFFFFFFFFFFFFFFFFFF DUP3 PUSH2 0x40E8 JUMP JUMPDEST PUSH2 0x412F DUP7 DUP4 PUSH2 0x40E8 JUMP JUMPDEST SWAP6 POP DUP1 NOT DUP5 AND SWAP4 POP DUP1 DUP7 AND DUP5 OR SWAP3 POP POP POP SWAP4 SWAP3 POP POP POP JUMP JUMPDEST PUSH1 0x0 DUP2 SWAP1 POP SWAP2 SWAP1 POP JUMP JUMPDEST PUSH1 0x0 PUSH2 0x416C PUSH2 0x4167 PUSH2 0x4162 DUP5 PUSH2 0x319B JUMP JUMPDEST PUSH2 0x4147 JUMP JUMPDEST PUSH2 0x319B JUMP JUMPDEST SWAP1 POP SWAP2 SWAP1 POP JUMP JUMPDEST PUSH1 0x0 DUP2 SWAP1 POP SWAP2 SWAP1 POP JUMP JUMPDEST PUSH2 0x4186 DUP4 PUSH2 0x4151 JUMP JUMPDEST PUSH2 0x419A PUSH2 0x4192 DUP3 PUSH2 0x4173 JUMP JUMPDEST DUP5 DUP5 SLOAD PUSH2 0x40F5 JUMP JUMPDEST DUP3 SSTORE POP POP POP POP JUMP JUMPDEST PUSH1 0x0 SWAP1 JUMP JUMPDEST PUSH2 0x41AF PUSH2 0x41A2 JUMP JUMPDEST PUSH2 0x41BA DUP2 DUP5 DUP5 PUSH2 0x417D JUMP JUMPDEST POP POP POP JUMP JUMPDEST JUMPDEST DUP2 DUP2 LT ISZERO PUSH2 0x41DE JUMPI PUSH2 0x41D3 PUSH1 0x0 DUP3 PUSH2 0x41A7 JUMP JUMPDEST PUSH1 0x1 DUP2 ADD SWAP1 POP PUSH2 0x41C0 JUMP JUMPDEST POP POP JUMP JUMPDEST PUSH1 0x1F DUP3 GT ISZERO PUSH2 0x4223 JUMPI PUSH2 0x41F4 DUP2 PUSH2 0x3ECF JUMP JUMPDEST PUSH2 0x41FD DUP5 PUSH2 0x40D8 JUMP JUMPDEST DUP2 ADD PUSH1 0x20 DUP6 LT ISZERO PUSH2 0x420C JUMPI DUP2 SWAP1 POP JUMPDEST PUSH2 0x4220 PUSH2 0x4218 DUP6 PUSH2 0x40D8 JUMP JUMPDEST DUP4 ADD DUP3 PUSH2 0x41BF JUMP JUMPDEST POP POP JUMPDEST POP POP POP JUMP JUMPDEST PUSH1 0x0 DUP3 DUP3 SHR SWAP1 POP SWAP3 SWAP2 POP POP JUMP JUMPDEST PUSH1 0x0 PUSH2 0x4246 PUSH1 0x0 NOT DUP5 PUSH1 0x8 MUL PUSH2 0x4228 JUMP JUMPDEST NOT DUP1 DUP4 AND SWAP2 POP POP SWAP3 SWAP2 POP POP JUMP JUMPDEST PUSH1 0x0 PUSH2 0x425F DUP4 DUP4 PUSH2 0x4235 JUMP JUMPDEST SWAP2 POP DUP3 PUSH1 0x2 MUL DUP3 OR SWAP1 POP SWAP3 SWAP2 POP POP JUMP JUMPDEST PUSH2 0x4278 DUP3 PUSH2 0x32E8 JUMP JUMPDEST PUSH8 0xFFFFFFFFFFFFFFFF DUP2 GT ISZERO PUSH2 0x4291 JUMPI PUSH2 0x4290 PUSH2 0x3578 JUMP JUMPDEST JUMPDEST PUSH2 0x429B DUP3 SLOAD PUSH2 0x3CAE JUMP JUMPDEST PUSH2 0x42A6 DUP3 DUP3 DUP6 PUSH2 0x41E2 JUMP JUMPDEST PUSH1 0x0 PUSH1 0x20 SWAP1 POP PUSH1 0x1F DUP4 GT PUSH1 0x1 DUP2 EQ PUSH2 0x42D9 JUMPI PUSH1 0x0 DUP5 ISZERO PUSH2 0x42C7 JUMPI DUP3 DUP8 ADD MLOAD SWAP1 POP JUMPDEST PUSH2 0x42D1 DUP6 DUP3 PUSH2 0x4253 JUMP JUMPDEST DUP7 SSTORE POP PUSH2 0x4339 JUMP JUMPDEST PUSH1 0x1F NOT DUP5 AND PUSH2 0x42E7 DUP7 PUSH2 0x3ECF JUMP JUMPDEST PUSH1 0x0 JUMPDEST DUP3 DUP2 LT ISZERO PUSH2 0x430F JUMPI DUP5 DUP10 ADD MLOAD DUP3 SSTORE PUSH1 0x1 DUP3 ADD SWAP2 POP PUSH1 0x20 DUP6 ADD SWAP5 POP PUSH1 0x20 DUP2 ADD SWAP1 POP PUSH2 0x42EA JUMP JUMPDEST DUP7 DUP4 LT ISZERO PUSH2 0x432C JUMPI DUP5 DUP10 ADD MLOAD PUSH2 0x4328 PUSH1 0x1F DUP10 AND DUP3 PUSH2 0x4235 JUMP JUMPDEST DUP4 SSTORE POP JUMPDEST PUSH1 0x1 PUSH1 0x2 DUP9 MUL ADD DUP9 SSTORE POP POP POP JUMPDEST POP POP POP POP POP POP JUMP JUMPDEST PUSH32 0x546578742073686F756C64206578697374210000000000000000000000000000 PUSH1 0x0 DUP3 ADD MSTORE POP JUMP JUMPDEST PUSH1 0x0 PUSH2 0x4377 PUSH1 0x12 DUP4 PUSH2 0x3B67 JUMP JUMPDEST SWAP2 POP PUSH2 0x4382 DUP3 PUSH2 0x4341 JUMP JUMPDEST PUSH1 0x20 DUP3 ADD SWAP1 POP SWAP2 SWAP1 POP JUMP JUMPDEST PUSH1 0x0 PUSH1 0x20 DUP3 ADD SWAP1 POP DUP2 DUP2 SUB PUSH1 0x0 DUP4 ADD MSTORE PUSH2 0x43A6 DUP2 PUSH2 0x436A JUMP JUMPDEST SWAP1 POP SWAP2 SWAP1 POP JUMP JUMPDEST PUSH32 0x53656E646572206D757374206265206D75737420626520696E2063686174206F PUSH1 0x0 DUP3 ADD MSTORE PUSH32 0x722063686174207761732064656C657465642100000000000000000000000000 PUSH1 0x20 DUP3 ADD MSTORE POP JUMP JUMPDEST PUSH1 0x0 PUSH2 0x4409 PUSH1 0x33 DUP4 PUSH2 0x3B67 JUMP JUMPDEST SWAP2 POP PUSH2 0x4414 DUP3 PUSH2 0x43AD JUMP JUMPDEST PUSH1 0x40 DUP3 ADD SWAP1 POP SWAP2 SWAP1 POP JUMP JUMPDEST PUSH1 0x0 PUSH1 0x20 DUP3 ADD SWAP1 POP DUP2 DUP2 SUB PUSH1 0x0 DUP4 ADD MSTORE PUSH2 0x4438 DUP2 PUSH2 0x43FC JUMP JUMPDEST SWAP1 POP SWAP2 SWAP1 POP JUMP JUMPDEST PUSH1 0x0 PUSH2 0x444A DUP3 PUSH2 0x32E8 JUMP JUMPDEST PUSH2 0x4454 DUP2 DUP6 PUSH2 0x3B67 JUMP JUMPDEST SWAP4 POP PUSH2 0x4464 DUP2 DUP6 PUSH1 0x20 DUP7 ADD PUSH2 0x3304 JUMP JUMPDEST PUSH2 0x446D DUP2 PUSH2 0x332E JUMP JUMPDEST DUP5 ADD SWAP2 POP POP SWAP3 SWAP2 POP POP JUMP JUMPDEST PUSH1 0x0 PUSH1 0x60 DUP3 ADD SWAP1 POP PUSH2 0x448D PUSH1 0x0 DUP4 ADD DUP7 PUSH2 0x3EC0 JUMP JUMPDEST DUP2 DUP2 SUB PUSH1 0x20 DUP4 ADD MSTORE PUSH2 0x449F DUP2 DUP6 PUSH2 0x3EE4 JUMP JUMPDEST SWAP1 POP DUP2 DUP2 SUB PUSH1 0x40 DUP4 ADD MSTORE PUSH2 0x44B3 DUP2 DUP5 PUSH2 0x443F JUMP JUMPDEST SWAP1 POP SWAP5 SWAP4 POP POP POP POP JUMP JUMPDEST PUSH1 0x0 PUSH2 0x44C8 DUP3 PUSH2 0x319B JUMP JUMPDEST SWAP2 POP PUSH2 0x44D3 DUP4 PUSH2 0x319B JUMP JUMPDEST SWAP3 POP DUP3 DUP3 SUB SWAP1 POP DUP2 DUP2 GT ISZERO PUSH2 0x44EB JUMPI PUSH2 0x44EA PUSH2 0x3CDF JUMP JUMPDEST JUMPDEST SWAP3 SWAP2 POP POP JUMP JUMPDEST PUSH32 0x4E487B7100000000000000000000000000000000000000000000000000000000 PUSH1 0x0 MSTORE PUSH1 0x31 PUSH1 0x4 MSTORE PUSH1 0x24 PUSH1 0x0 REVERT JUMPDEST PUSH1 0x0 DUP2 SLOAD PUSH2 0x452D DUP2 PUSH2 0x3CAE JUMP JUMPDEST PUSH2 0x4537 DUP2 DUP7 PUSH2 0x3FAD JUMP JUMPDEST SWAP5 POP PUSH1 0x1 DUP3 AND PUSH1 0x0 DUP2 EQ PUSH2 0x4552 JUMPI PUSH1 0x1 DUP2 EQ PUSH2 0x4567 JUMPI PUSH2 0x459A JUMP JUMPDEST PUSH1 0xFF NOT DUP4 AND DUP7 MSTORE DUP2 ISZERO ISZERO DUP3 MUL DUP7 ADD SWAP4 POP PUSH2 0x459A JUMP JUMPDEST PUSH2 0x4570 DUP6 PUSH2 0x3ECF JUMP JUMPDEST PUSH1 0x0 JUMPDEST DUP4 DUP2 LT ISZERO PUSH2 0x4592 JUMPI DUP2 SLOAD DUP2 DUP10 ADD MSTORE PUSH1 0x1 DUP3 ADD SWAP2 POP PUSH1 0x20 DUP2 ADD SWAP1 POP PUSH2 0x4573 JUMP JUMPDEST DUP4 DUP9 ADD SWAP6 POP POP POP JUMPDEST POP POP POP SWAP3 SWAP2 POP POP JUMP JUMPDEST PUSH1 0x0 PUSH2 0x45AF DUP3 DUP5 PUSH2 0x4520 JUMP JUMPDEST SWAP2 POP DUP2 SWAP1 POP SWAP3 SWAP2 POP POP JUMP JUMPDEST PUSH32 0x546869732063686174206E616D6520697320616C72656164792074616B656E00 PUSH1 0x0 DUP3 ADD MSTORE POP JUMP JUMPDEST PUSH1 0x0 PUSH2 0x45F0 PUSH1 0x1F DUP4 PUSH2 0x3B67 JUMP JUMPDEST SWAP2 POP PUSH2 0x45FB DUP3 PUSH2 0x45BA JUMP JUMPDEST PUSH1 0x20 DUP3 ADD SWAP1 POP SWAP2 SWAP1 POP JUMP JUMPDEST PUSH1 0x0 PUSH1 0x20 DUP3 ADD SWAP1 POP DUP2 DUP2 SUB PUSH1 0x0 DUP4 ADD MSTORE PUSH2 0x461F DUP2 PUSH2 0x45E3 JUMP JUMPDEST SWAP1 POP SWAP2 SWAP1 POP JUMP JUMPDEST PUSH32 0x4D65737361676520646F6573206E6F7420657869737421000000000000000000 PUSH1 0x0 DUP3 ADD MSTORE POP JUMP JUMPDEST PUSH1 0x0 PUSH2 0x465C PUSH1 0x17 DUP4 PUSH2 0x3B67 JUMP JUMPDEST SWAP2 POP PUSH2 0x4667 DUP3 PUSH2 0x4626 JUMP JUMPDEST PUSH1 0x20 DUP3 ADD SWAP1 POP SWAP2 SWAP1 POP JUMP JUMPDEST PUSH1 0x0 PUSH1 0x20 DUP3 ADD SWAP1 POP DUP2 DUP2 SUB PUSH1 0x0 DUP4 ADD MSTORE PUSH2 0x468B DUP2 PUSH2 0x464F JUMP JUMPDEST SWAP1 POP SWAP2 SWAP1 POP JUMP JUMPDEST PUSH32 0x53656E646572206D757374206265206F776E6572206F6620746865206D657373 PUSH1 0x0 DUP3 ADD MSTORE PUSH32 0x616765206F7220746865206D657373616765207761732064656C657465642100 PUSH1 0x20 DUP3 ADD MSTORE POP JUMP JUMPDEST PUSH1 0x0 PUSH2 0x46EE PUSH1 0x3F DUP4 PUSH2 0x3B67 JUMP JUMPDEST SWAP2 POP PUSH2 0x46F9 DUP3 PUSH2 0x4692 JUMP JUMPDEST PUSH1 0x40 DUP3 ADD SWAP1 POP SWAP2 SWAP1 POP JUMP JUMPDEST PUSH1 0x0 PUSH1 0x20 DUP3 ADD SWAP1 POP DUP2 DUP2 SUB PUSH1 0x0 DUP4 ADD MSTORE PUSH2 0x471D DUP2 PUSH2 0x46E1 JUMP JUMPDEST SWAP1 POP SWAP2 SWAP1 POP JUMP JUMPDEST PUSH32 0x55736572206E6F7420666F756E64210000000000000000000000000000000000 PUSH1 0x0 DUP3 ADD MSTORE POP JUMP JUMPDEST PUSH1 0x0 PUSH2 0x475A PUSH1 0xF DUP4 PUSH2 0x3B67 JUMP JUMPDEST SWAP2 POP PUSH2 0x4765 DUP3 PUSH2 0x4724 JUMP JUMPDEST PUSH1 0x20 DUP3 ADD SWAP1 POP SWAP2 SWAP1 POP JUMP JUMPDEST PUSH1 0x0 PUSH1 0x20 DUP3 ADD SWAP1 POP DUP2 DUP2 SUB PUSH1 0x0 DUP4 ADD MSTORE PUSH2 0x4789 DUP2 PUSH2 0x474D JUMP JUMPDEST SWAP1 POP SWAP2 SWAP1 POP JUMP INVALID LOG2 PUSH5 0x6970667358 0x22 SLT KECCAK256 0xBD SHR 0xDD 0xC6 NOT 0xCA 0xB0 0xCA RETURNDATASIZE PUSH11 0x5132AABCB7BBCF4FA17722 OR SELFDESTRUCT JUMPI PUSH5 0x6C9FB93B5F KECCAK256 0xF8 PUSH5 0x736F6C6343 STOP ADDMOD GT STOP CALLER "},"methodIdentifiers":{"addUsersToChat(uint256,uint256[])":"28f9c1b0","changeMessage(uint256,string)":"a1786d1b","createChat(string)":"a0488c2e","createMessage(uint256,string)":"52229eaa","createUser(string)":"507ffba5","deleteMessage(uint256)":"b888690a","doesUserExist()":"9d9e36d8","getAllMessagesInChat(uint256)":"18cac089","getAllUserChats()":"3d749bca","getAllUsers()":"e2842d79","getAllUsersInChat(uint256)":"d5c2e0cd","getChat(uint256)":"f1f8fe2e","leaveChat(uint256)":"7edce7b2"}}}}}