{
  "_format": "hh-sol-artifact-1",
  "contractName": "Messenger",
  "sourceName": "contracts/Messenger.sol",
  "abi": [
    {
      "inputs": [],
      "name": "MustBeOwnerOfMessage",
      "type": "error"
    },
    {
      "inputs": [
        {
          "internalType": "bytes32",
          "name": "text",
          "type": "bytes32"
        }
      ],
      "name": "addMessage",
      "outputs": [],
      "stateMutability": "nonpayable",
      "type": "function"
    },
    {
      "inputs": [
        {
          "internalType": "bytes32",
          "name": "username",
          "type": "bytes32"
        }
      ],
      "name": "addUser",
      "outputs": [],
      "stateMutability": "nonpayable",
      "type": "function"
    },
    {
      "inputs": [
        {
          "internalType": "uint256",
          "name": "messageId",
          "type": "uint256"
        },
        {
          "internalType": "bytes32",
          "name": "text",
          "type": "bytes32"
        }
      ],
      "name": "changeMessage",
      "outputs": [],
      "stateMutability": "nonpayable",
      "type": "function"
    },
    {
      "inputs": [
        {
          "internalType": "uint256",
          "name": "messageId",
          "type": "uint256"
        }
      ],
      "name": "deleteMessage",
      "outputs": [],
      "stateMutability": "nonpayable",
      "type": "function"
    },
    {
      "inputs": [],
      "name": "getNumberOfCurrentUsers",
      "outputs": [
        {
          "internalType": "uint256",
          "name": "",
          "type": "uint256"
        }
      ],
      "stateMutability": "view",
      "type": "function"
    },
    {
      "inputs": [
        {
          "internalType": "bytes32",
          "name": "",
          "type": "bytes32"
        }
      ],
      "name": "isTaken",
      "outputs": [
        {
          "internalType": "bool",
          "name": "",
          "type": "bool"
        }
      ],
      "stateMutability": "view",
      "type": "function"
    },
    {
      "inputs": [
        {
          "internalType": "uint256",
          "name": "",
          "type": "uint256"
        }
      ],
      "name": "messageArray",
      "outputs": [
        {
          "internalType": "uint256",
          "name": "id",
          "type": "uint256"
        },
        {
          "internalType": "bytes32",
          "name": "text",
          "type": "bytes32"
        },
        {
          "internalType": "uint256",
          "name": "changedAt",
          "type": "uint256"
        },
        {
          "components": [
            {
              "internalType": "uint256",
              "name": "id",
              "type": "uint256"
            },
            {
              "internalType": "bytes32",
              "name": "username",
              "type": "bytes32"
            },
            {
              "internalType": "bool",
              "name": "isSet",
              "type": "bool"
            }
          ],
          "internalType": "struct Messenger.User",
          "name": "owner",
          "type": "tuple"
        },
        {
          "internalType": "bool",
          "name": "isChanged",
          "type": "bool"
        }
      ],
      "stateMutability": "view",
      "type": "function"
    },
    {
      "inputs": [
        {
          "internalType": "bytes32",
          "name": "",
          "type": "bytes32"
        }
      ],
      "name": "users",
      "outputs": [
        {
          "internalType": "uint256",
          "name": "id",
          "type": "uint256"
        },
        {
          "internalType": "bytes32",
          "name": "username",
          "type": "bytes32"
        },
        {
          "internalType": "bool",
          "name": "isSet",
          "type": "bool"
        }
      ],
      "stateMutability": "view",
      "type": "function"
    },
    {
      "inputs": [],
      "name": "viewMessages",
      "outputs": [
        {
          "components": [
            {
              "internalType": "uint256",
              "name": "id",
              "type": "uint256"
            },
            {
              "internalType": "bytes32",
              "name": "text",
              "type": "bytes32"
            },
            {
              "internalType": "uint256",
              "name": "changedAt",
              "type": "uint256"
            },
            {
              "components": [
                {
                  "internalType": "uint256",
                  "name": "id",
                  "type": "uint256"
                },
                {
                  "internalType": "bytes32",
                  "name": "username",
                  "type": "bytes32"
                },
                {
                  "internalType": "bool",
                  "name": "isSet",
                  "type": "bool"
                }
              ],
              "internalType": "struct Messenger.User",
              "name": "owner",
              "type": "tuple"
            },
            {
              "internalType": "bool",
              "name": "isChanged",
              "type": "bool"
            }
          ],
          "internalType": "struct Messenger.Message[]",
          "name": "",
          "type": "tuple[]"
        }
      ],
      "stateMutability": "view",
      "type": "function"
    }
  ],
  "bytecode": "0x60806040526000600460006101000a81548160ff02191690831515021790555034801561002b57600080fd5b50610e7e8061003b6000396000f3fe608060405234801561001057600080fd5b50600436106100935760003560e01c8063b888690a11610066578063b888690a1461010a578063c544b6ca14610126578063cea6ab9814610156578063e43fdb6c14610188578063fc1775ac146101a657610093565b8063024aebcd1461009857806368f5a370146100b45780637e6ec793146100d05780638faf850d146100ee575b600080fd5b6100b260048036038101906100ad91906108dd565b6101da565b005b6100ce60048036038101906100c99190610940565b610342565b005b6100d861054a565b6040516100e5919061098f565b60405180910390f35b610108600480360381019061010391906108dd565b610554565b005b610124600480360381019061011f91906109aa565b610665565b005b610140600480360381019061013b91906108dd565b6106e4565b60405161014d91906109f2565b60405180910390f35b610170600480360381019061016b91906108dd565b610704565b60405161017f93929190610a1c565b60405180910390f35b61019061073b565b60405161019d9190610bd9565b60405180910390f35b6101c060048036038101906101bb91906109aa565b610816565b6040516101d1959493929190610c3d565b60405180910390f35b6000336040516020016101ed9190610d0a565b60405160208183030381529060405280519060200120905060056040518060a00160405280600254815260200184815260200142815260200160008085815260200190815260200160002060405180606001604052908160008201548152602001600182015481526020016002820160009054906101000a900460ff1615151515815250508152602001600015158152509080600181540180825580915050600190039060005260206000209060070201600090919091909150600082015181600001556020820151816001015560408201518160020155606082015181600301600082015181600001556020820151816001015560408201518160020160006101000a81548160ff021916908315150217905550505060808201518160060160006101000a81548160ff02191690831515021790555050506002600081548092919061033990610d54565b91905055505050565b60006005838154811061035857610357610d9c565b5b90600052602060002090600702016040518060a00160405290816000820154815260200160018201548152602001600282015481526020016003820160405180606001604052908160008201548152602001600182015481526020016002820160009054906101000a900460ff16151515158152505081526020016006820160009054906101000a900460ff16151515158152505090506000336040516020016104029190610d0a565b6040516020818303038152906040528051906020012090508160600151600001516000808381526020019081526020016000206000015414610470576040517f62c2e22100000000000000000000000000000000000000000000000000000000815260040160405180910390fd5b6040518060a00160405280836000015181526020018481526020014281526020018360600151815260200160011515815250600585815481106104b6576104b5610d9c565b5b9060005260206000209060070201600082015181600001556020820151816001015560408201518160020155606082015181600301600082015181600001556020820151816001015560408201518160020160006101000a81548160ff021916908315150217905550505060808201518160060160006101000a81548160ff02191690831515021790555090505050505050565b6000600354905090565b6001600082815260200190815260200160002060009054906101000a900460ff16156105b5576040517f08c379a00000000000000000000000000000000000000000000000000000000081526004016105ac90610e28565b60405180910390fd5b6000336040516020016105c89190610d0a565b6040516020818303038152906040528051906020012090506040518060600160405280600354815260200183815260200160011515815250600080838152602001908152602001600020600082015181600001556020820151816001015560408201518160020160006101000a81548160ff0219169083151502179055509050506003600081548092919061065c90610d54565b91905055505050565b6005818154811061067957610678610d9c565b5b9060005260206000209060070201600080820160009055600182016000905560028201600090556003820160008082016000905560018201600090556002820160006101000a81549060ff021916905550506006820160006101000a81549060ff0219169055505050565b60016020528060005260406000206000915054906101000a900460ff1681565b60006020528060005260406000206000915090508060000154908060010154908060020160009054906101000a900460ff16905083565b60606005805480602002602001604051908101604052809291908181526020016000905b8282101561080d57838290600052602060002090600702016040518060a00160405290816000820154815260200160018201548152602001600282015481526020016003820160405180606001604052908160008201548152602001600182015481526020016002820160009054906101000a900460ff16151515158152505081526020016006820160009054906101000a900460ff1615151515815250508152602001906001019061075f565b50505050905090565b6005818154811061082657600080fd5b90600052602060002090600702016000915090508060000154908060010154908060020154908060030160405180606001604052908160008201548152602001600182015481526020016002820160009054906101000a900460ff161515151581525050908060060160009054906101000a900460ff16905085565b600080fd5b6000819050919050565b6108ba816108a7565b81146108c557600080fd5b50565b6000813590506108d7816108b1565b92915050565b6000602082840312156108f3576108f26108a2565b5b6000610901848285016108c8565b91505092915050565b6000819050919050565b61091d8161090a565b811461092857600080fd5b50565b60008135905061093a81610914565b92915050565b60008060408385031215610957576109566108a2565b5b60006109658582860161092b565b9250506020610976858286016108c8565b9150509250929050565b6109898161090a565b82525050565b60006020820190506109a46000830184610980565b92915050565b6000602082840312156109c0576109bf6108a2565b5b60006109ce8482850161092b565b91505092915050565b60008115159050919050565b6109ec816109d7565b82525050565b6000602082019050610a0760008301846109e3565b92915050565b610a16816108a7565b82525050565b6000606082019050610a316000830186610980565b610a3e6020830185610a0d565b610a4b60408301846109e3565b949350505050565b600081519050919050565b600082825260208201905092915050565b6000819050602082019050919050565b610a888161090a565b82525050565b610a97816108a7565b82525050565b610aa6816109d7565b82525050565b606082016000820151610ac26000850182610a7f565b506020820151610ad56020850182610a8e565b506040820151610ae86040850182610a9d565b50505050565b60e082016000820151610b046000850182610a7f565b506020820151610b176020850182610a8e565b506040820151610b2a6040850182610a7f565b506060820151610b3d6060850182610aac565b506080820151610b5060c0850182610a9d565b50505050565b6000610b628383610aee565b60e08301905092915050565b6000602082019050919050565b6000610b8682610a53565b610b908185610a5e565b9350610b9b83610a6f565b8060005b83811015610bcc578151610bb38882610b56565b9750610bbe83610b6e565b925050600181019050610b9f565b5085935050505092915050565b60006020820190508181036000830152610bf38184610b7b565b905092915050565b606082016000820151610c116000850182610a7f565b506020820151610c246020850182610a8e565b506040820151610c376040850182610a9d565b50505050565b600060e082019050610c526000830188610980565b610c5f6020830187610a0d565b610c6c6040830186610980565b610c796060830185610bfb565b610c8660c08301846109e3565b9695505050505050565b600073ffffffffffffffffffffffffffffffffffffffff82169050919050565b6000610cbb82610c90565b9050919050565b60008160601b9050919050565b6000610cda82610cc2565b9050919050565b6000610cec82610ccf565b9050919050565b610d04610cff82610cb0565b610ce1565b82525050565b6000610d168284610cf3565b60148201915081905092915050565b7f4e487b7100000000000000000000000000000000000000000000000000000000600052601160045260246000fd5b6000610d5f8261090a565b91507fffffffffffffffffffffffffffffffffffffffffffffffffffffffffffffffff8203610d9157610d90610d25565b5b600182019050919050565b7f4e487b7100000000000000000000000000000000000000000000000000000000600052603260045260246000fd5b600082825260208201905092915050565b7f5468697320757365726e616d6520697320616c72656164792074616b656e0000600082015250565b6000610e12601e83610dcb565b9150610e1d82610ddc565b602082019050919050565b60006020820190508181036000830152610e4181610e05565b905091905056fea2646970667358221220a8830a32dfa81f0a920d7060ab6ef579cdfbf10fc6eb401ccc9d0d32fa8f419364736f6c63430008110033",
  "linkReferences": {},
  "deployedLinkReferences": {}
}