{
  "_format": "hh-sol-artifact-1",
  "contractName": "Messenger",
  "sourceName": "contracts/Messenger.sol",
  "abi": [
    {
      "anonymous": false,
      "inputs": [],
      "name": "ChatsChanged",
      "type": "event"
    },
    {
      "anonymous": false,
      "inputs": [],
      "name": "MessagesChanged",
      "type": "event"
    },
    {
      "anonymous": false,
      "inputs": [],
      "name": "UsersChanged",
      "type": "event"
    },
    {
      "anonymous": false,
      "inputs": [
        {
          "indexed": false,
          "internalType": "address",
          "name": "senderAddress",
          "type": "address"
        },
        {
          "indexed": false,
          "internalType": "string",
          "name": "senderUsername",
          "type": "string"
        },
        {
          "indexed": false,
          "internalType": "string",
          "name": "chatName",
          "type": "string"
        }
      ],
      "name": "newChatEvent",
      "type": "event"
    },
    {
      "anonymous": false,
      "inputs": [
        {
          "indexed": false,
          "internalType": "address",
          "name": "senderAddress",
          "type": "address"
        },
        {
          "indexed": false,
          "internalType": "string",
          "name": "senderUsername",
          "type": "string"
        },
        {
          "indexed": false,
          "internalType": "string",
          "name": "message",
          "type": "string"
        }
      ],
      "name": "newMessageEvent",
      "type": "event"
    },
    {
      "inputs": [
        {
          "internalType": "uint256",
          "name": "chatId",
          "type": "uint256"
        },
        {
          "internalType": "uint256[]",
          "name": "newUsersId",
          "type": "uint256[]"
        }
      ],
      "name": "addUsersToChat",
      "outputs": [],
      "stateMutability": "nonpayable",
      "type": "function"
    },
    {
      "inputs": [
        {
          "internalType": "uint256",
          "name": "messageId",
          "type": "uint256"
        },
        {
          "internalType": "string",
          "name": "text",
          "type": "string"
        }
      ],
      "name": "changeMessage",
      "outputs": [],
      "stateMutability": "nonpayable",
      "type": "function"
    },
    {
      "inputs": [
        {
          "internalType": "string",
          "name": "chatName",
          "type": "string"
        }
      ],
      "name": "createChat",
      "outputs": [],
      "stateMutability": "nonpayable",
      "type": "function"
    },
    {
      "inputs": [
        {
          "internalType": "uint256",
          "name": "chatId",
          "type": "uint256"
        },
        {
          "internalType": "string",
          "name": "text",
          "type": "string"
        }
      ],
      "name": "createMessage",
      "outputs": [],
      "stateMutability": "nonpayable",
      "type": "function"
    },
    {
      "inputs": [
        {
          "internalType": "string",
          "name": "username",
          "type": "string"
        }
      ],
      "name": "createUser",
      "outputs": [],
      "stateMutability": "nonpayable",
      "type": "function"
    },
    {
      "inputs": [
        {
          "internalType": "uint256",
          "name": "messageId",
          "type": "uint256"
        }
      ],
      "name": "deleteMessage",
      "outputs": [],
      "stateMutability": "nonpayable",
      "type": "function"
    },
    {
      "inputs": [],
      "name": "doesUserExist",
      "outputs": [
        {
          "internalType": "bool",
          "name": "",
          "type": "bool"
        }
      ],
      "stateMutability": "view",
      "type": "function"
    },
    {
      "inputs": [
        {
          "internalType": "uint256",
          "name": "chatId",
          "type": "uint256"
        }
      ],
      "name": "getAllMessagesInChat",
      "outputs": [
        {
          "components": [
            {
              "internalType": "uint256",
              "name": "id",
              "type": "uint256"
            },
            {
              "components": [
                {
                  "internalType": "uint256",
                  "name": "id",
                  "type": "uint256"
                },
                {
                  "internalType": "uint256[]",
                  "name": "chatsId",
                  "type": "uint256[]"
                },
                {
                  "internalType": "string",
                  "name": "username",
                  "type": "string"
                },
                {
                  "internalType": "address",
                  "name": "userAddress",
                  "type": "address"
                }
              ],
              "internalType": "struct Messenger.User",
              "name": "owner",
              "type": "tuple"
            },
            {
              "internalType": "string",
              "name": "text",
              "type": "string"
            },
            {
              "internalType": "uint256",
              "name": "changedAt",
              "type": "uint256"
            },
            {
              "internalType": "bool",
              "name": "isChanged",
              "type": "bool"
            }
          ],
          "internalType": "struct Messenger.Message[]",
          "name": "",
          "type": "tuple[]"
        }
      ],
      "stateMutability": "view",
      "type": "function"
    },
    {
      "inputs": [],
      "name": "getAllUserChats",
      "outputs": [
        {
          "components": [
            {
              "internalType": "uint256",
              "name": "id",
              "type": "uint256"
            },
            {
              "internalType": "string",
              "name": "chatName",
              "type": "string"
            },
            {
              "internalType": "uint256[]",
              "name": "usersId",
              "type": "uint256[]"
            },
            {
              "internalType": "uint256[]",
              "name": "messagesId",
              "type": "uint256[]"
            }
          ],
          "internalType": "struct Messenger.Chat[]",
          "name": "",
          "type": "tuple[]"
        }
      ],
      "stateMutability": "view",
      "type": "function"
    },
    {
      "inputs": [],
      "name": "getAllUsers",
      "outputs": [
        {
          "components": [
            {
              "internalType": "uint256",
              "name": "id",
              "type": "uint256"
            },
            {
              "internalType": "uint256[]",
              "name": "chatsId",
              "type": "uint256[]"
            },
            {
              "internalType": "string",
              "name": "username",
              "type": "string"
            },
            {
              "internalType": "address",
              "name": "userAddress",
              "type": "address"
            }
          ],
          "internalType": "struct Messenger.User[]",
          "name": "",
          "type": "tuple[]"
        }
      ],
      "stateMutability": "view",
      "type": "function"
    },
    {
      "inputs": [
        {
          "internalType": "uint256",
          "name": "chatId",
          "type": "uint256"
        }
      ],
      "name": "getAllUsersInChat",
      "outputs": [
        {
          "components": [
            {
              "internalType": "uint256",
              "name": "id",
              "type": "uint256"
            },
            {
              "internalType": "uint256[]",
              "name": "chatsId",
              "type": "uint256[]"
            },
            {
              "internalType": "string",
              "name": "username",
              "type": "string"
            },
            {
              "internalType": "address",
              "name": "userAddress",
              "type": "address"
            }
          ],
          "internalType": "struct Messenger.User[]",
          "name": "",
          "type": "tuple[]"
        }
      ],
      "stateMutability": "view",
      "type": "function"
    },
    {
      "inputs": [
        {
          "internalType": "uint256",
          "name": "chatId",
          "type": "uint256"
        }
      ],
      "name": "getChat",
      "outputs": [
        {
          "components": [
            {
              "internalType": "uint256",
              "name": "id",
              "type": "uint256"
            },
            {
              "internalType": "string",
              "name": "chatName",
              "type": "string"
            },
            {
              "internalType": "uint256[]",
              "name": "usersId",
              "type": "uint256[]"
            },
            {
              "internalType": "uint256[]",
              "name": "messagesId",
              "type": "uint256[]"
            }
          ],
          "internalType": "struct Messenger.Chat",
          "name": "",
          "type": "tuple"
        }
      ],
      "stateMutability": "view",
      "type": "function"
    },
    {
      "inputs": [
        {
          "internalType": "uint256",
          "name": "chatId",
          "type": "uint256"
        }
      ],
      "name": "leaveChat",
      "outputs": [],
      "stateMutability": "nonpayable",
      "type": "function"
    }
  ],
  "bytecode": "0x608060405234801561001057600080fd5b506147c6806100206000396000f3fe608060405234801561001057600080fd5b50600436106100cf5760003560e01c80639d9e36d81161008c578063b888690a11610066578063b888690a146101e8578063d5c2e0cd14610204578063e2842d7914610234578063f1f8fe2e14610252576100cf565b80639d9e36d814610192578063a0488c2e146101b0578063a1786d1b146101cc576100cf565b806318cac089146100d457806328f9c1b0146101045780633d749bca14610120578063507ffba51461013e57806352229eaa1461015a5780637edce7b214610176575b600080fd5b6100ee60048036038101906100e991906131d1565b610282565b6040516100fb9190613551565b60405180910390f35b61011e600480360381019061011991906136bb565b61076d565b005b610128610c06565b604051610135919061384a565b60405180910390f35b61015860048036038101906101539190613921565b610ecf565b005b610174600480360381019061016f919061396a565b611134565b005b610190600480360381019061018b91906131d1565b611651565b005b61019a611d7e565b6040516101a791906139d5565b60405180910390f35b6101ca60048036038101906101c59190613921565b611e31565b005b6101e660048036038101906101e1919061396a565b612143565b005b61020260048036038101906101fd91906131d1565b61253b565b005b61021e600480360381019061021991906131d1565b612660565b60405161022b9190613ab2565b60405180910390f35b61023c612a76565b6040516102499190613ab2565b60405180910390f35b61026c600480360381019061026791906131d1565b612c1f565b6040516102799190613b45565b60405180910390f35b6060600061028e612eb7565b905082600680549050116102d7576040517f08c379a00000000000000000000000000000000000000000000000000000000081526004016102ce90613bc4565b60405180910390fd5b610354600684815481106102ee576102ed613be4565b5b906000526020600020906004020160020180548060200260200160405190810160405280929190818152602001828054801561034957602002820191906000526020600020905b815481526020019060010190808311610335575b505050505082612fc4565b610393576040517f08c379a000000000000000000000000000000000000000000000000000000000815260040161038a90613c5f565b60405180910390fd5b6000600684815481106103a9576103a8613be4565b5b90600052602060002090600402016003018054905067ffffffffffffffff8111156103d7576103d6613578565b5b60405190808252806020026020018201604052801561041057816020015b6103fd61301f565b8152602001906001900390816103f55790505b509050600080600090505b6007805490508110156107615760006104cc6006888154811061044157610440613be4565b5b906000526020600020906004020160030180548060200260200160405190810160405280929190818152602001828054801561049c57602002820191906000526020600020905b815481526020019060010190808311610488575b5050505050600784815481106104b5576104b4613be4565b5b906000526020600020906008020160000154612fc4565b9050801561074d57600782815481106104e8576104e7613be4565b5b90600052602060002090600802016040518060a00160405290816000820154815260200160018201604051806080016040529081600082015481526020016001820180548060200260200160405190810160405280929190818152602001828054801561057457602002820191906000526020600020905b815481526020019060010190808311610560575b5050505050815260200160028201805461058d90613cae565b80601f01602080910402602001604051908101604052809291908181526020018280546105b990613cae565b80156106065780601f106105db57610100808354040283529160200191610606565b820191906000526020600020905b8154815290600101906020018083116105e957829003601f168201915b505050505081526020016003820160009054906101000a900473ffffffffffffffffffffffffffffffffffffffff1673ffffffffffffffffffffffffffffffffffffffff1673ffffffffffffffffffffffffffffffffffffffff1681525050815260200160058201805461067990613cae565b80601f01602080910402602001604051908101604052809291908181526020018280546106a590613cae565b80156106f25780601f106106c7576101008083540402835291602001916106f2565b820191906000526020600020905b8154815290600101906020018083116106d557829003601f168201915b50505050508152602001600682015481526020016007820160009054906101000a900460ff16151515158152505084848151811061073357610732613be4565b5b6020026020010181905250828061074990613d0e565b9350505b50808061075990613d0e565b91505061041b565b50819350505050919050565b6000610777612eb7565b9050600083600680549050116107c2576040517f08c379a00000000000000000000000000000000000000000000000000000000081526004016107b990613bc4565b60405180910390fd5b61083f600685815481106107d9576107d8613be4565b5b906000526020600020906004020160020180548060200260200160405190810160405280929190818152602001828054801561083457602002820191906000526020600020905b815481526020019060010190808311610820575b505050505083612fc4565b61087e576040517f08c379a000000000000000000000000000000000000000000000000000000000815260040161087590613dc8565b60405180910390fd5b60005b8351811015610952576000805b6005805490508110156108f957600581815481106108af576108ae613be4565b5b9060005260206000209060040201600001548684815181106108d4576108d3613be4565b5b6020026020010151036108e657600191505b80806108f190613d0e565b91505061088e565b508061093a576040517f08c379a000000000000000000000000000000000000000000000000000000000815260040161093190613e34565b60405180910390fd5b6000905050808061094a90613d0e565b915050610881565b5060005b8351811015610ae45760006109f86006878154811061097857610977613be4565b5b90600052602060002090600402016002018054806020026020016040519081016040528092919081815260200182805480156109d357602002820191906000526020600020905b8154815260200190600101908083116109bf575b50505050508684815181106109eb576109ea613be4565b5b6020026020010151612fc4565b905080610ad05760068681548110610a1357610a12613be4565b5b9060005260206000209060040201600201858381518110610a3757610a36613be4565b5b602002602001015190806001815401808255809150506001900390600052602060002001600090919091909150556005858381518110610a7a57610a79613be4565b5b602002602001015181548110610a9357610a92613be4565b5b9060005260206000209060040201600101869080600181540180825580915050600190039060005260206000200160009091909190915055600192505b508080610adc90613d0e565b915050610956565b5080610b25576040517f08c379a0000000000000000000000000000000000000000000000000000000008152600401610b1c90613ea0565b60405180910390fd5b7fcc5dda9f229ec85a9cba7b77b10f747163021a72585eb11a0105a714c2a302e960405160405180910390a17f27276df2065752ae77c089feff5cdd46e3617227489882edbb634b6df7a57fc260405160405180910390a17f431d3f4ca51f6123efef4c56091d02b1caf4d7d32361eb5367f6a746dc7743c13360058481548110610bb357610bb2613be4565b5b906000526020600020906004020160020160068781548110610bd857610bd7613be4565b5b9060005260206000209060040201600101604051610bf893929190613f68565b60405180910390a150505050565b60606000610c12612eb7565b9050600060058281548110610c2a57610c29613be4565b5b90600052602060002090600402016001018054905067ffffffffffffffff811115610c5857610c57613578565b5b604051908082528060200260200182016040528015610c9157816020015b610c7e613056565b815260200190600190039081610c765790505b509050600080600090505b60058481548110610cb057610caf613be4565b5b906000526020600020906004020160010180549050811015610ec557600660058581548110610ce257610ce1613be4565b5b90600052602060002090600402016001018281548110610d0557610d04613be4565b5b906000526020600020015481548110610d2157610d20613be4565b5b906000526020600020906004020160405180608001604052908160008201548152602001600182018054610d5490613cae565b80601f0160208091040260200160405190810160405280929190818152602001828054610d8090613cae565b8015610dcd5780601f10610da257610100808354040283529160200191610dcd565b820191906000526020600020905b815481529060010190602001808311610db057829003601f168201915b5050505050815260200160028201805480602002602001604051908101604052809291908181526020018280548015610e2557602002820191906000526020600020905b815481526020019060010190808311610e11575b5050505050815260200160038201805480602002602001604051908101604052809291908181526020018280548015610e7d57602002820191906000526020600020905b815481526020019060010190808311610e69575b505050505081525050838381518110610e9957610e98613be4565b5b60200260200101819052508180610eaf90613d0e565b9250508080610ebd90613d0e565b915050610c9c565b5081935050505090565b600081604051610edf9190613fe9565b908152602001604051809103902060009054906101000a900460ff1615610f3b576040517f08c379a0000000000000000000000000000000000000000000000000000000008152600401610f329061404c565b60405180910390fd5b610f43611d7e565b15610f83576040517f08c379a0000000000000000000000000000000000000000000000000000000008152600401610f7a906140b8565b60405180910390fd5b600560405180608001604052806002548152602001600067ffffffffffffffff811115610fb357610fb2613578565b5b604051908082528060200260200182016040528015610fe15781602001602082028036833780820191505090505b5081526020018381526020013373ffffffffffffffffffffffffffffffffffffffff16815250908060018154018082558091505060019003906000526020600020906004020160009091909190915060008201518160000155602082015181600101908051906020019061105692919061307e565b50604082015181600201908161106c919061426f565b5060608201518160030160006101000a81548173ffffffffffffffffffffffffffffffffffffffff021916908373ffffffffffffffffffffffffffffffffffffffff160217905550505060016000826040516110c89190613fe9565b908152602001604051809103902060006101000a81548160ff0219169083151502179055506002600081548092919061110090613d0e565b91905055507fcc5dda9f229ec85a9cba7b77b10f747163021a72585eb11a0105a714c2a302e960405160405180910390a150565b6000815103611178576040517f08c379a000000000000000000000000000000000000000000000000000000000815260040161116f9061438d565b60405180910390fd5b81600680549050116111bf576040517f08c379a00000000000000000000000000000000000000000000000000000000081526004016111b690613bc4565b60405180910390fd5b60006111c9612eb7565b9050611248600684815481106111e2576111e1613be4565b5b906000526020600020906004020160020180548060200260200160405190810160405280929190818152602001828054801561123d57602002820191906000526020600020905b815481526020019060010190808311611229575b505050505082612fc4565b611287576040517f08c379a000000000000000000000000000000000000000000000000000000000815260040161127e9061441f565b60405180910390fd5b60076040518060a001604052806004548152602001600584815481106112b0576112af613be4565b5b9060005260206000209060040201604051806080016040529081600082015481526020016001820180548060200260200160405190810160405280929190818152602001828054801561132257602002820191906000526020600020905b81548152602001906001019080831161130e575b5050505050815260200160028201805461133b90613cae565b80601f016020809104026020016040519081016040528092919081815260200182805461136790613cae565b80156113b45780601f10611389576101008083540402835291602001916113b4565b820191906000526020600020905b81548152906001019060200180831161139757829003601f168201915b505050505081526020016003820160009054906101000a900473ffffffffffffffffffffffffffffffffffffffff1673ffffffffffffffffffffffffffffffffffffffff1673ffffffffffffffffffffffffffffffffffffffff168152505081526020018481526020014281526020016000151581525090806001815401808255809150506001900390600052602060002090600802016000909190919091506000820151816000015560208201518160010160008201518160000155602082015181600101908051906020019061148d92919061307e565b5060408201518160020190816114a3919061426f565b5060608201518160030160006101000a81548173ffffffffffffffffffffffffffffffffffffffff021916908373ffffffffffffffffffffffffffffffffffffffff16021790555050506040820151816005019081611502919061426f565b506060820151816006015560808201518160070160006101000a81548160ff02191690831515021790555050506006838154811061154357611542613be4565b5b906000526020600020906004020160030160045490806001815401808255809150506001900390600052602060002001600090919091909150556004600081548092919061159090613d0e565b91905055507f27276df2065752ae77c089feff5cdd46e3617227489882edbb634b6df7a57fc260405160405180910390a17f2e98287333723b369daeb64a58f5743debe818ede93b5542e039f56bee6a360860405160405180910390a17fbbac1ec35bd0bd086e058de425cf277c90487b50162579172d2455ea278f5680336005838154811061162357611622613be4565b5b90600052602060002090600402016002018460405161164493929190614478565b60405180910390a1505050565b600061165b612eb7565b905081600680549050116116a4576040517f08c379a000000000000000000000000000000000000000000000000000000000815260040161169b90613bc4565b60405180910390fd5b611721600683815481106116bb576116ba613be4565b5b906000526020600020906004020160020180548060200260200160405190810160405280929190818152602001828054801561171657602002820191906000526020600020905b815481526020019060010190808311611702575b505050505082612fc4565b611760576040517f08c379a000000000000000000000000000000000000000000000000000000000815260040161175790613c5f565b60405180910390fd5b60005b6006838154811061177757611776613be4565b5b9060005260206000209060040201600201805490508110156118f55781600684815481106117a8576117a7613be4565b5b906000526020600020906004020160020182815481106117cb576117ca613be4565b5b9060005260206000200154036118e257600683815481106117ef576117ee613be4565b5b906000526020600020906004020160020160016006858154811061181657611815613be4565b5b90600052602060002090600402016002018054905061183591906144bd565b8154811061184657611845613be4565b5b90600052602060002001546006848154811061186557611864613be4565b5b9060005260206000209060040201600201828154811061188857611887613be4565b5b9060005260206000200181905550600683815481106118aa576118a9613be4565b5b90600052602060002090600402016002018054806118cb576118ca6144f1565b5b600190038181906000526020600020016000905590555b80806118ed90613d0e565b915050611763565b5060005b6005828154811061190d5761190c613be4565b5b906000526020600020906004020160010180549050811015611a8b57826005838154811061193e5761193d613be4565b5b9060005260206000209060040201600101828154811061196157611960613be4565b5b906000526020600020015403611a78576005828154811061198557611984613be4565b5b90600052602060002090600402016001016001600584815481106119ac576119ab613be4565b5b9060005260206000209060040201600101805490506119cb91906144bd565b815481106119dc576119db613be4565b5b9060005260206000200154600583815481106119fb576119fa613be4565b5b90600052602060002090600402016001018281548110611a1e57611a1d613be4565b5b906000526020600020018190555060058281548110611a4057611a3f613be4565b5b9060005260206000209060040201600101805480611a6157611a606144f1565b5b600190038181906000526020600020016000905590555b8080611a8390613d0e565b9150506118f9565b50600060068381548110611aa257611aa1613be4565b5b90600052602060002090600402016002018054905003611d225760005b600780549050811015611c3c576000611b7060068581548110611ae557611ae4613be4565b5b9060005260206000209060040201600301805480602002602001604051908101604052809291908181526020018280548015611b4057602002820191906000526020600020905b815481526020019060010190808311611b2c575b505050505060078481548110611b5957611b58613be4565b5b906000526020600020906008020160000154612fc4565b90508015611c285760078281548110611b8c57611b8b613be4565b5b906000526020600020906008020160008082016000905560018201600080820160009055600182016000611bc091906130cb565b600282016000611bd091906130ec565b6003820160006101000a81549073ffffffffffffffffffffffffffffffffffffffff02191690555050600582016000611c0991906130ec565b60068201600090556007820160006101000a81549060ff021916905550505b508080611c3490613d0e565b915050611abf565b506000600160068481548110611c5557611c54613be4565b5b9060005260206000209060040201600101604051611c7391906145a3565b908152602001604051809103902060006101000a81548160ff02191690831515021790555060068281548110611cac57611cab613be4565b5b9060005260206000209060040201600080820160009055600182016000611cd391906130ec565b600282016000611ce391906130cb565b600382016000611cf391906130cb565b50507f2e98287333723b369daeb64a58f5743debe818ede93b5542e039f56bee6a360860405160405180910390a15b7fcc5dda9f229ec85a9cba7b77b10f747163021a72585eb11a0105a714c2a302e960405160405180910390a17f27276df2065752ae77c089feff5cdd46e3617227489882edbb634b6df7a57fc260405160405180910390a15050565b600080600090505b600580549050811015611e28573373ffffffffffffffffffffffffffffffffffffffff1660058281548110611dbe57611dbd613be4565b5b906000526020600020906004020160030160009054906101000a900473ffffffffffffffffffffffffffffffffffffffff1673ffffffffffffffffffffffffffffffffffffffff1603611e15576001915050611e2e565b8080611e2090613d0e565b915050611d86565b50600090505b90565b6000815103611e75576040517f08c379a0000000000000000000000000000000000000000000000000000000008152600401611e6c9061438d565b60405180910390fd5b600181604051611e859190613fe9565b908152602001604051809103902060009054906101000a900460ff1615611ee1576040517f08c379a0000000000000000000000000000000000000000000000000000000008152600401611ed890614606565b60405180910390fd5b6000611eeb612eb7565b9050600660405180608001604052806003548152602001848152602001600067ffffffffffffffff811115611f2357611f22613578565b5b604051908082528060200260200182016040528015611f515781602001602082028036833780820191505090505b508152602001600067ffffffffffffffff811115611f7257611f71613578565b5b604051908082528060200260200182016040528015611fa05781602001602082028036833780820191505090505b508152509080600181540180825580915050600190039060005260206000209060040201600090919091909150600082015181600001556020820151816001019081611fec919061426f565b50604082015181600201908051906020019061200992919061307e565b50606082015181600301908051906020019061202692919061307e565b50505060066003548154811061203f5761203e613be4565b5b90600052602060002090600402016002018190806001815401808255809150506001900390600052602060002001600090919091909150556005818154811061208b5761208a613be4565b5b90600052602060002090600402016001016003549080600181540180825580915050600190039060005260206000200160009091909190915055600180836040516120d69190613fe9565b908152602001604051809103902060006101000a81548160ff0219169083151502179055506003600081548092919061210e90613d0e565b91905055507f27276df2065752ae77c089feff5cdd46e3617227489882edbb634b6df7a57fc260405160405180910390a15050565b600061214d612eb7565b90508260078054905011612196576040517f08c379a000000000000000000000000000000000000000000000000000000000815260040161218d90614672565b60405180910390fd5b600783815481106121aa576121a9613be4565b5b9060005260206000209060080201600101600001548114612200576040517f08c379a00000000000000000000000000000000000000000000000000000000081526004016121f790614704565b60405180910390fd5b6000825103612244576040517f08c379a000000000000000000000000000000000000000000000000000000000815260040161223b9061438d565b60405180910390fd5b6040518060a001604052806007858154811061226357612262613be4565b5b90600052602060002090600802016000015481526020016007858154811061228e5761228d613be4565b5b9060005260206000209060080201600101604051806080016040529081600082015481526020016001820180548060200260200160405190810160405280929190818152602001828054801561230357602002820191906000526020600020905b8154815260200190600101908083116122ef575b5050505050815260200160028201805461231c90613cae565b80601f016020809104026020016040519081016040528092919081815260200182805461234890613cae565b80156123955780601f1061236a57610100808354040283529160200191612395565b820191906000526020600020905b81548152906001019060200180831161237857829003601f168201915b505050505081526020016003820160009054906101000a900473ffffffffffffffffffffffffffffffffffffffff1673ffffffffffffffffffffffffffffffffffffffff1673ffffffffffffffffffffffffffffffffffffffff1681525050815260200183815260200142815260200160011515815250600784815481106124205761241f613be4565b5b90600052602060002090600802016000820151816000015560208201518160010160008201518160000155602082015181600101908051906020019061246792919061307e565b50604082015181600201908161247d919061426f565b5060608201518160030160006101000a81548173ffffffffffffffffffffffffffffffffffffffff021916908373ffffffffffffffffffffffffffffffffffffffff160217905550505060408201518160050190816124dc919061426f565b506060820151816006015560808201518160070160006101000a81548160ff0219169083151502179055509050507f2e98287333723b369daeb64a58f5743debe818ede93b5542e039f56bee6a360860405160405180910390a1505050565b8060078054905011612582576040517f08c379a000000000000000000000000000000000000000000000000000000000815260040161257990614672565b60405180910390fd5b6007818154811061259657612595613be4565b5b9060005260206000209060080201600080820160009055600182016000808201600090556001820160006125ca91906130cb565b6002820160006125da91906130ec565b6003820160006101000a81549073ffffffffffffffffffffffffffffffffffffffff0219169055505060058201600061261391906130ec565b60068201600090556007820160006101000a81549060ff021916905550507f2e98287333723b369daeb64a58f5743debe818ede93b5542e039f56bee6a360860405160405180910390a150565b6060600061266c612eb7565b905082600680549050116126b5576040517f08c379a00000000000000000000000000000000000000000000000000000000081526004016126ac90613bc4565b60405180910390fd5b612732600684815481106126cc576126cb613be4565b5b906000526020600020906004020160020180548060200260200160405190810160405280929190818152602001828054801561272757602002820191906000526020600020905b815481526020019060010190808311612713575b505050505082612fc4565b612771576040517f08c379a000000000000000000000000000000000000000000000000000000000815260040161276890613c5f565b60405180910390fd5b60006006848154811061278757612786613be4565b5b90600052602060002090600402016002018054905067ffffffffffffffff8111156127b5576127b4613578565b5b6040519080825280602002602001820160405280156127ee57816020015b6127db61312c565b8152602001906001900390816127d35790505b509050600080600090505b600580549050811015612a6a5760006128aa6006888154811061281f5761281e613be4565b5b906000526020600020906004020160020180548060200260200160405190810160405280929190818152602001828054801561287a57602002820191906000526020600020905b815481526020019060010190808311612866575b50505050506005848154811061289357612892613be4565b5b906000526020600020906004020160000154612fc4565b90508015612a5657600582815481106128c6576128c5613be4565b5b9060005260206000209060040201604051806080016040529081600082015481526020016001820180548060200260200160405190810160405280929190818152602001828054801561293857602002820191906000526020600020905b815481526020019060010190808311612924575b5050505050815260200160028201805461295190613cae565b80601f016020809104026020016040519081016040528092919081815260200182805461297d90613cae565b80156129ca5780601f1061299f576101008083540402835291602001916129ca565b820191906000526020600020905b8154815290600101906020018083116129ad57829003601f168201915b505050505081526020016003820160009054906101000a900473ffffffffffffffffffffffffffffffffffffffff1673ffffffffffffffffffffffffffffffffffffffff1673ffffffffffffffffffffffffffffffffffffffff1681525050848481518110612a3c57612a3b613be4565b5b60200260200101819052508280612a5290613d0e565b9350505b508080612a6290613d0e565b9150506127f9565b50819350505050919050565b60606005805480602002602001604051908101604052809291908181526020016000905b82821015612c1657838290600052602060002090600402016040518060800160405290816000820154815260200160018201805480602002602001604051908101604052809291908181526020018280548015612b1657602002820191906000526020600020905b815481526020019060010190808311612b02575b50505050508152602001600282018054612b2f90613cae565b80601f0160208091040260200160405190810160405280929190818152602001828054612b5b90613cae565b8015612ba85780601f10612b7d57610100808354040283529160200191612ba8565b820191906000526020600020905b815481529060010190602001808311612b8b57829003601f168201915b505050505081526020016003820160009054906101000a900473ffffffffffffffffffffffffffffffffffffffff1673ffffffffffffffffffffffffffffffffffffffff1673ffffffffffffffffffffffffffffffffffffffff168152505081526020019060010190612a9a565b50505050905090565b612c27613056565b6000612c31612eb7565b90508260068054905011612c7a576040517f08c379a0000000000000000000000000000000000000000000000000000000008152600401612c7190613bc4565b60405180910390fd5b612cf760068481548110612c9157612c90613be4565b5b9060005260206000209060040201600201805480602002602001604051908101604052809291908181526020018280548015612cec57602002820191906000526020600020905b815481526020019060010190808311612cd8575b505050505082612fc4565b612d36576040517f08c379a0000000000000000000000000000000000000000000000000000000008152600401612d2d90613dc8565b60405180910390fd5b60068381548110612d4a57612d49613be4565b5b906000526020600020906004020160405180608001604052908160008201548152602001600182018054612d7d90613cae565b80601f0160208091040260200160405190810160405280929190818152602001828054612da990613cae565b8015612df65780601f10612dcb57610100808354040283529160200191612df6565b820191906000526020600020905b815481529060010190602001808311612dd957829003601f168201915b5050505050815260200160028201805480602002602001604051908101604052809291908181526020018280548015612e4e57602002820191906000526020600020905b815481526020019060010190808311612e3a575b5050505050815260200160038201805480602002602001604051908101604052809291908181526020018280548015612ea657602002820191906000526020600020905b815481526020019060010190808311612e92575b505050505081525050915050919050565b600080600090505b600580549050811015612f85573373ffffffffffffffffffffffffffffffffffffffff1660058281548110612ef757612ef6613be4565b5b906000526020600020906004020160030160009054906101000a900473ffffffffffffffffffffffffffffffffffffffff1673ffffffffffffffffffffffffffffffffffffffff1603612f725760058181548110612f5857612f57613be4565b5b906000526020600020906004020160000154915050612fc1565b8080612f7d90613d0e565b915050612ebf565b506040517f08c379a0000000000000000000000000000000000000000000000000000000008152600401612fb890614770565b60405180910390fd5b90565b600080600090505b83518110156130135782848281518110612fe957612fe8613be4565b5b602002602001015103613000576001915050613019565b808061300b90613d0e565b915050612fcc565b50600090505b92915050565b6040518060a001604052806000815260200161303961312c565b815260200160608152602001600081526020016000151581525090565b6040518060800160405280600081526020016060815260200160608152602001606081525090565b8280548282559060005260206000209081019282156130ba579160200282015b828111156130b957825182559160200191906001019061309e565b5b5090506130c7919061316a565b5090565b50805460008255906000526020600020908101906130e9919061316a565b50565b5080546130f890613cae565b6000825580601f1061310a5750613129565b601f016020900490600052602060002090810190613128919061316a565b5b50565b6040518060800160405280600081526020016060815260200160608152602001600073ffffffffffffffffffffffffffffffffffffffff1681525090565b5b8082111561318357600081600090555060010161316b565b5090565b6000604051905090565b600080fd5b600080fd5b6000819050919050565b6131ae8161319b565b81146131b957600080fd5b50565b6000813590506131cb816131a5565b92915050565b6000602082840312156131e7576131e6613191565b5b60006131f5848285016131bc565b91505092915050565b600081519050919050565b600082825260208201905092915050565b6000819050602082019050919050565b6132338161319b565b82525050565b600081519050919050565b600082825260208201905092915050565b6000819050602082019050919050565b6000613271838361322a565b60208301905092915050565b6000602082019050919050565b600061329582613239565b61329f8185613244565b93506132aa83613255565b8060005b838110156132db5781516132c28882613265565b97506132cd8361327d565b9250506001810190506132ae565b5085935050505092915050565b600081519050919050565b600082825260208201905092915050565b60005b83811015613322578082015181840152602081019050613307565b60008484015250505050565b6000601f19601f8301169050919050565b600061334a826132e8565b61335481856132f3565b9350613364818560208601613304565b61336d8161332e565b840191505092915050565b600073ffffffffffffffffffffffffffffffffffffffff82169050919050565b60006133a382613378565b9050919050565b6133b381613398565b82525050565b60006080830160008301516133d1600086018261322a565b50602083015184820360208601526133e9828261328a565b91505060408301518482036040860152613403828261333f565b915050606083015161341860608601826133aa565b508091505092915050565b60008115159050919050565b61343881613423565b82525050565b600060a083016000830151613456600086018261322a565b506020830151848203602086015261346e82826133b9565b91505060408301518482036040860152613488828261333f565b915050606083015161349d606086018261322a565b5060808301516134b0608086018261342f565b508091505092915050565b60006134c7838361343e565b905092915050565b6000602082019050919050565b60006134e7826131fe565b6134f18185613209565b9350836020820285016135038561321a565b8060005b8581101561353f578484038952815161352085826134bb565b945061352b836134cf565b925060208a01995050600181019050613507565b50829750879550505050505092915050565b6000602082019050818103600083015261356b81846134dc565b905092915050565b600080fd5b7f4e487b7100000000000000000000000000000000000000000000000000000000600052604160045260246000fd5b6135b08261332e565b810181811067ffffffffffffffff821117156135cf576135ce613578565b5b80604052505050565b60006135e2613187565b90506135ee82826135a7565b919050565b600067ffffffffffffffff82111561360e5761360d613578565b5b602082029050602081019050919050565b600080fd5b6000613637613632846135f3565b6135d8565b9050808382526020820190506020840283018581111561365a5761365961361f565b5b835b81811015613683578061366f88826131bc565b84526020840193505060208101905061365c565b5050509392505050565b600082601f8301126136a2576136a1613573565b5b81356136b2848260208601613624565b91505092915050565b600080604083850312156136d2576136d1613191565b5b60006136e0858286016131bc565b925050602083013567ffffffffffffffff81111561370157613700613196565b5b61370d8582860161368d565b9150509250929050565b600081519050919050565b600082825260208201905092915050565b6000819050602082019050919050565b600060808301600083015161375b600086018261322a565b5060208301518482036020860152613773828261333f565b9150506040830151848203604086015261378d828261328a565b915050606083015184820360608601526137a7828261328a565b9150508091505092915050565b60006137c08383613743565b905092915050565b6000602082019050919050565b60006137e082613717565b6137ea8185613722565b9350836020820285016137fc85613733565b8060005b85811015613838578484038952815161381985826137b4565b9450613824836137c8565b925060208a01995050600181019050613800565b50829750879550505050505092915050565b6000602082019050818103600083015261386481846137d5565b905092915050565b600080fd5b600067ffffffffffffffff82111561388c5761388b613578565b5b6138958261332e565b9050602081019050919050565b82818337600083830152505050565b60006138c46138bf84613871565b6135d8565b9050828152602081018484840111156138e0576138df61386c565b5b6138eb8482856138a2565b509392505050565b600082601f83011261390857613907613573565b5b81356139188482602086016138b1565b91505092915050565b60006020828403121561393757613936613191565b5b600082013567ffffffffffffffff81111561395557613954613196565b5b613961848285016138f3565b91505092915050565b6000806040838503121561398157613980613191565b5b600061398f858286016131bc565b925050602083013567ffffffffffffffff8111156139b0576139af613196565b5b6139bc858286016138f3565b9150509250929050565b6139cf81613423565b82525050565b60006020820190506139ea60008301846139c6565b92915050565b600081519050919050565b600082825260208201905092915050565b6000819050602082019050919050565b6000613a2883836133b9565b905092915050565b6000602082019050919050565b6000613a48826139f0565b613a5281856139fb565b935083602082028501613a6485613a0c565b8060005b85811015613aa05784840389528151613a818582613a1c565b9450613a8c83613a30565b925060208a01995050600181019050613a68565b50829750879550505050505092915050565b60006020820190508181036000830152613acc8184613a3d565b905092915050565b6000608083016000830151613aec600086018261322a565b5060208301518482036020860152613b04828261333f565b91505060408301518482036040860152613b1e828261328a565b91505060608301518482036060860152613b38828261328a565b9150508091505092915050565b60006020820190508181036000830152613b5f8184613ad4565b905092915050565b600082825260208201905092915050565b7f4368617420646f6573206e6f7420657869737421000000000000000000000000600082015250565b6000613bae601483613b67565b9150613bb982613b78565b602082019050919050565b60006020820190508181036000830152613bdd81613ba1565b9050919050565b7f4e487b7100000000000000000000000000000000000000000000000000000000600052603260045260246000fd5b7f53656e646572206d757374206265206d75737420626520696e20636861742100600082015250565b6000613c49601f83613b67565b9150613c5482613c13565b602082019050919050565b60006020820190508181036000830152613c7881613c3c565b9050919050565b7f4e487b7100000000000000000000000000000000000000000000000000000000600052602260045260246000fd5b60006002820490506001821680613cc657607f821691505b602082108103613cd957613cd8613c7f565b5b50919050565b7f4e487b7100000000000000000000000000000000000000000000000000000000600052601160045260246000fd5b6000613d198261319b565b91507fffffffffffffffffffffffffffffffffffffffffffffffffffffffffffffffff8203613d4b57613d4a613cdf565b5b600182019050919050565b7f53656e646572206d757374206265206d75737420626520696e20636861742c2060008201527f6f722063686174207761732064656c6574656421000000000000000000000000602082015250565b6000613db2603483613b67565b9150613dbd82613d56565b604082019050919050565b60006020820190508181036000830152613de181613da5565b9050919050565b7f55736572206964206973206e6f7420666f756e64210000000000000000000000600082015250565b6000613e1e601583613b67565b9150613e2982613de8565b602082019050919050565b60006020820190508181036000830152613e4d81613e11565b9050919050565b7f416c6c2075736572732061726520616c726561647920696e2063686174210000600082015250565b6000613e8a601e83613b67565b9150613e9582613e54565b602082019050919050565b60006020820190508181036000830152613eb981613e7d565b9050919050565b613ec981613398565b82525050565b60008190508160005260206000209050919050565b60008154613ef181613cae565b613efb8186613b67565b94506001821660008114613f165760018114613f2c57613f5f565b60ff198316865281151560200286019350613f5f565b613f3585613ecf565b60005b83811015613f5757815481890152600182019150602081019050613f38565b808801955050505b50505092915050565b6000606082019050613f7d6000830186613ec0565b8181036020830152613f8f8185613ee4565b90508181036040830152613fa38184613ee4565b9050949350505050565b600081905092915050565b6000613fc3826132e8565b613fcd8185613fad565b9350613fdd818560208601613304565b80840191505092915050565b6000613ff58284613fb8565b915081905092915050565b7f5468697320757365726e616d6520697320616c72656164792074616b656e0000600082015250565b6000614036601e83613b67565b915061404182614000565b602082019050919050565b6000602082019050818103600083015261406581614029565b9050919050565b7f5573657220616c72656164792065786973747321000000000000000000000000600082015250565b60006140a2601483613b67565b91506140ad8261406c565b602082019050919050565b600060208201905081810360008301526140d181614095565b9050919050565b60006020601f8301049050919050565b600082821b905092915050565b6000600883026141257fffffffffffffffffffffffffffffffffffffffffffffffffffffffffffffffff826140e8565b61412f86836140e8565b95508019841693508086168417925050509392505050565b6000819050919050565b600061416c6141676141628461319b565b614147565b61319b565b9050919050565b6000819050919050565b61418683614151565b61419a61419282614173565b8484546140f5565b825550505050565b600090565b6141af6141a2565b6141ba81848461417d565b505050565b5b818110156141de576141d36000826141a7565b6001810190506141c0565b5050565b601f821115614223576141f481613ecf565b6141fd846140d8565b8101602085101561420c578190505b614220614218856140d8565b8301826141bf565b50505b505050565b600082821c905092915050565b600061424660001984600802614228565b1980831691505092915050565b600061425f8383614235565b9150826002028217905092915050565b614278826132e8565b67ffffffffffffffff81111561429157614290613578565b5b61429b8254613cae565b6142a68282856141e2565b600060209050601f8311600181146142d957600084156142c7578287015190505b6142d18582614253565b865550614339565b601f1984166142e786613ecf565b60005b8281101561430f578489015182556001820191506020850194506020810190506142ea565b8683101561432c5784890151614328601f891682614235565b8355505b6001600288020188555050505b505050505050565b7f546578742073686f756c64206578697374210000000000000000000000000000600082015250565b6000614377601283613b67565b915061438282614341565b602082019050919050565b600060208201905081810360008301526143a68161436a565b9050919050565b7f53656e646572206d757374206265206d75737420626520696e2063686174206f60008201527f722063686174207761732064656c657465642100000000000000000000000000602082015250565b6000614409603383613b67565b9150614414826143ad565b604082019050919050565b60006020820190508181036000830152614438816143fc565b9050919050565b600061444a826132e8565b6144548185613b67565b9350614464818560208601613304565b61446d8161332e565b840191505092915050565b600060608201905061448d6000830186613ec0565b818103602083015261449f8185613ee4565b905081810360408301526144b3818461443f565b9050949350505050565b60006144c88261319b565b91506144d38361319b565b92508282039050818111156144eb576144ea613cdf565b5b92915050565b7f4e487b7100000000000000000000000000000000000000000000000000000000600052603160045260246000fd5b6000815461452d81613cae565b6145378186613fad565b9450600182166000811461455257600181146145675761459a565b60ff198316865281151582028601935061459a565b61457085613ecf565b60005b8381101561459257815481890152600182019150602081019050614573565b838801955050505b50505092915050565b60006145af8284614520565b915081905092915050565b7f546869732063686174206e616d6520697320616c72656164792074616b656e00600082015250565b60006145f0601f83613b67565b91506145fb826145ba565b602082019050919050565b6000602082019050818103600083015261461f816145e3565b9050919050565b7f4d65737361676520646f6573206e6f7420657869737421000000000000000000600082015250565b600061465c601783613b67565b915061466782614626565b602082019050919050565b6000602082019050818103600083015261468b8161464f565b9050919050565b7f53656e646572206d757374206265206f776e6572206f6620746865206d65737360008201527f616765206f7220746865206d657373616765207761732064656c657465642100602082015250565b60006146ee603f83613b67565b91506146f982614692565b604082019050919050565b6000602082019050818103600083015261471d816146e1565b9050919050565b7f55736572206e6f7420666f756e64210000000000000000000000000000000000600082015250565b600061475a600f83613b67565b915061476582614724565b602082019050919050565b600060208201905081810360008301526147898161474d565b905091905056fea2646970667358221220bd1cddc619cab0ca3d6a5132aabcb7bbcf4fa1772217ff57646c9fb93b5f20f864736f6c63430008110033",
  "linkReferences": {},
  "deployedLinkReferences": {}
}