{
  "contractName": "Messenger",
  "abi": [
    {
      "anonymous": false,
      "inputs": [],
      "name": "ChatsChanged",
      "type": "event"
    },
    {
      "anonymous": false,
      "inputs": [],
      "name": "MessagesChanged",
      "type": "event"
    },
    {
      "anonymous": false,
      "inputs": [],
      "name": "UsersChanged",
      "type": "event"
    },
    {
      "anonymous": false,
      "inputs": [
        {
          "indexed": false,
          "internalType": "address",
          "name": "senderAddress",
          "type": "address"
        },
        {
          "indexed": false,
          "internalType": "string",
          "name": "senderUsername",
          "type": "string"
        },
        {
          "indexed": false,
          "internalType": "string",
          "name": "chatName",
          "type": "string"
        }
      ],
      "name": "newChatEvent",
      "type": "event"
    },
    {
      "anonymous": false,
      "inputs": [
        {
          "indexed": false,
          "internalType": "address",
          "name": "senderAddress",
          "type": "address"
        },
        {
          "indexed": false,
          "internalType": "string",
          "name": "senderUsername",
          "type": "string"
        },
        {
          "indexed": false,
          "internalType": "string",
          "name": "message",
          "type": "string"
        }
      ],
      "name": "newMessageEvent",
      "type": "event"
    },
    {
      "inputs": [],
      "name": "doesUserExist",
      "outputs": [
        {
          "internalType": "bool",
          "name": "",
          "type": "bool"
        }
      ],
      "stateMutability": "view",
      "type": "function",
      "constant": true
    },
    {
      "inputs": [
        {
          "internalType": "string",
          "name": "username",
          "type": "string"
        }
      ],
      "name": "createUser",
      "outputs": [],
      "stateMutability": "nonpayable",
      "type": "function"
    },
    {
      "inputs": [],
      "name": "getCurrentUser",
      "outputs": [
        {
          "components": [
            {
              "internalType": "uint256",
              "name": "id",
              "type": "uint256"
            },
            {
              "internalType": "uint256[]",
              "name": "chatsId",
              "type": "uint256[]"
            },
            {
              "internalType": "string",
              "name": "username",
              "type": "string"
            },
            {
              "internalType": "address",
              "name": "userAddress",
              "type": "address"
            }
          ],
          "internalType": "struct Messenger.User",
          "name": "",
          "type": "tuple"
        }
      ],
      "stateMutability": "view",
      "type": "function",
      "constant": true
    },
    {
      "inputs": [],
      "name": "getAllUsers",
      "outputs": [
        {
          "components": [
            {
              "internalType": "uint256",
              "name": "id",
              "type": "uint256"
            },
            {
              "internalType": "uint256[]",
              "name": "chatsId",
              "type": "uint256[]"
            },
            {
              "internalType": "string",
              "name": "username",
              "type": "string"
            },
            {
              "internalType": "address",
              "name": "userAddress",
              "type": "address"
            }
          ],
          "internalType": "struct Messenger.User[]",
          "name": "",
          "type": "tuple[]"
        }
      ],
      "stateMutability": "view",
      "type": "function",
      "constant": true
    },
    {
      "inputs": [
        {
          "internalType": "string",
          "name": "chatName",
          "type": "string"
        },
        {
          "internalType": "uint256[]",
          "name": "newUsersId",
          "type": "uint256[]"
        }
      ],
      "name": "createChat",
      "outputs": [],
      "stateMutability": "nonpayable",
      "type": "function"
    },
    {
      "inputs": [
        {
          "internalType": "uint256",
          "name": "chatId",
          "type": "uint256"
        },
        {
          "internalType": "uint256[]",
          "name": "newUsersId",
          "type": "uint256[]"
        }
      ],
      "name": "addUsersToChat",
      "outputs": [],
      "stateMutability": "nonpayable",
      "type": "function"
    },
    {
      "inputs": [],
      "name": "getAllUserChats",
      "outputs": [
        {
          "components": [
            {
              "internalType": "uint256",
              "name": "id",
              "type": "uint256"
            },
            {
              "internalType": "string",
              "name": "chatName",
              "type": "string"
            },
            {
              "internalType": "uint256[]",
              "name": "usersId",
              "type": "uint256[]"
            },
            {
              "internalType": "uint256[]",
              "name": "messagesId",
              "type": "uint256[]"
            }
          ],
          "internalType": "struct Messenger.Chat[]",
          "name": "",
          "type": "tuple[]"
        }
      ],
      "stateMutability": "view",
      "type": "function",
      "constant": true
    },
    {
      "inputs": [
        {
          "internalType": "uint256",
          "name": "chatId",
          "type": "uint256"
        }
      ],
      "name": "leaveChat",
      "outputs": [],
      "stateMutability": "nonpayable",
      "type": "function"
    },
    {
      "inputs": [
        {
          "internalType": "uint256",
          "name": "chatId",
          "type": "uint256"
        },
        {
          "internalType": "string",
          "name": "text",
          "type": "string"
        }
      ],
      "name": "createMessage",
      "outputs": [],
      "stateMutability": "nonpayable",
      "type": "function"
    },
    {
      "inputs": [
        {
          "internalType": "uint256",
          "name": "messageId",
          "type": "uint256"
        },
        {
          "internalType": "string",
          "name": "text",
          "type": "string"
        }
      ],
      "name": "changeMessage",
      "outputs": [],
      "stateMutability": "nonpayable",
      "type": "function"
    },
    {
      "inputs": [
        {
          "internalType": "uint256",
          "name": "chatId",
          "type": "uint256"
        }
      ],
      "name": "getAllMessagesInChat",
      "outputs": [
        {
          "components": [
            {
              "internalType": "uint256",
              "name": "id",
              "type": "uint256"
            },
            {
              "components": [
                {
                  "internalType": "uint256",
                  "name": "id",
                  "type": "uint256"
                },
                {
                  "internalType": "uint256[]",
                  "name": "chatsId",
                  "type": "uint256[]"
                },
                {
                  "internalType": "string",
                  "name": "username",
                  "type": "string"
                },
                {
                  "internalType": "address",
                  "name": "userAddress",
                  "type": "address"
                }
              ],
              "internalType": "struct Messenger.User",
              "name": "owner",
              "type": "tuple"
            },
            {
              "internalType": "string",
              "name": "text",
              "type": "string"
            },
            {
              "internalType": "uint256",
              "name": "changedAt",
              "type": "uint256"
            },
            {
              "internalType": "bool",
              "name": "isChanged",
              "type": "bool"
            }
          ],
          "internalType": "struct Messenger.Message[]",
          "name": "",
          "type": "tuple[]"
        }
      ],
      "stateMutability": "view",
      "type": "function",
      "constant": true
    },
    {
      "inputs": [
        {
          "internalType": "uint256",
          "name": "messageId",
          "type": "uint256"
        }
      ],
      "name": "deleteMessage",
      "outputs": [],
      "stateMutability": "nonpayable",
      "type": "function"
    }
  ],
  "bytecode": "0x608060405234801561001057600080fd5b50614603806100206000396000f3fe608060405234801561001057600080fd5b50600436106100b45760003560e01c806352229eaa1161007157806352229eaa146101795780637edce7b2146101955780639d9e36d8146101b1578063a1786d1b146101cf578063b888690a146101eb578063e2842d7914610207576100b4565b806318cac089146100b95780631a1e38bf146100e957806328f9c1b0146101055780633d749bca1461012157806343ae37c31461013f578063507ffba51461015d575b600080fd5b6100d360048036038101906100ce9190612f31565b610225565b6040516100e091906132b1565b60405180910390f35b61010360048036038101906100fe91906134d0565b610710565b005b61011f600480360381019061011a9190613548565b610cb8565b005b610129611151565b60405161013691906136d7565b60405180910390f35b61014761141a565b6040516101549190613763565b60405180910390f35b61017760048036038101906101729190613785565b6115ab565b005b610193600480360381019061018e91906137ce565b611854565b005b6101af60048036038101906101aa9190612f31565b611d71565b005b6101b961249e565b6040516101c69190613839565b60405180910390f35b6101e960048036038101906101e491906137ce565b612551565b005b61020560048036038101906102009190612f31565b612949565b005b61020f612a6e565b60405161021c9190613916565b60405180910390f35b60606000610231612c17565b9050826006805490501161027a576040517f08c379a000000000000000000000000000000000000000000000000000000000815260040161027190613995565b60405180910390fd5b6102f760068481548110610291576102906139b5565b5b90600052602060002090600402016002018054806020026020016040519081016040528092919081815260200182805480156102ec57602002820191906000526020600020905b8154815260200190600101908083116102d8575b505050505082612d24565b610336576040517f08c379a000000000000000000000000000000000000000000000000000000000815260040161032d90613a30565b60405180910390fd5b60006006848154811061034c5761034b6139b5565b5b90600052602060002090600402016003018054905067ffffffffffffffff81111561037a576103796132dd565b5b6040519080825280602002602001820160405280156103b357816020015b6103a0612d7f565b8152602001906001900390816103985790505b509050600080600090505b60078054905081101561070457600061046f600688815481106103e4576103e36139b5565b5b906000526020600020906004020160030180548060200260200160405190810160405280929190818152602001828054801561043f57602002820191906000526020600020905b81548152602001906001019080831161042b575b505050505060078481548110610458576104576139b5565b5b906000526020600020906008020160000154612d24565b905080156106f0576007828154811061048b5761048a6139b5565b5b90600052602060002090600802016040518060a00160405290816000820154815260200160018201604051806080016040529081600082015481526020016001820180548060200260200160405190810160405280929190818152602001828054801561051757602002820191906000526020600020905b815481526020019060010190808311610503575b5050505050815260200160028201805461053090613a7f565b80601f016020809104026020016040519081016040528092919081815260200182805461055c90613a7f565b80156105a95780601f1061057e576101008083540402835291602001916105a9565b820191906000526020600020905b81548152906001019060200180831161058c57829003601f168201915b505050505081526020016003820160009054906101000a900473ffffffffffffffffffffffffffffffffffffffff1673ffffffffffffffffffffffffffffffffffffffff1673ffffffffffffffffffffffffffffffffffffffff1681525050815260200160058201805461061c90613a7f565b80601f016020809104026020016040519081016040528092919081815260200182805461064890613a7f565b80156106955780601f1061066a57610100808354040283529160200191610695565b820191906000526020600020905b81548152906001019060200180831161067857829003601f168201915b50505050508152602001600682015481526020016007820160009054906101000a900460ff1615151515815250508484815181106106d6576106d56139b5565b5b602002602001018190525082806106ec90613adf565b9350505b5080806106fc90613adf565b9150506103be565b50819350505050919050565b6000825103610754576040517f08c379a000000000000000000000000000000000000000000000000000000000815260040161074b90613b73565b60405180910390fd5b6001826040516107649190613bcf565b908152602001604051809103902060009054906101000a900460ff16156107c0576040517f08c379a00000000000000000000000000000000000000000000000000000000081526004016107b790613c32565b60405180910390fd5b60006107ca612c17565b9050600660405180608001604052806003548152602001858152602001600067ffffffffffffffff811115610802576108016132dd565b5b6040519080825280602002602001820160405280156108305781602001602082028036833780820191505090505b508152602001600067ffffffffffffffff811115610851576108506132dd565b5b60405190808252806020026020018201604052801561087f5781602001602082028036833780820191505090505b5081525090806001815401808255809150506001900390600052602060002090600402016000909190919091506000820151816000015560208201518160010190816108cb9190613dfe565b5060408201518160020190805190602001906108e8929190612db6565b506060820151816003019080519060200190610905929190612db6565b50505060066003548154811061091e5761091d6139b5565b5b90600052602060002090600402016002018190806001815401808255809150506001900390600052602060002001600090919091909150556005818154811061096a576109696139b5565b5b90600052602060002090600402016001016003549080600181540180825580915050600190039060005260206000200160009091909190915055600180846040516109b59190613bcf565b908152602001604051809103902060006101000a81548160ff02191690831515021790555060005b8251811015610aae576000805b600580549050811015610a555760058181548110610a0b57610a0a6139b5565b5b906000526020600020906004020160000154858481518110610a3057610a2f6139b5565b5b602002602001015103610a4257600191505b8080610a4d90613adf565b9150506109ea565b5080610a96576040517f08c379a0000000000000000000000000000000000000000000000000000000008152600401610a8d90613f1c565b60405180910390fd5b60009050508080610aa690613adf565b9150506109dd565b5060005b8251811015610c42576000610b56600660035481548110610ad657610ad56139b5565b5b9060005260206000209060040201600201805480602002602001604051908101604052809291908181526020018280548015610b3157602002820191906000526020600020905b815481526020019060010190808311610b1d575b5050505050858481518110610b4957610b486139b5565b5b6020026020010151612d24565b905080610c2e57600660035481548110610b7357610b726139b5565b5b9060005260206000209060040201600201848381518110610b9757610b966139b5565b5b602002602001015190806001815401808255809150506001900390600052602060002001600090919091909150556005848381518110610bda57610bd96139b5565b5b602002602001015181548110610bf357610bf26139b5565b5b906000526020600020906004020160010160035490806001815401808255809150506001900390600052602060002001600090919091909150555b508080610c3a90613adf565b915050610ab2565b5060036000815480929190610c5690613adf565b91905055507f27276df2065752ae77c089feff5cdd46e3617227489882edbb634b6df7a57fc260405160405180910390a17fcc5dda9f229ec85a9cba7b77b10f747163021a72585eb11a0105a714c2a302e960405160405180910390a1505050565b6000610cc2612c17565b905060008360068054905011610d0d576040517f08c379a0000000000000000000000000000000000000000000000000000000008152600401610d0490613995565b60405180910390fd5b610d8a60068581548110610d2457610d236139b5565b5b9060005260206000209060040201600201805480602002602001604051908101604052809291908181526020018280548015610d7f57602002820191906000526020600020905b815481526020019060010190808311610d6b575b505050505083612d24565b610dc9576040517f08c379a0000000000000000000000000000000000000000000000000000000008152600401610dc090613fae565b60405180910390fd5b60005b8351811015610e9d576000805b600580549050811015610e445760058181548110610dfa57610df96139b5565b5b906000526020600020906004020160000154868481518110610e1f57610e1e6139b5565b5b602002602001015103610e3157600191505b8080610e3c90613adf565b915050610dd9565b5080610e85576040517f08c379a0000000000000000000000000000000000000000000000000000000008152600401610e7c90613f1c565b60405180910390fd5b60009050508080610e9590613adf565b915050610dcc565b5060005b835181101561102f576000610f4360068781548110610ec357610ec26139b5565b5b9060005260206000209060040201600201805480602002602001604051908101604052809291908181526020018280548015610f1e57602002820191906000526020600020905b815481526020019060010190808311610f0a575b5050505050868481518110610f3657610f356139b5565b5b6020026020010151612d24565b90508061101b5760068681548110610f5e57610f5d6139b5565b5b9060005260206000209060040201600201858381518110610f8257610f816139b5565b5b602002602001015190806001815401808255809150506001900390600052602060002001600090919091909150556005858381518110610fc557610fc46139b5565b5b602002602001015181548110610fde57610fdd6139b5565b5b9060005260206000209060040201600101869080600181540180825580915050600190039060005260206000200160009091909190915055600192505b50808061102790613adf565b915050610ea1565b5080611070576040517f08c379a00000000000000000000000000000000000000000000000000000000081526004016110679061401a565b60405180910390fd5b7fcc5dda9f229ec85a9cba7b77b10f747163021a72585eb11a0105a714c2a302e960405160405180910390a17f27276df2065752ae77c089feff5cdd46e3617227489882edbb634b6df7a57fc260405160405180910390a17f431d3f4ca51f6123efef4c56091d02b1caf4d7d32361eb5367f6a746dc7743c133600584815481106110fe576110fd6139b5565b5b906000526020600020906004020160020160068781548110611123576111226139b5565b5b9060005260206000209060040201600101604051611143939291906140cd565b60405180910390a150505050565b6060600061115d612c17565b9050600060058281548110611175576111746139b5565b5b90600052602060002090600402016001018054905067ffffffffffffffff8111156111a3576111a26132dd565b5b6040519080825280602002602001820160405280156111dc57816020015b6111c9612e03565b8152602001906001900390816111c15790505b509050600080600090505b600584815481106111fb576111fa6139b5565b5b9060005260206000209060040201600101805490508110156114105760066005858154811061122d5761122c6139b5565b5b906000526020600020906004020160010182815481106112505761124f6139b5565b5b90600052602060002001548154811061126c5761126b6139b5565b5b90600052602060002090600402016040518060800160405290816000820154815260200160018201805461129f90613a7f565b80601f01602080910402602001604051908101604052809291908181526020018280546112cb90613a7f565b80156113185780601f106112ed57610100808354040283529160200191611318565b820191906000526020600020905b8154815290600101906020018083116112fb57829003601f168201915b505050505081526020016002820180548060200260200160405190810160405280929190818152602001828054801561137057602002820191906000526020600020905b81548152602001906001019080831161135c575b50505050508152602001600382018054806020026020016040519081016040528092919081815260200182805480156113c857602002820191906000526020600020905b8154815260200190600101908083116113b4575b5050505050815250508383815181106113e4576113e36139b5565b5b602002602001018190525081806113fa90613adf565b925050808061140890613adf565b9150506111e7565b5081935050505090565b611422612e2b565b600061142c612c17565b905060058181548110611442576114416139b5565b5b906000526020600020906004020160405180608001604052908160008201548152602001600182018054806020026020016040519081016040528092919081815260200182805480156114b457602002820191906000526020600020905b8154815260200190600101908083116114a0575b505050505081526020016002820180546114cd90613a7f565b80601f01602080910402602001604051908101604052809291908181526020018280546114f990613a7f565b80156115465780601f1061151b57610100808354040283529160200191611546565b820191906000526020600020905b81548152906001019060200180831161152957829003601f168201915b505050505081526020016003820160009054906101000a900473ffffffffffffffffffffffffffffffffffffffff1673ffffffffffffffffffffffffffffffffffffffff1673ffffffffffffffffffffffffffffffffffffffff168152505091505090565b6000816040516115bb9190613bcf565b908152602001604051809103902060009054906101000a900460ff1615611617576040517f08c379a000000000000000000000000000000000000000000000000000000000815260040161160e9061415e565b60405180910390fd5b61161f61249e565b1561165f576040517f08c379a0000000000000000000000000000000000000000000000000000000008152600401611656906141ca565b60405180910390fd5b60008151036116a3576040517f08c379a000000000000000000000000000000000000000000000000000000000815260040161169a90614236565b60405180910390fd5b600560405180608001604052806002548152602001600067ffffffffffffffff8111156116d3576116d26132dd565b5b6040519080825280602002602001820160405280156117015781602001602082028036833780820191505090505b5081526020018381526020013373ffffffffffffffffffffffffffffffffffffffff168152509080600181540180825580915050600190039060005260206000209060040201600090919091909150600082015181600001556020820151816001019080519060200190611776929190612db6565b50604082015181600201908161178c9190613dfe565b5060608201518160030160006101000a81548173ffffffffffffffffffffffffffffffffffffffff021916908373ffffffffffffffffffffffffffffffffffffffff160217905550505060016000826040516117e89190613bcf565b908152602001604051809103902060006101000a81548160ff0219169083151502179055506002600081548092919061182090613adf565b91905055507fcc5dda9f229ec85a9cba7b77b10f747163021a72585eb11a0105a714c2a302e960405160405180910390a150565b6000815103611898576040517f08c379a000000000000000000000000000000000000000000000000000000000815260040161188f90613b73565b60405180910390fd5b81600680549050116118df576040517f08c379a00000000000000000000000000000000000000000000000000000000081526004016118d690613995565b60405180910390fd5b60006118e9612c17565b905061196860068481548110611902576119016139b5565b5b906000526020600020906004020160020180548060200260200160405190810160405280929190818152602001828054801561195d57602002820191906000526020600020905b815481526020019060010190808311611949575b505050505082612d24565b6119a7576040517f08c379a000000000000000000000000000000000000000000000000000000000815260040161199e906142c8565b60405180910390fd5b60076040518060a001604052806004548152602001600584815481106119d0576119cf6139b5565b5b90600052602060002090600402016040518060800160405290816000820154815260200160018201805480602002602001604051908101604052809291908181526020018280548015611a4257602002820191906000526020600020905b815481526020019060010190808311611a2e575b50505050508152602001600282018054611a5b90613a7f565b80601f0160208091040260200160405190810160405280929190818152602001828054611a8790613a7f565b8015611ad45780601f10611aa957610100808354040283529160200191611ad4565b820191906000526020600020905b815481529060010190602001808311611ab757829003601f168201915b505050505081526020016003820160009054906101000a900473ffffffffffffffffffffffffffffffffffffffff1673ffffffffffffffffffffffffffffffffffffffff1673ffffffffffffffffffffffffffffffffffffffff1681525050815260200184815260200142815260200160001515815250908060018154018082558091505060019003906000526020600020906008020160009091909190915060008201518160000155602082015181600101600082015181600001556020820151816001019080519060200190611bad929190612db6565b506040820151816002019081611bc39190613dfe565b5060608201518160030160006101000a81548173ffffffffffffffffffffffffffffffffffffffff021916908373ffffffffffffffffffffffffffffffffffffffff16021790555050506040820151816005019081611c229190613dfe565b506060820151816006015560808201518160070160006101000a81548160ff021916908315150217905550505060068381548110611c6357611c626139b5565b5b9060005260206000209060040201600301600454908060018154018082558091505060019003906000526020600020016000909190919091505560046000815480929190611cb090613adf565b91905055507f27276df2065752ae77c089feff5cdd46e3617227489882edbb634b6df7a57fc260405160405180910390a17f2e98287333723b369daeb64a58f5743debe818ede93b5542e039f56bee6a360860405160405180910390a17fbbac1ec35bd0bd086e058de425cf277c90487b50162579172d2455ea278f56803360058381548110611d4357611d426139b5565b5b906000526020600020906004020160020184604051611d6493929190614321565b60405180910390a1505050565b6000611d7b612c17565b90508160068054905011611dc4576040517f08c379a0000000000000000000000000000000000000000000000000000000008152600401611dbb90613995565b60405180910390fd5b611e4160068381548110611ddb57611dda6139b5565b5b9060005260206000209060040201600201805480602002602001604051908101604052809291908181526020018280548015611e3657602002820191906000526020600020905b815481526020019060010190808311611e22575b505050505082612d24565b611e80576040517f08c379a0000000000000000000000000000000000000000000000000000000008152600401611e7790613a30565b60405180910390fd5b60005b60068381548110611e9757611e966139b5565b5b906000526020600020906004020160020180549050811015612015578160068481548110611ec857611ec76139b5565b5b90600052602060002090600402016002018281548110611eeb57611eea6139b5565b5b9060005260206000200154036120025760068381548110611f0f57611f0e6139b5565b5b9060005260206000209060040201600201600160068581548110611f3657611f356139b5565b5b906000526020600020906004020160020180549050611f559190614366565b81548110611f6657611f656139b5565b5b906000526020600020015460068481548110611f8557611f846139b5565b5b90600052602060002090600402016002018281548110611fa857611fa76139b5565b5b906000526020600020018190555060068381548110611fca57611fc96139b5565b5b9060005260206000209060040201600201805480611feb57611fea61439a565b5b600190038181906000526020600020016000905590555b808061200d90613adf565b915050611e83565b5060005b6005828154811061202d5761202c6139b5565b5b9060005260206000209060040201600101805490508110156121ab57826005838154811061205e5761205d6139b5565b5b90600052602060002090600402016001018281548110612081576120806139b5565b5b90600052602060002001540361219857600582815481106120a5576120a46139b5565b5b90600052602060002090600402016001016001600584815481106120cc576120cb6139b5565b5b9060005260206000209060040201600101805490506120eb9190614366565b815481106120fc576120fb6139b5565b5b90600052602060002001546005838154811061211b5761211a6139b5565b5b9060005260206000209060040201600101828154811061213e5761213d6139b5565b5b9060005260206000200181905550600582815481106121605761215f6139b5565b5b90600052602060002090600402016001018054806121815761218061439a565b5b600190038181906000526020600020016000905590555b80806121a390613adf565b915050612019565b506000600683815481106121c2576121c16139b5565b5b906000526020600020906004020160020180549050036124425760005b60078054905081101561235c57600061229060068581548110612205576122046139b5565b5b906000526020600020906004020160030180548060200260200160405190810160405280929190818152602001828054801561226057602002820191906000526020600020905b81548152602001906001019080831161224c575b505050505060078481548110612279576122786139b5565b5b906000526020600020906008020160000154612d24565b9050801561234857600782815481106122ac576122ab6139b5565b5b9060005260206000209060080201600080820160009055600182016000808201600090556001820160006122e09190612e69565b6002820160006122f09190612e8a565b6003820160006101000a81549073ffffffffffffffffffffffffffffffffffffffff021916905550506005820160006123299190612e8a565b60068201600090556007820160006101000a81549060ff021916905550505b50808061235490613adf565b9150506121df565b506000600160068481548110612375576123746139b5565b5b9060005260206000209060040201600101604051612393919061444c565b908152602001604051809103902060006101000a81548160ff021916908315150217905550600682815481106123cc576123cb6139b5565b5b90600052602060002090600402016000808201600090556001820160006123f39190612e8a565b6002820160006124039190612e69565b6003820160006124139190612e69565b50507f2e98287333723b369daeb64a58f5743debe818ede93b5542e039f56bee6a360860405160405180910390a15b7fcc5dda9f229ec85a9cba7b77b10f747163021a72585eb11a0105a714c2a302e960405160405180910390a17f27276df2065752ae77c089feff5cdd46e3617227489882edbb634b6df7a57fc260405160405180910390a15050565b600080600090505b600580549050811015612548573373ffffffffffffffffffffffffffffffffffffffff16600582815481106124de576124dd6139b5565b5b906000526020600020906004020160030160009054906101000a900473ffffffffffffffffffffffffffffffffffffffff1673ffffffffffffffffffffffffffffffffffffffff160361253557600191505061254e565b808061254090613adf565b9150506124a6565b50600090505b90565b600061255b612c17565b905082600780549050116125a4576040517f08c379a000000000000000000000000000000000000000000000000000000000815260040161259b906144af565b60405180910390fd5b600783815481106125b8576125b76139b5565b5b906000526020600020906008020160010160000154811461260e576040517f08c379a000000000000000000000000000000000000000000000000000000000815260040161260590614541565b60405180910390fd5b6000825103612652576040517f08c379a000000000000000000000000000000000000000000000000000000000815260040161264990613b73565b60405180910390fd5b6040518060a0016040528060078581548110612671576126706139b5565b5b90600052602060002090600802016000015481526020016007858154811061269c5761269b6139b5565b5b9060005260206000209060080201600101604051806080016040529081600082015481526020016001820180548060200260200160405190810160405280929190818152602001828054801561271157602002820191906000526020600020905b8154815260200190600101908083116126fd575b5050505050815260200160028201805461272a90613a7f565b80601f016020809104026020016040519081016040528092919081815260200182805461275690613a7f565b80156127a35780601f10612778576101008083540402835291602001916127a3565b820191906000526020600020905b81548152906001019060200180831161278657829003601f168201915b505050505081526020016003820160009054906101000a900473ffffffffffffffffffffffffffffffffffffffff1673ffffffffffffffffffffffffffffffffffffffff1673ffffffffffffffffffffffffffffffffffffffff16815250508152602001838152602001428152602001600115158152506007848154811061282e5761282d6139b5565b5b906000526020600020906008020160008201518160000155602082015181600101600082015181600001556020820151816001019080519060200190612875929190612db6565b50604082015181600201908161288b9190613dfe565b5060608201518160030160006101000a81548173ffffffffffffffffffffffffffffffffffffffff021916908373ffffffffffffffffffffffffffffffffffffffff160217905550505060408201518160050190816128ea9190613dfe565b506060820151816006015560808201518160070160006101000a81548160ff0219169083151502179055509050507f2e98287333723b369daeb64a58f5743debe818ede93b5542e039f56bee6a360860405160405180910390a1505050565b8060078054905011612990576040517f08c379a0000000000000000000000000000000000000000000000000000000008152600401612987906144af565b60405180910390fd5b600781815481106129a4576129a36139b5565b5b9060005260206000209060080201600080820160009055600182016000808201600090556001820160006129d89190612e69565b6002820160006129e89190612e8a565b6003820160006101000a81549073ffffffffffffffffffffffffffffffffffffffff02191690555050600582016000612a219190612e8a565b60068201600090556007820160006101000a81549060ff021916905550507f2e98287333723b369daeb64a58f5743debe818ede93b5542e039f56bee6a360860405160405180910390a150565b60606005805480602002602001604051908101604052809291908181526020016000905b82821015612c0e57838290600052602060002090600402016040518060800160405290816000820154815260200160018201805480602002602001604051908101604052809291908181526020018280548015612b0e57602002820191906000526020600020905b815481526020019060010190808311612afa575b50505050508152602001600282018054612b2790613a7f565b80601f0160208091040260200160405190810160405280929190818152602001828054612b5390613a7f565b8015612ba05780601f10612b7557610100808354040283529160200191612ba0565b820191906000526020600020905b815481529060010190602001808311612b8357829003601f168201915b505050505081526020016003820160009054906101000a900473ffffffffffffffffffffffffffffffffffffffff1673ffffffffffffffffffffffffffffffffffffffff1673ffffffffffffffffffffffffffffffffffffffff168152505081526020019060010190612a92565b50505050905090565b600080600090505b600580549050811015612ce5573373ffffffffffffffffffffffffffffffffffffffff1660058281548110612c5757612c566139b5565b5b906000526020600020906004020160030160009054906101000a900473ffffffffffffffffffffffffffffffffffffffff1673ffffffffffffffffffffffffffffffffffffffff1603612cd25760058181548110612cb857612cb76139b5565b5b906000526020600020906004020160000154915050612d21565b8080612cdd90613adf565b915050612c1f565b506040517f08c379a0000000000000000000000000000000000000000000000000000000008152600401612d18906145ad565b60405180910390fd5b90565b600080600090505b8351811015612d735782848281518110612d4957612d486139b5565b5b602002602001015103612d60576001915050612d79565b8080612d6b90613adf565b915050612d2c565b50600090505b92915050565b6040518060a0016040528060008152602001612d99612e2b565b815260200160608152602001600081526020016000151581525090565b828054828255906000526020600020908101928215612df2579160200282015b82811115612df1578251825591602001919060010190612dd6565b5b509050612dff9190612eca565b5090565b6040518060800160405280600081526020016060815260200160608152602001606081525090565b6040518060800160405280600081526020016060815260200160608152602001600073ffffffffffffffffffffffffffffffffffffffff1681525090565b5080546000825590600052602060002090810190612e879190612eca565b50565b508054612e9690613a7f565b6000825580601f10612ea85750612ec7565b601f016020900490600052602060002090810190612ec69190612eca565b5b50565b5b80821115612ee3576000816000905550600101612ecb565b5090565b6000604051905090565b600080fd5b600080fd5b6000819050919050565b612f0e81612efb565b8114612f1957600080fd5b50565b600081359050612f2b81612f05565b92915050565b600060208284031215612f4757612f46612ef1565b5b6000612f5584828501612f1c565b91505092915050565b600081519050919050565b600082825260208201905092915050565b6000819050602082019050919050565b612f9381612efb565b82525050565b600081519050919050565b600082825260208201905092915050565b6000819050602082019050919050565b6000612fd18383612f8a565b60208301905092915050565b6000602082019050919050565b6000612ff582612f99565b612fff8185612fa4565b935061300a83612fb5565b8060005b8381101561303b5781516130228882612fc5565b975061302d83612fdd565b92505060018101905061300e565b5085935050505092915050565b600081519050919050565b600082825260208201905092915050565b60005b83811015613082578082015181840152602081019050613067565b60008484015250505050565b6000601f19601f8301169050919050565b60006130aa82613048565b6130b48185613053565b93506130c4818560208601613064565b6130cd8161308e565b840191505092915050565b600073ffffffffffffffffffffffffffffffffffffffff82169050919050565b6000613103826130d8565b9050919050565b613113816130f8565b82525050565b60006080830160008301516131316000860182612f8a565b50602083015184820360208601526131498282612fea565b91505060408301518482036040860152613163828261309f565b9150506060830151613178606086018261310a565b508091505092915050565b60008115159050919050565b61319881613183565b82525050565b600060a0830160008301516131b66000860182612f8a565b50602083015184820360208601526131ce8282613119565b915050604083015184820360408601526131e8828261309f565b91505060608301516131fd6060860182612f8a565b506080830151613210608086018261318f565b508091505092915050565b6000613227838361319e565b905092915050565b6000602082019050919050565b600061324782612f5e565b6132518185612f69565b93508360208202850161326385612f7a565b8060005b8581101561329f5784840389528151613280858261321b565b945061328b8361322f565b925060208a01995050600181019050613267565b50829750879550505050505092915050565b600060208201905081810360008301526132cb818461323c565b905092915050565b600080fd5b600080fd5b7f4e487b7100000000000000000000000000000000000000000000000000000000600052604160045260246000fd5b6133158261308e565b810181811067ffffffffffffffff82111715613334576133336132dd565b5b80604052505050565b6000613347612ee7565b9050613353828261330c565b919050565b600067ffffffffffffffff821115613373576133726132dd565b5b61337c8261308e565b9050602081019050919050565b82818337600083830152505050565b60006133ab6133a684613358565b61333d565b9050828152602081018484840111156133c7576133c66132d8565b5b6133d2848285613389565b509392505050565b600082601f8301126133ef576133ee6132d3565b5b81356133ff848260208601613398565b91505092915050565b600067ffffffffffffffff821115613423576134226132dd565b5b602082029050602081019050919050565b600080fd5b600061344c61344784613408565b61333d565b9050808382526020820190506020840283018581111561346f5761346e613434565b5b835b8181101561349857806134848882612f1c565b845260208401935050602081019050613471565b5050509392505050565b600082601f8301126134b7576134b66132d3565b5b81356134c7848260208601613439565b91505092915050565b600080604083850312156134e7576134e6612ef1565b5b600083013567ffffffffffffffff81111561350557613504612ef6565b5b613511858286016133da565b925050602083013567ffffffffffffffff81111561353257613531612ef6565b5b61353e858286016134a2565b9150509250929050565b6000806040838503121561355f5761355e612ef1565b5b600061356d85828601612f1c565b925050602083013567ffffffffffffffff81111561358e5761358d612ef6565b5b61359a858286016134a2565b9150509250929050565b600081519050919050565b600082825260208201905092915050565b6000819050602082019050919050565b60006080830160008301516135e86000860182612f8a565b5060208301518482036020860152613600828261309f565b9150506040830151848203604086015261361a8282612fea565b915050606083015184820360608601526136348282612fea565b9150508091505092915050565b600061364d83836135d0565b905092915050565b6000602082019050919050565b600061366d826135a4565b61367781856135af565b935083602082028501613689856135c0565b8060005b858110156136c557848403895281516136a68582613641565b94506136b183613655565b925060208a0199505060018101905061368d565b50829750879550505050505092915050565b600060208201905081810360008301526136f18184613662565b905092915050565b60006080830160008301516137116000860182612f8a565b50602083015184820360208601526137298282612fea565b91505060408301518482036040860152613743828261309f565b9150506060830151613758606086018261310a565b508091505092915050565b6000602082019050818103600083015261377d81846136f9565b905092915050565b60006020828403121561379b5761379a612ef1565b5b600082013567ffffffffffffffff8111156137b9576137b8612ef6565b5b6137c5848285016133da565b91505092915050565b600080604083850312156137e5576137e4612ef1565b5b60006137f385828601612f1c565b925050602083013567ffffffffffffffff81111561381457613813612ef6565b5b613820858286016133da565b9150509250929050565b61383381613183565b82525050565b600060208201905061384e600083018461382a565b92915050565b600081519050919050565b600082825260208201905092915050565b6000819050602082019050919050565b600061388c8383613119565b905092915050565b6000602082019050919050565b60006138ac82613854565b6138b6818561385f565b9350836020820285016138c885613870565b8060005b8581101561390457848403895281516138e58582613880565b94506138f083613894565b925060208a019950506001810190506138cc565b50829750879550505050505092915050565b6000602082019050818103600083015261393081846138a1565b905092915050565b600082825260208201905092915050565b7f4368617420646f6573206e6f7420657869737421000000000000000000000000600082015250565b600061397f601483613938565b915061398a82613949565b602082019050919050565b600060208201905081810360008301526139ae81613972565b9050919050565b7f4e487b7100000000000000000000000000000000000000000000000000000000600052603260045260246000fd5b7f53656e646572206d757374206265206d75737420626520696e20636861742100600082015250565b6000613a1a601f83613938565b9150613a25826139e4565b602082019050919050565b60006020820190508181036000830152613a4981613a0d565b9050919050565b7f4e487b7100000000000000000000000000000000000000000000000000000000600052602260045260246000fd5b60006002820490506001821680613a9757607f821691505b602082108103613aaa57613aa9613a50565b5b50919050565b7f4e487b7100000000000000000000000000000000000000000000000000000000600052601160045260246000fd5b6000613aea82612efb565b91507fffffffffffffffffffffffffffffffffffffffffffffffffffffffffffffffff8203613b1c57613b1b613ab0565b5b600182019050919050565b7f546578742073686f756c64206578697374210000000000000000000000000000600082015250565b6000613b5d601283613938565b9150613b6882613b27565b602082019050919050565b60006020820190508181036000830152613b8c81613b50565b9050919050565b600081905092915050565b6000613ba982613048565b613bb38185613b93565b9350613bc3818560208601613064565b80840191505092915050565b6000613bdb8284613b9e565b915081905092915050565b7f546869732063686174206e616d6520697320616c72656164792074616b656e00600082015250565b6000613c1c601f83613938565b9150613c2782613be6565b602082019050919050565b60006020820190508181036000830152613c4b81613c0f565b9050919050565b60008190508160005260206000209050919050565b60006020601f8301049050919050565b600082821b905092915050565b600060088302613cb47fffffffffffffffffffffffffffffffffffffffffffffffffffffffffffffffff82613c77565b613cbe8683613c77565b95508019841693508086168417925050509392505050565b6000819050919050565b6000613cfb613cf6613cf184612efb565b613cd6565b612efb565b9050919050565b6000819050919050565b613d1583613ce0565b613d29613d2182613d02565b848454613c84565b825550505050565b600090565b613d3e613d31565b613d49818484613d0c565b505050565b5b81811015613d6d57613d62600082613d36565b600181019050613d4f565b5050565b601f821115613db257613d8381613c52565b613d8c84613c67565b81016020851015613d9b578190505b613daf613da785613c67565b830182613d4e565b50505b505050565b600082821c905092915050565b6000613dd560001984600802613db7565b1980831691505092915050565b6000613dee8383613dc4565b9150826002028217905092915050565b613e0782613048565b67ffffffffffffffff811115613e2057613e1f6132dd565b5b613e2a8254613a7f565b613e35828285613d71565b600060209050601f831160018114613e685760008415613e56578287015190505b613e608582613de2565b865550613ec8565b601f198416613e7686613c52565b60005b82811015613e9e57848901518255600182019150602085019450602081019050613e79565b86831015613ebb5784890151613eb7601f891682613dc4565b8355505b6001600288020188555050505b505050505050565b7f55736572206964206973206e6f7420666f756e64210000000000000000000000600082015250565b6000613f06601583613938565b9150613f1182613ed0565b602082019050919050565b60006020820190508181036000830152613f3581613ef9565b9050919050565b7f53656e646572206d757374206265206d75737420626520696e20636861742c2060008201527f6f722063686174207761732064656c6574656421000000000000000000000000602082015250565b6000613f98603483613938565b9150613fa382613f3c565b604082019050919050565b60006020820190508181036000830152613fc781613f8b565b9050919050565b7f416c6c2075736572732061726520616c726561647920696e2063686174210000600082015250565b6000614004601e83613938565b915061400f82613fce565b602082019050919050565b6000602082019050818103600083015261403381613ff7565b9050919050565b614043816130f8565b82525050565b6000815461405681613a7f565b6140608186613938565b9450600182166000811461407b5760018114614091576140c4565b60ff1983168652811515602002860193506140c4565b61409a85613c52565b60005b838110156140bc5781548189015260018201915060208101905061409d565b808801955050505b50505092915050565b60006060820190506140e2600083018661403a565b81810360208301526140f48185614049565b905081810360408301526141088184614049565b9050949350505050565b7f5468697320757365726e616d6520697320616c72656164792074616b656e0000600082015250565b6000614148601e83613938565b915061415382614112565b602082019050919050565b600060208201905081810360008301526141778161413b565b9050919050565b7f5573657220616c72656164792065786973747321000000000000000000000000600082015250565b60006141b4601483613938565b91506141bf8261417e565b602082019050919050565b600060208201905081810360008301526141e3816141a7565b9050919050565b7f757365726e616d652073686f756c642065786973742100000000000000000000600082015250565b6000614220601683613938565b915061422b826141ea565b602082019050919050565b6000602082019050818103600083015261424f81614213565b9050919050565b7f53656e646572206d757374206265206d75737420626520696e2063686174206f60008201527f722063686174207761732064656c657465642100000000000000000000000000602082015250565b60006142b2603383613938565b91506142bd82614256565b604082019050919050565b600060208201905081810360008301526142e1816142a5565b9050919050565b60006142f382613048565b6142fd8185613938565b935061430d818560208601613064565b6143168161308e565b840191505092915050565b6000606082019050614336600083018661403a565b81810360208301526143488185614049565b9050818103604083015261435c81846142e8565b9050949350505050565b600061437182612efb565b915061437c83612efb565b925082820390508181111561439457614393613ab0565b5b92915050565b7f4e487b7100000000000000000000000000000000000000000000000000000000600052603160045260246000fd5b600081546143d681613a7f565b6143e08186613b93565b945060018216600081146143fb576001811461441057614443565b60ff1983168652811515820286019350614443565b61441985613c52565b60005b8381101561443b5781548189015260018201915060208101905061441c565b838801955050505b50505092915050565b600061445882846143c9565b915081905092915050565b7f4d65737361676520646f6573206e6f7420657869737421000000000000000000600082015250565b6000614499601783613938565b91506144a482614463565b602082019050919050565b600060208201905081810360008301526144c88161448c565b9050919050565b7f53656e646572206d757374206265206f776e6572206f6620746865206d65737360008201527f616765206f7220746865206d657373616765207761732064656c657465642100602082015250565b600061452b603f83613938565b9150614536826144cf565b604082019050919050565b6000602082019050818103600083015261455a8161451e565b9050919050565b7f55736572206e6f7420666f756e64210000000000000000000000000000000000600082015250565b6000614597600f83613938565b91506145a282614561565b602082019050919050565b600060208201905081810360008301526145c68161458a565b905091905056fea264697066735822122062e114b6ab9877a78db5e629ae05cdb2eb221884f5fb6a486580f4f5a46585f964736f6c63430008110033",
  "immutableReferences": {},
  "source": "// SPDX-License-Identifier: GPL-3.0\r\npragma solidity >=0.7.0 <0.9.0;\r\n\r\ncontract Messenger {\r\n    struct User {\r\n        uint256 id;\r\n        uint256[] chatsId;\r\n        string username;\r\n        address userAddress;\r\n    }\r\n\r\n    struct Message {\r\n        uint256 id;\r\n        User owner;\r\n        string text;\r\n        uint256 changedAt;\r\n        bool isChanged;\r\n    }\r\n\r\n    struct Chat {\r\n        uint256 id;\r\n        string chatName;\r\n        uint256[] usersId;\r\n        uint256[] messagesId;\r\n    }\r\n\r\n    mapping(string => bool) private _isUsernameTaken;\r\n    mapping(string => bool) private _isChatNameTaken;\r\n\r\n    uint256 private _numberOfUsers;\r\n    uint256 private _numberOfChats;\r\n    uint256 private _numberOfMessages;\r\n\r\n    User[] private _userArray;\r\n    Chat[] private _chatArray;\r\n    Message[] private _messageArray;\r\n\r\n    //EVENTS============================================\r\n\r\n    event UsersChanged();\r\n    event ChatsChanged();\r\n    event MessagesChanged();\r\n\r\n    event newMessageEvent(\r\n        address senderAddress,\r\n        string senderUsername,\r\n        string message\r\n    );\r\n    event newChatEvent(\r\n        address senderAddress,\r\n        string senderUsername,\r\n        string chatName\r\n    );\r\n\r\n    //USER==============================================\r\n\r\n    function doesUserExist() public view returns (bool) {\r\n        for (uint256 i = 0; i < _userArray.length; i++) {\r\n            if (_userArray[i].userAddress == msg.sender) {\r\n                return true;\r\n            }\r\n        }\r\n\r\n        return false;\r\n    }\r\n\r\n    function createUser(string memory username) external {\r\n        require(!_isUsernameTaken[username], 'This username is already taken');\r\n        require(!doesUserExist(), 'User already exists!');\r\n        require(bytes(username).length != 0, 'username should exist!');\r\n\r\n        _userArray.push(\r\n            User({\r\n        id : _numberOfUsers,\r\n        chatsId : new uint256[](0),\r\n        username : username,\r\n        userAddress : msg.sender\r\n        })\r\n        );\r\n\r\n        _isUsernameTaken[username] = true;\r\n\r\n        _numberOfUsers++;\r\n\r\n        emit UsersChanged();\r\n    }\r\n\r\n    function getCurrentUser() external view returns (User memory) {\r\n        uint256 senderId = _getUserIdByAddress();\r\n\r\n        return _userArray[senderId];\r\n    }\r\n\r\n    function getAllUsers() external view returns (User[] memory) {\r\n        return _userArray;\r\n    }\r\n\r\n    //CHAT==============================================\r\n\r\n    function createChat(string memory chatName, uint256[] memory newUsersId) external {\r\n        require(bytes(chatName).length != 0, 'Text should exist!');\r\n        require(!_isChatNameTaken[chatName], 'This chat name is already taken');\r\n\r\n        //Add sender to chat\r\n        uint256 senderId = _getUserIdByAddress();\r\n\r\n        _chatArray.push(\r\n            Chat({\r\n        id : _numberOfChats,\r\n        chatName : chatName,\r\n        usersId : new uint256[](0),\r\n        messagesId : new uint256[](0)\r\n        })\r\n        );\r\n\r\n        _chatArray[_numberOfChats].usersId.push(senderId);\r\n        _userArray[senderId].chatsId.push(_numberOfChats);\r\n\r\n        _isChatNameTaken[chatName] = true;\r\n\r\n        //Add newUsersId to chat\r\n\r\n        //check if newUserId array is valid\r\n        for (uint256 i = 0; i < newUsersId.length; i++) {\r\n            bool isUserFound = false;\r\n\r\n            for (uint256 j = 0; j < _userArray.length; j++) {\r\n                if (newUsersId[i] == _userArray[j].id) {\r\n                    isUserFound = true;\r\n                }\r\n            }\r\n\r\n            require(isUserFound, 'User id is not found!');\r\n            isUserFound = false;\r\n        }\r\n\r\n        //Actually add user to chat\r\n        for (uint256 i = 0; i < newUsersId.length; i++) {\r\n            bool isUserInChat = _isIndexInArray(\r\n                _chatArray[_numberOfChats].usersId,\r\n                newUsersId[i]\r\n            );\r\n\r\n            if (!isUserInChat) {\r\n                _chatArray[_numberOfChats].usersId.push(newUsersId[i]);\r\n                _userArray[newUsersId[i]].chatsId.push(_numberOfChats);\r\n            }\r\n        }\r\n\r\n\r\n        _numberOfChats++;\r\n\r\n        emit ChatsChanged();\r\n        emit UsersChanged();\r\n    }\r\n\r\n    function addUsersToChat(uint256 chatId, uint256[] memory newUsersId)\r\n    external\r\n    {\r\n        uint256 senderId = _getUserIdByAddress();\r\n        bool isAnyUserAdded = false;\r\n\r\n        require(_chatArray.length > chatId, 'Chat does not exist!');\r\n        require(\r\n            _isIndexInArray(_chatArray[chatId].usersId, senderId),\r\n            'Sender must be must be in chat, or chat was deleted!'\r\n        );\r\n\r\n        //check if newUserId array is valid\r\n        for (uint256 i = 0; i < newUsersId.length; i++) {\r\n            bool isUserFound = false;\r\n\r\n            for (uint256 j = 0; j < _userArray.length; j++) {\r\n                if (newUsersId[i] == _userArray[j].id) {\r\n                    isUserFound = true;\r\n                }\r\n            }\r\n\r\n            require(isUserFound, 'User id is not found!');\r\n            isUserFound = false;\r\n        }\r\n\r\n        for (uint256 i = 0; i < newUsersId.length; i++) {\r\n            bool isUserInChat = _isIndexInArray(\r\n                _chatArray[chatId].usersId,\r\n                newUsersId[i]\r\n            );\r\n\r\n            if (!isUserInChat) {\r\n                _chatArray[chatId].usersId.push(newUsersId[i]);\r\n                _userArray[newUsersId[i]].chatsId.push(chatId);\r\n\r\n                isAnyUserAdded = true;\r\n            }\r\n        }\r\n\r\n        if (!isAnyUserAdded) {\r\n            revert('All users are already in chat!');\r\n        }\r\n\r\n        emit UsersChanged();\r\n        emit ChatsChanged();\r\n        emit newChatEvent(\r\n            msg.sender,\r\n            _userArray[senderId].username,\r\n            _chatArray[chatId].chatName\r\n        );\r\n    }\r\n\r\n    function getAllUserChats() external view returns (Chat[] memory) {\r\n        uint256 senderId = _getUserIdByAddress();\r\n\r\n        Chat[] memory newUserChats = new Chat[](\r\n            _userArray[senderId].chatsId.length\r\n        );\r\n        uint256 userChatsIdx;\r\n\r\n        for (uint256 i = 0; i < _userArray[senderId].chatsId.length; i++) {\r\n            newUserChats[userChatsIdx] = _chatArray[_userArray[senderId].chatsId[i]];\r\n            userChatsIdx++;\r\n        }\r\n\r\n        return newUserChats;\r\n    }\r\n\r\n    function leaveChat(uint256 chatId) external {\r\n        uint256 senderId = _getUserIdByAddress();\r\n\r\n        require(_chatArray.length > chatId, 'Chat does not exist!');\r\n        require(\r\n            _isIndexInArray(_chatArray[chatId].usersId, senderId),\r\n            'Sender must be must be in chat!'\r\n        );\r\n\r\n        //Erase user from chat\r\n        for (uint256 i; i < _chatArray[chatId].usersId.length; i++) {\r\n            if (_chatArray[chatId].usersId[i] == senderId) {\r\n                _chatArray[chatId].usersId[i] = _chatArray[chatId].usersId[\r\n                _chatArray[chatId].usersId.length - 1\r\n                ];\r\n                _chatArray[chatId].usersId.pop();\r\n            }\r\n        }\r\n\r\n        //Erase chat from user\r\n        for (uint256 i; i < _userArray[senderId].chatsId.length; i++) {\r\n            if (_userArray[senderId].chatsId[i] == chatId) {\r\n                _userArray[senderId].chatsId[i] = _userArray[senderId].chatsId[\r\n                _userArray[senderId].chatsId.length - 1\r\n                ];\r\n                _userArray[senderId].chatsId.pop();\r\n            }\r\n        }\r\n\r\n        //Erease chat and messages if no users\r\n        if (_chatArray[chatId].usersId.length == 0) {\r\n            for (uint256 i; i < _messageArray.length; i++) {\r\n                bool isMessageInChatsId = _isIndexInArray(\r\n                    _chatArray[chatId].messagesId,\r\n                    _messageArray[i].id\r\n                );\r\n\r\n                if (isMessageInChatsId) {\r\n                    delete _messageArray[i];\r\n                }\r\n            }\r\n\r\n            _isChatNameTaken[_chatArray[chatId].chatName] = false;\r\n            delete _chatArray[chatId];\r\n\r\n            emit MessagesChanged();\r\n        }\r\n\r\n        emit UsersChanged();\r\n        emit ChatsChanged();\r\n    }\r\n\r\n    //MESSAGE===========================================\r\n\r\n    function createMessage(uint256 chatId, string memory text) external {\r\n        require(bytes(text).length != 0, 'Text should exist!');\r\n        require(_chatArray.length > chatId, 'Chat does not exist!');\r\n\r\n        uint256 senderId = _getUserIdByAddress();\r\n\r\n        require(\r\n            _isIndexInArray(_chatArray[chatId].usersId, senderId),\r\n            'Sender must be must be in chat or chat was deleted!'\r\n        );\r\n\r\n        _messageArray.push(\r\n            Message({\r\n        id : _numberOfMessages,\r\n        owner : _userArray[senderId],\r\n        text : text,\r\n        changedAt : block.timestamp,\r\n        isChanged : false\r\n        })\r\n        );\r\n\r\n        _chatArray[chatId].messagesId.push(_numberOfMessages);\r\n\r\n        _numberOfMessages++;\r\n\r\n        emit ChatsChanged();\r\n        emit MessagesChanged();\r\n        emit newMessageEvent(msg.sender, _userArray[senderId].username, text);\r\n    }\r\n\r\n    function changeMessage(uint256 messageId, string memory text) external {\r\n        uint256 senderId = _getUserIdByAddress();\r\n\r\n        require(_messageArray.length > messageId, 'Message does not exist!');\r\n        require(\r\n            senderId == _messageArray[messageId].owner.id,\r\n            'Sender must be owner of the message or the message was deleted!'\r\n        );\r\n        require(bytes(text).length != 0, 'Text should exist!');\r\n\r\n        _messageArray[messageId] = Message({\r\n        id : _messageArray[messageId].id,\r\n        text : text,\r\n        changedAt : block.timestamp,\r\n        owner : _messageArray[messageId].owner,\r\n        isChanged : true\r\n        });\r\n\r\n        emit MessagesChanged();\r\n    }\r\n\r\n    function getAllMessagesInChat(uint256 chatId)\r\n    external\r\n    view\r\n    returns (Message[] memory)\r\n    {\r\n        uint256 senderId = _getUserIdByAddress();\r\n\r\n        require(_chatArray.length > chatId, 'Chat does not exist!');\r\n        require(\r\n            _isIndexInArray(_chatArray[chatId].usersId, senderId),\r\n            'Sender must be must be in chat!'\r\n        );\r\n\r\n        Message[] memory newMessageArray = new Message[](\r\n            _chatArray[chatId].messagesId.length\r\n        );\r\n        uint256 messagesIdx;\r\n\r\n        for (uint256 i = 0; i < _messageArray.length; i++) {\r\n            bool isMessageInChatsId = _isIndexInArray(\r\n                _chatArray[chatId].messagesId,\r\n                _messageArray[i].id\r\n            );\r\n\r\n            if (isMessageInChatsId) {\r\n                newMessageArray[messagesIdx] = _messageArray[i];\r\n\r\n                messagesIdx++;\r\n            }\r\n        }\r\n\r\n        return newMessageArray;\r\n    }\r\n\r\n    function deleteMessage(uint256 messageId) external {\r\n        require(_messageArray.length > messageId, 'Message does not exist!');\r\n\r\n        delete _messageArray[messageId];\r\n\r\n        emit MessagesChanged();\r\n    }\r\n\r\n    //UTILS=============================================\r\n\r\n    function _getUserIdByAddress() private view returns (uint256) {\r\n        for (uint256 i = 0; i < _userArray.length; i++) {\r\n            if (_userArray[i].userAddress == msg.sender) {\r\n                return _userArray[i].id;\r\n            }\r\n        }\r\n\r\n        revert('User not found!');\r\n    }\r\n\r\n    function _isIndexInArray(uint256[] memory arr, uint256 searchedIdx)\r\n    private\r\n    pure\r\n    returns (bool)\r\n    {\r\n        for (uint256 i = 0; i < arr.length; i++) {\r\n            if (arr[i] == searchedIdx) {\r\n                return true;\r\n            }\r\n        }\r\n\r\n        return false;\r\n    }\r\n}\r\n",
  "sourcePath": "C:\\Users\\anze1\\webdev\\web3\\projects\\eth_web3_messenger_extension\\contracts\\Messenger.sol",
  "compiler": {
    "name": "solc",
    "version": "0.8.17+commit.8df45f5f.Emscripten.clang"
  },
  "schemaVersion": "3.4.11",
  "updatedAt": "2023-02-14T19:13:38.864Z",
  "networkType": "ethereum",
  "devdoc": {
    "kind": "dev",
    "methods": {},
    "version": 1
  },
  "userdoc": {
    "kind": "user",
    "methods": {},
    "version": 1
  }
}