{
  "contractName": "Messenger",
  "abi": [
    {
      "anonymous": false,
      "inputs": [],
      "name": "ChatsChanged",
      "type": "event"
    },
    {
      "anonymous": false,
      "inputs": [],
      "name": "MessagesChanged",
      "type": "event"
    },
    {
      "anonymous": false,
      "inputs": [],
      "name": "UsersChanged",
      "type": "event"
    },
    {
      "inputs": [],
      "name": "doesUserExist",
      "outputs": [
        {
          "internalType": "bool",
          "name": "",
          "type": "bool"
        }
      ],
      "stateMutability": "view",
      "type": "function",
      "constant": true
    },
    {
      "inputs": [
        {
          "internalType": "string",
          "name": "username",
          "type": "string"
        }
      ],
      "name": "createUser",
      "outputs": [],
      "stateMutability": "nonpayable",
      "type": "function"
    },
    {
      "inputs": [],
      "name": "getCurrentUser",
      "outputs": [
        {
          "components": [
            {
              "internalType": "uint256",
              "name": "id",
              "type": "uint256"
            },
            {
              "internalType": "uint256[]",
              "name": "chatsId",
              "type": "uint256[]"
            },
            {
              "internalType": "string",
              "name": "username",
              "type": "string"
            },
            {
              "internalType": "address",
              "name": "userAddress",
              "type": "address"
            }
          ],
          "internalType": "struct Messenger.User",
          "name": "",
          "type": "tuple"
        }
      ],
      "stateMutability": "view",
      "type": "function",
      "constant": true
    },
    {
      "inputs": [],
      "name": "getAllUsers",
      "outputs": [
        {
          "components": [
            {
              "internalType": "uint256",
              "name": "id",
              "type": "uint256"
            },
            {
              "internalType": "uint256[]",
              "name": "chatsId",
              "type": "uint256[]"
            },
            {
              "internalType": "string",
              "name": "username",
              "type": "string"
            },
            {
              "internalType": "address",
              "name": "userAddress",
              "type": "address"
            }
          ],
          "internalType": "struct Messenger.User[]",
          "name": "",
          "type": "tuple[]"
        }
      ],
      "stateMutability": "view",
      "type": "function",
      "constant": true
    },
    {
      "inputs": [
        {
          "internalType": "string",
          "name": "chatName",
          "type": "string"
        },
        {
          "internalType": "uint256[]",
          "name": "newUsersId",
          "type": "uint256[]"
        }
      ],
      "name": "createChat",
      "outputs": [],
      "stateMutability": "nonpayable",
      "type": "function"
    },
    {
      "inputs": [
        {
          "internalType": "uint256",
          "name": "chatId",
          "type": "uint256"
        },
        {
          "internalType": "uint256[]",
          "name": "newUsersId",
          "type": "uint256[]"
        }
      ],
      "name": "addUsersToChat",
      "outputs": [],
      "stateMutability": "nonpayable",
      "type": "function"
    },
    {
      "inputs": [],
      "name": "getAllUserChats",
      "outputs": [
        {
          "components": [
            {
              "internalType": "uint256",
              "name": "id",
              "type": "uint256"
            },
            {
              "internalType": "string",
              "name": "chatName",
              "type": "string"
            },
            {
              "internalType": "uint256[]",
              "name": "usersId",
              "type": "uint256[]"
            },
            {
              "internalType": "uint256[]",
              "name": "messagesId",
              "type": "uint256[]"
            }
          ],
          "internalType": "struct Messenger.Chat[]",
          "name": "",
          "type": "tuple[]"
        }
      ],
      "stateMutability": "view",
      "type": "function",
      "constant": true
    },
    {
      "inputs": [
        {
          "internalType": "uint256",
          "name": "chatId",
          "type": "uint256"
        }
      ],
      "name": "leaveChat",
      "outputs": [],
      "stateMutability": "nonpayable",
      "type": "function"
    },
    {
      "inputs": [
        {
          "internalType": "uint256",
          "name": "chatId",
          "type": "uint256"
        },
        {
          "internalType": "string",
          "name": "text",
          "type": "string"
        }
      ],
      "name": "createMessage",
      "outputs": [],
      "stateMutability": "nonpayable",
      "type": "function"
    },
    {
      "inputs": [
        {
          "internalType": "uint256",
          "name": "messageId",
          "type": "uint256"
        },
        {
          "internalType": "string",
          "name": "text",
          "type": "string"
        }
      ],
      "name": "changeMessage",
      "outputs": [],
      "stateMutability": "nonpayable",
      "type": "function"
    },
    {
      "inputs": [
        {
          "internalType": "uint256",
          "name": "chatId",
          "type": "uint256"
        }
      ],
      "name": "getAllMessagesInChat",
      "outputs": [
        {
          "components": [
            {
              "internalType": "uint256",
              "name": "id",
              "type": "uint256"
            },
            {
              "components": [
                {
                  "internalType": "uint256",
                  "name": "id",
                  "type": "uint256"
                },
                {
                  "internalType": "uint256[]",
                  "name": "chatsId",
                  "type": "uint256[]"
                },
                {
                  "internalType": "string",
                  "name": "username",
                  "type": "string"
                },
                {
                  "internalType": "address",
                  "name": "userAddress",
                  "type": "address"
                }
              ],
              "internalType": "struct Messenger.User",
              "name": "owner",
              "type": "tuple"
            },
            {
              "internalType": "string",
              "name": "text",
              "type": "string"
            },
            {
              "internalType": "uint256",
              "name": "changedAt",
              "type": "uint256"
            },
            {
              "internalType": "bool",
              "name": "isChanged",
              "type": "bool"
            }
          ],
          "internalType": "struct Messenger.Message[]",
          "name": "",
          "type": "tuple[]"
        }
      ],
      "stateMutability": "view",
      "type": "function",
      "constant": true
    },
    {
      "inputs": [
        {
          "internalType": "uint256",
          "name": "messageId",
          "type": "uint256"
        }
      ],
      "name": "deleteMessage",
      "outputs": [],
      "stateMutability": "nonpayable",
      "type": "function"
    }
  ],
  "bytecode": "0x608060405234801561001057600080fd5b506143cb806100206000396000f3fe608060405234801561001057600080fd5b50600436106100b45760003560e01c806352229eaa1161007157806352229eaa146101795780637edce7b2146101955780639d9e36d8146101b1578063a1786d1b146101cf578063b888690a146101eb578063e2842d7914610207576100b4565b806318cac089146100b95780631a1e38bf146100e957806328f9c1b0146101055780633d749bca1461012157806343ae37c31461013f578063507ffba51461015d575b600080fd5b6100d360048036038101906100ce9190612e4f565b610225565b6040516100e091906131cf565b60405180910390f35b61010360048036038101906100fe91906133ee565b610710565b005b61011f600480360381019061011a9190613466565b610cb8565b005b6101296110ce565b60405161013691906135f5565b60405180910390f35b610147611397565b6040516101549190613681565b60405180910390f35b610177600480360381019061017291906136a3565b611528565b005b610193600480360381019061018e91906136ec565b6117d1565b005b6101af60048036038101906101aa9190612e4f565b611c8f565b005b6101b96123bc565b6040516101c69190613757565b60405180910390f35b6101e960048036038101906101e491906136ec565b61246f565b005b61020560048036038101906102009190612e4f565b612867565b005b61020f61298c565b60405161021c9190613834565b60405180910390f35b60606000610231612b35565b9050826006805490501161027a576040517f08c379a0000000000000000000000000000000000000000000000000000000008152600401610271906138b3565b60405180910390fd5b6102f760068481548110610291576102906138d3565b5b90600052602060002090600402016002018054806020026020016040519081016040528092919081815260200182805480156102ec57602002820191906000526020600020905b8154815260200190600101908083116102d8575b505050505082612c42565b610336576040517f08c379a000000000000000000000000000000000000000000000000000000000815260040161032d9061394e565b60405180910390fd5b60006006848154811061034c5761034b6138d3565b5b90600052602060002090600402016003018054905067ffffffffffffffff81111561037a576103796131fb565b5b6040519080825280602002602001820160405280156103b357816020015b6103a0612c9d565b8152602001906001900390816103985790505b509050600080600090505b60078054905081101561070457600061046f600688815481106103e4576103e36138d3565b5b906000526020600020906004020160030180548060200260200160405190810160405280929190818152602001828054801561043f57602002820191906000526020600020905b81548152602001906001019080831161042b575b505050505060078481548110610458576104576138d3565b5b906000526020600020906008020160000154612c42565b905080156106f0576007828154811061048b5761048a6138d3565b5b90600052602060002090600802016040518060a00160405290816000820154815260200160018201604051806080016040529081600082015481526020016001820180548060200260200160405190810160405280929190818152602001828054801561051757602002820191906000526020600020905b815481526020019060010190808311610503575b505050505081526020016002820180546105309061399d565b80601f016020809104026020016040519081016040528092919081815260200182805461055c9061399d565b80156105a95780601f1061057e576101008083540402835291602001916105a9565b820191906000526020600020905b81548152906001019060200180831161058c57829003601f168201915b505050505081526020016003820160009054906101000a900473ffffffffffffffffffffffffffffffffffffffff1673ffffffffffffffffffffffffffffffffffffffff1673ffffffffffffffffffffffffffffffffffffffff1681525050815260200160058201805461061c9061399d565b80601f01602080910402602001604051908101604052809291908181526020018280546106489061399d565b80156106955780601f1061066a57610100808354040283529160200191610695565b820191906000526020600020905b81548152906001019060200180831161067857829003601f168201915b50505050508152602001600682015481526020016007820160009054906101000a900460ff1615151515815250508484815181106106d6576106d56138d3565b5b602002602001018190525082806106ec906139fd565b9350505b5080806106fc906139fd565b9150506103be565b50819350505050919050565b6000825103610754576040517f08c379a000000000000000000000000000000000000000000000000000000000815260040161074b90613a91565b60405180910390fd5b6001826040516107649190613aed565b908152602001604051809103902060009054906101000a900460ff16156107c0576040517f08c379a00000000000000000000000000000000000000000000000000000000081526004016107b790613b50565b60405180910390fd5b60006107ca612b35565b9050600660405180608001604052806003548152602001858152602001600067ffffffffffffffff811115610802576108016131fb565b5b6040519080825280602002602001820160405280156108305781602001602082028036833780820191505090505b508152602001600067ffffffffffffffff811115610851576108506131fb565b5b60405190808252806020026020018201604052801561087f5781602001602082028036833780820191505090505b5081525090806001815401808255809150506001900390600052602060002090600402016000909190919091506000820151816000015560208201518160010190816108cb9190613d1c565b5060408201518160020190805190602001906108e8929190612cd4565b506060820151816003019080519060200190610905929190612cd4565b50505060066003548154811061091e5761091d6138d3565b5b90600052602060002090600402016002018190806001815401808255809150506001900390600052602060002001600090919091909150556005818154811061096a576109696138d3565b5b90600052602060002090600402016001016003549080600181540180825580915050600190039060005260206000200160009091909190915055600180846040516109b59190613aed565b908152602001604051809103902060006101000a81548160ff02191690831515021790555060005b8251811015610aae576000805b600580549050811015610a555760058181548110610a0b57610a0a6138d3565b5b906000526020600020906004020160000154858481518110610a3057610a2f6138d3565b5b602002602001015103610a4257600191505b8080610a4d906139fd565b9150506109ea565b5080610a96576040517f08c379a0000000000000000000000000000000000000000000000000000000008152600401610a8d90613e3a565b60405180910390fd5b60009050508080610aa6906139fd565b9150506109dd565b5060005b8251811015610c42576000610b56600660035481548110610ad657610ad56138d3565b5b9060005260206000209060040201600201805480602002602001604051908101604052809291908181526020018280548015610b3157602002820191906000526020600020905b815481526020019060010190808311610b1d575b5050505050858481518110610b4957610b486138d3565b5b6020026020010151612c42565b905080610c2e57600660035481548110610b7357610b726138d3565b5b9060005260206000209060040201600201848381518110610b9757610b966138d3565b5b602002602001015190806001815401808255809150506001900390600052602060002001600090919091909150556005848381518110610bda57610bd96138d3565b5b602002602001015181548110610bf357610bf26138d3565b5b906000526020600020906004020160010160035490806001815401808255809150506001900390600052602060002001600090919091909150555b508080610c3a906139fd565b915050610ab2565b5060036000815480929190610c56906139fd565b91905055507f27276df2065752ae77c089feff5cdd46e3617227489882edbb634b6df7a57fc260405160405180910390a17fcc5dda9f229ec85a9cba7b77b10f747163021a72585eb11a0105a714c2a302e960405160405180910390a1505050565b6000610cc2612b35565b905060008360068054905011610d0d576040517f08c379a0000000000000000000000000000000000000000000000000000000008152600401610d04906138b3565b60405180910390fd5b610d8a60068581548110610d2457610d236138d3565b5b9060005260206000209060040201600201805480602002602001604051908101604052809291908181526020018280548015610d7f57602002820191906000526020600020905b815481526020019060010190808311610d6b575b505050505083612c42565b610dc9576040517f08c379a0000000000000000000000000000000000000000000000000000000008152600401610dc090613ecc565b60405180910390fd5b60005b8351811015610e9d576000805b600580549050811015610e445760058181548110610dfa57610df96138d3565b5b906000526020600020906004020160000154868481518110610e1f57610e1e6138d3565b5b602002602001015103610e3157600191505b8080610e3c906139fd565b915050610dd9565b5080610e85576040517f08c379a0000000000000000000000000000000000000000000000000000000008152600401610e7c90613e3a565b60405180910390fd5b60009050508080610e95906139fd565b915050610dcc565b5060005b835181101561102f576000610f4360068781548110610ec357610ec26138d3565b5b9060005260206000209060040201600201805480602002602001604051908101604052809291908181526020018280548015610f1e57602002820191906000526020600020905b815481526020019060010190808311610f0a575b5050505050868481518110610f3657610f356138d3565b5b6020026020010151612c42565b90508061101b5760068681548110610f5e57610f5d6138d3565b5b9060005260206000209060040201600201858381518110610f8257610f816138d3565b5b602002602001015190806001815401808255809150506001900390600052602060002001600090919091909150556005858381518110610fc557610fc46138d3565b5b602002602001015181548110610fde57610fdd6138d3565b5b9060005260206000209060040201600101869080600181540180825580915050600190039060005260206000200160009091909190915055600192505b508080611027906139fd565b915050610ea1565b5080611070576040517f08c379a000000000000000000000000000000000000000000000000000000000815260040161106790613f38565b60405180910390fd5b7fcc5dda9f229ec85a9cba7b77b10f747163021a72585eb11a0105a714c2a302e960405160405180910390a17f27276df2065752ae77c089feff5cdd46e3617227489882edbb634b6df7a57fc260405160405180910390a150505050565b606060006110da612b35565b90506000600582815481106110f2576110f16138d3565b5b90600052602060002090600402016001018054905067ffffffffffffffff8111156111205761111f6131fb565b5b60405190808252806020026020018201604052801561115957816020015b611146612d21565b81526020019060019003908161113e5790505b509050600080600090505b60058481548110611178576111776138d3565b5b90600052602060002090600402016001018054905081101561138d576006600585815481106111aa576111a96138d3565b5b906000526020600020906004020160010182815481106111cd576111cc6138d3565b5b9060005260206000200154815481106111e9576111e86138d3565b5b90600052602060002090600402016040518060800160405290816000820154815260200160018201805461121c9061399d565b80601f01602080910402602001604051908101604052809291908181526020018280546112489061399d565b80156112955780601f1061126a57610100808354040283529160200191611295565b820191906000526020600020905b81548152906001019060200180831161127857829003601f168201915b50505050508152602001600282018054806020026020016040519081016040528092919081815260200182805480156112ed57602002820191906000526020600020905b8154815260200190600101908083116112d9575b505050505081526020016003820180548060200260200160405190810160405280929190818152602001828054801561134557602002820191906000526020600020905b815481526020019060010190808311611331575b505050505081525050838381518110611361576113606138d3565b5b60200260200101819052508180611377906139fd565b9250508080611385906139fd565b915050611164565b5081935050505090565b61139f612d49565b60006113a9612b35565b9050600581815481106113bf576113be6138d3565b5b9060005260206000209060040201604051806080016040529081600082015481526020016001820180548060200260200160405190810160405280929190818152602001828054801561143157602002820191906000526020600020905b81548152602001906001019080831161141d575b5050505050815260200160028201805461144a9061399d565b80601f01602080910402602001604051908101604052809291908181526020018280546114769061399d565b80156114c35780601f10611498576101008083540402835291602001916114c3565b820191906000526020600020905b8154815290600101906020018083116114a657829003601f168201915b505050505081526020016003820160009054906101000a900473ffffffffffffffffffffffffffffffffffffffff1673ffffffffffffffffffffffffffffffffffffffff1673ffffffffffffffffffffffffffffffffffffffff168152505091505090565b6000816040516115389190613aed565b908152602001604051809103902060009054906101000a900460ff1615611594576040517f08c379a000000000000000000000000000000000000000000000000000000000815260040161158b90613fa4565b60405180910390fd5b61159c6123bc565b156115dc576040517f08c379a00000000000000000000000000000000000000000000000000000000081526004016115d390614010565b60405180910390fd5b6000815103611620576040517f08c379a00000000000000000000000000000000000000000000000000000000081526004016116179061407c565b60405180910390fd5b600560405180608001604052806002548152602001600067ffffffffffffffff8111156116505761164f6131fb565b5b60405190808252806020026020018201604052801561167e5781602001602082028036833780820191505090505b5081526020018381526020013373ffffffffffffffffffffffffffffffffffffffff1681525090806001815401808255809150506001900390600052602060002090600402016000909190919091506000820151816000015560208201518160010190805190602001906116f3929190612cd4565b5060408201518160020190816117099190613d1c565b5060608201518160030160006101000a81548173ffffffffffffffffffffffffffffffffffffffff021916908373ffffffffffffffffffffffffffffffffffffffff160217905550505060016000826040516117659190613aed565b908152602001604051809103902060006101000a81548160ff0219169083151502179055506002600081548092919061179d906139fd565b91905055507fcc5dda9f229ec85a9cba7b77b10f747163021a72585eb11a0105a714c2a302e960405160405180910390a150565b6000815103611815576040517f08c379a000000000000000000000000000000000000000000000000000000000815260040161180c90613a91565b60405180910390fd5b816006805490501161185c576040517f08c379a0000000000000000000000000000000000000000000000000000000008152600401611853906138b3565b60405180910390fd5b6000611866612b35565b90506118e56006848154811061187f5761187e6138d3565b5b90600052602060002090600402016002018054806020026020016040519081016040528092919081815260200182805480156118da57602002820191906000526020600020905b8154815260200190600101908083116118c6575b505050505082612c42565b611924576040517f08c379a000000000000000000000000000000000000000000000000000000000815260040161191b9061410e565b60405180910390fd5b60076040518060a0016040528060045481526020016005848154811061194d5761194c6138d3565b5b906000526020600020906004020160405180608001604052908160008201548152602001600182018054806020026020016040519081016040528092919081815260200182805480156119bf57602002820191906000526020600020905b8154815260200190600101908083116119ab575b505050505081526020016002820180546119d89061399d565b80601f0160208091040260200160405190810160405280929190818152602001828054611a049061399d565b8015611a515780601f10611a2657610100808354040283529160200191611a51565b820191906000526020600020905b815481529060010190602001808311611a3457829003601f168201915b505050505081526020016003820160009054906101000a900473ffffffffffffffffffffffffffffffffffffffff1673ffffffffffffffffffffffffffffffffffffffff1673ffffffffffffffffffffffffffffffffffffffff1681525050815260200184815260200142815260200160001515815250908060018154018082558091505060019003906000526020600020906008020160009091909190915060008201518160000155602082015181600101600082015181600001556020820151816001019080519060200190611b2a929190612cd4565b506040820151816002019081611b409190613d1c565b5060608201518160030160006101000a81548173ffffffffffffffffffffffffffffffffffffffff021916908373ffffffffffffffffffffffffffffffffffffffff16021790555050506040820151816005019081611b9f9190613d1c565b506060820151816006015560808201518160070160006101000a81548160ff021916908315150217905550505060068381548110611be057611bdf6138d3565b5b9060005260206000209060040201600301600454908060018154018082558091505060019003906000526020600020016000909190919091505560046000815480929190611c2d906139fd565b91905055507f27276df2065752ae77c089feff5cdd46e3617227489882edbb634b6df7a57fc260405160405180910390a17f2e98287333723b369daeb64a58f5743debe818ede93b5542e039f56bee6a360860405160405180910390a1505050565b6000611c99612b35565b90508160068054905011611ce2576040517f08c379a0000000000000000000000000000000000000000000000000000000008152600401611cd9906138b3565b60405180910390fd5b611d5f60068381548110611cf957611cf86138d3565b5b9060005260206000209060040201600201805480602002602001604051908101604052809291908181526020018280548015611d5457602002820191906000526020600020905b815481526020019060010190808311611d40575b505050505082612c42565b611d9e576040517f08c379a0000000000000000000000000000000000000000000000000000000008152600401611d959061394e565b60405180910390fd5b60005b60068381548110611db557611db46138d3565b5b906000526020600020906004020160020180549050811015611f33578160068481548110611de657611de56138d3565b5b90600052602060002090600402016002018281548110611e0957611e086138d3565b5b906000526020600020015403611f205760068381548110611e2d57611e2c6138d3565b5b9060005260206000209060040201600201600160068581548110611e5457611e536138d3565b5b906000526020600020906004020160020180549050611e73919061412e565b81548110611e8457611e836138d3565b5b906000526020600020015460068481548110611ea357611ea26138d3565b5b90600052602060002090600402016002018281548110611ec657611ec56138d3565b5b906000526020600020018190555060068381548110611ee857611ee76138d3565b5b9060005260206000209060040201600201805480611f0957611f08614162565b5b600190038181906000526020600020016000905590555b8080611f2b906139fd565b915050611da1565b5060005b60058281548110611f4b57611f4a6138d3565b5b9060005260206000209060040201600101805490508110156120c9578260058381548110611f7c57611f7b6138d3565b5b90600052602060002090600402016001018281548110611f9f57611f9e6138d3565b5b9060005260206000200154036120b65760058281548110611fc357611fc26138d3565b5b9060005260206000209060040201600101600160058481548110611fea57611fe96138d3565b5b906000526020600020906004020160010180549050612009919061412e565b8154811061201a576120196138d3565b5b906000526020600020015460058381548110612039576120386138d3565b5b9060005260206000209060040201600101828154811061205c5761205b6138d3565b5b90600052602060002001819055506005828154811061207e5761207d6138d3565b5b906000526020600020906004020160010180548061209f5761209e614162565b5b600190038181906000526020600020016000905590555b80806120c1906139fd565b915050611f37565b506000600683815481106120e0576120df6138d3565b5b906000526020600020906004020160020180549050036123605760005b60078054905081101561227a5760006121ae60068581548110612123576121226138d3565b5b906000526020600020906004020160030180548060200260200160405190810160405280929190818152602001828054801561217e57602002820191906000526020600020905b81548152602001906001019080831161216a575b505050505060078481548110612197576121966138d3565b5b906000526020600020906008020160000154612c42565b9050801561226657600782815481106121ca576121c96138d3565b5b9060005260206000209060080201600080820160009055600182016000808201600090556001820160006121fe9190612d87565b60028201600061220e9190612da8565b6003820160006101000a81549073ffffffffffffffffffffffffffffffffffffffff021916905550506005820160006122479190612da8565b60068201600090556007820160006101000a81549060ff021916905550505b508080612272906139fd565b9150506120fd565b506000600160068481548110612293576122926138d3565b5b90600052602060002090600402016001016040516122b19190614214565b908152602001604051809103902060006101000a81548160ff021916908315150217905550600682815481106122ea576122e96138d3565b5b90600052602060002090600402016000808201600090556001820160006123119190612da8565b6002820160006123219190612d87565b6003820160006123319190612d87565b50507f2e98287333723b369daeb64a58f5743debe818ede93b5542e039f56bee6a360860405160405180910390a15b7fcc5dda9f229ec85a9cba7b77b10f747163021a72585eb11a0105a714c2a302e960405160405180910390a17f27276df2065752ae77c089feff5cdd46e3617227489882edbb634b6df7a57fc260405160405180910390a15050565b600080600090505b600580549050811015612466573373ffffffffffffffffffffffffffffffffffffffff16600582815481106123fc576123fb6138d3565b5b906000526020600020906004020160030160009054906101000a900473ffffffffffffffffffffffffffffffffffffffff1673ffffffffffffffffffffffffffffffffffffffff160361245357600191505061246c565b808061245e906139fd565b9150506123c4565b50600090505b90565b6000612479612b35565b905082600780549050116124c2576040517f08c379a00000000000000000000000000000000000000000000000000000000081526004016124b990614277565b60405180910390fd5b600783815481106124d6576124d56138d3565b5b906000526020600020906008020160010160000154811461252c576040517f08c379a000000000000000000000000000000000000000000000000000000000815260040161252390614309565b60405180910390fd5b6000825103612570576040517f08c379a000000000000000000000000000000000000000000000000000000000815260040161256790613a91565b60405180910390fd5b6040518060a001604052806007858154811061258f5761258e6138d3565b5b9060005260206000209060080201600001548152602001600785815481106125ba576125b96138d3565b5b9060005260206000209060080201600101604051806080016040529081600082015481526020016001820180548060200260200160405190810160405280929190818152602001828054801561262f57602002820191906000526020600020905b81548152602001906001019080831161261b575b505050505081526020016002820180546126489061399d565b80601f01602080910402602001604051908101604052809291908181526020018280546126749061399d565b80156126c15780601f10612696576101008083540402835291602001916126c1565b820191906000526020600020905b8154815290600101906020018083116126a457829003601f168201915b505050505081526020016003820160009054906101000a900473ffffffffffffffffffffffffffffffffffffffff1673ffffffffffffffffffffffffffffffffffffffff1673ffffffffffffffffffffffffffffffffffffffff16815250508152602001838152602001428152602001600115158152506007848154811061274c5761274b6138d3565b5b906000526020600020906008020160008201518160000155602082015181600101600082015181600001556020820151816001019080519060200190612793929190612cd4565b5060408201518160020190816127a99190613d1c565b5060608201518160030160006101000a81548173ffffffffffffffffffffffffffffffffffffffff021916908373ffffffffffffffffffffffffffffffffffffffff160217905550505060408201518160050190816128089190613d1c565b506060820151816006015560808201518160070160006101000a81548160ff0219169083151502179055509050507f2e98287333723b369daeb64a58f5743debe818ede93b5542e039f56bee6a360860405160405180910390a1505050565b80600780549050116128ae576040517f08c379a00000000000000000000000000000000000000000000000000000000081526004016128a590614277565b60405180910390fd5b600781815481106128c2576128c16138d3565b5b9060005260206000209060080201600080820160009055600182016000808201600090556001820160006128f69190612d87565b6002820160006129069190612da8565b6003820160006101000a81549073ffffffffffffffffffffffffffffffffffffffff0219169055505060058201600061293f9190612da8565b60068201600090556007820160006101000a81549060ff021916905550507f2e98287333723b369daeb64a58f5743debe818ede93b5542e039f56bee6a360860405160405180910390a150565b60606005805480602002602001604051908101604052809291908181526020016000905b82821015612b2c57838290600052602060002090600402016040518060800160405290816000820154815260200160018201805480602002602001604051908101604052809291908181526020018280548015612a2c57602002820191906000526020600020905b815481526020019060010190808311612a18575b50505050508152602001600282018054612a459061399d565b80601f0160208091040260200160405190810160405280929190818152602001828054612a719061399d565b8015612abe5780601f10612a9357610100808354040283529160200191612abe565b820191906000526020600020905b815481529060010190602001808311612aa157829003601f168201915b505050505081526020016003820160009054906101000a900473ffffffffffffffffffffffffffffffffffffffff1673ffffffffffffffffffffffffffffffffffffffff1673ffffffffffffffffffffffffffffffffffffffff1681525050815260200190600101906129b0565b50505050905090565b600080600090505b600580549050811015612c03573373ffffffffffffffffffffffffffffffffffffffff1660058281548110612b7557612b746138d3565b5b906000526020600020906004020160030160009054906101000a900473ffffffffffffffffffffffffffffffffffffffff1673ffffffffffffffffffffffffffffffffffffffff1603612bf05760058181548110612bd657612bd56138d3565b5b906000526020600020906004020160000154915050612c3f565b8080612bfb906139fd565b915050612b3d565b506040517f08c379a0000000000000000000000000000000000000000000000000000000008152600401612c3690614375565b60405180910390fd5b90565b600080600090505b8351811015612c915782848281518110612c6757612c666138d3565b5b602002602001015103612c7e576001915050612c97565b8080612c89906139fd565b915050612c4a565b50600090505b92915050565b6040518060a0016040528060008152602001612cb7612d49565b815260200160608152602001600081526020016000151581525090565b828054828255906000526020600020908101928215612d10579160200282015b82811115612d0f578251825591602001919060010190612cf4565b5b509050612d1d9190612de8565b5090565b6040518060800160405280600081526020016060815260200160608152602001606081525090565b6040518060800160405280600081526020016060815260200160608152602001600073ffffffffffffffffffffffffffffffffffffffff1681525090565b5080546000825590600052602060002090810190612da59190612de8565b50565b508054612db49061399d565b6000825580601f10612dc65750612de5565b601f016020900490600052602060002090810190612de49190612de8565b5b50565b5b80821115612e01576000816000905550600101612de9565b5090565b6000604051905090565b600080fd5b600080fd5b6000819050919050565b612e2c81612e19565b8114612e3757600080fd5b50565b600081359050612e4981612e23565b92915050565b600060208284031215612e6557612e64612e0f565b5b6000612e7384828501612e3a565b91505092915050565b600081519050919050565b600082825260208201905092915050565b6000819050602082019050919050565b612eb181612e19565b82525050565b600081519050919050565b600082825260208201905092915050565b6000819050602082019050919050565b6000612eef8383612ea8565b60208301905092915050565b6000602082019050919050565b6000612f1382612eb7565b612f1d8185612ec2565b9350612f2883612ed3565b8060005b83811015612f59578151612f408882612ee3565b9750612f4b83612efb565b925050600181019050612f2c565b5085935050505092915050565b600081519050919050565b600082825260208201905092915050565b60005b83811015612fa0578082015181840152602081019050612f85565b60008484015250505050565b6000601f19601f8301169050919050565b6000612fc882612f66565b612fd28185612f71565b9350612fe2818560208601612f82565b612feb81612fac565b840191505092915050565b600073ffffffffffffffffffffffffffffffffffffffff82169050919050565b600061302182612ff6565b9050919050565b61303181613016565b82525050565b600060808301600083015161304f6000860182612ea8565b50602083015184820360208601526130678282612f08565b915050604083015184820360408601526130818282612fbd565b91505060608301516130966060860182613028565b508091505092915050565b60008115159050919050565b6130b6816130a1565b82525050565b600060a0830160008301516130d46000860182612ea8565b50602083015184820360208601526130ec8282613037565b915050604083015184820360408601526131068282612fbd565b915050606083015161311b6060860182612ea8565b50608083015161312e60808601826130ad565b508091505092915050565b600061314583836130bc565b905092915050565b6000602082019050919050565b600061316582612e7c565b61316f8185612e87565b93508360208202850161318185612e98565b8060005b858110156131bd578484038952815161319e8582613139565b94506131a98361314d565b925060208a01995050600181019050613185565b50829750879550505050505092915050565b600060208201905081810360008301526131e9818461315a565b905092915050565b600080fd5b600080fd5b7f4e487b7100000000000000000000000000000000000000000000000000000000600052604160045260246000fd5b61323382612fac565b810181811067ffffffffffffffff82111715613252576132516131fb565b5b80604052505050565b6000613265612e05565b9050613271828261322a565b919050565b600067ffffffffffffffff821115613291576132906131fb565b5b61329a82612fac565b9050602081019050919050565b82818337600083830152505050565b60006132c96132c484613276565b61325b565b9050828152602081018484840111156132e5576132e46131f6565b5b6132f08482856132a7565b509392505050565b600082601f83011261330d5761330c6131f1565b5b813561331d8482602086016132b6565b91505092915050565b600067ffffffffffffffff821115613341576133406131fb565b5b602082029050602081019050919050565b600080fd5b600061336a61336584613326565b61325b565b9050808382526020820190506020840283018581111561338d5761338c613352565b5b835b818110156133b657806133a28882612e3a565b84526020840193505060208101905061338f565b5050509392505050565b600082601f8301126133d5576133d46131f1565b5b81356133e5848260208601613357565b91505092915050565b6000806040838503121561340557613404612e0f565b5b600083013567ffffffffffffffff81111561342357613422612e14565b5b61342f858286016132f8565b925050602083013567ffffffffffffffff8111156134505761344f612e14565b5b61345c858286016133c0565b9150509250929050565b6000806040838503121561347d5761347c612e0f565b5b600061348b85828601612e3a565b925050602083013567ffffffffffffffff8111156134ac576134ab612e14565b5b6134b8858286016133c0565b9150509250929050565b600081519050919050565b600082825260208201905092915050565b6000819050602082019050919050565b60006080830160008301516135066000860182612ea8565b506020830151848203602086015261351e8282612fbd565b915050604083015184820360408601526135388282612f08565b915050606083015184820360608601526135528282612f08565b9150508091505092915050565b600061356b83836134ee565b905092915050565b6000602082019050919050565b600061358b826134c2565b61359581856134cd565b9350836020820285016135a7856134de565b8060005b858110156135e357848403895281516135c4858261355f565b94506135cf83613573565b925060208a019950506001810190506135ab565b50829750879550505050505092915050565b6000602082019050818103600083015261360f8184613580565b905092915050565b600060808301600083015161362f6000860182612ea8565b50602083015184820360208601526136478282612f08565b915050604083015184820360408601526136618282612fbd565b91505060608301516136766060860182613028565b508091505092915050565b6000602082019050818103600083015261369b8184613617565b905092915050565b6000602082840312156136b9576136b8612e0f565b5b600082013567ffffffffffffffff8111156136d7576136d6612e14565b5b6136e3848285016132f8565b91505092915050565b6000806040838503121561370357613702612e0f565b5b600061371185828601612e3a565b925050602083013567ffffffffffffffff81111561373257613731612e14565b5b61373e858286016132f8565b9150509250929050565b613751816130a1565b82525050565b600060208201905061376c6000830184613748565b92915050565b600081519050919050565b600082825260208201905092915050565b6000819050602082019050919050565b60006137aa8383613037565b905092915050565b6000602082019050919050565b60006137ca82613772565b6137d4818561377d565b9350836020820285016137e68561378e565b8060005b858110156138225784840389528151613803858261379e565b945061380e836137b2565b925060208a019950506001810190506137ea565b50829750879550505050505092915050565b6000602082019050818103600083015261384e81846137bf565b905092915050565b600082825260208201905092915050565b7f4368617420646f6573206e6f7420657869737421000000000000000000000000600082015250565b600061389d601483613856565b91506138a882613867565b602082019050919050565b600060208201905081810360008301526138cc81613890565b9050919050565b7f4e487b7100000000000000000000000000000000000000000000000000000000600052603260045260246000fd5b7f53656e646572206d757374206265206d75737420626520696e20636861742100600082015250565b6000613938601f83613856565b915061394382613902565b602082019050919050565b600060208201905081810360008301526139678161392b565b9050919050565b7f4e487b7100000000000000000000000000000000000000000000000000000000600052602260045260246000fd5b600060028204905060018216806139b557607f821691505b6020821081036139c8576139c761396e565b5b50919050565b7f4e487b7100000000000000000000000000000000000000000000000000000000600052601160045260246000fd5b6000613a0882612e19565b91507fffffffffffffffffffffffffffffffffffffffffffffffffffffffffffffffff8203613a3a57613a396139ce565b5b600182019050919050565b7f546578742073686f756c64206578697374210000000000000000000000000000600082015250565b6000613a7b601283613856565b9150613a8682613a45565b602082019050919050565b60006020820190508181036000830152613aaa81613a6e565b9050919050565b600081905092915050565b6000613ac782612f66565b613ad18185613ab1565b9350613ae1818560208601612f82565b80840191505092915050565b6000613af98284613abc565b915081905092915050565b7f546869732063686174206e616d6520697320616c72656164792074616b656e00600082015250565b6000613b3a601f83613856565b9150613b4582613b04565b602082019050919050565b60006020820190508181036000830152613b6981613b2d565b9050919050565b60008190508160005260206000209050919050565b60006020601f8301049050919050565b600082821b905092915050565b600060088302613bd27fffffffffffffffffffffffffffffffffffffffffffffffffffffffffffffffff82613b95565b613bdc8683613b95565b95508019841693508086168417925050509392505050565b6000819050919050565b6000613c19613c14613c0f84612e19565b613bf4565b612e19565b9050919050565b6000819050919050565b613c3383613bfe565b613c47613c3f82613c20565b848454613ba2565b825550505050565b600090565b613c5c613c4f565b613c67818484613c2a565b505050565b5b81811015613c8b57613c80600082613c54565b600181019050613c6d565b5050565b601f821115613cd057613ca181613b70565b613caa84613b85565b81016020851015613cb9578190505b613ccd613cc585613b85565b830182613c6c565b50505b505050565b600082821c905092915050565b6000613cf360001984600802613cd5565b1980831691505092915050565b6000613d0c8383613ce2565b9150826002028217905092915050565b613d2582612f66565b67ffffffffffffffff811115613d3e57613d3d6131fb565b5b613d48825461399d565b613d53828285613c8f565b600060209050601f831160018114613d865760008415613d74578287015190505b613d7e8582613d00565b865550613de6565b601f198416613d9486613b70565b60005b82811015613dbc57848901518255600182019150602085019450602081019050613d97565b86831015613dd95784890151613dd5601f891682613ce2565b8355505b6001600288020188555050505b505050505050565b7f55736572206964206973206e6f7420666f756e64210000000000000000000000600082015250565b6000613e24601583613856565b9150613e2f82613dee565b602082019050919050565b60006020820190508181036000830152613e5381613e17565b9050919050565b7f53656e646572206d757374206265206d75737420626520696e20636861742c2060008201527f6f722063686174207761732064656c6574656421000000000000000000000000602082015250565b6000613eb6603483613856565b9150613ec182613e5a565b604082019050919050565b60006020820190508181036000830152613ee581613ea9565b9050919050565b7f416c6c2075736572732061726520616c726561647920696e2063686174210000600082015250565b6000613f22601e83613856565b9150613f2d82613eec565b602082019050919050565b60006020820190508181036000830152613f5181613f15565b9050919050565b7f5468697320757365726e616d6520697320616c72656164792074616b656e0000600082015250565b6000613f8e601e83613856565b9150613f9982613f58565b602082019050919050565b60006020820190508181036000830152613fbd81613f81565b9050919050565b7f5573657220616c72656164792065786973747321000000000000000000000000600082015250565b6000613ffa601483613856565b915061400582613fc4565b602082019050919050565b6000602082019050818103600083015261402981613fed565b9050919050565b7f757365726e616d652073686f756c642065786973742100000000000000000000600082015250565b6000614066601683613856565b915061407182614030565b602082019050919050565b6000602082019050818103600083015261409581614059565b9050919050565b7f53656e646572206d757374206265206d75737420626520696e2063686174206f60008201527f722063686174207761732064656c657465642100000000000000000000000000602082015250565b60006140f8603383613856565b91506141038261409c565b604082019050919050565b60006020820190508181036000830152614127816140eb565b9050919050565b600061413982612e19565b915061414483612e19565b925082820390508181111561415c5761415b6139ce565b5b92915050565b7f4e487b7100000000000000000000000000000000000000000000000000000000600052603160045260246000fd5b6000815461419e8161399d565b6141a88186613ab1565b945060018216600081146141c357600181146141d85761420b565b60ff198316865281151582028601935061420b565b6141e185613b70565b60005b83811015614203578154818901526001820191506020810190506141e4565b838801955050505b50505092915050565b60006142208284614191565b915081905092915050565b7f4d65737361676520646f6573206e6f7420657869737421000000000000000000600082015250565b6000614261601783613856565b915061426c8261422b565b602082019050919050565b6000602082019050818103600083015261429081614254565b9050919050565b7f53656e646572206d757374206265206f776e6572206f6620746865206d65737360008201527f616765206f7220746865206d657373616765207761732064656c657465642100602082015250565b60006142f3603f83613856565b91506142fe82614297565b604082019050919050565b60006020820190508181036000830152614322816142e6565b9050919050565b7f55736572206e6f7420666f756e64210000000000000000000000000000000000600082015250565b600061435f600f83613856565b915061436a82614329565b602082019050919050565b6000602082019050818103600083015261438e81614352565b905091905056fea2646970667358221220695b810c0360b27e7b547642f122a9b7671b0c3215ff3ab232e67fbb521f826364736f6c63430008110033",
  "immutableReferences": {},
  "source": "// SPDX-License-Identifier: GPL-3.0\r\npragma solidity >=0.7.0 <0.9.0;\r\n\r\ncontract Messenger {\r\n    struct User {\r\n        uint256 id;\r\n        uint256[] chatsId;\r\n        string username;\r\n        address userAddress;\r\n    }\r\n\r\n    struct Message {\r\n        uint256 id;\r\n        User owner;\r\n        string text;\r\n        uint256 changedAt;\r\n        bool isChanged;\r\n    }\r\n\r\n    struct Chat {\r\n        uint256 id;\r\n        string chatName;\r\n        uint256[] usersId;\r\n        uint256[] messagesId;\r\n    }\r\n\r\n    mapping(string => bool) private _isUsernameTaken;\r\n    mapping(string => bool) private _isChatNameTaken;\r\n\r\n    uint256 private _numberOfUsers;\r\n    uint256 private _numberOfChats;\r\n    uint256 private _numberOfMessages;\r\n\r\n    User[] private _userArray;\r\n    Chat[] private _chatArray;\r\n    Message[] private _messageArray;\r\n\r\n    //EVENTS============================================\r\n\r\n    event UsersChanged();\r\n    event ChatsChanged();\r\n    event MessagesChanged();\r\n\r\n    //USER==============================================\r\n\r\n    function doesUserExist() public view returns (bool) {\r\n        for (uint256 i = 0; i < _userArray.length; i++) {\r\n            if (_userArray[i].userAddress == msg.sender) {\r\n                return true;\r\n            }\r\n        }\r\n\r\n        return false;\r\n    }\r\n\r\n    function createUser(string memory username) external {\r\n        require(!_isUsernameTaken[username], 'This username is already taken');\r\n        require(!doesUserExist(), 'User already exists!');\r\n        require(bytes(username).length != 0, 'username should exist!');\r\n\r\n        _userArray.push(\r\n            User({\r\n        id : _numberOfUsers,\r\n        chatsId : new uint256[](0),\r\n        username : username,\r\n        userAddress : msg.sender\r\n        })\r\n        );\r\n\r\n        _isUsernameTaken[username] = true;\r\n\r\n        _numberOfUsers++;\r\n\r\n        emit UsersChanged();\r\n    }\r\n\r\n    function getCurrentUser() external view returns (User memory) {\r\n        uint256 senderId = _getUserIdByAddress();\r\n\r\n        return _userArray[senderId];\r\n    }\r\n\r\n    function getAllUsers() external view returns (User[] memory) {\r\n        return _userArray;\r\n    }\r\n\r\n    //CHAT==============================================\r\n\r\n    function createChat(string memory chatName, uint256[] memory newUsersId) external {\r\n        require(bytes(chatName).length != 0, 'Text should exist!');\r\n        require(!_isChatNameTaken[chatName], 'This chat name is already taken');\r\n\r\n        //Add sender to chat\r\n        uint256 senderId = _getUserIdByAddress();\r\n\r\n        _chatArray.push(\r\n            Chat({\r\n        id : _numberOfChats,\r\n        chatName : chatName,\r\n        usersId : new uint256[](0),\r\n        messagesId : new uint256[](0)\r\n        })\r\n        );\r\n\r\n        _chatArray[_numberOfChats].usersId.push(senderId);\r\n        _userArray[senderId].chatsId.push(_numberOfChats);\r\n\r\n        _isChatNameTaken[chatName] = true;\r\n\r\n        //Add newUsersId to chat\r\n\r\n        //check if newUserId array is valid\r\n        for (uint256 i = 0; i < newUsersId.length; i++) {\r\n            bool isUserFound = false;\r\n\r\n            for (uint256 j = 0; j < _userArray.length; j++) {\r\n                if (newUsersId[i] == _userArray[j].id) {\r\n                    isUserFound = true;\r\n                }\r\n            }\r\n\r\n            require(isUserFound, 'User id is not found!');\r\n            isUserFound = false;\r\n        }\r\n\r\n        //Actually add user to chat\r\n        for (uint256 i = 0; i < newUsersId.length; i++) {\r\n            bool isUserInChat = _isIndexInArray(\r\n                _chatArray[_numberOfChats].usersId,\r\n                newUsersId[i]\r\n            );\r\n\r\n            if (!isUserInChat) {\r\n                _chatArray[_numberOfChats].usersId.push(newUsersId[i]);\r\n                _userArray[newUsersId[i]].chatsId.push(_numberOfChats);\r\n            }\r\n        }\r\n\r\n\r\n        _numberOfChats++;\r\n\r\n        emit ChatsChanged();\r\n        emit UsersChanged();\r\n    }\r\n\r\n    function addUsersToChat(uint256 chatId, uint256[] memory newUsersId)\r\n    external\r\n    {\r\n        uint256 senderId = _getUserIdByAddress();\r\n        bool isAnyUserAdded = false;\r\n\r\n        require(_chatArray.length > chatId, 'Chat does not exist!');\r\n        require(\r\n            _isIndexInArray(_chatArray[chatId].usersId, senderId),\r\n            'Sender must be must be in chat, or chat was deleted!'\r\n        );\r\n\r\n        //check if newUserId array is valid\r\n        for (uint256 i = 0; i < newUsersId.length; i++) {\r\n            bool isUserFound = false;\r\n\r\n            for (uint256 j = 0; j < _userArray.length; j++) {\r\n                if (newUsersId[i] == _userArray[j].id) {\r\n                    isUserFound = true;\r\n                }\r\n            }\r\n\r\n            require(isUserFound, 'User id is not found!');\r\n            isUserFound = false;\r\n        }\r\n\r\n        for (uint256 i = 0; i < newUsersId.length; i++) {\r\n            bool isUserInChat = _isIndexInArray(\r\n                _chatArray[chatId].usersId,\r\n                newUsersId[i]\r\n            );\r\n\r\n            if (!isUserInChat) {\r\n                _chatArray[chatId].usersId.push(newUsersId[i]);\r\n                _userArray[newUsersId[i]].chatsId.push(chatId);\r\n\r\n                isAnyUserAdded = true;\r\n            }\r\n        }\r\n\r\n        if (!isAnyUserAdded) {\r\n            revert('All users are already in chat!');\r\n        }\r\n\r\n        emit UsersChanged();\r\n        emit ChatsChanged();\r\n    }\r\n\r\n    function getAllUserChats() external view returns (Chat[] memory) {\r\n        uint256 senderId = _getUserIdByAddress();\r\n\r\n        Chat[] memory newUserChats = new Chat[](\r\n            _userArray[senderId].chatsId.length\r\n        );\r\n        uint256 userChatsIdx;\r\n\r\n        for (uint256 i = 0; i < _userArray[senderId].chatsId.length; i++) {\r\n            newUserChats[userChatsIdx] = _chatArray[_userArray[senderId].chatsId[i]];\r\n            userChatsIdx++;\r\n        }\r\n\r\n        return newUserChats;\r\n    }\r\n\r\n    function leaveChat(uint256 chatId) external {\r\n        uint256 senderId = _getUserIdByAddress();\r\n\r\n        require(_chatArray.length > chatId, 'Chat does not exist!');\r\n        require(\r\n            _isIndexInArray(_chatArray[chatId].usersId, senderId),\r\n            'Sender must be must be in chat!'\r\n        );\r\n\r\n        //Erase user from chat\r\n        for (uint256 i; i < _chatArray[chatId].usersId.length; i++) {\r\n            if (_chatArray[chatId].usersId[i] == senderId) {\r\n                _chatArray[chatId].usersId[i] = _chatArray[chatId].usersId[\r\n                _chatArray[chatId].usersId.length - 1\r\n                ];\r\n                _chatArray[chatId].usersId.pop();\r\n            }\r\n        }\r\n\r\n        //Erase chat from user\r\n        for (uint256 i; i < _userArray[senderId].chatsId.length; i++) {\r\n            if (_userArray[senderId].chatsId[i] == chatId) {\r\n                _userArray[senderId].chatsId[i] = _userArray[senderId].chatsId[\r\n                _userArray[senderId].chatsId.length - 1\r\n                ];\r\n                _userArray[senderId].chatsId.pop();\r\n            }\r\n        }\r\n\r\n        //Erease chat and messages if no users\r\n        if (_chatArray[chatId].usersId.length == 0) {\r\n            for (uint256 i; i < _messageArray.length; i++) {\r\n                bool isMessageInChatsId = _isIndexInArray(\r\n                    _chatArray[chatId].messagesId,\r\n                    _messageArray[i].id\r\n                );\r\n\r\n                if (isMessageInChatsId) {\r\n                    delete _messageArray[i];\r\n                }\r\n            }\r\n\r\n            _isChatNameTaken[_chatArray[chatId].chatName] = false;\r\n            delete _chatArray[chatId];\r\n\r\n            emit MessagesChanged();\r\n        }\r\n\r\n        emit UsersChanged();\r\n        emit ChatsChanged();\r\n    }\r\n\r\n    //MESSAGE===========================================\r\n\r\n    function createMessage(uint256 chatId, string memory text) external {\r\n        require(bytes(text).length != 0, 'Text should exist!');\r\n        require(_chatArray.length > chatId, 'Chat does not exist!');\r\n\r\n        uint256 senderId = _getUserIdByAddress();\r\n\r\n        require(\r\n            _isIndexInArray(_chatArray[chatId].usersId, senderId),\r\n            'Sender must be must be in chat or chat was deleted!'\r\n        );\r\n\r\n        _messageArray.push(\r\n            Message({\r\n        id : _numberOfMessages,\r\n        owner : _userArray[senderId],\r\n        text : text,\r\n        changedAt : block.timestamp,\r\n        isChanged : false\r\n        })\r\n        );\r\n\r\n        _chatArray[chatId].messagesId.push(_numberOfMessages);\r\n\r\n        _numberOfMessages++;\r\n\r\n        emit ChatsChanged();\r\n        emit MessagesChanged();\r\n    }\r\n\r\n    function changeMessage(uint256 messageId, string memory text) external {\r\n        uint256 senderId = _getUserIdByAddress();\r\n\r\n        require(_messageArray.length > messageId, 'Message does not exist!');\r\n        require(\r\n            senderId == _messageArray[messageId].owner.id,\r\n            'Sender must be owner of the message or the message was deleted!'\r\n        );\r\n        require(bytes(text).length != 0, 'Text should exist!');\r\n\r\n        _messageArray[messageId] = Message({\r\n        id : _messageArray[messageId].id,\r\n        text : text,\r\n        changedAt : block.timestamp,\r\n        owner : _messageArray[messageId].owner,\r\n        isChanged : true\r\n        });\r\n\r\n        emit MessagesChanged();\r\n    }\r\n\r\n    function getAllMessagesInChat(uint256 chatId)\r\n    external\r\n    view\r\n    returns (Message[] memory)\r\n    {\r\n        uint256 senderId = _getUserIdByAddress();\r\n\r\n        require(_chatArray.length > chatId, 'Chat does not exist!');\r\n        require(\r\n            _isIndexInArray(_chatArray[chatId].usersId, senderId),\r\n            'Sender must be must be in chat!'\r\n        );\r\n\r\n        Message[] memory newMessageArray = new Message[](\r\n            _chatArray[chatId].messagesId.length\r\n        );\r\n        uint256 messagesIdx;\r\n\r\n        for (uint256 i = 0; i < _messageArray.length; i++) {\r\n            bool isMessageInChatsId = _isIndexInArray(\r\n                _chatArray[chatId].messagesId,\r\n                _messageArray[i].id\r\n            );\r\n\r\n            if (isMessageInChatsId) {\r\n                newMessageArray[messagesIdx] = _messageArray[i];\r\n\r\n                messagesIdx++;\r\n            }\r\n        }\r\n\r\n        return newMessageArray;\r\n    }\r\n\r\n    function deleteMessage(uint256 messageId) external {\r\n        require(_messageArray.length > messageId, 'Message does not exist!');\r\n\r\n        delete _messageArray[messageId];\r\n\r\n        emit MessagesChanged();\r\n    }\r\n\r\n    //UTILS=============================================\r\n\r\n    function _getUserIdByAddress() private view returns (uint256) {\r\n        for (uint256 i = 0; i < _userArray.length; i++) {\r\n            if (_userArray[i].userAddress == msg.sender) {\r\n                return _userArray[i].id;\r\n            }\r\n        }\r\n\r\n        revert('User not found!');\r\n    }\r\n\r\n    function _isIndexInArray(uint256[] memory arr, uint256 searchedIdx)\r\n    private\r\n    pure\r\n    returns (bool)\r\n    {\r\n        for (uint256 i = 0; i < arr.length; i++) {\r\n            if (arr[i] == searchedIdx) {\r\n                return true;\r\n            }\r\n        }\r\n\r\n        return false;\r\n    }\r\n}\r\n",
  "sourcePath": "C:\\Users\\anze1\\webdev\\web3\\projects\\eth_web3_messenger_extension\\contracts\\Messenger.sol",
  "compiler": {
    "name": "solc",
    "version": "0.8.17+commit.8df45f5f.Emscripten.clang"
  },
  "schemaVersion": "3.4.11",
  "updatedAt": "2023-02-16T13:52:38.880Z",
  "networkType": "ethereum",
  "devdoc": {
    "kind": "dev",
    "methods": {},
    "version": 1
  },
  "userdoc": {
    "kind": "user",
    "methods": {},
    "version": 1
  }
}