{
  "contractName": "Messenger",
  "abi": [
    {
      "anonymous": false,
      "inputs": [],
      "name": "ChatsChanged",
      "type": "event"
    },
    {
      "anonymous": false,
      "inputs": [],
      "name": "MessagesChanged",
      "type": "event"
    },
    {
      "anonymous": false,
      "inputs": [],
      "name": "UsersChanged",
      "type": "event"
    },
    {
      "anonymous": false,
      "inputs": [
        {
          "indexed": false,
          "internalType": "address",
          "name": "senderAddress",
          "type": "address"
        },
        {
          "indexed": false,
          "internalType": "string",
          "name": "senderUsername",
          "type": "string"
        },
        {
          "indexed": false,
          "internalType": "string",
          "name": "chatName",
          "type": "string"
        }
      ],
      "name": "newChatEvent",
      "type": "event"
    },
    {
      "anonymous": false,
      "inputs": [
        {
          "indexed": false,
          "internalType": "address",
          "name": "senderAddress",
          "type": "address"
        },
        {
          "indexed": false,
          "internalType": "string",
          "name": "senderUsername",
          "type": "string"
        },
        {
          "indexed": false,
          "internalType": "string",
          "name": "message",
          "type": "string"
        }
      ],
      "name": "newMessageEvent",
      "type": "event"
    },
    {
      "inputs": [],
      "name": "doesUserExist",
      "outputs": [
        {
          "internalType": "bool",
          "name": "",
          "type": "bool"
        }
      ],
      "stateMutability": "view",
      "type": "function",
      "constant": true
    },
    {
      "inputs": [
        {
          "internalType": "string",
          "name": "username",
          "type": "string"
        }
      ],
      "name": "createUser",
      "outputs": [],
      "stateMutability": "nonpayable",
      "type": "function"
    },
    {
      "inputs": [],
      "name": "getCurrentUser",
      "outputs": [
        {
          "components": [
            {
              "internalType": "uint256",
              "name": "id",
              "type": "uint256"
            },
            {
              "internalType": "uint256[]",
              "name": "chatsId",
              "type": "uint256[]"
            },
            {
              "internalType": "string",
              "name": "username",
              "type": "string"
            },
            {
              "internalType": "address",
              "name": "userAddress",
              "type": "address"
            }
          ],
          "internalType": "struct Messenger.User",
          "name": "",
          "type": "tuple"
        }
      ],
      "stateMutability": "view",
      "type": "function",
      "constant": true
    },
    {
      "inputs": [],
      "name": "getAllUsers",
      "outputs": [
        {
          "components": [
            {
              "internalType": "uint256",
              "name": "id",
              "type": "uint256"
            },
            {
              "internalType": "uint256[]",
              "name": "chatsId",
              "type": "uint256[]"
            },
            {
              "internalType": "string",
              "name": "username",
              "type": "string"
            },
            {
              "internalType": "address",
              "name": "userAddress",
              "type": "address"
            }
          ],
          "internalType": "struct Messenger.User[]",
          "name": "",
          "type": "tuple[]"
        }
      ],
      "stateMutability": "view",
      "type": "function",
      "constant": true
    },
    {
      "inputs": [
        {
          "internalType": "string",
          "name": "chatName",
          "type": "string"
        }
      ],
      "name": "createChat",
      "outputs": [],
      "stateMutability": "nonpayable",
      "type": "function"
    },
    {
      "inputs": [
        {
          "internalType": "uint256",
          "name": "chatId",
          "type": "uint256"
        },
        {
          "internalType": "uint256[]",
          "name": "newUsersId",
          "type": "uint256[]"
        }
      ],
      "name": "addUsersToChat",
      "outputs": [],
      "stateMutability": "nonpayable",
      "type": "function"
    },
    {
      "inputs": [
        {
          "internalType": "uint256",
          "name": "chatId",
          "type": "uint256"
        }
      ],
      "name": "getChat",
      "outputs": [
        {
          "components": [
            {
              "internalType": "uint256",
              "name": "id",
              "type": "uint256"
            },
            {
              "internalType": "string",
              "name": "chatName",
              "type": "string"
            },
            {
              "internalType": "uint256[]",
              "name": "usersId",
              "type": "uint256[]"
            },
            {
              "internalType": "uint256[]",
              "name": "messagesId",
              "type": "uint256[]"
            }
          ],
          "internalType": "struct Messenger.Chat",
          "name": "",
          "type": "tuple"
        }
      ],
      "stateMutability": "view",
      "type": "function",
      "constant": true
    },
    {
      "inputs": [],
      "name": "getAllUserChats",
      "outputs": [
        {
          "components": [
            {
              "internalType": "uint256",
              "name": "id",
              "type": "uint256"
            },
            {
              "internalType": "string",
              "name": "chatName",
              "type": "string"
            },
            {
              "internalType": "uint256[]",
              "name": "usersId",
              "type": "uint256[]"
            },
            {
              "internalType": "uint256[]",
              "name": "messagesId",
              "type": "uint256[]"
            }
          ],
          "internalType": "struct Messenger.Chat[]",
          "name": "",
          "type": "tuple[]"
        }
      ],
      "stateMutability": "view",
      "type": "function",
      "constant": true
    },
    {
      "inputs": [
        {
          "internalType": "uint256",
          "name": "chatId",
          "type": "uint256"
        }
      ],
      "name": "getAllUsersInChat",
      "outputs": [
        {
          "components": [
            {
              "internalType": "uint256",
              "name": "id",
              "type": "uint256"
            },
            {
              "internalType": "uint256[]",
              "name": "chatsId",
              "type": "uint256[]"
            },
            {
              "internalType": "string",
              "name": "username",
              "type": "string"
            },
            {
              "internalType": "address",
              "name": "userAddress",
              "type": "address"
            }
          ],
          "internalType": "struct Messenger.User[]",
          "name": "",
          "type": "tuple[]"
        }
      ],
      "stateMutability": "view",
      "type": "function",
      "constant": true
    },
    {
      "inputs": [
        {
          "internalType": "uint256",
          "name": "chatId",
          "type": "uint256"
        }
      ],
      "name": "leaveChat",
      "outputs": [],
      "stateMutability": "nonpayable",
      "type": "function"
    },
    {
      "inputs": [
        {
          "internalType": "uint256",
          "name": "chatId",
          "type": "uint256"
        },
        {
          "internalType": "string",
          "name": "text",
          "type": "string"
        }
      ],
      "name": "createMessage",
      "outputs": [],
      "stateMutability": "nonpayable",
      "type": "function"
    },
    {
      "inputs": [
        {
          "internalType": "uint256",
          "name": "messageId",
          "type": "uint256"
        },
        {
          "internalType": "string",
          "name": "text",
          "type": "string"
        }
      ],
      "name": "changeMessage",
      "outputs": [],
      "stateMutability": "nonpayable",
      "type": "function"
    },
    {
      "inputs": [
        {
          "internalType": "uint256",
          "name": "chatId",
          "type": "uint256"
        }
      ],
      "name": "getAllMessagesInChat",
      "outputs": [
        {
          "components": [
            {
              "internalType": "uint256",
              "name": "id",
              "type": "uint256"
            },
            {
              "components": [
                {
                  "internalType": "uint256",
                  "name": "id",
                  "type": "uint256"
                },
                {
                  "internalType": "uint256[]",
                  "name": "chatsId",
                  "type": "uint256[]"
                },
                {
                  "internalType": "string",
                  "name": "username",
                  "type": "string"
                },
                {
                  "internalType": "address",
                  "name": "userAddress",
                  "type": "address"
                }
              ],
              "internalType": "struct Messenger.User",
              "name": "owner",
              "type": "tuple"
            },
            {
              "internalType": "string",
              "name": "text",
              "type": "string"
            },
            {
              "internalType": "uint256",
              "name": "changedAt",
              "type": "uint256"
            },
            {
              "internalType": "bool",
              "name": "isChanged",
              "type": "bool"
            }
          ],
          "internalType": "struct Messenger.Message[]",
          "name": "",
          "type": "tuple[]"
        }
      ],
      "stateMutability": "view",
      "type": "function",
      "constant": true
    },
    {
      "inputs": [
        {
          "internalType": "uint256",
          "name": "messageId",
          "type": "uint256"
        }
      ],
      "name": "deleteMessage",
      "outputs": [],
      "stateMutability": "nonpayable",
      "type": "function"
    }
  ],
  "bytecode": "0x608060405234801561001057600080fd5b50614acc806100206000396000f3fe608060405234801561001057600080fd5b50600436106100ea5760003560e01c80639d9e36d81161008c578063b888690a11610066578063b888690a14610221578063d5c2e0cd1461023d578063e2842d791461026d578063f1f8fe2e1461028b576100ea565b80639d9e36d8146101cb578063a0488c2e146101e9578063a1786d1b14610205576100ea565b806343ae37c3116100c857806343ae37c314610159578063507ffba51461017757806352229eaa146101935780637edce7b2146101af576100ea565b806318cac089146100ef57806328f9c1b01461011f5780633d749bca1461013b575b600080fd5b610109600480360381019061010491906133df565b6102bb565b604051610116919061375f565b60405180910390f35b610139600480360381019061013491906138c9565b6107a6565b005b610143610c3f565b6040516101509190613a58565b60405180910390f35b610161610f08565b60405161016e9190613ae4565b60405180910390f35b610191600480360381019061018c9190613bbb565b611099565b005b6101ad60048036038101906101a89190613c04565b611342565b005b6101c960048036038101906101c491906133df565b61185f565b005b6101d3611f8c565b6040516101e09190613c6f565b60405180910390f35b61020360048036038101906101fe9190613bbb565b61203f565b005b61021f600480360381019061021a9190613c04565b612351565b005b61023b600480360381019061023691906133df565b612749565b005b610257600480360381019061025291906133df565b61286e565b6040516102649190613d4c565b60405180910390f35b610275612c84565b6040516102829190613d4c565b60405180910390f35b6102a560048036038101906102a091906133df565b612e2d565b6040516102b29190613ddf565b60405180910390f35b606060006102c76130c5565b90508260068054905011610310576040517f08c379a000000000000000000000000000000000000000000000000000000000815260040161030790613e5e565b60405180910390fd5b61038d6006848154811061032757610326613e7e565b5b906000526020600020906004020160020180548060200260200160405190810160405280929190818152602001828054801561038257602002820191906000526020600020905b81548152602001906001019080831161036e575b5050505050826131d2565b6103cc576040517f08c379a00000000000000000000000000000000000000000000000000000000081526004016103c390613ef9565b60405180910390fd5b6000600684815481106103e2576103e1613e7e565b5b90600052602060002090600402016003018054905067ffffffffffffffff8111156104105761040f613786565b5b60405190808252806020026020018201604052801561044957816020015b61043661322d565b81526020019060019003908161042e5790505b509050600080600090505b60078054905081101561079a5760006105056006888154811061047a57610479613e7e565b5b90600052602060002090600402016003018054806020026020016040519081016040528092919081815260200182805480156104d557602002820191906000526020600020905b8154815260200190600101908083116104c1575b5050505050600784815481106104ee576104ed613e7e565b5b9060005260206000209060080201600001546131d2565b90508015610786576007828154811061052157610520613e7e565b5b90600052602060002090600802016040518060a0016040529081600082015481526020016001820160405180608001604052908160008201548152602001600182018054806020026020016040519081016040528092919081815260200182805480156105ad57602002820191906000526020600020905b815481526020019060010190808311610599575b505050505081526020016002820180546105c690613f48565b80601f01602080910402602001604051908101604052809291908181526020018280546105f290613f48565b801561063f5780601f106106145761010080835404028352916020019161063f565b820191906000526020600020905b81548152906001019060200180831161062257829003601f168201915b505050505081526020016003820160009054906101000a900473ffffffffffffffffffffffffffffffffffffffff1673ffffffffffffffffffffffffffffffffffffffff1673ffffffffffffffffffffffffffffffffffffffff168152505081526020016005820180546106b290613f48565b80601f01602080910402602001604051908101604052809291908181526020018280546106de90613f48565b801561072b5780601f106107005761010080835404028352916020019161072b565b820191906000526020600020905b81548152906001019060200180831161070e57829003601f168201915b50505050508152602001600682015481526020016007820160009054906101000a900460ff16151515158152505084848151811061076c5761076b613e7e565b5b6020026020010181905250828061078290613fa8565b9350505b50808061079290613fa8565b915050610454565b50819350505050919050565b60006107b06130c5565b9050600083600680549050116107fb576040517f08c379a00000000000000000000000000000000000000000000000000000000081526004016107f290613e5e565b60405180910390fd5b6108786006858154811061081257610811613e7e565b5b906000526020600020906004020160020180548060200260200160405190810160405280929190818152602001828054801561086d57602002820191906000526020600020905b815481526020019060010190808311610859575b5050505050836131d2565b6108b7576040517f08c379a00000000000000000000000000000000000000000000000000000000081526004016108ae90614062565b60405180910390fd5b60005b835181101561098b576000805b60058054905081101561093257600581815481106108e8576108e7613e7e565b5b90600052602060002090600402016000015486848151811061090d5761090c613e7e565b5b60200260200101510361091f57600191505b808061092a90613fa8565b9150506108c7565b5080610973576040517f08c379a000000000000000000000000000000000000000000000000000000000815260040161096a906140ce565b60405180910390fd5b6000905050808061098390613fa8565b9150506108ba565b5060005b8351811015610b1d576000610a31600687815481106109b1576109b0613e7e565b5b9060005260206000209060040201600201805480602002602001604051908101604052809291908181526020018280548015610a0c57602002820191906000526020600020905b8154815260200190600101908083116109f8575b5050505050868481518110610a2457610a23613e7e565b5b60200260200101516131d2565b905080610b095760068681548110610a4c57610a4b613e7e565b5b9060005260206000209060040201600201858381518110610a7057610a6f613e7e565b5b602002602001015190806001815401808255809150506001900390600052602060002001600090919091909150556005858381518110610ab357610ab2613e7e565b5b602002602001015181548110610acc57610acb613e7e565b5b9060005260206000209060040201600101869080600181540180825580915050600190039060005260206000200160009091909190915055600192505b508080610b1590613fa8565b91505061098f565b5080610b5e576040517f08c379a0000000000000000000000000000000000000000000000000000000008152600401610b559061413a565b60405180910390fd5b7fcc5dda9f229ec85a9cba7b77b10f747163021a72585eb11a0105a714c2a302e960405160405180910390a17f27276df2065752ae77c089feff5cdd46e3617227489882edbb634b6df7a57fc260405160405180910390a17f431d3f4ca51f6123efef4c56091d02b1caf4d7d32361eb5367f6a746dc7743c13360058481548110610bec57610beb613e7e565b5b906000526020600020906004020160020160068781548110610c1157610c10613e7e565b5b9060005260206000209060040201600101604051610c3193929190614202565b60405180910390a150505050565b60606000610c4b6130c5565b9050600060058281548110610c6357610c62613e7e565b5b90600052602060002090600402016001018054905067ffffffffffffffff811115610c9157610c90613786565b5b604051908082528060200260200182016040528015610cca57816020015b610cb7613264565b815260200190600190039081610caf5790505b509050600080600090505b60058481548110610ce957610ce8613e7e565b5b906000526020600020906004020160010180549050811015610efe57600660058581548110610d1b57610d1a613e7e565b5b90600052602060002090600402016001018281548110610d3e57610d3d613e7e565b5b906000526020600020015481548110610d5a57610d59613e7e565b5b906000526020600020906004020160405180608001604052908160008201548152602001600182018054610d8d90613f48565b80601f0160208091040260200160405190810160405280929190818152602001828054610db990613f48565b8015610e065780601f10610ddb57610100808354040283529160200191610e06565b820191906000526020600020905b815481529060010190602001808311610de957829003601f168201915b5050505050815260200160028201805480602002602001604051908101604052809291908181526020018280548015610e5e57602002820191906000526020600020905b815481526020019060010190808311610e4a575b5050505050815260200160038201805480602002602001604051908101604052809291908181526020018280548015610eb657602002820191906000526020600020905b815481526020019060010190808311610ea2575b505050505081525050838381518110610ed257610ed1613e7e565b5b60200260200101819052508180610ee890613fa8565b9250508080610ef690613fa8565b915050610cd5565b5081935050505090565b610f1061328c565b6000610f1a6130c5565b905060058181548110610f3057610f2f613e7e565b5b90600052602060002090600402016040518060800160405290816000820154815260200160018201805480602002602001604051908101604052809291908181526020018280548015610fa257602002820191906000526020600020905b815481526020019060010190808311610f8e575b50505050508152602001600282018054610fbb90613f48565b80601f0160208091040260200160405190810160405280929190818152602001828054610fe790613f48565b80156110345780601f1061100957610100808354040283529160200191611034565b820191906000526020600020905b81548152906001019060200180831161101757829003601f168201915b505050505081526020016003820160009054906101000a900473ffffffffffffffffffffffffffffffffffffffff1673ffffffffffffffffffffffffffffffffffffffff1673ffffffffffffffffffffffffffffffffffffffff168152505091505090565b6000816040516110a99190614283565b908152602001604051809103902060009054906101000a900460ff1615611105576040517f08c379a00000000000000000000000000000000000000000000000000000000081526004016110fc906142e6565b60405180910390fd5b61110d611f8c565b1561114d576040517f08c379a000000000000000000000000000000000000000000000000000000000815260040161114490614352565b60405180910390fd5b6000815103611191576040517f08c379a0000000000000000000000000000000000000000000000000000000008152600401611188906143be565b60405180910390fd5b600560405180608001604052806002548152602001600067ffffffffffffffff8111156111c1576111c0613786565b5b6040519080825280602002602001820160405280156111ef5781602001602082028036833780820191505090505b5081526020018381526020013373ffffffffffffffffffffffffffffffffffffffff1681525090806001815401808255809150506001900390600052602060002090600402016000909190919091506000820151816000015560208201518160010190805190602001906112649291906132ca565b50604082015181600201908161127a9190614575565b5060608201518160030160006101000a81548173ffffffffffffffffffffffffffffffffffffffff021916908373ffffffffffffffffffffffffffffffffffffffff160217905550505060016000826040516112d69190614283565b908152602001604051809103902060006101000a81548160ff0219169083151502179055506002600081548092919061130e90613fa8565b91905055507fcc5dda9f229ec85a9cba7b77b10f747163021a72585eb11a0105a714c2a302e960405160405180910390a150565b6000815103611386576040517f08c379a000000000000000000000000000000000000000000000000000000000815260040161137d90614693565b60405180910390fd5b81600680549050116113cd576040517f08c379a00000000000000000000000000000000000000000000000000000000081526004016113c490613e5e565b60405180910390fd5b60006113d76130c5565b9050611456600684815481106113f0576113ef613e7e565b5b906000526020600020906004020160020180548060200260200160405190810160405280929190818152602001828054801561144b57602002820191906000526020600020905b815481526020019060010190808311611437575b5050505050826131d2565b611495576040517f08c379a000000000000000000000000000000000000000000000000000000000815260040161148c90614725565b60405180910390fd5b60076040518060a001604052806004548152602001600584815481106114be576114bd613e7e565b5b9060005260206000209060040201604051806080016040529081600082015481526020016001820180548060200260200160405190810160405280929190818152602001828054801561153057602002820191906000526020600020905b81548152602001906001019080831161151c575b5050505050815260200160028201805461154990613f48565b80601f016020809104026020016040519081016040528092919081815260200182805461157590613f48565b80156115c25780601f10611597576101008083540402835291602001916115c2565b820191906000526020600020905b8154815290600101906020018083116115a557829003601f168201915b505050505081526020016003820160009054906101000a900473ffffffffffffffffffffffffffffffffffffffff1673ffffffffffffffffffffffffffffffffffffffff1673ffffffffffffffffffffffffffffffffffffffff168152505081526020018481526020014281526020016000151581525090806001815401808255809150506001900390600052602060002090600802016000909190919091506000820151816000015560208201518160010160008201518160000155602082015181600101908051906020019061169b9291906132ca565b5060408201518160020190816116b19190614575565b5060608201518160030160006101000a81548173ffffffffffffffffffffffffffffffffffffffff021916908373ffffffffffffffffffffffffffffffffffffffff160217905550505060408201518160050190816117109190614575565b506060820151816006015560808201518160070160006101000a81548160ff02191690831515021790555050506006838154811061175157611750613e7e565b5b906000526020600020906004020160030160045490806001815401808255809150506001900390600052602060002001600090919091909150556004600081548092919061179e90613fa8565b91905055507f27276df2065752ae77c089feff5cdd46e3617227489882edbb634b6df7a57fc260405160405180910390a17f2e98287333723b369daeb64a58f5743debe818ede93b5542e039f56bee6a360860405160405180910390a17fbbac1ec35bd0bd086e058de425cf277c90487b50162579172d2455ea278f5680336005838154811061183157611830613e7e565b5b9060005260206000209060040201600201846040516118529392919061477e565b60405180910390a1505050565b60006118696130c5565b905081600680549050116118b2576040517f08c379a00000000000000000000000000000000000000000000000000000000081526004016118a990613e5e565b60405180910390fd5b61192f600683815481106118c9576118c8613e7e565b5b906000526020600020906004020160020180548060200260200160405190810160405280929190818152602001828054801561192457602002820191906000526020600020905b815481526020019060010190808311611910575b5050505050826131d2565b61196e576040517f08c379a000000000000000000000000000000000000000000000000000000000815260040161196590613ef9565b60405180910390fd5b60005b6006838154811061198557611984613e7e565b5b906000526020600020906004020160020180549050811015611b035781600684815481106119b6576119b5613e7e565b5b906000526020600020906004020160020182815481106119d9576119d8613e7e565b5b906000526020600020015403611af057600683815481106119fd576119fc613e7e565b5b9060005260206000209060040201600201600160068581548110611a2457611a23613e7e565b5b906000526020600020906004020160020180549050611a4391906147c3565b81548110611a5457611a53613e7e565b5b906000526020600020015460068481548110611a7357611a72613e7e565b5b90600052602060002090600402016002018281548110611a9657611a95613e7e565b5b906000526020600020018190555060068381548110611ab857611ab7613e7e565b5b9060005260206000209060040201600201805480611ad957611ad86147f7565b5b600190038181906000526020600020016000905590555b8080611afb90613fa8565b915050611971565b5060005b60058281548110611b1b57611b1a613e7e565b5b906000526020600020906004020160010180549050811015611c99578260058381548110611b4c57611b4b613e7e565b5b90600052602060002090600402016001018281548110611b6f57611b6e613e7e565b5b906000526020600020015403611c865760058281548110611b9357611b92613e7e565b5b9060005260206000209060040201600101600160058481548110611bba57611bb9613e7e565b5b906000526020600020906004020160010180549050611bd991906147c3565b81548110611bea57611be9613e7e565b5b906000526020600020015460058381548110611c0957611c08613e7e565b5b90600052602060002090600402016001018281548110611c2c57611c2b613e7e565b5b906000526020600020018190555060058281548110611c4e57611c4d613e7e565b5b9060005260206000209060040201600101805480611c6f57611c6e6147f7565b5b600190038181906000526020600020016000905590555b8080611c9190613fa8565b915050611b07565b50600060068381548110611cb057611caf613e7e565b5b90600052602060002090600402016002018054905003611f305760005b600780549050811015611e4a576000611d7e60068581548110611cf357611cf2613e7e565b5b9060005260206000209060040201600301805480602002602001604051908101604052809291908181526020018280548015611d4e57602002820191906000526020600020905b815481526020019060010190808311611d3a575b505050505060078481548110611d6757611d66613e7e565b5b9060005260206000209060080201600001546131d2565b90508015611e365760078281548110611d9a57611d99613e7e565b5b906000526020600020906008020160008082016000905560018201600080820160009055600182016000611dce9190613317565b600282016000611dde9190613338565b6003820160006101000a81549073ffffffffffffffffffffffffffffffffffffffff02191690555050600582016000611e179190613338565b60068201600090556007820160006101000a81549060ff021916905550505b508080611e4290613fa8565b915050611ccd565b506000600160068481548110611e6357611e62613e7e565b5b9060005260206000209060040201600101604051611e8191906148a9565b908152602001604051809103902060006101000a81548160ff02191690831515021790555060068281548110611eba57611eb9613e7e565b5b9060005260206000209060040201600080820160009055600182016000611ee19190613338565b600282016000611ef19190613317565b600382016000611f019190613317565b50507f2e98287333723b369daeb64a58f5743debe818ede93b5542e039f56bee6a360860405160405180910390a15b7fcc5dda9f229ec85a9cba7b77b10f747163021a72585eb11a0105a714c2a302e960405160405180910390a17f27276df2065752ae77c089feff5cdd46e3617227489882edbb634b6df7a57fc260405160405180910390a15050565b600080600090505b600580549050811015612036573373ffffffffffffffffffffffffffffffffffffffff1660058281548110611fcc57611fcb613e7e565b5b906000526020600020906004020160030160009054906101000a900473ffffffffffffffffffffffffffffffffffffffff1673ffffffffffffffffffffffffffffffffffffffff160361202357600191505061203c565b808061202e90613fa8565b915050611f94565b50600090505b90565b6000815103612083576040517f08c379a000000000000000000000000000000000000000000000000000000000815260040161207a90614693565b60405180910390fd5b6001816040516120939190614283565b908152602001604051809103902060009054906101000a900460ff16156120ef576040517f08c379a00000000000000000000000000000000000000000000000000000000081526004016120e69061490c565b60405180910390fd5b60006120f96130c5565b9050600660405180608001604052806003548152602001848152602001600067ffffffffffffffff81111561213157612130613786565b5b60405190808252806020026020018201604052801561215f5781602001602082028036833780820191505090505b508152602001600067ffffffffffffffff8111156121805761217f613786565b5b6040519080825280602002602001820160405280156121ae5781602001602082028036833780820191505090505b5081525090806001815401808255809150506001900390600052602060002090600402016000909190919091506000820151816000015560208201518160010190816121fa9190614575565b5060408201518160020190805190602001906122179291906132ca565b5060608201518160030190805190602001906122349291906132ca565b50505060066003548154811061224d5761224c613e7e565b5b90600052602060002090600402016002018190806001815401808255809150506001900390600052602060002001600090919091909150556005818154811061229957612298613e7e565b5b90600052602060002090600402016001016003549080600181540180825580915050600190039060005260206000200160009091909190915055600180836040516122e49190614283565b908152602001604051809103902060006101000a81548160ff0219169083151502179055506003600081548092919061231c90613fa8565b91905055507f27276df2065752ae77c089feff5cdd46e3617227489882edbb634b6df7a57fc260405160405180910390a15050565b600061235b6130c5565b905082600780549050116123a4576040517f08c379a000000000000000000000000000000000000000000000000000000000815260040161239b90614978565b60405180910390fd5b600783815481106123b8576123b7613e7e565b5b906000526020600020906008020160010160000154811461240e576040517f08c379a000000000000000000000000000000000000000000000000000000000815260040161240590614a0a565b60405180910390fd5b6000825103612452576040517f08c379a000000000000000000000000000000000000000000000000000000000815260040161244990614693565b60405180910390fd5b6040518060a001604052806007858154811061247157612470613e7e565b5b90600052602060002090600802016000015481526020016007858154811061249c5761249b613e7e565b5b9060005260206000209060080201600101604051806080016040529081600082015481526020016001820180548060200260200160405190810160405280929190818152602001828054801561251157602002820191906000526020600020905b8154815260200190600101908083116124fd575b5050505050815260200160028201805461252a90613f48565b80601f016020809104026020016040519081016040528092919081815260200182805461255690613f48565b80156125a35780601f10612578576101008083540402835291602001916125a3565b820191906000526020600020905b81548152906001019060200180831161258657829003601f168201915b505050505081526020016003820160009054906101000a900473ffffffffffffffffffffffffffffffffffffffff1673ffffffffffffffffffffffffffffffffffffffff1673ffffffffffffffffffffffffffffffffffffffff16815250508152602001838152602001428152602001600115158152506007848154811061262e5761262d613e7e565b5b9060005260206000209060080201600082015181600001556020820151816001016000820151816000015560208201518160010190805190602001906126759291906132ca565b50604082015181600201908161268b9190614575565b5060608201518160030160006101000a81548173ffffffffffffffffffffffffffffffffffffffff021916908373ffffffffffffffffffffffffffffffffffffffff160217905550505060408201518160050190816126ea9190614575565b506060820151816006015560808201518160070160006101000a81548160ff0219169083151502179055509050507f2e98287333723b369daeb64a58f5743debe818ede93b5542e039f56bee6a360860405160405180910390a1505050565b8060078054905011612790576040517f08c379a000000000000000000000000000000000000000000000000000000000815260040161278790614978565b60405180910390fd5b600781815481106127a4576127a3613e7e565b5b9060005260206000209060080201600080820160009055600182016000808201600090556001820160006127d89190613317565b6002820160006127e89190613338565b6003820160006101000a81549073ffffffffffffffffffffffffffffffffffffffff021916905550506005820160006128219190613338565b60068201600090556007820160006101000a81549060ff021916905550507f2e98287333723b369daeb64a58f5743debe818ede93b5542e039f56bee6a360860405160405180910390a150565b6060600061287a6130c5565b905082600680549050116128c3576040517f08c379a00000000000000000000000000000000000000000000000000000000081526004016128ba90613e5e565b60405180910390fd5b612940600684815481106128da576128d9613e7e565b5b906000526020600020906004020160020180548060200260200160405190810160405280929190818152602001828054801561293557602002820191906000526020600020905b815481526020019060010190808311612921575b5050505050826131d2565b61297f576040517f08c379a000000000000000000000000000000000000000000000000000000000815260040161297690613ef9565b60405180910390fd5b60006006848154811061299557612994613e7e565b5b90600052602060002090600402016002018054905067ffffffffffffffff8111156129c3576129c2613786565b5b6040519080825280602002602001820160405280156129fc57816020015b6129e961328c565b8152602001906001900390816129e15790505b509050600080600090505b600580549050811015612c78576000612ab860068881548110612a2d57612a2c613e7e565b5b9060005260206000209060040201600201805480602002602001604051908101604052809291908181526020018280548015612a8857602002820191906000526020600020905b815481526020019060010190808311612a74575b505050505060058481548110612aa157612aa0613e7e565b5b9060005260206000209060040201600001546131d2565b90508015612c645760058281548110612ad457612ad3613e7e565b5b90600052602060002090600402016040518060800160405290816000820154815260200160018201805480602002602001604051908101604052809291908181526020018280548015612b4657602002820191906000526020600020905b815481526020019060010190808311612b32575b50505050508152602001600282018054612b5f90613f48565b80601f0160208091040260200160405190810160405280929190818152602001828054612b8b90613f48565b8015612bd85780601f10612bad57610100808354040283529160200191612bd8565b820191906000526020600020905b815481529060010190602001808311612bbb57829003601f168201915b505050505081526020016003820160009054906101000a900473ffffffffffffffffffffffffffffffffffffffff1673ffffffffffffffffffffffffffffffffffffffff1673ffffffffffffffffffffffffffffffffffffffff1681525050848481518110612c4a57612c49613e7e565b5b60200260200101819052508280612c6090613fa8565b9350505b508080612c7090613fa8565b915050612a07565b50819350505050919050565b60606005805480602002602001604051908101604052809291908181526020016000905b82821015612e2457838290600052602060002090600402016040518060800160405290816000820154815260200160018201805480602002602001604051908101604052809291908181526020018280548015612d2457602002820191906000526020600020905b815481526020019060010190808311612d10575b50505050508152602001600282018054612d3d90613f48565b80601f0160208091040260200160405190810160405280929190818152602001828054612d6990613f48565b8015612db65780601f10612d8b57610100808354040283529160200191612db6565b820191906000526020600020905b815481529060010190602001808311612d9957829003601f168201915b505050505081526020016003820160009054906101000a900473ffffffffffffffffffffffffffffffffffffffff1673ffffffffffffffffffffffffffffffffffffffff1673ffffffffffffffffffffffffffffffffffffffff168152505081526020019060010190612ca8565b50505050905090565b612e35613264565b6000612e3f6130c5565b90508260068054905011612e88576040517f08c379a0000000000000000000000000000000000000000000000000000000008152600401612e7f90613e5e565b60405180910390fd5b612f0560068481548110612e9f57612e9e613e7e565b5b9060005260206000209060040201600201805480602002602001604051908101604052809291908181526020018280548015612efa57602002820191906000526020600020905b815481526020019060010190808311612ee6575b5050505050826131d2565b612f44576040517f08c379a0000000000000000000000000000000000000000000000000000000008152600401612f3b90614062565b60405180910390fd5b60068381548110612f5857612f57613e7e565b5b906000526020600020906004020160405180608001604052908160008201548152602001600182018054612f8b90613f48565b80601f0160208091040260200160405190810160405280929190818152602001828054612fb790613f48565b80156130045780601f10612fd957610100808354040283529160200191613004565b820191906000526020600020905b815481529060010190602001808311612fe757829003601f168201915b505050505081526020016002820180548060200260200160405190810160405280929190818152602001828054801561305c57602002820191906000526020600020905b815481526020019060010190808311613048575b50505050508152602001600382018054806020026020016040519081016040528092919081815260200182805480156130b457602002820191906000526020600020905b8154815260200190600101908083116130a0575b505050505081525050915050919050565b600080600090505b600580549050811015613193573373ffffffffffffffffffffffffffffffffffffffff166005828154811061310557613104613e7e565b5b906000526020600020906004020160030160009054906101000a900473ffffffffffffffffffffffffffffffffffffffff1673ffffffffffffffffffffffffffffffffffffffff1603613180576005818154811061316657613165613e7e565b5b9060005260206000209060040201600001549150506131cf565b808061318b90613fa8565b9150506130cd565b506040517f08c379a00000000000000000000000000000000000000000000000000000000081526004016131c690614a76565b60405180910390fd5b90565b600080600090505b835181101561322157828482815181106131f7576131f6613e7e565b5b60200260200101510361320e576001915050613227565b808061321990613fa8565b9150506131da565b50600090505b92915050565b6040518060a001604052806000815260200161324761328c565b815260200160608152602001600081526020016000151581525090565b6040518060800160405280600081526020016060815260200160608152602001606081525090565b6040518060800160405280600081526020016060815260200160608152602001600073ffffffffffffffffffffffffffffffffffffffff1681525090565b828054828255906000526020600020908101928215613306579160200282015b828111156133055782518255916020019190600101906132ea565b5b5090506133139190613378565b5090565b50805460008255906000526020600020908101906133359190613378565b50565b50805461334490613f48565b6000825580601f106133565750613375565b601f0160209004906000526020600020908101906133749190613378565b5b50565b5b80821115613391576000816000905550600101613379565b5090565b6000604051905090565b600080fd5b600080fd5b6000819050919050565b6133bc816133a9565b81146133c757600080fd5b50565b6000813590506133d9816133b3565b92915050565b6000602082840312156133f5576133f461339f565b5b6000613403848285016133ca565b91505092915050565b600081519050919050565b600082825260208201905092915050565b6000819050602082019050919050565b613441816133a9565b82525050565b600081519050919050565b600082825260208201905092915050565b6000819050602082019050919050565b600061347f8383613438565b60208301905092915050565b6000602082019050919050565b60006134a382613447565b6134ad8185613452565b93506134b883613463565b8060005b838110156134e95781516134d08882613473565b97506134db8361348b565b9250506001810190506134bc565b5085935050505092915050565b600081519050919050565b600082825260208201905092915050565b60005b83811015613530578082015181840152602081019050613515565b60008484015250505050565b6000601f19601f8301169050919050565b6000613558826134f6565b6135628185613501565b9350613572818560208601613512565b61357b8161353c565b840191505092915050565b600073ffffffffffffffffffffffffffffffffffffffff82169050919050565b60006135b182613586565b9050919050565b6135c1816135a6565b82525050565b60006080830160008301516135df6000860182613438565b50602083015184820360208601526135f78282613498565b91505060408301518482036040860152613611828261354d565b915050606083015161362660608601826135b8565b508091505092915050565b60008115159050919050565b61364681613631565b82525050565b600060a0830160008301516136646000860182613438565b506020830151848203602086015261367c82826135c7565b91505060408301518482036040860152613696828261354d565b91505060608301516136ab6060860182613438565b5060808301516136be608086018261363d565b508091505092915050565b60006136d5838361364c565b905092915050565b6000602082019050919050565b60006136f58261340c565b6136ff8185613417565b93508360208202850161371185613428565b8060005b8581101561374d578484038952815161372e85826136c9565b9450613739836136dd565b925060208a01995050600181019050613715565b50829750879550505050505092915050565b6000602082019050818103600083015261377981846136ea565b905092915050565b600080fd5b7f4e487b7100000000000000000000000000000000000000000000000000000000600052604160045260246000fd5b6137be8261353c565b810181811067ffffffffffffffff821117156137dd576137dc613786565b5b80604052505050565b60006137f0613395565b90506137fc82826137b5565b919050565b600067ffffffffffffffff82111561381c5761381b613786565b5b602082029050602081019050919050565b600080fd5b600061384561384084613801565b6137e6565b905080838252602082019050602084028301858111156138685761386761382d565b5b835b81811015613891578061387d88826133ca565b84526020840193505060208101905061386a565b5050509392505050565b600082601f8301126138b0576138af613781565b5b81356138c0848260208601613832565b91505092915050565b600080604083850312156138e0576138df61339f565b5b60006138ee858286016133ca565b925050602083013567ffffffffffffffff81111561390f5761390e6133a4565b5b61391b8582860161389b565b9150509250929050565b600081519050919050565b600082825260208201905092915050565b6000819050602082019050919050565b60006080830160008301516139696000860182613438565b5060208301518482036020860152613981828261354d565b9150506040830151848203604086015261399b8282613498565b915050606083015184820360608601526139b58282613498565b9150508091505092915050565b60006139ce8383613951565b905092915050565b6000602082019050919050565b60006139ee82613925565b6139f88185613930565b935083602082028501613a0a85613941565b8060005b85811015613a465784840389528151613a2785826139c2565b9450613a32836139d6565b925060208a01995050600181019050613a0e565b50829750879550505050505092915050565b60006020820190508181036000830152613a7281846139e3565b905092915050565b6000608083016000830151613a926000860182613438565b5060208301518482036020860152613aaa8282613498565b91505060408301518482036040860152613ac4828261354d565b9150506060830151613ad960608601826135b8565b508091505092915050565b60006020820190508181036000830152613afe8184613a7a565b905092915050565b600080fd5b600067ffffffffffffffff821115613b2657613b25613786565b5b613b2f8261353c565b9050602081019050919050565b82818337600083830152505050565b6000613b5e613b5984613b0b565b6137e6565b905082815260208101848484011115613b7a57613b79613b06565b5b613b85848285613b3c565b509392505050565b600082601f830112613ba257613ba1613781565b5b8135613bb2848260208601613b4b565b91505092915050565b600060208284031215613bd157613bd061339f565b5b600082013567ffffffffffffffff811115613bef57613bee6133a4565b5b613bfb84828501613b8d565b91505092915050565b60008060408385031215613c1b57613c1a61339f565b5b6000613c29858286016133ca565b925050602083013567ffffffffffffffff811115613c4a57613c496133a4565b5b613c5685828601613b8d565b9150509250929050565b613c6981613631565b82525050565b6000602082019050613c846000830184613c60565b92915050565b600081519050919050565b600082825260208201905092915050565b6000819050602082019050919050565b6000613cc283836135c7565b905092915050565b6000602082019050919050565b6000613ce282613c8a565b613cec8185613c95565b935083602082028501613cfe85613ca6565b8060005b85811015613d3a5784840389528151613d1b8582613cb6565b9450613d2683613cca565b925060208a01995050600181019050613d02565b50829750879550505050505092915050565b60006020820190508181036000830152613d668184613cd7565b905092915050565b6000608083016000830151613d866000860182613438565b5060208301518482036020860152613d9e828261354d565b91505060408301518482036040860152613db88282613498565b91505060608301518482036060860152613dd28282613498565b9150508091505092915050565b60006020820190508181036000830152613df98184613d6e565b905092915050565b600082825260208201905092915050565b7f4368617420646f6573206e6f7420657869737421000000000000000000000000600082015250565b6000613e48601483613e01565b9150613e5382613e12565b602082019050919050565b60006020820190508181036000830152613e7781613e3b565b9050919050565b7f4e487b7100000000000000000000000000000000000000000000000000000000600052603260045260246000fd5b7f53656e646572206d757374206265206d75737420626520696e20636861742100600082015250565b6000613ee3601f83613e01565b9150613eee82613ead565b602082019050919050565b60006020820190508181036000830152613f1281613ed6565b9050919050565b7f4e487b7100000000000000000000000000000000000000000000000000000000600052602260045260246000fd5b60006002820490506001821680613f6057607f821691505b602082108103613f7357613f72613f19565b5b50919050565b7f4e487b7100000000000000000000000000000000000000000000000000000000600052601160045260246000fd5b6000613fb3826133a9565b91507fffffffffffffffffffffffffffffffffffffffffffffffffffffffffffffffff8203613fe557613fe4613f79565b5b600182019050919050565b7f53656e646572206d757374206265206d75737420626520696e20636861742c2060008201527f6f722063686174207761732064656c6574656421000000000000000000000000602082015250565b600061404c603483613e01565b915061405782613ff0565b604082019050919050565b6000602082019050818103600083015261407b8161403f565b9050919050565b7f55736572206964206973206e6f7420666f756e64210000000000000000000000600082015250565b60006140b8601583613e01565b91506140c382614082565b602082019050919050565b600060208201905081810360008301526140e7816140ab565b9050919050565b7f416c6c2075736572732061726520616c726561647920696e2063686174210000600082015250565b6000614124601e83613e01565b915061412f826140ee565b602082019050919050565b6000602082019050818103600083015261415381614117565b9050919050565b614163816135a6565b82525050565b60008190508160005260206000209050919050565b6000815461418b81613f48565b6141958186613e01565b945060018216600081146141b057600181146141c6576141f9565b60ff1983168652811515602002860193506141f9565b6141cf85614169565b60005b838110156141f1578154818901526001820191506020810190506141d2565b808801955050505b50505092915050565b6000606082019050614217600083018661415a565b8181036020830152614229818561417e565b9050818103604083015261423d818461417e565b9050949350505050565b600081905092915050565b600061425d826134f6565b6142678185614247565b9350614277818560208601613512565b80840191505092915050565b600061428f8284614252565b915081905092915050565b7f5468697320757365726e616d6520697320616c72656164792074616b656e0000600082015250565b60006142d0601e83613e01565b91506142db8261429a565b602082019050919050565b600060208201905081810360008301526142ff816142c3565b9050919050565b7f5573657220616c72656164792065786973747321000000000000000000000000600082015250565b600061433c601483613e01565b915061434782614306565b602082019050919050565b6000602082019050818103600083015261436b8161432f565b9050919050565b7f757365726e616d652073686f756c642065786973742100000000000000000000600082015250565b60006143a8601683613e01565b91506143b382614372565b602082019050919050565b600060208201905081810360008301526143d78161439b565b9050919050565b60006020601f8301049050919050565b600082821b905092915050565b60006008830261442b7fffffffffffffffffffffffffffffffffffffffffffffffffffffffffffffffff826143ee565b61443586836143ee565b95508019841693508086168417925050509392505050565b6000819050919050565b600061447261446d614468846133a9565b61444d565b6133a9565b9050919050565b6000819050919050565b61448c83614457565b6144a061449882614479565b8484546143fb565b825550505050565b600090565b6144b56144a8565b6144c0818484614483565b505050565b5b818110156144e4576144d96000826144ad565b6001810190506144c6565b5050565b601f821115614529576144fa81614169565b614503846143de565b81016020851015614512578190505b61452661451e856143de565b8301826144c5565b50505b505050565b600082821c905092915050565b600061454c6000198460080261452e565b1980831691505092915050565b6000614565838361453b565b9150826002028217905092915050565b61457e826134f6565b67ffffffffffffffff81111561459757614596613786565b5b6145a18254613f48565b6145ac8282856144e8565b600060209050601f8311600181146145df57600084156145cd578287015190505b6145d78582614559565b86555061463f565b601f1984166145ed86614169565b60005b82811015614615578489015182556001820191506020850194506020810190506145f0565b86831015614632578489015161462e601f89168261453b565b8355505b6001600288020188555050505b505050505050565b7f546578742073686f756c64206578697374210000000000000000000000000000600082015250565b600061467d601283613e01565b915061468882614647565b602082019050919050565b600060208201905081810360008301526146ac81614670565b9050919050565b7f53656e646572206d757374206265206d75737420626520696e2063686174206f60008201527f722063686174207761732064656c657465642100000000000000000000000000602082015250565b600061470f603383613e01565b915061471a826146b3565b604082019050919050565b6000602082019050818103600083015261473e81614702565b9050919050565b6000614750826134f6565b61475a8185613e01565b935061476a818560208601613512565b6147738161353c565b840191505092915050565b6000606082019050614793600083018661415a565b81810360208301526147a5818561417e565b905081810360408301526147b98184614745565b9050949350505050565b60006147ce826133a9565b91506147d9836133a9565b92508282039050818111156147f1576147f0613f79565b5b92915050565b7f4e487b7100000000000000000000000000000000000000000000000000000000600052603160045260246000fd5b6000815461483381613f48565b61483d8186614247565b94506001821660008114614858576001811461486d576148a0565b60ff19831686528115158202860193506148a0565b61487685614169565b60005b8381101561489857815481890152600182019150602081019050614879565b838801955050505b50505092915050565b60006148b58284614826565b915081905092915050565b7f546869732063686174206e616d6520697320616c72656164792074616b656e00600082015250565b60006148f6601f83613e01565b9150614901826148c0565b602082019050919050565b60006020820190508181036000830152614925816148e9565b9050919050565b7f4d65737361676520646f6573206e6f7420657869737421000000000000000000600082015250565b6000614962601783613e01565b915061496d8261492c565b602082019050919050565b6000602082019050818103600083015261499181614955565b9050919050565b7f53656e646572206d757374206265206f776e6572206f6620746865206d65737360008201527f616765206f7220746865206d657373616765207761732064656c657465642100602082015250565b60006149f4603f83613e01565b91506149ff82614998565b604082019050919050565b60006020820190508181036000830152614a23816149e7565b9050919050565b7f55736572206e6f7420666f756e64210000000000000000000000000000000000600082015250565b6000614a60600f83613e01565b9150614a6b82614a2a565b602082019050919050565b60006020820190508181036000830152614a8f81614a53565b905091905056fea2646970667358221220676adbb4e17815f9b4b172758a45a51be12f6a29219fb8e353ed87c8b041d83864736f6c63430008110033",
  "immutableReferences": {},
  "source": "// SPDX-License-Identifier: GPL-3.0\r\npragma solidity >=0.7.0 <0.9.0;\r\n\r\ncontract Messenger {\r\n    struct User {\r\n        uint256 id;\r\n        uint256[] chatsId;\r\n        string username;\r\n        address userAddress;\r\n    }\r\n\r\n    struct Message {\r\n        uint256 id;\r\n        User owner;\r\n        string text;\r\n        uint256 changedAt;\r\n        bool isChanged;\r\n    }\r\n\r\n    struct Chat {\r\n        uint256 id;\r\n        string chatName;\r\n        uint256[] usersId;\r\n        uint256[] messagesId;\r\n    }\r\n\r\n    mapping(string => bool) private _isUsernameTaken;\r\n    mapping(string => bool) private _isChatNameTaken;\r\n\r\n    uint256 private _numberOfUsers;\r\n    uint256 private _numberOfChats;\r\n    uint256 private _numberOfMessages;\r\n\r\n    User[] private _userArray;\r\n    Chat[] private _chatArray;\r\n    Message[] private _messageArray;\r\n\r\n    //EVENTS============================================\r\n\r\n    event UsersChanged();\r\n    event ChatsChanged();\r\n    event MessagesChanged();\r\n\r\n    event newMessageEvent(\r\n        address senderAddress,\r\n        string senderUsername,\r\n        string message\r\n    );\r\n    event newChatEvent(\r\n        address senderAddress,\r\n        string senderUsername,\r\n        string chatName\r\n    );\r\n\r\n    //USER==============================================\r\n\r\n    function doesUserExist() public view returns (bool) {\r\n        for (uint256 i = 0; i < _userArray.length; i++) {\r\n            if (_userArray[i].userAddress == msg.sender) {\r\n                return true;\r\n            }\r\n        }\r\n\r\n        return false;\r\n    }\r\n\r\n    function createUser(string memory username) external {\r\n        require(!_isUsernameTaken[username], 'This username is already taken');\r\n        require(!doesUserExist(), 'User already exists!');\r\n        require(bytes(username).length != 0, 'username should exist!');\r\n\r\n        _userArray.push(\r\n            User({\r\n        id : _numberOfUsers,\r\n        chatsId : new uint256[](0),\r\n        username : username,\r\n        userAddress : msg.sender\r\n        })\r\n        );\r\n\r\n        _isUsernameTaken[username] = true;\r\n\r\n        _numberOfUsers++;\r\n\r\n        emit UsersChanged();\r\n    }\r\n\r\n    function getCurrentUser() external view returns (User memory) {\r\n        uint256 senderId = _getUserIdByAddress();\r\n\r\n        return _userArray[senderId];\r\n    }\r\n\r\n    function getAllUsers() external view returns (User[] memory) {\r\n        return _userArray;\r\n    }\r\n\r\n    //CHAT==============================================\r\n\r\n    function createChat(string memory chatName) external {\r\n        require(bytes(chatName).length != 0, 'Text should exist!');\r\n        require(!_isChatNameTaken[chatName], 'This chat name is already taken');\r\n\r\n        uint256 senderId = _getUserIdByAddress();\r\n\r\n        _chatArray.push(\r\n            Chat({\r\n        id : _numberOfChats,\r\n        chatName : chatName,\r\n        usersId : new uint256[](0),\r\n        messagesId : new uint256[](0)\r\n        })\r\n        );\r\n\r\n        _chatArray[_numberOfChats].usersId.push(senderId);\r\n        _userArray[senderId].chatsId.push(_numberOfChats);\r\n\r\n        _isChatNameTaken[chatName] = true;\r\n\r\n        _numberOfChats++;\r\n\r\n        emit ChatsChanged();\r\n    }\r\n\r\n    function addUsersToChat(uint256 chatId, uint256[] memory newUsersId)\r\n    external\r\n    {\r\n        uint256 senderId = _getUserIdByAddress();\r\n        bool isAnyUserAdded = false;\r\n\r\n        require(_chatArray.length > chatId, 'Chat does not exist!');\r\n        require(\r\n            _isIndexInArray(_chatArray[chatId].usersId, senderId),\r\n            'Sender must be must be in chat, or chat was deleted!'\r\n        );\r\n\r\n        //check if newUserId array is valid\r\n        for (uint256 i = 0; i < newUsersId.length; i++) {\r\n            bool isUserFound = false;\r\n\r\n            for (uint256 j = 0; j < _userArray.length; j++) {\r\n                if (newUsersId[i] == _userArray[j].id) {\r\n                    isUserFound = true;\r\n                }\r\n            }\r\n\r\n            require(isUserFound, 'User id is not found!');\r\n            isUserFound = false;\r\n        }\r\n\r\n        for (uint256 i = 0; i < newUsersId.length; i++) {\r\n            bool isUserInChat = _isIndexInArray(\r\n                _chatArray[chatId].usersId,\r\n                newUsersId[i]\r\n            );\r\n\r\n            if (!isUserInChat) {\r\n                _chatArray[chatId].usersId.push(newUsersId[i]);\r\n                _userArray[newUsersId[i]].chatsId.push(chatId);\r\n\r\n                isAnyUserAdded = true;\r\n            }\r\n        }\r\n\r\n        if (!isAnyUserAdded) {\r\n            revert('All users are already in chat!');\r\n        }\r\n\r\n        emit UsersChanged();\r\n        emit ChatsChanged();\r\n        emit newChatEvent(\r\n            msg.sender,\r\n            _userArray[senderId].username,\r\n            _chatArray[chatId].chatName\r\n        );\r\n    }\r\n\r\n    function getChat(uint256 chatId) external view returns (Chat memory) {\r\n        uint256 senderId = _getUserIdByAddress();\r\n\r\n        require(_chatArray.length > chatId, 'Chat does not exist!');\r\n        require(\r\n            _isIndexInArray(_chatArray[chatId].usersId, senderId),\r\n            'Sender must be must be in chat, or chat was deleted!'\r\n        );\r\n\r\n        return _chatArray[chatId];\r\n    }\r\n\r\n    function getAllUserChats() external view returns (Chat[] memory) {\r\n        uint256 senderId = _getUserIdByAddress();\r\n\r\n        Chat[] memory newUserChats = new Chat[](\r\n            _userArray[senderId].chatsId.length\r\n        );\r\n        uint256 userChatsIdx;\r\n\r\n        for (uint256 i = 0; i < _userArray[senderId].chatsId.length; i++) {\r\n            newUserChats[userChatsIdx] = _chatArray[_userArray[senderId].chatsId[i]];\r\n            userChatsIdx++;\r\n        }\r\n\r\n        return newUserChats;\r\n    }\r\n\r\n    function getAllUsersInChat(uint256 chatId)\r\n    external\r\n    view\r\n    returns (User[] memory)\r\n    {\r\n        uint256 senderId = _getUserIdByAddress();\r\n\r\n        require(_chatArray.length > chatId, 'Chat does not exist!');\r\n        require(\r\n            _isIndexInArray(_chatArray[chatId].usersId, senderId),\r\n            'Sender must be must be in chat!'\r\n        );\r\n\r\n        User[] memory newUsers = new User[](_chatArray[chatId].usersId.length);\r\n        uint256 userIdx;\r\n\r\n        for (uint256 i = 0; i < _userArray.length; i++) {\r\n            bool isUserInChat = _isIndexInArray(\r\n                _chatArray[chatId].usersId,\r\n                _userArray[i].id\r\n            );\r\n\r\n            if (isUserInChat) {\r\n                newUsers[userIdx] = _userArray[i];\r\n                userIdx++;\r\n            }\r\n        }\r\n\r\n        return newUsers;\r\n    }\r\n\r\n    function leaveChat(uint256 chatId) external {\r\n        uint256 senderId = _getUserIdByAddress();\r\n\r\n        require(_chatArray.length > chatId, 'Chat does not exist!');\r\n        require(\r\n            _isIndexInArray(_chatArray[chatId].usersId, senderId),\r\n            'Sender must be must be in chat!'\r\n        );\r\n\r\n        //Erase user from chat\r\n        for (uint256 i; i < _chatArray[chatId].usersId.length; i++) {\r\n            if (_chatArray[chatId].usersId[i] == senderId) {\r\n                _chatArray[chatId].usersId[i] = _chatArray[chatId].usersId[\r\n                _chatArray[chatId].usersId.length - 1\r\n                ];\r\n                _chatArray[chatId].usersId.pop();\r\n            }\r\n        }\r\n\r\n        //Erase chat from user\r\n        for (uint256 i; i < _userArray[senderId].chatsId.length; i++) {\r\n            if (_userArray[senderId].chatsId[i] == chatId) {\r\n                _userArray[senderId].chatsId[i] = _userArray[senderId].chatsId[\r\n                _userArray[senderId].chatsId.length - 1\r\n                ];\r\n                _userArray[senderId].chatsId.pop();\r\n            }\r\n        }\r\n\r\n        //Erease chat and messages if no users\r\n        if (_chatArray[chatId].usersId.length == 0) {\r\n            for (uint256 i; i < _messageArray.length; i++) {\r\n                bool isMessageInChatsId = _isIndexInArray(\r\n                    _chatArray[chatId].messagesId,\r\n                    _messageArray[i].id\r\n                );\r\n\r\n                if (isMessageInChatsId) {\r\n                    delete _messageArray[i];\r\n                }\r\n            }\r\n\r\n            _isChatNameTaken[_chatArray[chatId].chatName] = false;\r\n            delete _chatArray[chatId];\r\n\r\n            emit MessagesChanged();\r\n        }\r\n\r\n        emit UsersChanged();\r\n        emit ChatsChanged();\r\n    }\r\n\r\n    //MESSAGE===========================================\r\n\r\n    function createMessage(uint256 chatId, string memory text) external {\r\n        require(bytes(text).length != 0, 'Text should exist!');\r\n        require(_chatArray.length > chatId, 'Chat does not exist!');\r\n\r\n        uint256 senderId = _getUserIdByAddress();\r\n\r\n        require(\r\n            _isIndexInArray(_chatArray[chatId].usersId, senderId),\r\n            'Sender must be must be in chat or chat was deleted!'\r\n        );\r\n\r\n        _messageArray.push(\r\n            Message({\r\n        id : _numberOfMessages,\r\n        owner : _userArray[senderId],\r\n        text : text,\r\n        changedAt : block.timestamp,\r\n        isChanged : false\r\n        })\r\n        );\r\n\r\n        _chatArray[chatId].messagesId.push(_numberOfMessages);\r\n\r\n        _numberOfMessages++;\r\n\r\n        emit ChatsChanged();\r\n        emit MessagesChanged();\r\n        emit newMessageEvent(msg.sender, _userArray[senderId].username, text);\r\n    }\r\n\r\n    function changeMessage(uint256 messageId, string memory text) external {\r\n        uint256 senderId = _getUserIdByAddress();\r\n\r\n        require(_messageArray.length > messageId, 'Message does not exist!');\r\n        require(\r\n            senderId == _messageArray[messageId].owner.id,\r\n            'Sender must be owner of the message or the message was deleted!'\r\n        );\r\n        require(bytes(text).length != 0, 'Text should exist!');\r\n\r\n        _messageArray[messageId] = Message({\r\n        id : _messageArray[messageId].id,\r\n        text : text,\r\n        changedAt : block.timestamp,\r\n        owner : _messageArray[messageId].owner,\r\n        isChanged : true\r\n        });\r\n\r\n        emit MessagesChanged();\r\n    }\r\n\r\n    function getAllMessagesInChat(uint256 chatId)\r\n    external\r\n    view\r\n    returns (Message[] memory)\r\n    {\r\n        uint256 senderId = _getUserIdByAddress();\r\n\r\n        require(_chatArray.length > chatId, 'Chat does not exist!');\r\n        require(\r\n            _isIndexInArray(_chatArray[chatId].usersId, senderId),\r\n            'Sender must be must be in chat!'\r\n        );\r\n\r\n        Message[] memory newMessageArray = new Message[](\r\n            _chatArray[chatId].messagesId.length\r\n        );\r\n        uint256 messagesIdx;\r\n\r\n        for (uint256 i = 0; i < _messageArray.length; i++) {\r\n            bool isMessageInChatsId = _isIndexInArray(\r\n                _chatArray[chatId].messagesId,\r\n                _messageArray[i].id\r\n            );\r\n\r\n            if (isMessageInChatsId) {\r\n                newMessageArray[messagesIdx] = _messageArray[i];\r\n\r\n                messagesIdx++;\r\n            }\r\n        }\r\n\r\n        return newMessageArray;\r\n    }\r\n\r\n    function deleteMessage(uint256 messageId) external {\r\n        require(_messageArray.length > messageId, 'Message does not exist!');\r\n\r\n        delete _messageArray[messageId];\r\n\r\n        emit MessagesChanged();\r\n    }\r\n\r\n    //UTILS=============================================\r\n\r\n    function _getUserIdByAddress() private view returns (uint256) {\r\n        for (uint256 i = 0; i < _userArray.length; i++) {\r\n            if (_userArray[i].userAddress == msg.sender) {\r\n                return _userArray[i].id;\r\n            }\r\n        }\r\n\r\n        revert('User not found!');\r\n    }\r\n\r\n    function _isIndexInArray(uint256[] memory arr, uint256 searchedIdx)\r\n    private\r\n    pure\r\n    returns (bool)\r\n    {\r\n        for (uint256 i = 0; i < arr.length; i++) {\r\n            if (arr[i] == searchedIdx) {\r\n                return true;\r\n            }\r\n        }\r\n\r\n        return false;\r\n    }\r\n}\r\n",
  "sourcePath": "C:\\Users\\anze1\\webdev\\web3\\projects\\eth_web3_messenger_extension\\contracts\\Messenger.sol",
  "compiler": {
    "name": "solc",
    "version": "0.8.17+commit.8df45f5f.Emscripten.clang"
  },
  "schemaVersion": "3.4.11",
  "updatedAt": "2023-02-12T18:54:03.404Z",
  "networkType": "ethereum",
  "devdoc": {
    "kind": "dev",
    "methods": {},
    "version": 1
  },
  "userdoc": {
    "kind": "user",
    "methods": {},
    "version": 1
  }
}