{
  "contractName": "Messenger",
  "abi": [
    {
      "anonymous": false,
      "inputs": [],
      "name": "ChatsChanged",
      "type": "event"
    },
    {
      "anonymous": false,
      "inputs": [],
      "name": "MessagesChanged",
      "type": "event"
    },
    {
      "anonymous": false,
      "inputs": [],
      "name": "UsersChanged",
      "type": "event"
    },
    {
      "anonymous": false,
      "inputs": [
        {
          "indexed": false,
          "internalType": "address",
          "name": "senderAddress",
          "type": "address"
        },
        {
          "indexed": false,
          "internalType": "string",
          "name": "senderUsername",
          "type": "string"
        },
        {
          "indexed": false,
          "internalType": "string",
          "name": "chatName",
          "type": "string"
        }
      ],
      "name": "newChatEvent",
      "type": "event"
    },
    {
      "anonymous": false,
      "inputs": [
        {
          "indexed": false,
          "internalType": "address",
          "name": "senderAddress",
          "type": "address"
        },
        {
          "indexed": false,
          "internalType": "string",
          "name": "senderUsername",
          "type": "string"
        },
        {
          "indexed": false,
          "internalType": "string",
          "name": "message",
          "type": "string"
        }
      ],
      "name": "newMessageEvent",
      "type": "event"
    },
    {
      "inputs": [],
      "name": "doesUserExist",
      "outputs": [
        {
          "internalType": "bool",
          "name": "",
          "type": "bool"
        }
      ],
      "stateMutability": "view",
      "type": "function",
      "constant": true
    },
    {
      "inputs": [
        {
          "internalType": "string",
          "name": "username",
          "type": "string"
        }
      ],
      "name": "createUser",
      "outputs": [],
      "stateMutability": "nonpayable",
      "type": "function"
    },
    {
      "inputs": [],
      "name": "getCurrentUser",
      "outputs": [
        {
          "components": [
            {
              "internalType": "uint256",
              "name": "id",
              "type": "uint256"
            },
            {
              "internalType": "uint256[]",
              "name": "chatsId",
              "type": "uint256[]"
            },
            {
              "internalType": "string",
              "name": "username",
              "type": "string"
            },
            {
              "internalType": "address",
              "name": "userAddress",
              "type": "address"
            }
          ],
          "internalType": "struct Messenger.User",
          "name": "",
          "type": "tuple"
        }
      ],
      "stateMutability": "view",
      "type": "function",
      "constant": true
    },
    {
      "inputs": [],
      "name": "getAllUsers",
      "outputs": [
        {
          "components": [
            {
              "internalType": "uint256",
              "name": "id",
              "type": "uint256"
            },
            {
              "internalType": "uint256[]",
              "name": "chatsId",
              "type": "uint256[]"
            },
            {
              "internalType": "string",
              "name": "username",
              "type": "string"
            },
            {
              "internalType": "address",
              "name": "userAddress",
              "type": "address"
            }
          ],
          "internalType": "struct Messenger.User[]",
          "name": "",
          "type": "tuple[]"
        }
      ],
      "stateMutability": "view",
      "type": "function",
      "constant": true
    },
    {
      "inputs": [
        {
          "internalType": "string",
          "name": "chatName",
          "type": "string"
        }
      ],
      "name": "createChat",
      "outputs": [],
      "stateMutability": "nonpayable",
      "type": "function"
    },
    {
      "inputs": [
        {
          "internalType": "uint256",
          "name": "chatId",
          "type": "uint256"
        },
        {
          "internalType": "uint256[]",
          "name": "newUsersId",
          "type": "uint256[]"
        }
      ],
      "name": "addUsersToChat",
      "outputs": [],
      "stateMutability": "nonpayable",
      "type": "function"
    },
    {
      "inputs": [
        {
          "internalType": "uint256",
          "name": "chatId",
          "type": "uint256"
        }
      ],
      "name": "getChat",
      "outputs": [
        {
          "components": [
            {
              "internalType": "uint256",
              "name": "id",
              "type": "uint256"
            },
            {
              "internalType": "string",
              "name": "chatName",
              "type": "string"
            },
            {
              "internalType": "uint256[]",
              "name": "usersId",
              "type": "uint256[]"
            },
            {
              "internalType": "uint256[]",
              "name": "messagesId",
              "type": "uint256[]"
            }
          ],
          "internalType": "struct Messenger.Chat",
          "name": "",
          "type": "tuple"
        }
      ],
      "stateMutability": "view",
      "type": "function",
      "constant": true
    },
    {
      "inputs": [],
      "name": "getAllUserChats",
      "outputs": [
        {
          "components": [
            {
              "internalType": "uint256",
              "name": "id",
              "type": "uint256"
            },
            {
              "internalType": "string",
              "name": "chatName",
              "type": "string"
            },
            {
              "internalType": "uint256[]",
              "name": "usersId",
              "type": "uint256[]"
            },
            {
              "internalType": "uint256[]",
              "name": "messagesId",
              "type": "uint256[]"
            }
          ],
          "internalType": "struct Messenger.Chat[]",
          "name": "",
          "type": "tuple[]"
        }
      ],
      "stateMutability": "view",
      "type": "function",
      "constant": true
    },
    {
      "inputs": [
        {
          "internalType": "uint256",
          "name": "chatId",
          "type": "uint256"
        }
      ],
      "name": "getAllUsersInChat",
      "outputs": [
        {
          "components": [
            {
              "internalType": "uint256",
              "name": "id",
              "type": "uint256"
            },
            {
              "internalType": "uint256[]",
              "name": "chatsId",
              "type": "uint256[]"
            },
            {
              "internalType": "string",
              "name": "username",
              "type": "string"
            },
            {
              "internalType": "address",
              "name": "userAddress",
              "type": "address"
            }
          ],
          "internalType": "struct Messenger.User[]",
          "name": "",
          "type": "tuple[]"
        }
      ],
      "stateMutability": "view",
      "type": "function",
      "constant": true
    },
    {
      "inputs": [
        {
          "internalType": "uint256",
          "name": "chatId",
          "type": "uint256"
        }
      ],
      "name": "leaveChat",
      "outputs": [],
      "stateMutability": "nonpayable",
      "type": "function"
    },
    {
      "inputs": [
        {
          "internalType": "uint256",
          "name": "chatId",
          "type": "uint256"
        },
        {
          "internalType": "string",
          "name": "text",
          "type": "string"
        }
      ],
      "name": "createMessage",
      "outputs": [],
      "stateMutability": "nonpayable",
      "type": "function"
    },
    {
      "inputs": [
        {
          "internalType": "uint256",
          "name": "messageId",
          "type": "uint256"
        },
        {
          "internalType": "string",
          "name": "text",
          "type": "string"
        }
      ],
      "name": "changeMessage",
      "outputs": [],
      "stateMutability": "nonpayable",
      "type": "function"
    },
    {
      "inputs": [
        {
          "internalType": "uint256",
          "name": "chatId",
          "type": "uint256"
        }
      ],
      "name": "getAllMessagesInChat",
      "outputs": [
        {
          "components": [
            {
              "internalType": "uint256",
              "name": "id",
              "type": "uint256"
            },
            {
              "components": [
                {
                  "internalType": "uint256",
                  "name": "id",
                  "type": "uint256"
                },
                {
                  "internalType": "uint256[]",
                  "name": "chatsId",
                  "type": "uint256[]"
                },
                {
                  "internalType": "string",
                  "name": "username",
                  "type": "string"
                },
                {
                  "internalType": "address",
                  "name": "userAddress",
                  "type": "address"
                }
              ],
              "internalType": "struct Messenger.User",
              "name": "owner",
              "type": "tuple"
            },
            {
              "internalType": "string",
              "name": "text",
              "type": "string"
            },
            {
              "internalType": "uint256",
              "name": "changedAt",
              "type": "uint256"
            },
            {
              "internalType": "bool",
              "name": "isChanged",
              "type": "bool"
            }
          ],
          "internalType": "struct Messenger.Message[]",
          "name": "",
          "type": "tuple[]"
        }
      ],
      "stateMutability": "view",
      "type": "function",
      "constant": true
    },
    {
      "inputs": [
        {
          "internalType": "uint256",
          "name": "messageId",
          "type": "uint256"
        }
      ],
      "name": "deleteMessage",
      "outputs": [],
      "stateMutability": "nonpayable",
      "type": "function"
    }
  ],
  "bytecode": "0x608060405234801561001057600080fd5b50614b64806100206000396000f3fe608060405234801561001057600080fd5b50600436106100ea5760003560e01c80639d9e36d81161008c578063b888690a11610066578063b888690a14610221578063d5c2e0cd1461023d578063e2842d791461026d578063f1f8fe2e1461028b576100ea565b80639d9e36d8146101cb578063a0488c2e146101e9578063a1786d1b14610205576100ea565b806343ae37c3116100c857806343ae37c314610159578063507ffba51461017757806352229eaa146101935780637edce7b2146101af576100ea565b806318cac089146100ef57806328f9c1b01461011f5780633d749bca1461013b575b600080fd5b61010960048036038101906101049190613477565b6102bb565b60405161011691906137f7565b60405180910390f35b61013960048036038101906101349190613961565b6107a6565b005b610143610c3f565b6040516101509190613af0565b60405180910390f35b610161610f08565b60405161016e9190613b7c565b60405180910390f35b610191600480360381019061018c9190613c53565b611126565b005b6101ad60048036038101906101a89190613c9c565b611428565b005b6101c960048036038101906101c49190613477565b611945565b005b6101d3612072565b6040516101e09190613d07565b60405180910390f35b61020360048036038101906101fe9190613c53565b6120d7565b005b61021f600480360381019061021a9190613c9c565b6123e9565b005b61023b60048036038101906102369190613477565b6127e1565b005b61025760048036038101906102529190613477565b612906565b6040516102649190613de4565b60405180910390f35b610275612d1c565b6040516102829190613de4565b60405180910390f35b6102a560048036038101906102a09190613477565b612ec5565b6040516102b29190613e77565b60405180910390f35b606060006102c761315d565b90508260078054905011610310576040517f08c379a000000000000000000000000000000000000000000000000000000000815260040161030790613ef6565b60405180910390fd5b61038d6007848154811061032757610326613f16565b5b906000526020600020906004020160020180548060200260200160405190810160405280929190818152602001828054801561038257602002820191906000526020600020905b81548152602001906001019080831161036e575b50505050508261326a565b6103cc576040517f08c379a00000000000000000000000000000000000000000000000000000000081526004016103c390613f91565b60405180910390fd5b6000600784815481106103e2576103e1613f16565b5b90600052602060002090600402016003018054905067ffffffffffffffff8111156104105761040f61381e565b5b60405190808252806020026020018201604052801561044957816020015b6104366132c5565b81526020019060019003908161042e5790505b509050600080600090505b60088054905081101561079a5760006105056007888154811061047a57610479613f16565b5b90600052602060002090600402016003018054806020026020016040519081016040528092919081815260200182805480156104d557602002820191906000526020600020905b8154815260200190600101908083116104c1575b5050505050600884815481106104ee576104ed613f16565b5b90600052602060002090600802016000015461326a565b90508015610786576008828154811061052157610520613f16565b5b90600052602060002090600802016040518060a0016040529081600082015481526020016001820160405180608001604052908160008201548152602001600182018054806020026020016040519081016040528092919081815260200182805480156105ad57602002820191906000526020600020905b815481526020019060010190808311610599575b505050505081526020016002820180546105c690613fe0565b80601f01602080910402602001604051908101604052809291908181526020018280546105f290613fe0565b801561063f5780601f106106145761010080835404028352916020019161063f565b820191906000526020600020905b81548152906001019060200180831161062257829003601f168201915b505050505081526020016003820160009054906101000a900473ffffffffffffffffffffffffffffffffffffffff1673ffffffffffffffffffffffffffffffffffffffff1673ffffffffffffffffffffffffffffffffffffffff168152505081526020016005820180546106b290613fe0565b80601f01602080910402602001604051908101604052809291908181526020018280546106de90613fe0565b801561072b5780601f106107005761010080835404028352916020019161072b565b820191906000526020600020905b81548152906001019060200180831161070e57829003601f168201915b50505050508152602001600682015481526020016007820160009054906101000a900460ff16151515158152505084848151811061076c5761076b613f16565b5b6020026020010181905250828061078290614040565b9350505b50808061079290614040565b915050610454565b50819350505050919050565b60006107b061315d565b9050600083600780549050116107fb576040517f08c379a00000000000000000000000000000000000000000000000000000000081526004016107f290613ef6565b60405180910390fd5b6108786007858154811061081257610811613f16565b5b906000526020600020906004020160020180548060200260200160405190810160405280929190818152602001828054801561086d57602002820191906000526020600020905b815481526020019060010190808311610859575b50505050508361326a565b6108b7576040517f08c379a00000000000000000000000000000000000000000000000000000000081526004016108ae906140fa565b60405180910390fd5b60005b835181101561098b576000805b60068054905081101561093257600681815481106108e8576108e7613f16565b5b90600052602060002090600402016000015486848151811061090d5761090c613f16565b5b60200260200101510361091f57600191505b808061092a90614040565b9150506108c7565b5080610973576040517f08c379a000000000000000000000000000000000000000000000000000000000815260040161096a90614166565b60405180910390fd5b6000905050808061098390614040565b9150506108ba565b5060005b8351811015610b1d576000610a31600787815481106109b1576109b0613f16565b5b9060005260206000209060040201600201805480602002602001604051908101604052809291908181526020018280548015610a0c57602002820191906000526020600020905b8154815260200190600101908083116109f8575b5050505050868481518110610a2457610a23613f16565b5b602002602001015161326a565b905080610b095760078681548110610a4c57610a4b613f16565b5b9060005260206000209060040201600201858381518110610a7057610a6f613f16565b5b602002602001015190806001815401808255809150506001900390600052602060002001600090919091909150556006858381518110610ab357610ab2613f16565b5b602002602001015181548110610acc57610acb613f16565b5b9060005260206000209060040201600101869080600181540180825580915050600190039060005260206000200160009091909190915055600192505b508080610b1590614040565b91505061098f565b5080610b5e576040517f08c379a0000000000000000000000000000000000000000000000000000000008152600401610b55906141d2565b60405180910390fd5b7fcc5dda9f229ec85a9cba7b77b10f747163021a72585eb11a0105a714c2a302e960405160405180910390a17f27276df2065752ae77c089feff5cdd46e3617227489882edbb634b6df7a57fc260405160405180910390a17f431d3f4ca51f6123efef4c56091d02b1caf4d7d32361eb5367f6a746dc7743c13360068481548110610bec57610beb613f16565b5b906000526020600020906004020160020160078781548110610c1157610c10613f16565b5b9060005260206000209060040201600101604051610c319392919061429a565b60405180910390a150505050565b60606000610c4b61315d565b9050600060068281548110610c6357610c62613f16565b5b90600052602060002090600402016001018054905067ffffffffffffffff811115610c9157610c9061381e565b5b604051908082528060200260200182016040528015610cca57816020015b610cb76132fc565b815260200190600190039081610caf5790505b509050600080600090505b60068481548110610ce957610ce8613f16565b5b906000526020600020906004020160010180549050811015610efe57600760068581548110610d1b57610d1a613f16565b5b90600052602060002090600402016001018281548110610d3e57610d3d613f16565b5b906000526020600020015481548110610d5a57610d59613f16565b5b906000526020600020906004020160405180608001604052908160008201548152602001600182018054610d8d90613fe0565b80601f0160208091040260200160405190810160405280929190818152602001828054610db990613fe0565b8015610e065780601f10610ddb57610100808354040283529160200191610e06565b820191906000526020600020905b815481529060010190602001808311610de957829003601f168201915b5050505050815260200160028201805480602002602001604051908101604052809291908181526020018280548015610e5e57602002820191906000526020600020905b815481526020019060010190808311610e4a575b5050505050815260200160038201805480602002602001604051908101604052809291908181526020018280548015610eb657602002820191906000526020600020905b815481526020019060010190808311610ea2575b505050505081525050838381518110610ed257610ed1613f16565b5b60200260200101819052508180610ee890614040565b9250508080610ef690614040565b915050610cd5565b5081935050505090565b610f10613324565b600260003373ffffffffffffffffffffffffffffffffffffffff1673ffffffffffffffffffffffffffffffffffffffff16815260200190815260200160002060009054906101000a900460ff1615610f9d576040517f08c379a0000000000000000000000000000000000000000000000000000000008152600401610f949061432b565b60405180910390fd5b6000610fa761315d565b905060068181548110610fbd57610fbc613f16565b5b9060005260206000209060040201604051806080016040529081600082015481526020016001820180548060200260200160405190810160405280929190818152602001828054801561102f57602002820191906000526020600020905b81548152602001906001019080831161101b575b5050505050815260200160028201805461104890613fe0565b80601f016020809104026020016040519081016040528092919081815260200182805461107490613fe0565b80156110c15780601f10611096576101008083540402835291602001916110c1565b820191906000526020600020905b8154815290600101906020018083116110a457829003601f168201915b505050505081526020016003820160009054906101000a900473ffffffffffffffffffffffffffffffffffffffff1673ffffffffffffffffffffffffffffffffffffffff1673ffffffffffffffffffffffffffffffffffffffff168152505091505090565b6000816040516111369190614387565b908152602001604051809103902060009054906101000a900460ff1615611192576040517f08c379a0000000000000000000000000000000000000000000000000000000008152600401611189906143ea565b60405180910390fd5b600260003373ffffffffffffffffffffffffffffffffffffffff1673ffffffffffffffffffffffffffffffffffffffff16815260200190815260200160002060009054906101000a900460ff161561121f576040517f08c379a000000000000000000000000000000000000000000000000000000000815260040161121690614456565b60405180910390fd5b600660405180608001604052806003548152602001600067ffffffffffffffff81111561124f5761124e61381e565b5b60405190808252806020026020018201604052801561127d5781602001602082028036833780820191505090505b5081526020018381526020013373ffffffffffffffffffffffffffffffffffffffff1681525090806001815401808255809150506001900390600052602060002090600402016000909190919091506000820151816000015560208201518160010190805190602001906112f2929190613362565b506040820151816002019081611308919061460d565b5060608201518160030160006101000a81548173ffffffffffffffffffffffffffffffffffffffff021916908373ffffffffffffffffffffffffffffffffffffffff160217905550505060016000826040516113649190614387565b908152602001604051809103902060006101000a81548160ff0219169083151502179055506003600081548092919061139c90614040565b91905055506001600260003373ffffffffffffffffffffffffffffffffffffffff1673ffffffffffffffffffffffffffffffffffffffff16815260200190815260200160002060006101000a81548160ff0219169083151502179055507fcc5dda9f229ec85a9cba7b77b10f747163021a72585eb11a0105a714c2a302e960405160405180910390a150565b600081510361146c576040517f08c379a00000000000000000000000000000000000000000000000000000000081526004016114639061472b565b60405180910390fd5b81600780549050116114b3576040517f08c379a00000000000000000000000000000000000000000000000000000000081526004016114aa90613ef6565b60405180910390fd5b60006114bd61315d565b905061153c600784815481106114d6576114d5613f16565b5b906000526020600020906004020160020180548060200260200160405190810160405280929190818152602001828054801561153157602002820191906000526020600020905b81548152602001906001019080831161151d575b50505050508261326a565b61157b576040517f08c379a0000000000000000000000000000000000000000000000000000000008152600401611572906147bd565b60405180910390fd5b60086040518060a001604052806005548152602001600684815481106115a4576115a3613f16565b5b9060005260206000209060040201604051806080016040529081600082015481526020016001820180548060200260200160405190810160405280929190818152602001828054801561161657602002820191906000526020600020905b815481526020019060010190808311611602575b5050505050815260200160028201805461162f90613fe0565b80601f016020809104026020016040519081016040528092919081815260200182805461165b90613fe0565b80156116a85780601f1061167d576101008083540402835291602001916116a8565b820191906000526020600020905b81548152906001019060200180831161168b57829003601f168201915b505050505081526020016003820160009054906101000a900473ffffffffffffffffffffffffffffffffffffffff1673ffffffffffffffffffffffffffffffffffffffff1673ffffffffffffffffffffffffffffffffffffffff1681525050815260200184815260200142815260200160001515815250908060018154018082558091505060019003906000526020600020906008020160009091909190915060008201518160000155602082015181600101600082015181600001556020820151816001019080519060200190611781929190613362565b506040820151816002019081611797919061460d565b5060608201518160030160006101000a81548173ffffffffffffffffffffffffffffffffffffffff021916908373ffffffffffffffffffffffffffffffffffffffff160217905550505060408201518160050190816117f6919061460d565b506060820151816006015560808201518160070160006101000a81548160ff02191690831515021790555050506007838154811061183757611836613f16565b5b906000526020600020906004020160030160055490806001815401808255809150506001900390600052602060002001600090919091909150556005600081548092919061188490614040565b91905055507f27276df2065752ae77c089feff5cdd46e3617227489882edbb634b6df7a57fc260405160405180910390a17f2e98287333723b369daeb64a58f5743debe818ede93b5542e039f56bee6a360860405160405180910390a17fbbac1ec35bd0bd086e058de425cf277c90487b50162579172d2455ea278f5680336006838154811061191757611916613f16565b5b90600052602060002090600402016002018460405161193893929190614816565b60405180910390a1505050565b600061194f61315d565b90508160078054905011611998576040517f08c379a000000000000000000000000000000000000000000000000000000000815260040161198f90613ef6565b60405180910390fd5b611a15600783815481106119af576119ae613f16565b5b9060005260206000209060040201600201805480602002602001604051908101604052809291908181526020018280548015611a0a57602002820191906000526020600020905b8154815260200190600101908083116119f6575b50505050508261326a565b611a54576040517f08c379a0000000000000000000000000000000000000000000000000000000008152600401611a4b90613f91565b60405180910390fd5b60005b60078381548110611a6b57611a6a613f16565b5b906000526020600020906004020160020180549050811015611be9578160078481548110611a9c57611a9b613f16565b5b90600052602060002090600402016002018281548110611abf57611abe613f16565b5b906000526020600020015403611bd65760078381548110611ae357611ae2613f16565b5b9060005260206000209060040201600201600160078581548110611b0a57611b09613f16565b5b906000526020600020906004020160020180549050611b29919061485b565b81548110611b3a57611b39613f16565b5b906000526020600020015460078481548110611b5957611b58613f16565b5b90600052602060002090600402016002018281548110611b7c57611b7b613f16565b5b906000526020600020018190555060078381548110611b9e57611b9d613f16565b5b9060005260206000209060040201600201805480611bbf57611bbe61488f565b5b600190038181906000526020600020016000905590555b8080611be190614040565b915050611a57565b5060005b60068281548110611c0157611c00613f16565b5b906000526020600020906004020160010180549050811015611d7f578260068381548110611c3257611c31613f16565b5b90600052602060002090600402016001018281548110611c5557611c54613f16565b5b906000526020600020015403611d6c5760068281548110611c7957611c78613f16565b5b9060005260206000209060040201600101600160068481548110611ca057611c9f613f16565b5b906000526020600020906004020160010180549050611cbf919061485b565b81548110611cd057611ccf613f16565b5b906000526020600020015460068381548110611cef57611cee613f16565b5b90600052602060002090600402016001018281548110611d1257611d11613f16565b5b906000526020600020018190555060068281548110611d3457611d33613f16565b5b9060005260206000209060040201600101805480611d5557611d5461488f565b5b600190038181906000526020600020016000905590555b8080611d7790614040565b915050611bed565b50600060078381548110611d9657611d95613f16565b5b906000526020600020906004020160020180549050036120165760005b600880549050811015611f30576000611e6460078581548110611dd957611dd8613f16565b5b9060005260206000209060040201600301805480602002602001604051908101604052809291908181526020018280548015611e3457602002820191906000526020600020905b815481526020019060010190808311611e20575b505050505060088481548110611e4d57611e4c613f16565b5b90600052602060002090600802016000015461326a565b90508015611f1c5760088281548110611e8057611e7f613f16565b5b906000526020600020906008020160008082016000905560018201600080820160009055600182016000611eb491906133af565b600282016000611ec491906133d0565b6003820160006101000a81549073ffffffffffffffffffffffffffffffffffffffff02191690555050600582016000611efd91906133d0565b60068201600090556007820160006101000a81549060ff021916905550505b508080611f2890614040565b915050611db3565b506000600160078481548110611f4957611f48613f16565b5b9060005260206000209060040201600101604051611f679190614941565b908152602001604051809103902060006101000a81548160ff02191690831515021790555060078281548110611fa057611f9f613f16565b5b9060005260206000209060040201600080820160009055600182016000611fc791906133d0565b600282016000611fd791906133af565b600382016000611fe791906133af565b50507f2e98287333723b369daeb64a58f5743debe818ede93b5542e039f56bee6a360860405160405180910390a15b7fcc5dda9f229ec85a9cba7b77b10f747163021a72585eb11a0105a714c2a302e960405160405180910390a17f27276df2065752ae77c089feff5cdd46e3617227489882edbb634b6df7a57fc260405160405180910390a15050565b6000600260003373ffffffffffffffffffffffffffffffffffffffff1673ffffffffffffffffffffffffffffffffffffffff16815260200190815260200160002060009054906101000a900460ff16156120cf57600190506120d4565b600090505b90565b600081510361211b576040517f08c379a00000000000000000000000000000000000000000000000000000000081526004016121129061472b565b60405180910390fd5b60018160405161212b9190614387565b908152602001604051809103902060009054906101000a900460ff1615612187576040517f08c379a000000000000000000000000000000000000000000000000000000000815260040161217e906149a4565b60405180910390fd5b600061219161315d565b9050600760405180608001604052806004548152602001848152602001600067ffffffffffffffff8111156121c9576121c861381e565b5b6040519080825280602002602001820160405280156121f75781602001602082028036833780820191505090505b508152602001600067ffffffffffffffff8111156122185761221761381e565b5b6040519080825280602002602001820160405280156122465781602001602082028036833780820191505090505b508152509080600181540180825580915050600190039060005260206000209060040201600090919091909150600082015181600001556020820151816001019081612292919061460d565b5060408201518160020190805190602001906122af929190613362565b5060608201518160030190805190602001906122cc929190613362565b5050506007600454815481106122e5576122e4613f16565b5b90600052602060002090600402016002018190806001815401808255809150506001900390600052602060002001600090919091909150556006818154811061233157612330613f16565b5b906000526020600020906004020160010160045490806001815401808255809150506001900390600052602060002001600090919091909150556001808360405161237c9190614387565b908152602001604051809103902060006101000a81548160ff021916908315150217905550600460008154809291906123b490614040565b91905055507f27276df2065752ae77c089feff5cdd46e3617227489882edbb634b6df7a57fc260405160405180910390a15050565b60006123f361315d565b9050826008805490501161243c576040517f08c379a000000000000000000000000000000000000000000000000000000000815260040161243390614a10565b60405180910390fd5b600883815481106124505761244f613f16565b5b90600052602060002090600802016001016000015481146124a6576040517f08c379a000000000000000000000000000000000000000000000000000000000815260040161249d90614aa2565b60405180910390fd5b60008251036124ea576040517f08c379a00000000000000000000000000000000000000000000000000000000081526004016124e19061472b565b60405180910390fd5b6040518060a001604052806008858154811061250957612508613f16565b5b90600052602060002090600802016000015481526020016008858154811061253457612533613f16565b5b906000526020600020906008020160010160405180608001604052908160008201548152602001600182018054806020026020016040519081016040528092919081815260200182805480156125a957602002820191906000526020600020905b815481526020019060010190808311612595575b505050505081526020016002820180546125c290613fe0565b80601f01602080910402602001604051908101604052809291908181526020018280546125ee90613fe0565b801561263b5780601f106126105761010080835404028352916020019161263b565b820191906000526020600020905b81548152906001019060200180831161261e57829003601f168201915b505050505081526020016003820160009054906101000a900473ffffffffffffffffffffffffffffffffffffffff1673ffffffffffffffffffffffffffffffffffffffff1673ffffffffffffffffffffffffffffffffffffffff1681525050815260200183815260200142815260200160011515815250600884815481106126c6576126c5613f16565b5b90600052602060002090600802016000820151816000015560208201518160010160008201518160000155602082015181600101908051906020019061270d929190613362565b506040820151816002019081612723919061460d565b5060608201518160030160006101000a81548173ffffffffffffffffffffffffffffffffffffffff021916908373ffffffffffffffffffffffffffffffffffffffff16021790555050506040820151816005019081612782919061460d565b506060820151816006015560808201518160070160006101000a81548160ff0219169083151502179055509050507f2e98287333723b369daeb64a58f5743debe818ede93b5542e039f56bee6a360860405160405180910390a1505050565b8060088054905011612828576040517f08c379a000000000000000000000000000000000000000000000000000000000815260040161281f90614a10565b60405180910390fd5b6008818154811061283c5761283b613f16565b5b90600052602060002090600802016000808201600090556001820160008082016000905560018201600061287091906133af565b60028201600061288091906133d0565b6003820160006101000a81549073ffffffffffffffffffffffffffffffffffffffff021916905550506005820160006128b991906133d0565b60068201600090556007820160006101000a81549060ff021916905550507f2e98287333723b369daeb64a58f5743debe818ede93b5542e039f56bee6a360860405160405180910390a150565b6060600061291261315d565b9050826007805490501161295b576040517f08c379a000000000000000000000000000000000000000000000000000000000815260040161295290613ef6565b60405180910390fd5b6129d86007848154811061297257612971613f16565b5b90600052602060002090600402016002018054806020026020016040519081016040528092919081815260200182805480156129cd57602002820191906000526020600020905b8154815260200190600101908083116129b9575b50505050508261326a565b612a17576040517f08c379a0000000000000000000000000000000000000000000000000000000008152600401612a0e90613f91565b60405180910390fd5b600060078481548110612a2d57612a2c613f16565b5b90600052602060002090600402016002018054905067ffffffffffffffff811115612a5b57612a5a61381e565b5b604051908082528060200260200182016040528015612a9457816020015b612a81613324565b815260200190600190039081612a795790505b509050600080600090505b600680549050811015612d10576000612b5060078881548110612ac557612ac4613f16565b5b9060005260206000209060040201600201805480602002602001604051908101604052809291908181526020018280548015612b2057602002820191906000526020600020905b815481526020019060010190808311612b0c575b505050505060068481548110612b3957612b38613f16565b5b90600052602060002090600402016000015461326a565b90508015612cfc5760068281548110612b6c57612b6b613f16565b5b90600052602060002090600402016040518060800160405290816000820154815260200160018201805480602002602001604051908101604052809291908181526020018280548015612bde57602002820191906000526020600020905b815481526020019060010190808311612bca575b50505050508152602001600282018054612bf790613fe0565b80601f0160208091040260200160405190810160405280929190818152602001828054612c2390613fe0565b8015612c705780601f10612c4557610100808354040283529160200191612c70565b820191906000526020600020905b815481529060010190602001808311612c5357829003601f168201915b505050505081526020016003820160009054906101000a900473ffffffffffffffffffffffffffffffffffffffff1673ffffffffffffffffffffffffffffffffffffffff1673ffffffffffffffffffffffffffffffffffffffff1681525050848481518110612ce257612ce1613f16565b5b60200260200101819052508280612cf890614040565b9350505b508080612d0890614040565b915050612a9f565b50819350505050919050565b60606006805480602002602001604051908101604052809291908181526020016000905b82821015612ebc57838290600052602060002090600402016040518060800160405290816000820154815260200160018201805480602002602001604051908101604052809291908181526020018280548015612dbc57602002820191906000526020600020905b815481526020019060010190808311612da8575b50505050508152602001600282018054612dd590613fe0565b80601f0160208091040260200160405190810160405280929190818152602001828054612e0190613fe0565b8015612e4e5780601f10612e2357610100808354040283529160200191612e4e565b820191906000526020600020905b815481529060010190602001808311612e3157829003601f168201915b505050505081526020016003820160009054906101000a900473ffffffffffffffffffffffffffffffffffffffff1673ffffffffffffffffffffffffffffffffffffffff1673ffffffffffffffffffffffffffffffffffffffff168152505081526020019060010190612d40565b50505050905090565b612ecd6132fc565b6000612ed761315d565b90508260078054905011612f20576040517f08c379a0000000000000000000000000000000000000000000000000000000008152600401612f1790613ef6565b60405180910390fd5b612f9d60078481548110612f3757612f36613f16565b5b9060005260206000209060040201600201805480602002602001604051908101604052809291908181526020018280548015612f9257602002820191906000526020600020905b815481526020019060010190808311612f7e575b50505050508261326a565b612fdc576040517f08c379a0000000000000000000000000000000000000000000000000000000008152600401612fd3906140fa565b60405180910390fd5b60078381548110612ff057612fef613f16565b5b90600052602060002090600402016040518060800160405290816000820154815260200160018201805461302390613fe0565b80601f016020809104026020016040519081016040528092919081815260200182805461304f90613fe0565b801561309c5780601f106130715761010080835404028352916020019161309c565b820191906000526020600020905b81548152906001019060200180831161307f57829003601f168201915b50505050508152602001600282018054806020026020016040519081016040528092919081815260200182805480156130f457602002820191906000526020600020905b8154815260200190600101908083116130e0575b505050505081526020016003820180548060200260200160405190810160405280929190818152602001828054801561314c57602002820191906000526020600020905b815481526020019060010190808311613138575b505050505081525050915050919050565b600080600090505b60068054905081101561322b573373ffffffffffffffffffffffffffffffffffffffff166006828154811061319d5761319c613f16565b5b906000526020600020906004020160030160009054906101000a900473ffffffffffffffffffffffffffffffffffffffff1673ffffffffffffffffffffffffffffffffffffffff160361321857600681815481106131fe576131fd613f16565b5b906000526020600020906004020160000154915050613267565b808061322390614040565b915050613165565b506040517f08c379a000000000000000000000000000000000000000000000000000000000815260040161325e90614b0e565b60405180910390fd5b90565b600080600090505b83518110156132b9578284828151811061328f5761328e613f16565b5b6020026020010151036132a65760019150506132bf565b80806132b190614040565b915050613272565b50600090505b92915050565b6040518060a00160405280600081526020016132df613324565b815260200160608152602001600081526020016000151581525090565b6040518060800160405280600081526020016060815260200160608152602001606081525090565b6040518060800160405280600081526020016060815260200160608152602001600073ffffffffffffffffffffffffffffffffffffffff1681525090565b82805482825590600052602060002090810192821561339e579160200282015b8281111561339d578251825591602001919060010190613382565b5b5090506133ab9190613410565b5090565b50805460008255906000526020600020908101906133cd9190613410565b50565b5080546133dc90613fe0565b6000825580601f106133ee575061340d565b601f01602090049060005260206000209081019061340c9190613410565b5b50565b5b80821115613429576000816000905550600101613411565b5090565b6000604051905090565b600080fd5b600080fd5b6000819050919050565b61345481613441565b811461345f57600080fd5b50565b6000813590506134718161344b565b92915050565b60006020828403121561348d5761348c613437565b5b600061349b84828501613462565b91505092915050565b600081519050919050565b600082825260208201905092915050565b6000819050602082019050919050565b6134d981613441565b82525050565b600081519050919050565b600082825260208201905092915050565b6000819050602082019050919050565b600061351783836134d0565b60208301905092915050565b6000602082019050919050565b600061353b826134df565b61354581856134ea565b9350613550836134fb565b8060005b83811015613581578151613568888261350b565b975061357383613523565b925050600181019050613554565b5085935050505092915050565b600081519050919050565b600082825260208201905092915050565b60005b838110156135c85780820151818401526020810190506135ad565b60008484015250505050565b6000601f19601f8301169050919050565b60006135f08261358e565b6135fa8185613599565b935061360a8185602086016135aa565b613613816135d4565b840191505092915050565b600073ffffffffffffffffffffffffffffffffffffffff82169050919050565b60006136498261361e565b9050919050565b6136598161363e565b82525050565b600060808301600083015161367760008601826134d0565b506020830151848203602086015261368f8282613530565b915050604083015184820360408601526136a982826135e5565b91505060608301516136be6060860182613650565b508091505092915050565b60008115159050919050565b6136de816136c9565b82525050565b600060a0830160008301516136fc60008601826134d0565b5060208301518482036020860152613714828261365f565b9150506040830151848203604086015261372e82826135e5565b915050606083015161374360608601826134d0565b50608083015161375660808601826136d5565b508091505092915050565b600061376d83836136e4565b905092915050565b6000602082019050919050565b600061378d826134a4565b61379781856134af565b9350836020820285016137a9856134c0565b8060005b858110156137e557848403895281516137c68582613761565b94506137d183613775565b925060208a019950506001810190506137ad565b50829750879550505050505092915050565b600060208201905081810360008301526138118184613782565b905092915050565b600080fd5b7f4e487b7100000000000000000000000000000000000000000000000000000000600052604160045260246000fd5b613856826135d4565b810181811067ffffffffffffffff821117156138755761387461381e565b5b80604052505050565b600061388861342d565b9050613894828261384d565b919050565b600067ffffffffffffffff8211156138b4576138b361381e565b5b602082029050602081019050919050565b600080fd5b60006138dd6138d884613899565b61387e565b90508083825260208201905060208402830185811115613900576138ff6138c5565b5b835b8181101561392957806139158882613462565b845260208401935050602081019050613902565b5050509392505050565b600082601f83011261394857613947613819565b5b81356139588482602086016138ca565b91505092915050565b6000806040838503121561397857613977613437565b5b600061398685828601613462565b925050602083013567ffffffffffffffff8111156139a7576139a661343c565b5b6139b385828601613933565b9150509250929050565b600081519050919050565b600082825260208201905092915050565b6000819050602082019050919050565b6000608083016000830151613a0160008601826134d0565b5060208301518482036020860152613a1982826135e5565b91505060408301518482036040860152613a338282613530565b91505060608301518482036060860152613a4d8282613530565b9150508091505092915050565b6000613a6683836139e9565b905092915050565b6000602082019050919050565b6000613a86826139bd565b613a9081856139c8565b935083602082028501613aa2856139d9565b8060005b85811015613ade5784840389528151613abf8582613a5a565b9450613aca83613a6e565b925060208a01995050600181019050613aa6565b50829750879550505050505092915050565b60006020820190508181036000830152613b0a8184613a7b565b905092915050565b6000608083016000830151613b2a60008601826134d0565b5060208301518482036020860152613b428282613530565b91505060408301518482036040860152613b5c82826135e5565b9150506060830151613b716060860182613650565b508091505092915050565b60006020820190508181036000830152613b968184613b12565b905092915050565b600080fd5b600067ffffffffffffffff821115613bbe57613bbd61381e565b5b613bc7826135d4565b9050602081019050919050565b82818337600083830152505050565b6000613bf6613bf184613ba3565b61387e565b905082815260208101848484011115613c1257613c11613b9e565b5b613c1d848285613bd4565b509392505050565b600082601f830112613c3a57613c39613819565b5b8135613c4a848260208601613be3565b91505092915050565b600060208284031215613c6957613c68613437565b5b600082013567ffffffffffffffff811115613c8757613c8661343c565b5b613c9384828501613c25565b91505092915050565b60008060408385031215613cb357613cb2613437565b5b6000613cc185828601613462565b925050602083013567ffffffffffffffff811115613ce257613ce161343c565b5b613cee85828601613c25565b9150509250929050565b613d01816136c9565b82525050565b6000602082019050613d1c6000830184613cf8565b92915050565b600081519050919050565b600082825260208201905092915050565b6000819050602082019050919050565b6000613d5a838361365f565b905092915050565b6000602082019050919050565b6000613d7a82613d22565b613d848185613d2d565b935083602082028501613d9685613d3e565b8060005b85811015613dd25784840389528151613db38582613d4e565b9450613dbe83613d62565b925060208a01995050600181019050613d9a565b50829750879550505050505092915050565b60006020820190508181036000830152613dfe8184613d6f565b905092915050565b6000608083016000830151613e1e60008601826134d0565b5060208301518482036020860152613e3682826135e5565b91505060408301518482036040860152613e508282613530565b91505060608301518482036060860152613e6a8282613530565b9150508091505092915050565b60006020820190508181036000830152613e918184613e06565b905092915050565b600082825260208201905092915050565b7f4368617420646f6573206e6f7420657869737421000000000000000000000000600082015250565b6000613ee0601483613e99565b9150613eeb82613eaa565b602082019050919050565b60006020820190508181036000830152613f0f81613ed3565b9050919050565b7f4e487b7100000000000000000000000000000000000000000000000000000000600052603260045260246000fd5b7f53656e646572206d757374206265206d75737420626520696e20636861742100600082015250565b6000613f7b601f83613e99565b9150613f8682613f45565b602082019050919050565b60006020820190508181036000830152613faa81613f6e565b9050919050565b7f4e487b7100000000000000000000000000000000000000000000000000000000600052602260045260246000fd5b60006002820490506001821680613ff857607f821691505b60208210810361400b5761400a613fb1565b5b50919050565b7f4e487b7100000000000000000000000000000000000000000000000000000000600052601160045260246000fd5b600061404b82613441565b91507fffffffffffffffffffffffffffffffffffffffffffffffffffffffffffffffff820361407d5761407c614011565b5b600182019050919050565b7f53656e646572206d757374206265206d75737420626520696e20636861742c2060008201527f6f722063686174207761732064656c6574656421000000000000000000000000602082015250565b60006140e4603483613e99565b91506140ef82614088565b604082019050919050565b60006020820190508181036000830152614113816140d7565b9050919050565b7f55736572206964206973206e6f7420666f756e64210000000000000000000000600082015250565b6000614150601583613e99565b915061415b8261411a565b602082019050919050565b6000602082019050818103600083015261417f81614143565b9050919050565b7f416c6c2075736572732061726520616c726561647920696e2063686174210000600082015250565b60006141bc601e83613e99565b91506141c782614186565b602082019050919050565b600060208201905081810360008301526141eb816141af565b9050919050565b6141fb8161363e565b82525050565b60008190508160005260206000209050919050565b6000815461422381613fe0565b61422d8186613e99565b94506001821660008114614248576001811461425e57614291565b60ff198316865281151560200286019350614291565b61426785614201565b60005b838110156142895781548189015260018201915060208101905061426a565b808801955050505b50505092915050565b60006060820190506142af60008301866141f2565b81810360208301526142c18185614216565b905081810360408301526142d58184614216565b9050949350505050565b7f5573657220646f6573206e6f7420657869737421000000000000000000000000600082015250565b6000614315601483613e99565b9150614320826142df565b602082019050919050565b6000602082019050818103600083015261434481614308565b9050919050565b600081905092915050565b60006143618261358e565b61436b818561434b565b935061437b8185602086016135aa565b80840191505092915050565b60006143938284614356565b915081905092915050565b7f5468697320757365726e616d6520697320616c72656164792074616b656e0000600082015250565b60006143d4601e83613e99565b91506143df8261439e565b602082019050919050565b60006020820190508181036000830152614403816143c7565b9050919050565b7f5573657220616c72656164792065786973747321000000000000000000000000600082015250565b6000614440601483613e99565b915061444b8261440a565b602082019050919050565b6000602082019050818103600083015261446f81614433565b9050919050565b60006020601f8301049050919050565b600082821b905092915050565b6000600883026144c37fffffffffffffffffffffffffffffffffffffffffffffffffffffffffffffffff82614486565b6144cd8683614486565b95508019841693508086168417925050509392505050565b6000819050919050565b600061450a61450561450084613441565b6144e5565b613441565b9050919050565b6000819050919050565b614524836144ef565b61453861453082614511565b848454614493565b825550505050565b600090565b61454d614540565b61455881848461451b565b505050565b5b8181101561457c57614571600082614545565b60018101905061455e565b5050565b601f8211156145c15761459281614201565b61459b84614476565b810160208510156145aa578190505b6145be6145b685614476565b83018261455d565b50505b505050565b600082821c905092915050565b60006145e4600019846008026145c6565b1980831691505092915050565b60006145fd83836145d3565b9150826002028217905092915050565b6146168261358e565b67ffffffffffffffff81111561462f5761462e61381e565b5b6146398254613fe0565b614644828285614580565b600060209050601f8311600181146146775760008415614665578287015190505b61466f85826145f1565b8655506146d7565b601f19841661468586614201565b60005b828110156146ad57848901518255600182019150602085019450602081019050614688565b868310156146ca57848901516146c6601f8916826145d3565b8355505b6001600288020188555050505b505050505050565b7f546578742073686f756c64206578697374210000000000000000000000000000600082015250565b6000614715601283613e99565b9150614720826146df565b602082019050919050565b6000602082019050818103600083015261474481614708565b9050919050565b7f53656e646572206d757374206265206d75737420626520696e2063686174206f60008201527f722063686174207761732064656c657465642100000000000000000000000000602082015250565b60006147a7603383613e99565b91506147b28261474b565b604082019050919050565b600060208201905081810360008301526147d68161479a565b9050919050565b60006147e88261358e565b6147f28185613e99565b93506148028185602086016135aa565b61480b816135d4565b840191505092915050565b600060608201905061482b60008301866141f2565b818103602083015261483d8185614216565b9050818103604083015261485181846147dd565b9050949350505050565b600061486682613441565b915061487183613441565b925082820390508181111561488957614888614011565b5b92915050565b7f4e487b7100000000000000000000000000000000000000000000000000000000600052603160045260246000fd5b600081546148cb81613fe0565b6148d5818661434b565b945060018216600081146148f0576001811461490557614938565b60ff1983168652811515820286019350614938565b61490e85614201565b60005b8381101561493057815481890152600182019150602081019050614911565b838801955050505b50505092915050565b600061494d82846148be565b915081905092915050565b7f546869732063686174206e616d6520697320616c72656164792074616b656e00600082015250565b600061498e601f83613e99565b915061499982614958565b602082019050919050565b600060208201905081810360008301526149bd81614981565b9050919050565b7f4d65737361676520646f6573206e6f7420657869737421000000000000000000600082015250565b60006149fa601783613e99565b9150614a05826149c4565b602082019050919050565b60006020820190508181036000830152614a29816149ed565b9050919050565b7f53656e646572206d757374206265206f776e6572206f6620746865206d65737360008201527f616765206f7220746865206d657373616765207761732064656c657465642100602082015250565b6000614a8c603f83613e99565b9150614a9782614a30565b604082019050919050565b60006020820190508181036000830152614abb81614a7f565b9050919050565b7f55736572206e6f7420666f756e64210000000000000000000000000000000000600082015250565b6000614af8600f83613e99565b9150614b0382614ac2565b602082019050919050565b60006020820190508181036000830152614b2781614aeb565b905091905056fea264697066735822122063aea1a015509d8e78e085a6025fbe7231664baae8d8ac3f77493e77eff5ebb564736f6c63430008110033",
  "immutableReferences": {},
  "source": "// SPDX-License-Identifier: GPL-3.0\r\npragma solidity >=0.7.0 <0.9.0;\r\n\r\ncontract Messenger {\r\n    struct User {\r\n        uint256 id;\r\n        uint256[] chatsId;\r\n        string username;\r\n        address userAddress;\r\n    }\r\n\r\n    struct Message {\r\n        uint256 id;\r\n        User owner;\r\n        string text;\r\n        uint256 changedAt;\r\n        bool isChanged;\r\n    }\r\n\r\n    struct Chat {\r\n        uint256 id;\r\n        string chatName;\r\n        uint256[] usersId;\r\n        uint256[] messagesId;\r\n    }\r\n\r\n    mapping(string => bool) private _isUsernameTaken;\r\n    mapping(string => bool) private _isChatNameTaken;\r\n    mapping(address => bool) private _isAddressTaken;\r\n\r\n    uint256 private _numberOfUsers;\r\n    uint256 private _numberOfChats;\r\n    uint256 private _numberOfMessages;\r\n\r\n    User[] private _userArray;\r\n    Chat[] private _chatArray;\r\n    Message[] private _messageArray;\r\n\r\n    //EVENTS============================================\r\n\r\n    event UsersChanged();\r\n    event ChatsChanged();\r\n    event MessagesChanged();\r\n\r\n    event newMessageEvent(\r\n        address senderAddress,\r\n        string senderUsername,\r\n        string message\r\n    );\r\n    event newChatEvent(\r\n        address senderAddress,\r\n        string senderUsername,\r\n        string chatName\r\n    );\r\n\r\n    //USER==============================================\r\n\r\n    function doesUserExist() public view returns (bool) {\r\n        if (_isAddressTaken[msg.sender]) {\r\n            return true;\r\n        }\r\n\r\n        return false;\r\n    }\r\n\r\n    function createUser(string memory username) external {\r\n        require(!_isUsernameTaken[username], 'This username is already taken');\r\n        require(!_isAddressTaken[msg.sender], 'User already exists!');\r\n\r\n        _userArray.push(\r\n            User({\r\n        id : _numberOfUsers,\r\n        chatsId : new uint256[](0),\r\n        username : username,\r\n        userAddress : msg.sender\r\n        })\r\n        );\r\n\r\n        _isUsernameTaken[username] = true;\r\n\r\n        _numberOfUsers++;\r\n\r\n        _isAddressTaken[msg.sender] = true;\r\n        emit UsersChanged();\r\n    }\r\n\r\n    function getCurrentUser() external view returns (User memory) {\r\n        require(!_isAddressTaken[msg.sender], 'User does not exist!');\r\n        uint256 senderId = _getUserIdByAddress();\r\n\r\n        return _userArray[senderId];\r\n    }\r\n\r\n    function getAllUsers() external view returns (User[] memory) {\r\n        return _userArray;\r\n    }\r\n\r\n    //CHAT==============================================\r\n\r\n    function createChat(string memory chatName) external {\r\n        require(bytes(chatName).length != 0, 'Text should exist!');\r\n        require(!_isChatNameTaken[chatName], 'This chat name is already taken');\r\n\r\n        uint256 senderId = _getUserIdByAddress();\r\n\r\n        _chatArray.push(\r\n            Chat({\r\n        id : _numberOfChats,\r\n        chatName : chatName,\r\n        usersId : new uint256[](0),\r\n        messagesId : new uint256[](0)\r\n        })\r\n        );\r\n\r\n        _chatArray[_numberOfChats].usersId.push(senderId);\r\n        _userArray[senderId].chatsId.push(_numberOfChats);\r\n\r\n        _isChatNameTaken[chatName] = true;\r\n\r\n        _numberOfChats++;\r\n\r\n        emit ChatsChanged();\r\n    }\r\n\r\n    function addUsersToChat(uint256 chatId, uint256[] memory newUsersId)\r\n    external\r\n    {\r\n        uint256 senderId = _getUserIdByAddress();\r\n        bool isAnyUserAdded = false;\r\n\r\n        require(_chatArray.length > chatId, 'Chat does not exist!');\r\n        require(\r\n            _isIndexInArray(_chatArray[chatId].usersId, senderId),\r\n            'Sender must be must be in chat, or chat was deleted!'\r\n        );\r\n\r\n        //check if newUserId array is valid\r\n        for (uint256 i = 0; i < newUsersId.length; i++) {\r\n            bool isUserFound = false;\r\n\r\n            for (uint256 j = 0; j < _userArray.length; j++) {\r\n                if (newUsersId[i] == _userArray[j].id) {\r\n                    isUserFound = true;\r\n                }\r\n            }\r\n\r\n            require(isUserFound, 'User id is not found!');\r\n            isUserFound = false;\r\n        }\r\n\r\n        for (uint256 i = 0; i < newUsersId.length; i++) {\r\n            bool isUserInChat = _isIndexInArray(\r\n                _chatArray[chatId].usersId,\r\n                newUsersId[i]\r\n            );\r\n\r\n            if (!isUserInChat) {\r\n                _chatArray[chatId].usersId.push(newUsersId[i]);\r\n                _userArray[newUsersId[i]].chatsId.push(chatId);\r\n\r\n                isAnyUserAdded = true;\r\n            }\r\n        }\r\n\r\n        if (!isAnyUserAdded) {\r\n            revert('All users are already in chat!');\r\n        }\r\n\r\n        emit UsersChanged();\r\n        emit ChatsChanged();\r\n        emit newChatEvent(\r\n            msg.sender,\r\n            _userArray[senderId].username,\r\n            _chatArray[chatId].chatName\r\n        );\r\n    }\r\n\r\n    function getChat(uint256 chatId) external view returns (Chat memory) {\r\n        uint256 senderId = _getUserIdByAddress();\r\n\r\n        require(_chatArray.length > chatId, 'Chat does not exist!');\r\n        require(\r\n            _isIndexInArray(_chatArray[chatId].usersId, senderId),\r\n            'Sender must be must be in chat, or chat was deleted!'\r\n        );\r\n\r\n        return _chatArray[chatId];\r\n    }\r\n\r\n    function getAllUserChats() external view returns (Chat[] memory) {\r\n        uint256 senderId = _getUserIdByAddress();\r\n\r\n        Chat[] memory newUserChats = new Chat[](\r\n            _userArray[senderId].chatsId.length\r\n        );\r\n        uint256 userChatsIdx;\r\n\r\n        for (uint256 i = 0; i < _userArray[senderId].chatsId.length; i++) {\r\n            newUserChats[userChatsIdx] = _chatArray[_userArray[senderId].chatsId[i]];\r\n            userChatsIdx++;\r\n        }\r\n\r\n        return newUserChats;\r\n    }\r\n\r\n    function getAllUsersInChat(uint256 chatId)\r\n    external\r\n    view\r\n    returns (User[] memory)\r\n    {\r\n        uint256 senderId = _getUserIdByAddress();\r\n\r\n        require(_chatArray.length > chatId, 'Chat does not exist!');\r\n        require(\r\n            _isIndexInArray(_chatArray[chatId].usersId, senderId),\r\n            'Sender must be must be in chat!'\r\n        );\r\n\r\n        User[] memory newUsers = new User[](_chatArray[chatId].usersId.length);\r\n        uint256 userIdx;\r\n\r\n        for (uint256 i = 0; i < _userArray.length; i++) {\r\n            bool isUserInChat = _isIndexInArray(\r\n                _chatArray[chatId].usersId,\r\n                _userArray[i].id\r\n            );\r\n\r\n            if (isUserInChat) {\r\n                newUsers[userIdx] = _userArray[i];\r\n                userIdx++;\r\n            }\r\n        }\r\n\r\n        return newUsers;\r\n    }\r\n\r\n    function leaveChat(uint256 chatId) external {\r\n        uint256 senderId = _getUserIdByAddress();\r\n\r\n        require(_chatArray.length > chatId, 'Chat does not exist!');\r\n        require(\r\n            _isIndexInArray(_chatArray[chatId].usersId, senderId),\r\n            'Sender must be must be in chat!'\r\n        );\r\n\r\n        //Erase user from chat\r\n        for (uint256 i; i < _chatArray[chatId].usersId.length; i++) {\r\n            if (_chatArray[chatId].usersId[i] == senderId) {\r\n                _chatArray[chatId].usersId[i] = _chatArray[chatId].usersId[\r\n                _chatArray[chatId].usersId.length - 1\r\n                ];\r\n                _chatArray[chatId].usersId.pop();\r\n            }\r\n        }\r\n\r\n        //Erase chat from user\r\n        for (uint256 i; i < _userArray[senderId].chatsId.length; i++) {\r\n            if (_userArray[senderId].chatsId[i] == chatId) {\r\n                _userArray[senderId].chatsId[i] = _userArray[senderId].chatsId[\r\n                _userArray[senderId].chatsId.length - 1\r\n                ];\r\n                _userArray[senderId].chatsId.pop();\r\n            }\r\n        }\r\n\r\n        //Erease chat and messages if no users\r\n        if (_chatArray[chatId].usersId.length == 0) {\r\n            for (uint256 i; i < _messageArray.length; i++) {\r\n                bool isMessageInChatsId = _isIndexInArray(\r\n                    _chatArray[chatId].messagesId,\r\n                    _messageArray[i].id\r\n                );\r\n\r\n                if (isMessageInChatsId) {\r\n                    delete _messageArray[i];\r\n                }\r\n            }\r\n\r\n            _isChatNameTaken[_chatArray[chatId].chatName] = false;\r\n            delete _chatArray[chatId];\r\n\r\n            emit MessagesChanged();\r\n        }\r\n\r\n        emit UsersChanged();\r\n        emit ChatsChanged();\r\n    }\r\n\r\n    //MESSAGE===========================================\r\n\r\n    function createMessage(uint256 chatId, string memory text) external {\r\n        require(bytes(text).length != 0, 'Text should exist!');\r\n        require(_chatArray.length > chatId, 'Chat does not exist!');\r\n\r\n        uint256 senderId = _getUserIdByAddress();\r\n\r\n        require(\r\n            _isIndexInArray(_chatArray[chatId].usersId, senderId),\r\n            'Sender must be must be in chat or chat was deleted!'\r\n        );\r\n\r\n        _messageArray.push(\r\n            Message({\r\n        id : _numberOfMessages,\r\n        owner : _userArray[senderId],\r\n        text : text,\r\n        changedAt : block.timestamp,\r\n        isChanged : false\r\n        })\r\n        );\r\n\r\n        _chatArray[chatId].messagesId.push(_numberOfMessages);\r\n\r\n        _numberOfMessages++;\r\n\r\n        emit ChatsChanged();\r\n        emit MessagesChanged();\r\n        emit newMessageEvent(msg.sender, _userArray[senderId].username, text);\r\n    }\r\n\r\n    function changeMessage(uint256 messageId, string memory text) external {\r\n        uint256 senderId = _getUserIdByAddress();\r\n\r\n        require(_messageArray.length > messageId, 'Message does not exist!');\r\n        require(\r\n            senderId == _messageArray[messageId].owner.id,\r\n            'Sender must be owner of the message or the message was deleted!'\r\n        );\r\n        require(bytes(text).length != 0, 'Text should exist!');\r\n\r\n        _messageArray[messageId] = Message({\r\n        id : _messageArray[messageId].id,\r\n        text : text,\r\n        changedAt : block.timestamp,\r\n        owner : _messageArray[messageId].owner,\r\n        isChanged : true\r\n        });\r\n\r\n        emit MessagesChanged();\r\n    }\r\n\r\n    function getAllMessagesInChat(uint256 chatId)\r\n    external\r\n    view\r\n    returns (Message[] memory)\r\n    {\r\n        uint256 senderId = _getUserIdByAddress();\r\n\r\n        require(_chatArray.length > chatId, 'Chat does not exist!');\r\n        require(\r\n            _isIndexInArray(_chatArray[chatId].usersId, senderId),\r\n            'Sender must be must be in chat!'\r\n        );\r\n\r\n        Message[] memory newMessageArray = new Message[](\r\n            _chatArray[chatId].messagesId.length\r\n        );\r\n        uint256 messagesIdx;\r\n\r\n        for (uint256 i = 0; i < _messageArray.length; i++) {\r\n            bool isMessageInChatsId = _isIndexInArray(\r\n                _chatArray[chatId].messagesId,\r\n                _messageArray[i].id\r\n            );\r\n\r\n            if (isMessageInChatsId) {\r\n                newMessageArray[messagesIdx] = _messageArray[i];\r\n\r\n                messagesIdx++;\r\n            }\r\n        }\r\n\r\n        return newMessageArray;\r\n    }\r\n\r\n    function deleteMessage(uint256 messageId) external {\r\n        require(_messageArray.length > messageId, 'Message does not exist!');\r\n\r\n        delete _messageArray[messageId];\r\n\r\n        emit MessagesChanged();\r\n    }\r\n\r\n    //UTILS=============================================\r\n\r\n    function _getUserIdByAddress() private view returns (uint256) {\r\n        for (uint256 i = 0; i < _userArray.length; i++) {\r\n            if (_userArray[i].userAddress == msg.sender) {\r\n                return _userArray[i].id;\r\n            }\r\n        }\r\n\r\n        revert('User not found!');\r\n    }\r\n\r\n    function _isIndexInArray(uint256[] memory arr, uint256 searchedIdx)\r\n    private\r\n    pure\r\n    returns (bool)\r\n    {\r\n        for (uint256 i = 0; i < arr.length; i++) {\r\n            if (arr[i] == searchedIdx) {\r\n                return true;\r\n            }\r\n        }\r\n\r\n        return false;\r\n    }\r\n}\r\n",
  "sourcePath": "C:\\Users\\anze1\\webdev\\web3\\projects\\eth_web3_messenger_extension\\contracts\\Messenger.sol",
  "compiler": {
    "name": "solc",
    "version": "0.8.17+commit.8df45f5f.Emscripten.clang"
  },
  "schemaVersion": "3.4.11",
  "updatedAt": "2023-02-09T13:02:12.786Z",
  "networkType": "ethereum",
  "devdoc": {
    "kind": "dev",
    "methods": {},
    "version": 1
  },
  "userdoc": {
    "kind": "user",
    "methods": {},
    "version": 1
  }
}